:020000040800F2
:10000000E84000206901000895180008B10B0008BD
:1000100000000000000000000000000000000000E0
:10002000000000000000000000000000DD180008D3
:10003000000000000000000099180008F9180008EE
:100040007B0100087B0100087B0100087B010008A0
:100050007B0100087B0100087B0100087B01000890
:100060007B0100087B0100087B0100087B01000880
:100070007B0100087B0100087B0100087B01000870
:100080007B0100087B0100087B0100087B01000860
:100090007B0100087B0100087B0100087B01000850
:1000A0007B0100087B0100087B010008B9190008EA
:1000B000151A00087B0100087B0100087B0100087D
:1000C0007B0100087B0100087B0100087B01000820
:1000D0007B0100087B010008000000007B01000894
:1000E0007B0100087B0100087B0100087B01000800
:1000F0000000000000000000000000007B0100087C
:1001000000000000000000000000000000000000EF
:100110000000000000000000000000007B0100085B
:100120007B0100087B0100087B0100087B010008BF
:100130007B0100087B0100087B0100087B010008AF
:100140007B0100087B0100087B0100087B0100089F
:100150007B0100080348854600F0DCFB00480047AF
:100160002D290008E8400020044880470448004743
:10017000FEE7FEE7FEE7FEE7FEE7FEE725190008DB
:100180005501000803460B439B0703D009E008C94B
:10019000121F08C0042AFAD203E00B780370401C37
:1001A000491C521EF9D27047D2B201E00270401CC5
:1001B000491EFBD270470022F6E710B513460A46E7
:1001C00004461946FFF7F0FF204610BD30B505463E
:1001D0002A460B4610781C78521C5B1C002801D064
:1001E000A042F7D0002C03D0002802D06D1CEFE70E
:1001F000284630BDF8B502464A40D40F42004B00B5
:1002000052085B089A4202D20246084611464A004A
:1002100023D0C30D4A00DDB2120EAD1A202D35DAFF
:1002200049020126490AF6058A19002C00D05242DB
:1002300020214F1B1146B9402A411018C20D9A4285
:1002400021D0002C17D0012D08DCDA05801AD20F3E
:100250008019D207DBB200F024F9F8BDDA05801A64
:10026000012340001B06C01880185A428018CA0F8C
:100270001043490007E04908C2071143DA05801A14
:1002800080194008801800F004F9F8BD61000122CF
:10029000511A001BF7E70122D2075140AAE70122B9
:1002A000D2075040A6E7024670B54A40D30FDB079D
:1002B00040002DD04A002AD0010E140E0002120276
:1002C0000919400A520A8418E50104465443000AF9
:1002D000120A2E045043A4194219200CC543AA182F
:1002E000120C0125AD03521C521912047F3924044B
:1002F00000D0521C104301D44000491EC2B20C066B
:10030000C0092018401C4008802A02D003E00020C9
:1003100070BD40084000002900DA0020184370BD7D
:1003200070B502464A40D50F40004A00ED0740082C
:100330005208002814D0002A12D0C40DD30D410257
:100340000120C0055202490A520AE41A091812187B
:100350007D34914201D3641C00E04900002C01DA95
:10036000002070BD0023914201D3891A0343400845
:1003700049000028F7D100290AD0914202D1012179
:10038000C90705E0914201D2012101E00121C943E1
:10039000E005C018401900F07CF870BD0122D207BA
:1003A000002800DB101A002900DB511A814201D815
:1003B00001207047002070470122D207002800DB8F
:1003C000101A002900DB511A814201D30120704725
:1003D0000020704710B500229623114600F061F806
:1003E00010BD410040020122400AD205090E8018CA
:1003F0007F2901DA00207047962903DC9622511AE2
:10040000C8407047963988407047C20FD2074000F5
:1004100040080BD0C10D0723DB01C91840020905B4
:10042000400A1143C20840071143704700200146AB
:100430007047F0B51FB40646002082B00546402440
:10044000019100901BE0019922460F46304600F0D2
:10045000A8FA049A059B801A994110D310461946B0
:10046000224600F08EFA361A8F410197224601206B
:100470000021009F00F085FA38184D410090204679
:10048000641E0028DFDC019B00982946324607B035
:10049000F0BD002904DA401C490001D140084000A9
:1004A000704770B40024050C05D11024000402D15B
:1004B000002921D01124050E01D100020834050FB6
:1004C00001D10001241D850F01D18000A41C00284A
:1004D00001DB4000641C002908D020252E1B0D469E
:1004E000F540A14000D001212943084301061B1B10
:1004F000000ADB1D02D5002070BC7047DB05181810
:1005000080180029F8DA401C4900F5D170BC400879
:100510004000704710B541000DD04100090E9629EA
:1005200009DC7E290ADC07DB410205D0C00F7F21F0
:10053000C007C905401810BD002010BD9622541AEE
:1005400020210A1B01469140E040FFF7A2FFA04096
:1005500010BD0000F0B507460846584087B0C00FF0
:10056000049048000E46590040084908BC1A8841CA
:1005700005D2384631461E4617460B4602465800FD
:10058000400810434CD0300D039040055900400DF9
:10059000490D0590401A0290402872DA1803012193
:1005A000000B09050843019004980092002805D02B
:1005B0000199524200208841009201900298402106
:1005C0000A1A0199009800F0DCF905460C466B46C2
:1005D00007CB00F0F7F9C0197141039A0E0D002303
:1005E000D71756401A467A40164344D0049A002A38
:1005F0002DD0029A012A039A15DC1205C01A9141E6
:1006000001263605001C7141D20F059ED2070093CA
:10061000019202962A46234600F000FA07B0F0BD88
:1006200038463146FAE71605224A0F46B218C01A74
:10063000B74101210905001C4F4100187F411146B7
:1006400018187941E20F10436D19644113E0E20775
:100650006D0815436408C2071443039A0126120566
:10066000C01A91413605001C7141CE074008304345
:100670004908C01851412A46234600F0C2F9CDE787
:10068000FFE7049801224000C117121A00238B4192
:1006900004983146C417381AA141EEE730B401245A
:1006A000E407634030BC55E730B40124E4076140FF
:1006B00030BC4FE70000E0FFF0B51FB488B00B99E5
:1006C0000998002448400999C00F49004908099138
:1006D000C0070B990090490049080B9109990898A7
:1006E000A64608431CD00B990A98084318D00998CD
:1006F00001244000420D4800410D099824050003E3
:10070000000B204309900B980003000B20430B9033
:1007100050181C494018002201901446104605E06C
:10072000002001460DB0F0BD032801DA034600E0C9
:1007300003239C46C11A0AAE0AE05F0008ADED5BD8
:100740004F00F75B7D430027AA187C41491C5B1EC4
:100750006145F2DD410004AB5A522104120C0A43F8
:10076000240C401C0828DFDB019802900099704699
:1007700001910090059B049A0799069800F04EF9A4
:10078000D0E700000DFCFFFFF0B50C465C4085B0E3
:10079000E40FE40703944C000026640859009446D3
:1007A000490802460296224321D062460A431ED0DF
:1007B0006200570D4A000E032303550D0124024623
:1007C0002C492405781B1B0B360B4018234326436A
:1007D000614600901C46501AB44103D30098401C57
:1007E000009002E0921800985B41002803DA002094
:1007F000014605B0F0BD00200121090507468646E7
:1008000011E064461D46141BB54106D36546521BD4
:10081000B341744607430C43A646CD074008490838
:10082000284392185B4105460D43EAD11046184310
:1008300013D06046194650407140084306D06046C8
:10084000101AB34106D20122002306E00022012340
:10085000DB0702E00122D2435310009874460105E1
:10086000381C6141029C039D0019694100F0C9F8E0
:10087000BFE70000FD030000C20F4100400201235A
:10088000400ADB05D207090EC0187F2901DA0020D3
:100890007047962903DC9623591AC84001E096391F
:1008A0008840002AF4D04042704700004A00090303
:1008B0000123090B1B0519430A4B10B5520D9A422F
:1008C00002DA0020014610BD064B34339A4203DCA5
:1008D0009A1A00F066F810BD034BD21800F051F8D8
:1008E00010BD0000FF030000CDFBFFFF10B5002985
:1008F00004DB0124E40740428C412146002B04DB49
:100900001C460123DB075242A341994200D1904289
:1009100010BD00001CB5094800900948019005462B
:100920000126009C05E0E36807CC33430C3C984764
:100930001034AC42F7D3FFF711FC0000F887000831
:100940001888000870B50446002903D00020202232
:10095000012310E0002801D00020C043C046C0465B
:100960000DE02546D5408D4205D30D469540641BCC
:100970001D46954040191546521E002DF1DC2146BA
:1009800070BD10B5202A04DB0146203A91400020BA
:1009900010BD914020239C1A0346E3401943904028
:1009A00010BD10B5202A04DB0846203AD0400021B3
:1009B00010BD0B46D340D0402024A21A91400843DA
:1009C000194610BD10B5202A06DBCB170846203A81
:1009D0001041C1170B4306E00B461341D0402024C1
:1009E000A21A91400843194610BD420005D04200AA
:1009F000120E52428A4201DB00207047C9050818D6
:100A0000704710B5002B08DA0024401C6141921891
:100A10005B411A4301D14008400010BDF0B51FB43E
:100A200082B005460C0003D0084606F0BDF902E08E
:100A300006F0BAF920300246009021462846FFF71A
:100A4000A0FF049B059A04460F4618431143084330
:100A500014D0184610431BD0009840210A1A18469B
:100A60000599FFF79EFF05460E46009A05990498E2
:100A7000FFF787FF084305D0012004E020463946F0
:100A800007B0F0BD0020C11705430E432C43374388
:100A900000990E986305401A7905E40A00220C4378
:100AA000FD0A0A3002D500200146E9E701051019C8
:100AB00069410C9C0D9D00196941FFF7A2FFDFE71A
:100AC000C217C10F504010B54018CA079623002125
:100AD000FFF7E7FC10BD000080B5A8B040F2F410AD
:100AE0001690FFE71698411E169168B3FFE704F0D1
:100AF00057FC014615A801800088012820DBFFE78C
:100B000017A801904021FFF756FB01983F2104F000
:100B10004BFC0246019814A90A800A8800218154DE
:100B20002149FFF753FB50B1FFE7204817A906F012
:100B30000DF904F031FC27A9012008702BE0FFE734
:100B4000012001F025FBCDE704F02AFC014613A8A3
:100B500001800088012816DBFFE703A800904021F0
:100B6000FFF729FB00983F2104F01EFC0099024684
:100B700002A802800288002088540A4806F0E6F89D
:100B800004F00AFC03E0064806F0E0F8FFE727A9B6
:100B900000200870FFE727A8007828B080BDC04675
:100BA000EE8000087686000874870008DD8700085C
:100BB000FFE7FEE780B5FFE7174840F2001101F0BC
:100BC0005DFDFFE7054806F0C1F840F2F41001F0C2
:100BD000DFFA16490020087080BDC0460581000874
:100BE00080B5FFE70C4840F2001101F03FFDFFE740
:100BF0000A4806F0ABF80A4800F01EFE20B9FFE7ED
:100C0000084806F0A3F803E0074806F09FF8FFE75E
:100C100006490120087080BD00040048EB820008EE
:100C200088130000538300085881000860000020EA
:100C3000F0B5DFB05EA91591002010900870C7488C
:100C400004F0A0F9C64804F09DF90920C0060F90F1
:100C500007210E910422119201F0A8FC0E990F9821
:100C60000822129201F0A2FC0F98022101220C230B
:100C700001F021FD0F981099119B0322139201F0AE
:100C800061FDB848149004F07BFC1498E1214902FE
:100C900004F0F6FB1099149804F08FFD1099149845
:100CA00004F067FD1099149804F03FFD1199149811
:100CB00004F050FD1299149804F070FD149804F09B
:100CC000ABFC13991C2002F06FFA1498052104F074
:100CD000CAFC00F0D3FEFFF76DFF159914200870D1
:100CE000FFE75EA80078002848D0FFE704F054FB37
:100CF0005CA9002008719C495C915B90FFE75B98C0
:100D0000032813D8FFE7FFE79648A94904F08DFCB4
:100D100008B9FFE7F8E75B995CA8415C914804F0EB
:100D200023FCFFE75B98401C5B90E8E740F22C1047
:100D300001F02EFA04F034FB014652A8018000882D
:100D4000012812DBFFE753A80D90202104F02CFBB3
:100D50000D988749FFF73AFA30B1FFE704F01CFB22
:100D6000844805F0F3FF09E003E0804805F0EEFF5A
:100D7000FFE75E98401E5EA90870B2E75EA80078A3
:100D800060B9FFE77C4805F0E1FFFFE77B4805F02D
:100D9000DDFF40F2E83001F0FBF9F7E7784805F0B5
:100DA000D5FF4FA900200C908872764808817648BC
:100DB000509076484F9004F0EFFA0C984E90FFE771
:100DC0004E98092813D8FFE7FFE7F148F14904F0EE
:100DD0002CFC08B9FFE7F8E74E994FA8415CEC48B6
:100DE00004F0C2FBFFE74E98401C4E90E8E740F24B
:100DF000F41001F0CDF904F0D3FA01464DA80180BA
:100E00000088012814DBFFE73DA80B904021FFF785
:100E1000D2F90B983F2104F0FDFA0B9902463CA849
:100E200002800288002088545A4805F08FFF03E0B2
:100E3000574805F08BFFFFE739A90A20088156487B
:100E40003A905648399004F0A7FA00203890FFE70E
:100E50003898082813D8FFE7FFE7CD48CD4904F0BC
:100E6000E4FB08B9FFE7F8E7389939A8415CFD4889
:100E700004F07AFBFFE73898401C3890E8E740F22E
:100E8000F41001F085F904F08BFA014637A80180CF
:100E90000088012814DBFFE717A80A908021FFF7DC
:100EA0008AF90A987F2104F0B5FA0A99024616A831
:100EB00002800288002088543A4805F047FF03E08A
:100EC000374805F043FFFFE7374805F03FFF0B20A9
:100ED000069000F065F96420059001F059F90020B2
:100EE000079000F091FA059801F052F91720089048
:100EF00000F022FA059801F04BF90320099000F068
:100F0000EBFA059801F044F90524204600F026FC90
:100F1000059801F03DF90125284600F0B5FB05983C
:100F200001F036F90426304600F044FB059801F044
:100F30002FF90727384600F09BF90699079A089B76
:100F4000099804970396029501940090174805F0BC
:100F5000FDFEFFF745FE5FB0F0BDC0461107000083
:100F6000110500000044004041540D0A4C82000865
:100F70007487000869840008BA800008D6800008D9
:100F80006C8200080D0A00004444523F41542B413A
:100F900008870008BD86000846473F0D41542B4393
:100FA000F0860008A986000892820008548500088F
:100FB0000707000080B5CAB04890479146920020CC
:100FC0004590489838B1FFE7479820B1FFE7479828
:100FD000008820B9FFE749A90220087054E0FFE724
:100FE0004598469988424BD2FFE704F0D9F901466B
:100FF00044A80180008801283BDBFFE704A840F2F9
:10100000001104F007FA014603A8018000880328B4
:101010002EDBFFE70398C11E02A8018000884799D4
:101020000988884205DDFFE74798008802A9088003
:10103000FFE701A900200880FFE701A8008802A9B6
:10104000098888420DDAFFE701A8028804A8101871
:10105000C07848998854FFE70198401C01A908808E
:10106000EBE702984799088049A9002008700BE037
:10107000FFE7012001F08CF84598401C4590AFE750
:1010800049A901200870FFE749A800784AB080BD4F
:1010900010B58AB004920A4601460498099108A93D
:1010A0000A8007AA108006A80370098812880378AE
:1010B000354805F04BFE354805F048FEFFE7CE48C1
:1010C000CE4904F0B2FA08B9FFE7F8E707A80390A1
:1010D0004178C94804F048FA039841782E4805F051
:1010E00035FEFFE7C448C54904F09FFA08B9FFE799
:1010F000F8E707A802900178F34804F035FA02985F
:101100000178254805F022FEFFE7EF48EF4904F09B
:101110008CFA08B9FFE7F8E706A801900178EA48D9
:1011200004F022FA019801781B4805F00FFE05A98A
:1011300000200880FFE705A8008808A909888842E0
:101140001CDAFFE7099805A90988415C124805F0F7
:10115000FDFDFFE7DC48DD4904F067FA08B9FFE769
:10116000F8E7099805A90988415CD74804F0FCF91B
:10117000FFE70598401C05A90880DCE7074805F053
:10118000E5FD0AB010BDC04628810008528700085E
:1011900000440040070700009D7E00081E870008ED
:1011A00080B58AB008A90091088004F0F5F800988D
:1011B0000088020AC3B22A4903A8019005F0D6FDAF
:1011C0000199F64805F0C2FD00200290FFE7029960
:1011D00003A8405C98B1FFE7FFE7F148F14904F04C
:1011E00024FA08B9FFE7F8E7029903A8415CEC4844
:1011F00004F0BAF9FFE70298401C0290E7E7FFE726
:10120000E748E84904F011FA08B9FFE7F8E7E448CD
:101210000D2104F0A9F9FFE7E148E24904F005FADD
:1012200008B9FFE7F8E7DE480A2104F09DF9FFF767
:1012300053FC48B1FFE708A801880C4805F086FD7B
:1012400009A90120087006E0074805F07FFD09A9FB
:1012500000200870FFE709A800780AB080BDC046EA
:1012600077870008004400401F8600087684000845
:1012700080B58AB008A90091087004F08DF8009834
:1012800002782A4903A8019005F070FD0199F948F8
:1012900005F05CFD00200290FFE7029903A8405C86
:1012A00098B1FFE7FFE7F448F44904F0BEF908B944
:1012B000FFE7F8E7029903A8415CEF4804F054F90E
:1012C000FFE70298401C0290E7E7FFE7EA48EB4996
:1012D00004F0ABF908B9FFE7F8E7E7480D2104F09F
:1012E00043F9FFE7E448E54904F09FF908B9FFE74F
:1012F000F8E7E1480A2104F037F9FFF7EDFB48B1C0
:10130000FFE708A801780B4805F020FD09A9012096
:10131000087006E0064805F019FD09A900200870CC
:10132000FFE709A800780AB080BDC046D38700084F
:10133000488600083F85000880B58AB008A900915A
:10134000087004F029F8009802782A4903A801904F
:1013500005F00CFD0199FC4805F0F8FC0020029016
:10136000FFE7029903A8405C98B1FFE7FFE7F74861
:10137000F74904F05AF908B9FFE7F8E7029903A81A
:10138000415CF24804F0F0F8FFE70298401C02903C
:10139000E7E7FFE7ED48EE4904F047F908B9FFE752
:1013A000F8E7EA480D2104F0DFF8FFE7E748E849ED
:1013B00004F03BF908B9FFE7F8E7E4480A2104F034
:1013C000D3F8FFF789FB48B1FFE708A801780D487B
:1013D00005F0BCFC09A90120087006E0084805F0EA
:1013E000B5FC09A900200870FFE709A800780AB039
:1013F00080BDC046BD8700080044004007070000CC
:101400000C8600081385000880B58AB008A90091F1
:10141000087003F0C1FF009802782A4903A80190E0
:1014200005F0A4FC0199FE4805F090FC0020029014
:10143000FFE7029903A8405C98B1FFE7FFE7F9488E
:10144000F94904F0F2F808B9FFE7F8E7029903A8B0
:10145000415CF44804F088F8FFE70298401C0290D1
:10146000E7E7FFE7EF48F04904F0DFF808B9FFE7E6
:10147000F8E7EC480D2104F077F8FFE7E948EA497E
:1014800004F0D3F808B9FFE7F8E7E6480A2104F0CA
:101490006BF8FFF721FB48B1FFE708A801780D487A
:1014A00005F054FC09A90120087006E0084805F081
:1014B0004DFC09A900200870FFE709A800780AB0D0
:1014C00080BDC0468987000800440040070700002F
:1014D000B4850008B384000880B58AB008A90091DB
:1014E000087003F059FF009802782B4903A8019077
:1014F00005F03CFC0199CA4805F028FC0020029048
:10150000FFE7029903A8405C98B1FFE7FFE7C548F1
:10151000C54904F08AF808B9FFE7F8E7029903A87B
:10152000415CC04804F020F8FFE70298401C02909C
:10153000E7E7FFE7BB48BC4904F077F808B9FFE7E5
:10154000F8E7B8480D2104F00FF8FFE7B548B649B1
:1015500004F06BF808B9FFE7F8E7B2480A2104F095
:1015600003F8FFF7B9FA60B1FFE708A801780F4860
:1015700005F0ECFB08980E49087009A901200870D5
:1015800006E0094805F0E2FB09A900200870FFE722
:1015900009A800780AB080BDAE87000897860008C9
:1015A0000044004007070000F4850008F9840008A3
:1015B0000C00002080B58AB008A90091087003F0E3
:1015C000EBFE009802782A4903A8019005F0CEFBB3
:1015D0000199934805F0BAFB00200290FFE70299B9
:1015E00003A8405C98B1FFE7FFE78E488E4904F0FE
:1015F0001CF808B9FFE7F8E7029903A8415C89489D
:1016000003F0B2FFFFE70298401C0290E7E7FFE714
:101610008448854904F009F808B9FFE7F8E78148EC
:101620000D2103F0A1FFFFE77E487F4903F0FDFF96
:1016300008B9FFE7F8E77B480A2103F095FFFFF7B9
:101640004BFA48B1FFE708A801780E4805F07EFB89
:1016500009A90120087006E0094805F077FB09A9EF
:1016600000200870FFE709A800780AB080BDC046D6
:10167000C78700089786000800440040070700005D
:10168000338600082885000880B58AB008A9009133
:10169000087003F081FE009802782A4903A801909F
:1016A00005F064FB01995E4805F050FB00200290B4
:1016B000FFE7029903A8405C98B1FFE7FFE7EB481A
:1016C000594903F0B2FF08B9FFE7F8E7029903A808
:1016D000415CE64803F048FFFFE70298401C029097
:1016E000E7E7FFE7E148504903F09FFF08B9FFE74C
:1016F000F8E7DE480D2103F037FFFFE7DB484A49F2
:1017000003F093FF08B9FFE7F8E7D8480A2103F090
:101710002BFFFFF7E1F948B1FFE708A801780E4871
:1017200005F014FB09A90120087006E0094805F03E
:101730000DFB09A900200870FFE709A800780AB08E
:1017400080BDC04695870008978600080044004089
:1017500007070000C9850008CA84000880B58AB060
:1017600008A90091087003F017FE009802782B4931
:1017700003A8019005F0FAFA0199294805F0E6FA64
:1017800000200290FFE7029903A8405C98B1FFE7B0
:10179000FFE7B648244903F048FF08B9FFE7F8E738
:1017A000029903A8415CB14803F0DEFEFFE702980E
:1017B000401C0290E7E7FFE7AC481B4903F035FF08
:1017C00008B9FFE7F8E7A9480D2103F0CDFEFFE7D0
:1017D000A648154903F029FF08B9FFE7F8E7A34831
:1017E0000A2103F0C1FEFFF777F960B1FFE708A80F
:1017F00001780F4805F0AAFA08980E49087009A95F
:101800000120087006E0094805F0A0FA09A90020A7
:101810000870FFE709A800780AB080BDA18700081A
:10182000978600080044004007070000DE85000896
:10183000E18400080D00002080B582B00090FFE731
:101840000098411E009178B1FFE7A04840F20021C6
:1018500000F01CFF20B1FFE701A90120087012E091
:10186000012000F095FCEBE7984840F2002100F0E1
:101870000DFF0146481E8141054805F067FA01A9A0
:1018800000200870FFE701A8007802B080BDC046C4
:10189000D286000870470000EFF309800E4A1168F5
:1018A0002838086000227346FCC044464D46564620
:1018B0005F46F0C072B604F0EFFA62B6064A1168ED
:1018C00008681830F0C8A046A946B246BB4680F367
:1018D00009882838FCC81847E80900200420714608
:1018E000084203D0EFF30980024A1047EFF3088063
:1018F000004A1047E959000880B582B003F0F2FCB5
:10190000019004F0B1FE28B1FFE70120000704496F
:10191000086000E0FFE7019803F089FF02B080BD96
:1019200004ED00E080B582B01B4908680122104335
:101930000860FFE7184800688007002801D4FFE727
:10194000F8E716490868164A104008600868154A02
:101950001040086010490868134A10400860134995
:1019600008680F22904308601149086840F203128A
:1019700090430860086803229207904308600D496D
:1019800000200190086003F059FC01990120C00675
:1019900001F020FC02B080BD0010024004100240A3
:1019A0000C00FF08FFFF007FFFFFF2FE2C1002403B
:1019B000301002400810024080B582B0114908681A
:1019C000401C086010482A4903F07EFEB8B1FFE7CA
:1019D0000E480088FF280DDCFFE70B4803F0BCFD34
:1019E00001A908700198094B1A88511C19800849EF
:1019F0008854FFE704481E4903F046FEFFE702B0A3
:101A000080BDC046803A00200038014062000020BE
:101A1000843A002080B582B013490868401C0860F1
:101A20001248134903F050FED8B1FFE7114800886F
:101A30007F280DDCFFE70D4803F08EFD01A908703B
:101A400001980C4B1A88511C19800B49885403E0EB
:101A5000064803F081FDFFE70448054903F014FE42
:101A6000FFE702B080BDC046043B002000440040B8
:101A70000500050764000020083B002080B586B003
:101A80001148019003F07EFA019803F07BFA019867
:101A900003F078FA0D4803900122059240F20013FA
:101AA0000293114600F007FE029B03980021049167
:101AB000032200F047FE03980499059A40F20023A0
:101AC00000F0F9FD06B080BD1205000000040048DA
:101AD00081B00146684601700021405600280DD4AF
:101AE000FFE70021684641561F200A4602400120B8
:101AF000904049098900024A8850FFE701B07047C9
:101B000000E100E070B582B0024601A802700091C9
:101B100000214056002816D4FFE7002401A90857E9
:101B20000322D3431840174A805809578C07E50E03
:101B3000FF24AC40A043009CA401E4B2AC4020438D
:101B4000194088501AE001A908780F24204008386D
:101B50000322D34318400A4A8058002549578D076D
:101B6000EE0EFF25B540A843009DAD01EDB2B54096
:101B700028432140083919408850FFE702B070BD62
:101B80001CED00E000E400E085B0049003A80180B3
:101B900002A90020087001A90880FFE701A80088B9
:101BA00003A9098888422FDAFFE7049801A9098868
:101BB000415C0298484002A90870694600200870FC
:101BC000FFE768460078072818DCFFE702A80078DE
:101BD0000006002807D5FFE702984000072148408B
:101BE00002A9087004E00298400002A90870FFE70B
:101BF000FFE70098401C69460870E2E7FFE701989C
:101C0000401C01A90880C9E702A8007805B0704708
:101C100080B584B0019101460198039102A9088022
:101C20000398098800F033F804B080BD10B586B081
:101C3000049003A8018002920193049838B1FFE751
:101C4000029820B1FFE703A8008820B9FFE705A9A3
:101C50000020088017E0019800F0F6F90298049936
:101C600003AA00921288FEF78DFA0099029809885B
:101C7000FFF7CEFF00990298098800F027FA039831
:101C800005A90880FFE705A8008806B010BD80B54B
:101C900084B0039002A80180039820B1FFE702A856
:101CA000008808B9FFE719E001A900200880FFE7D4
:101CB00001A8008802A9098888420FDAFFE700F02E
:101CC0006BF90346039901A80288885C5840885440
:101CD000FFE70198401C01A90880E9E704B080BD36
:101CE00010B586B0049003A8018002920193049875
:101CF00060B1FFE7029848B1FFE703A8008828B168
:101D0000FFE703A80088812804DBFFE705A900207E
:101D1000088018E000F066F80199086002980499BC
:101D200003AA00921288FEF72DFA009902980988FA
:101D300000F04CF9009902980988FFF7A8FF039872
:101D400005A90880FFE705A8008806B010BD0000BF
:101D500080B584B000200390FFE70398032807DCD8
:101D6000FFE700F0A5F8FFE70398401C0390F4E7B5
:101D7000D44800680290D448006801900299019804
:101D800041406846017002990A0A00995140017069
:101D900001A94A8800995140017002A9CA780099A6
:101DA00051400170007804B080BDC04680B582B05B
:101DB00001A900200880FFE701A80088FF280CDCAB
:101DC000FFE7FFF7C5FF01A90A887F498854FFE7AD
:101DD0000198401C01A90880EEE77A49002008809C
:101DE00002B080BD80B584B000200390B548006883
:101DF0000E4901910840B1490291FEF754FAFEF7ED
:101E0000F0FA019A02990304039818430390AE482C
:101E100000681040FEF747FAFEF7E3FA81B2039834
:101E200008430390039804B080BDC046FFFFFF7FC6
:101E300080B586B0059005A801900088FEF7CAFA23
:101E40008F21C9050291FEF76BFA3F210906039124
:101E5000FEF729FA1449FEF7CDF901460198994A8F
:101E600011604088FEF7B6FA0299FEF759FA039915
:101E7000FEF719FA0D49FEF7BDF99349086051497B
:101E8000002008800490FFE70498C0087C2807D849
:101E9000FFE7FFF75DFFFFE70498401C0490F3E7BE
:101EA000FFF784FF06B080BDCDCCCC3DCDCC4C3E01
:101EB00080B592B0374907910868059081480E9027
:101EC00000688969FEF796F905F0F4FC079904901B
:101ED00048680390886801907B480F900068C96942
:101EE000FEF788F905F0A2FD079A01460198126AEB
:101EF0000292FEF7D8F90299FEF77CF905F096FDFB
:101F000001460398FEF7CFF9049902460598069218
:101F1000FEF7C9F90699FEF76DF9079902460F9881
:101F20001192CA680C920068496AFEF763F905F0DD
:101F3000C1FC079902460E980B920A690A924A69F7
:101F400008920068896AFEF755F905F06FFD079A57
:101F500001460898D26A0992FEF7A5F90999FEF799
:101F600049F905F063FD01460A98FEF79CF90B99C3
:101F700002460C980D92FEF796F90D99FEF73AF984
:101F80000E9A0F991090119810601098086012B076
:101F900080BDC0461000002080B582B0094802888C
:101FA0000949895C01AA11700188491C01800088D7
:101FB000FF2803DDFFE7FFF7F9FEFFE701A8007840
:101FC00002B080BDF8050020FA05002010B586B0EB
:101FD000059004A801800088012801DCFFE730E0BB
:101FE00002A900200880FFE702A8008804A9098848
:101FF0004908884225DAFFE7FFF7CEFF03A90870FA
:1020000002AB1888097804AA1288121A91FBF2F41C
:102010006243891A401801AA108005981988405C0B
:102020006946087005991088085C1B88C854009898
:10203000059912888854FFE70298401C02A908807D
:10204000D2E706B010BD000080B586B0059005A8A7
:1020500001904088FEF7BEF918490291FEF760F939
:102060000146019804910088FEF7B4F90299FEF741
:1020700057F9039004980021FEF790F950B9FFE753
:1020800004980F49FEF798F920B9FFE704980D4925
:102090000860FFE703980021FEF780F950B9FFE7D9
:1020A00003980749FEF788F920B9FFE70398064926
:1020B0000860FFE7FFF77AFE06B080BD00401C46CF
:1020C0000000C8424000002044000020B0B5C8B065
:1020D000479046A801800088012801DCFFE754E012
:1020E00046A80088410805A80180008840F2011137
:1020F000884205DBFFE705A940F200100880FFE7F2
:1021000004A900200880FFE704A8008805A9098821
:1021100088420CDAFFE7FFF73FFF04A90A8806A907
:102120008854FFE70498401C04A90880ECE7059850
:10213000401E03A90880FFE7002103A8405E002895
:1021400023D4FFE7002403AB185F06A9095C46AA65
:102150001288121A91FBF2F56A43891A401802AAF2
:1021600010804798195F405C01A908704799108852
:10217000085C1B5FC8540198479912888854FFE790
:102180000398401E03A90880D6E748B0B0BD000000
:1021900081B00090FFE70098411E0091D8B1FFE7A1
:1021A0000E48006840F2E831B0FBF1F0401E0C49E7
:1021B00008600C49002008600B4905200860FFE713
:1021C00009480068C003002801D4FFE7F8E7064982
:1021D00000200860DFE701B07047C046080000201B
:1021E00014E000E018E000E010E000E082B0012020
:1021F0000190694608701648006820B1FFE76946FB
:10220000002008701FE01348006820B1FFE769460E
:102210000020087016E01048006820B1FFE769460A
:10222000002008700DE00D4800680D490968491E3E
:10223000884204D1FFE769460220087000E0FFE70A
:10224000FFE7FFE7FFE76846007802B07047C04647
:10225000903C0020E43C00208C3C0020B03C00205E
:10226000083C002080B586B005900491059811497E
:10227000084003900598049A80180F4A8018084077
:10228000029000F007F903980190FFE70198029986
:1022900088420AD2FFE7019800F060F8FFE7019852
:1022A00041F2000140180190F0E700F051F806B04B
:1022B00080BDC04600F0FFFFFF0F000080B58CB06E
:1022C0000B900A91099200F0E5F80A980890099895
:1022D000C01C8008079009980321084006900798C1
:1022E00001900699401E029009B901980290029847
:1022F000059000200490FFE70498059988420DD2CC
:10230000FFE70B9804998A0080180899895800F013
:10231000D5F8FFE70498401C0490EDE7069890B1CB
:10232000FFE7002003900A98059989004118069A52
:1023300003A8FDF727FF0B9805998900401803991A
:1023400000F0BCF8FFE700F003F80CB080BD00001F
:102350006E490868802210430860704780B584B0D9
:1023600003900120000500F027F8014602A8017043
:102370000078D0B9FFE76549019108680222009210
:102380001043086003980B4A10600868402210430D
:1023900008600120000500F00FF8009A019902ABD7
:1023A0001870086890430860FFE702A8007804B03E
:1023B00080BDC0461420024080B584B0039002A9BD
:1023C00001200870FFE700F025F802A908700398C3
:1023D000401E0390FFE702A8017800200129019028
:1023E00005D1FFE70398411E88410190FFE701985E
:1023F000C0070028E7D1FFE702A80078012804D130
:10240000FFE702A905200870FFE702A8007804B0E2
:1024100080BD000081B06946002008701C4800683B
:10242000C00720B1FFE76946012008702BE018487B
:102430000068C006002804D5FFE76946042008703C
:1024400020E0134800684007002804D5FFE76946EC
:102450000220087015E00E4800680007002804D527
:10246000FFE76946032008700AE009480068000495
:10247000002804D5FFE7694607200870FFE7FFE75B
:10248000FFE7FFE7FFE76846007801B07047C04606
:102490000C2002401D4800680006002806D5FFE712
:1024A00003490448086004480860FFE77047C046D5
:1024B0000420024023016745AB89EFCD80B586B08B
:1024C0000590049101200005FFF776FF014603A85F
:1024D00001700078A8B9FFE70C4A02921168012048
:1024E0000190014311600499059A11600005FFF7FE
:1024F00063FF019A029903AB187008689043086063
:10250000FFE703A8007806B080BDC0461020024057
:1025100080B582B00190009101A80178064803F0CF
:1025200023F8FFE70448054903F07FF808B9FFE7FF
:10253000F8E7019802B080BD0038014007070000AD
:1025400080B586B0014605A8029001700078410070
:102550001348405A02F016FD029800788200114894
:1025600004908058104903918B5801210022019258
:1025700000F0A1F80199029B039A04981B789B0034
:10258000C058D358032200F0DDF8029A039804994A
:102590001278920080588958886206B080BDC04683
:1025A000D07B0008E87B0008D87B000886B0059047
:1025B000049103920598006A01900598406A009082
:1025C00002A900200880FFE702A8008807281DD87C
:1025D000FFE702A801880398C840C00780B1FFE761
:1025E00002A8018889000F228A4001999143019134
:1025F0000499008880008140019808430190FFE71A
:10260000FFE70298401C02A90880DDE702A9082024
:102610000880FFE702A800880F281FD8FFE702A85C
:1026200001880398C840C00790B1FFE702A801885D
:10263000890020390F228A40009991430091049922
:102640000088800020388140009808430090FFE710
:10265000FFE70298401C02A90880DBE70198059972
:10266000086200980599486206B0704782B00190F0
:10267000009100980199886202B0704782B0019081
:10268000009100980199886102B0704783B0019071
:102690000091019800690099084204D0FFE702A95F
:1026A0000120087003E002A900200870FFE702A8DB
:1026B000007803B0704787B00690059104920393A9
:1026C0000698006801900698C068009002A9002052
:1026D0000880FFE702A800880F282BD8FFE702A890
:1026E00001880398C840C007F0B1FFE702A801883D
:1026F0004900032213468B40019999430191059BA0
:10270000018849008B4001991943019101884900D2
:102710008A400099914300910499008840008140CB
:10272000009808430090FFE7FFE70298401C02A9C9
:102730000880CFE701980699086000980699C8605C
:1027400007B0704710B586B0059004A801700392D9
:1027500002930078012806D1FFE7029A059948689C
:102760001043486005E0029A059948689043486024
:10277000FFE705988068009001A900200880FFE726
:1027800001A800880F281DD8FFE701A8018802983A
:10279000C840C00780B1FFE701A8018849000322B3
:1027A0008A4000999143009103990088400081403C
:1027B000009808430090FFE7FFE70198401C01A93B
:1027C0000880DDE700980599886006B010BD83B0E9
:1027D00080B583B0079306920591029005A80190F9
:1027E0000299019A002000F02FF803B080BC01BCD0
:1027F00003B08646704783B080B583B007930692D6
:102800000591029005A801900299019A032000F019
:102810001BF803B080BC01BC03B08646704783B090
:1028200080B583B0079306920591029005A80190A8
:102830000299019A012000F007F803B080BC01BCA6
:1028400003B0864670470000B0B58CB003920246D4
:1028500003980B900AA8027009910078234909781F
:10286000884201DAFFE73EE003F0F4FE08900898A2
:1028700040F2E831B0FBF1F30A465A43801A079060
:102880000898B0FBF1F03C21B0FBF1F30A465A4343
:10289000801A06900898164AB0FBF2F0B0FBF1F2ED
:1028A0005143401A059008981249B0FBF1F01821E5
:1028B000B0FBF1F25143401A04900499059A069B2B
:1028C00007980AAC2478A5000B4C64590194009039
:1028D0000A4804F03BFA09980B9904F05BFA08489F
:1028E00004F034FAFFE70CB0B0BDC046FA06002091
:1028F00060EA000080EE360048000020327D0008CB
:102900001E87000883B080B583B0079306920591B7
:10291000029005A801900299019A0220FFF794FF06
:1029200003B080BC01BC03B08646704780B582B05E
:1029300000200190FFF704FE0120FFF701FE02F0E6
:10294000D5FC0F4804F002FA0E480F490F4AFFF772
:1029500066FFFEF76DF90E48FFF761FF0D48FFF7C0
:1029600067FA0D48FFF75BFF00F050F902F06AFCD0
:102970000A48FFF754FF03F01BFAFFE7FEE7C046E3
:102980002C7C0008F67C0008207C0008177C0008DE
:10299000507C000878563412687C0008F87B0008E8
:1029A00080B58CB00B903948FFF739FFFFE7D4486A
:1029B00000680021CA4309A903F093FC012801D053
:1029C000FFE7F4E709A8407800F00AF908900898B2
:1029D00020B1FFE70898407808B9FFE7E7E709A8C2
:1029E0000078401E059003284ED805998A0001A062
:1029F0008018874600F006B800F017B800F023B83A
:102A000000F02FB809A80490417807AA11708178C6
:102A1000517040781021022302F0EAFA04984178BC
:102A200082781E48FFF7FBFE2FE009A8039040784C
:102A3000112100231A4602F0DBFA03984178164868
:102A4000FFF7EDFE21E009A8029040781221002353
:102A50001A4602F0CDFA029841780E48FFF7DFFEE1
:102A600013E00A9806AA107009A8019041795170E4
:102A700040781321022302F0BBFA01984178828842
:102A80000348FFF7CCFE00E0FFE790E70C7E00086C
:102A90001D7E0008BB7D0008D37D0008827D0008F4
:102AA00080B584B0014603A8017000780A2801DBD4
:102AB000FFE713E003A80190007803F03DFA0290CD
:102AC000029841F60011FFF7CDFB01980078302104
:102AD0004143884841180020C870FFE704B080BD1A
:102AE00080B586B0034605A80370049103A90A8047
:102AF0000078092805DCFFE703A80088512801DBDE
:102B0000FFE728E005A8007802F00EFB029003A87A
:102B100000880001019001982F49884201D3FFE706
:102B200019E0029841F60011FFF79CFB0298049906
:102B3000019AFFF7C3FB05A8017830224A436D498B
:102B40008A1801219170017803A80288019B03482B
:102B5000FFF765FEFFE706B080BDC04611800008A4
:102B600010B586B0044605A80470049103A90A8034
:102B700002930078092804DCFFE703A8008808B95D
:102B8000FFE727E005A8007803F0D6F90190029846
:102B900003A9098840181049884201D3FFE719E0CA
:102BA000029830B9FFE7019841F60011FFF75AFB90
:102BB000FFE7019802994018049903AA1288FFF7C9
:102BC0007DFB05A80078302141434A484118012087
:102BD000C870FFE706B010BD0119000046487047F5
:102BE00082B001466846017000780A2803DBFFE7DF
:102BF0000020019007E068460078302141433D48BD
:102C000040180190FFE7019802B07047B0B588B056
:102C1000384840F2E011FDF7CEFA374840F2105143
:102C2000FDF7C9FA35480022069202600520082106
:102C300003F0D0F901460698734A116007A908709D
:102C4000FFE707A80078092846DCFFE707AB0293F7
:102C500018783022039214464443264904910855BB
:102C60001C78104660430C180020059060701D7899
:102C700014466C430C19A0701D7814466C430C1953
:102C8000E0701D7814466C430C1920711D781446B1
:102C90006C430C1960711D7814466C430C19A060CC
:102CA0001D7814466C430C19E0601D7814466C4383
:102CB0000C192D2560551D7814466C430C192E25D2
:102CC00060551B785A43891821228854FFE70798DA
:102CD000401C07A90870B4E70A4801900A48009010
:102CE0000A480A21052240F21053FFF798FD08B068
:102CF000B0BDC0460008002068000020E0090020A8
:102D0000FC0700200000040800000308CB7F000837
:102D100080B588B0079003F09DFC06903748FFF718
:102D20007EFDFFE703F096FC059004A900200870E3
:102D3000FFE704A80078092858DCFFE704A800781A
:102D4000FFF74EFF0390039808B9FFE749E00598A5
:102D500003998968401A02900298294988420ED343
:102D6000FFE70398407850B1FFE7039900204870CF
:102D700004A80178029A2648FFF7C4FD31E00398C1
:102D8000407808B9FFE72CE003980079012827DB99
:102D9000FFE70398407918B3FFE703982D21405CC3
:102DA000F0B9FFE7694601200870049848700023D5
:102DB0008B7014488880FA20C880134800681A462F
:102DC00003F0B6F901280AD1FFE703992D2201206B
:102DD000885404A801780D48FFF721FDFFE7FFE7BD
:102DE000FFE70498401C04A90870A2E7FFE706A8C3
:102DF00040F2E83103F0B0FBFFE793E7577E0008AD
:102E0000993A000070170000FC0700206A7E000855
:102E1000417E000810B5FFB0CBB0C990FFF7DEFED1
:102E20001A90C748FFF7FBFCFFE702F0B9FA01462A
:102E300018A80180008820B9FFE70A2002F036FFB9
:102E4000F3E785A840F20E1102F0E4FA014684A8E7
:102E500001800188BB4803F079FF17A90020088092
:102E6000FFE717A8018884A80288002091420990F2
:102E70000DDAFFE717A801880120002207924029F8
:102E8000089001DB0798089008980990FFE70998D7
:102E9000C00768B1FFE717A8018885A8415CAF4863
:102EA00003F054FFFFE71798401C17A90880D8E7E4
:102EB00084A80088412804DBFFE7A34803F046FF0D
:102EC000FFE7A24803F042FF84A801883DA80190D3
:102ED0003EA8009085A840AA3FAB00F08BF920B92E
:102EE000FFE79B4803F032FF9FE73FA800880428D4
:102EF00001DCFFE799E74098000640A94A781204F0
:102F000080188A7812028018C97840181690419863
:102F100015A908703F98401F14A908801698A8B1F9
:102F2000FFE714A80088012810DBFFE714A8008839
:102F300080280BDCFFE740A8401D14A90988169BD8
:102F40001DAAFEF773FE1CA908800AE040A8411DD7
:102F500014A802881DA8FDF715F914981CA908806B
:102F6000FFE71CA8018815A802787A4803F0EEFE56
:102F700013A900200880FFE713A801881CA8028875
:102F80000020914206900DDAFFE713A80188012086
:102F9000002204924029059001DB049805900598D1
:102FA0000690FFE70698C00768B1FFE713A80188FD
:102FB0001DA8415C694803F0C9FEFFE71398401C57
:102FC00013A90880D8E71CA80088412804DBFFE784
:102FD0005D4803F0BBFEFFE75C4803F0B7FE12A9B3
:102FE000002008701A98007828B1FFE71A984078F6
:102FF00012A9087038E015A80078012812D1FFE75F
:103000001CA8008810280DD3FFE7209811901F9866
:1030100010901E980F901D980E900EA8407A12A93D
:10302000087017E015A80078012812D1FFE71CA846
:10303000008810280DD3FFE720980D901F980C9062
:103040001E980B901D980A900AA8807812A9087003
:10305000FFE7FFE712A800780A2804DBFFE712A9C0
:1030600000200870FFE7FFE712A80178491C1BAA9F
:1030700011800078FFF7B4FD1990199808B9FFE79F
:10308000D3E619990120487003F0E4FA1999886091
:1030900015A80078401E039005284FD803998A0090
:1030A00001A080188746C04600F00AB800F016B8A4
:1030B00000F022B800F026B800F02CB800F032B8CA
:1030C0001A99002008701CA801881BA802881A9B66
:1030D000199800901DA800F01BFA30E01A99002002
:1030E00008701CA801881A9A199B1BA800880090D8
:1030F0001DA800F009FB22E01CA801881648FFF774
:1031000066FB1CE01CA801881A9A199B1DA800F0F8
:10311000ABF914E01CA801881A9A199B1DA800F0AD
:1031200063F90CE01A99002008701CA801881BA8FC
:103130000288199B1DA800F01BF900E0FFE774E668
:10314000997F0008C17E0008137C00081E870008D4
:10315000887E0008A37E0008097F00089D7E000885
:1031600083B0024602A8027001AA118000780A28E2
:1031700001DBFFE712E002A8007830214143084854
:103180004018009000990120C87001A8008800999B
:1031900088620448006800998860FFE703B07047C0
:1031A00000080020E009002080B584B00A460146EE
:1031B00003A80190017002A90A70002200928056B3
:1031C0000978FEF79FFC009901984056FEF780FCB5
:1031D00004B080BD82B00190009101980099034A2B
:1031E000114008430249086002B0704780FFFF1F8A
:1031F00008ED00E010B58CB00F9C0E9C0A9009A859
:103200000180089207930A9828B1FFE709A800886F
:103210000C2803DCFFE700200B90A5E006A90020A6
:103220000880FFE706A80088401C09A90988884291
:1032300015DAFFE70A9806A90988405CAA2809D18F
:10324000FFE70A9906A8008840184078552801D160
:10325000FFE704E00698401C06A90880E2E706A8FC
:103260000088401C09A90988884203DBFFE7002089
:103270000B9079E0069905A801800088801C09A9B7
:103280000988884203DBFFE700200B906CE00A9A74
:1032900005A801888A1891780902D278891804AAA9
:1032A00011800499CA1D03A90A8000880988401862
:1032B00009A90988884203DDFFE700200B9053E04D
:1032C0000A9A05A801888918091D02910A9A00889E
:1032D00004A90B88C0188018007901AA0092107008
:1032E00002980988FEF750FC00990978884203D0BB
:1032F000FFE700200B9037E00A9905A8008804AA90
:10330000128880184018407955280BD1FFE70A9998
:1033100005A8008804AA1288801840188079AA2875
:1033200003D0FFE700200B901EE00299087800060A
:103330004A78120480188A7812028018C9784018D6
:103340000F990860029800790E9908700498401F40
:103350000799088008980299491D079A1288FCF776
:1033600011FF01200B90FFE70B980CB010BD00007F
:1033700010B586B0059004A8018003A90A800293C5
:103380000088092804DBFFE704A908200880FFE77C
:1033900001A90020087069460870FFE768460078B8
:1033A00004A90988884211DAFFE705986946097877
:1033B000405C28B1FFE70198401C01A90870FFE7B5
:1033C000FFE70098401C69460870E7E703A80188FA
:1033D00001A8027804A803880248FFF720FA06B083
:1033E00010BDC046EA7E000810B586B0059004A85E
:1033F0000180039202930398007828B1FFE70398B5
:103400008078022801D0FFE72AE00398C0884000B6
:1034100001AB188003984078059904AA009212889D
:103420001B88FFF79DFB0098008842080399C88815
:103430008018C8800399C8888988884210DBFFE714
:1034400003994878C988FFF78BFE0399002008701C
:1034500003984178C28883680248FFF7E0F9FFE7E4
:1034600006B010BDAB7F000810B586B0059004A86B
:103470000180039202930398007828B1FFE7039834
:103480008078012801D0FFE73EE004A80088010908
:1034900001A80180008808B9FFE735E00398C088DB
:1034A00001A909884018512807DBFFE70398C18864
:1034B0005020401A01A90880FFE70398C18809013C
:1034C00040181030059901AA12881201FCF75AFE23
:1034D000019A0399C8888018C8800399C888898888
:1034E000884211DBFFE7039A507811461031D288E9
:1034F000FFF7F6FA03990020087003984178C28814
:103500000248FFF78CF9FFE706B010BDCA7E00083D
:1035100010B594B0169C139012A8018011A90A80CE
:1035200010930088102876D3FFE713980690027B4B
:10353000417B09028A18817B0B04C17B0906C918EB
:1035400089180E91027A417A09028A18817A0B044D
:10355000C17A0906C91889180D91027941790902C1
:103560008A1881790B04C1790906C91889180C9148
:10357000027841780902891882781204C07800061E
:10358000801840180B900BA8417A0FA801700078A2
:103590000A2801DBFFE7B1E01098012101700F98C4
:1035A000109A5070109881700BA84289109B9A80D5
:1035B000109B0022DA808289109B9A604278109BCF
:1035C0001A73169A11744189169A51820E99169A95
:1035D00091820C99169AD1614178169A11710D99C0
:1035E000169A51710D99169A2023D154007A28B158
:1035F000FFE71699C868401CC860FFE70FA801786C
:103600000C9A0BAC237A60786489019400903D4851
:10361000FFF705F972E012A8008810286DD3FFE7C4
:1036200013980590027B417B09028A18817B0B0469
:10363000C17B0906C91889180A91027A417A0902E0
:103640008A18817A0B04C17A0906C9188918099168
:103650000279417909028A1881790B04C179090636
:10366000C918891808910278417809028918827866
:103670001204C078000680184018079007A88178C7
:103680000FA8017000780A2801DBFFE736E01099E7
:10369000012008700F99109A5170109988700A983B
:1036A0001099888010990020C88007ACA188109AD2
:1036B00091606178109A1173169908740A98169996
:1036C00048820898169988820998169988616078C6
:1036D000169908710FA800780490607803900998F3
:1036E000FCF793FE039A0B460499A4890294019374
:1036F00000900348FFF76BF8FFE7FFE714B010BD39
:103700006C7F00083F7F0008B0B58EB00C46129960
:103710000D900CA804800B920A9309AA11800088CE
:103720000F2801D8FFE76DE00D980390027B417BE5
:1037300009028A18817B0B04C17B0906C918891804
:103740000891027A417A09028A18817A0B04C17AB7
:103750000906C918891807910279417909028A185E
:1037600081790B04C1790906C91889180691027874
:1037700041780902891882781204C07800068018FE
:10378000401805900998411E04A8017000780A2885
:1037900004DBFFE704A900200870FFE70B98012174
:1037A000017004980B9A50700B9A02209070089840
:1037B0000B9A90800B9A0020D08007980B9A90600B
:1037C00005A8029042780B9B1A730A9A2123D154C0
:1037D00007990A9A516281890A9A916240780A99F6
:1037E0002C22885404A801900078FFF759F9019918
:1037F00002980978079A4378808900900248FFF779
:103800000EF8FFE70EB0B0BD177F000880B588B096
:10381000079006912E48006804902E480068039097
:103820002D480068029071480068001D01F0DAFF21
:1038300008B9FFE700E0FFE70798401CF8B9FFE789
:103840000698E0B1FFE7FFE7254948680190019A33
:10385000664803689A60019A92680368DA600268B1
:10386000121D019B9B685A600268121D019B9A60A1
:10387000006841610868401C0860FFE726E0049882
:1038800007994018059005985849096848600598B7
:103890000499884207D2FFE7029854490968091D34
:1038A00001F0E5FF11E0039850490968091D01F096
:1038B000DEFF059809490968884204D2FFE70598A8
:1038C0000649086000E0FFE7FFE7FFE708B080BDBA
:1038D000D83C0020F0090020F80900207C3C0020A2
:1038E000B03C002010B582B0019001F0F5FF6B49AB
:1038F0000868401C08603D48006868B9FFE7019807
:103900003A49086065480068012803D1FFE700F0E4
:103910004FFB00E0FFE713E03548006870B9FFE7B0
:1039200032480068C06A0199C96A884204D8FFE732
:1039300001982E49086000E0FFE700E0FFE7FFE79D
:103940002C480168491C0160006801990864FFE780
:10395000FFE70198C06AF4490968884205D9FFE782
:103960000198C06AF0490860FFE7FFE7FFE70198A8
:10397000C16A142210464843ED4908184068009077
:103980000098019B986000988068019BD86001981E
:10399000001D009B9B6858600198001D009B98606B
:1039A000019BDC6A10466043081858610198C06AA0
:1039B00042438858401C8850FFE7FFE701F096FF1C
:1039C0000B48006878B1FFE7FFE7D8480068C06A95
:1039D0000199C96A884203D2FFE702F00BF900E0BF
:1039E000FFE7FFE700E0FFE702B010BDE8090020B5
:1039F000A43C0020143C002080B582B001F06CFF94
:103A00000F480068B0B9FFE70E48009001F012FFC0
:103A10000D48019001F00EFF00990198D24A116003
:103A20000A49086005201021002202F0D3FA044957
:103A3000086000E0FFE701F059FF02B080BDC0461A
:103A4000DC3C00201C3C0020303C0020FC09002015
:103A500080B582B0FFE70F480068C0B1FFE701F012
:103A60003BFF0D48C068C06801900198001D01F03F
:103A7000B9FE0A490868401E086006490868401EE9
:103A8000086001F033FF019800F014F9E3E702B099
:103A900080BDC0460C3C0020C43C0020083C0020F7
:103AA00080B582B0019000910198006CB8B1FFE739
:103AB00001990A6CC8688018C8600199C86889684B
:103AC000884204D3FFE701990868C86000E0FFE777
:103AD0000098019AD168126CFCF754FBFFE702B022
:103AE00080BD80B586B005900491039200200290BD
:103AF0000598806B01900598006C78B9FFE70598F0
:103B0000006848B9FFE70598806802F0BFFE0290A0
:103B100005990020886000E0FFE741E00398B8B90C
:103B2000FFE7059A50680499126CFCF72BFB059986
:103B30000A6C486880184860059948688968884216
:103B400004D3FFE705990868486000E0FFE726E036
:103B5000059AD0680499126CFCF714FB05990A6C5D
:103B6000C868801AC8600599C8680968884206D282
:103B7000FFE7059988680A6C801AC86000E0FFE7D3
:103B80000398022809D1FFE7019820B1FFE70198C7
:103B9000401E019000E0FFE700E0FFE7FFE7FFE7DE
:103BA0000198401C05998863029806B080BD00000A
:103BB00080B58AB001200990002004900390FFE7AF
:103BC00003980B2810DCFFE7039A1948815C05A8CD
:103BD00081540399405C08B9FFE705E0FFE7FFE780
:103BE0000398401C0390EBE700200890FFE708983B
:103BF000002819DCFFE70F480490049808998A0010
:103C00000D49891800230093019105A9802202F033
:103C10007FFC0990099808B9FFE705E0FFE7FFE797
:103C20000898401C0890E2E709980AB080BDC04699
:103C30005A7D0008FD3D0008703C0020F0B58BB0B7
:103C4000119C109C0A900991089207930898800093
:103C500000F0E4FC05900598A0B1FFE7582000F0C3
:103C6000DDFC0690069840B1FFE706985821FCF766
:103C7000A2FA05980699086303E0059801F04AFE48
:103C8000FFE702E000200690FFE7069878B1FFE723
:103C90000A980999089A079B109C119D069E002777
:103CA000039702960195009400F002F9FFE7069849
:103CB0000BB0F0BD80B582B001900198006B01F0AF
:103CC00029FE019801F026FE02B080BD82B00020DE
:103CD00000901548006818B1FFE701200090FFE749
:103CE00012480068C06A18B1FFE70020019018E090
:103CF000CD480068022803D3FFE7002001900FE0C1
:103D0000009818B1FFE70020019008E055480068CE
:103D10000190554801680198401A0190FFE7FFE7BC
:103D2000FFE7019802B07047183C0020E809002026
:103D3000000A002082B001900B48006800684142F0
:103D40004841019908600198006830B9FFE70648CA
:103D50000068C0680068009002E000200090FFE763
:103D6000009802B07047C046EC09002084B043F2CE
:103D700000000090ED48029002A80078400770B162
:103D8000FFE70298C01D0290029807218843029025
:103D9000029AE6490098891A40180090FFE70299B4
:103DA000E1480160002141600298009A801801906A
:103DB00001980838019001980722D24310400190E1
:103DC000019ADC4802600268516002681160029941
:103DD00003910199039A891A516000680399086058
:103DE00003984068034908600398406802490860E6
:103DF00004B07047783C00206C3C002080B582B055
:103E00000190FFE7FFF724FE87480068022803D3EC
:103E1000FFE701F0EFFE00E0FFE7FFF757FF00903C
:103E2000009802281BD3FFE702F030F80D48006825
:103E30000D490968884203D2FFE772B6FFE7FEE743
:103E4000FFF744FF00900098022804D3FFE7009892
:103E500001F008FE00E0FFE702F056FE00E0FFE799
:103E6000D0E7C0467C3C0020D83C002010B584B090
:103E7000069C03900291019268460370029818B95B
:103E8000FFE70698006003E0019806990860FFE7E5
:103E900003980699C8630298069908640698012158
:103EA00002F0DBF8009806994C22885404B010BD4B
:103EB00010B586B00B9C0A9C099C089C0590049147
:103EC000039202930A98006B03998900A522FCF7DC
:103ED0006BF90A98016B039880004018001F01904D
:103EE000019807218843019001A80078400718B184
:103EF000FFE772B6FFE7FEE70498F8B1FFE700209E
:103F00000090FFE700980B2813D8FFE70498009A69
:103F1000805C0A9989183422885404980099405C7E
:103F200008B9FFE705E0FFE7FFE70098401C0090B5
:103F3000E8E70A993F220020885400E0FFE708984C
:103F4000062803D3FFE772B6FFE7FEE708980628C6
:103F500003D3FFE70520089000E0FFE708980A99DF
:103F6000C86208980A9988640A98001D01F078FCD4
:103F70000A98183001F074FC0A980061089906202C
:103F8000401A0A9988610A98406201980A99096B57
:103F9000059A029B00F07EFC0A990860099820B1FE
:103FA000FFE70A980999086000E0FFE706B010BD36
:103FB00080B584B000200390FFE7039805280CD853
:103FC000FFE70398142141431748401801F032FCE1
:103FD000FFE70398401C0390EFE70C48019001F0C5
:103FE00029FC0B48029001F025FC0A4801F022FC54
:103FF000094801F01FFC094801F01CFC01990298D6
:10400000074A11600749086004B080BD443C0020A5
:10401000583C0020903C0020C43C0020B03C0020D4
:10402000F0090020F8090020000A002086B0059061
:104030003D480490FFE7049800680599884205D23E
:10404000FFE7FFE7049800680490F4E70498364916
:1040500088421ED0FFE704990020344A9142029022
:104060000FD3FFE704993148314A82180120002319
:1040700000939142019001D900980190019802901B
:10408000FFE70298C00718B9FFE772B6FFE7FEE73F
:10409000FFE704980390039804994968401805992C
:1040A000884209D1FFE7059842680499486880185A
:1040B00048600498059000E0FFE705980390039896
:1040C0000599496840180499096888421AD1FFE7A0
:1040D000049800681749096888420DD0FFE70498E2
:1040E000006842680599486880184860049800682C
:1040F00000680599086004E00E48006805990860AA
:10410000FFE704E00498006805990860FFE7049859
:104110000599884204D0FFE705980499086000E0FB
:10412000FFE706B07047C046A83C0020780A002090
:10413000FF2F0000F409002080B586B0059004919F
:104140000392029300200190049805994860059815
:10415000006104980399884213D8FFE703980299F5
:10416000401A05998969884203D3FFE7012001902D
:1041700006E0EB4800680599091D01F078FBFFE7B0
:1041800014E003980299884208D2FFE70498029944
:10419000884203D3FFE70120019006E0DF48006872
:1041A0000599091D01F063FBFFE7FFE7019806B0E1
:1041B00080BDC04680B582B0019001F08DFB0198B2
:1041C000806B18B9FFE70120009002E0002000900A
:1041D000FFE701F08BFB009802B080BD80B582B094
:1041E000019001F079FB0198806B0199C96B8842BD
:1041F00003D1FFE70120009002E000200090FFE7DC
:1042000001F074FB009802B080BD000080B584B05E
:1042100003900291C1480068C068C068019001988D
:10422000001D01F0DFFA01982821405C40070028BA
:1042300006D5FFE701980399029A00F003F906E01A
:1042400001992822885CFE2318408854FFE70198D2
:10425000016A884704B080BD80B58AB0002009900B
:10426000089007900690FFE77548006806A90022AD
:1042700002F037F800B9A3E0069800280FD5FFE751
:1042800006A8001D0290029818B9FFE772B6FFE772
:10429000FEE702990A6848688968904700E0FFE7EE
:1042A0000698002800D58AE008980590059840698E
:1042B00028B1FFE70598001D01F094FA00E0FFE740
:1042C00004A800F0EFF803900698401E019008281B
:1042D00073D801998A0001A08018874600F010B8B1
:1042E00000F00EB800F037B800F03CB800F052B85B
:1042F00000F006B800F004B800F02DB800F032B8B5
:1043000005992822885C0123184388540598079B47
:1043100081695918039AFFF70FFFD0B1FFE705989D
:104320002821405C4007002808D5FFE70598079939
:1043300082698918039A00F085F806E00599282219
:10434000885CFE2318408854FFE70598016A884777
:1043500000E0FFE732E005992822885CFE23184040
:1043600088542BE005992822885C0123184388543F
:104370000798059988610598806918B9FFE772B6B2
:10438000FFE7FEE70598039B816959181A46FFF776
:10439000D3FE13E005982821405C8007002804D450
:1043A000FFE7059801F0B6FA06E005992822885C37
:1043B000FE2318408854FFE700E0FFE7FFE753E7DC
:1043C0000AB080BD80B584B00390029101F05EFD1B
:1043D000684600F067F80190009858BBFFE7029824
:1043E00060B9FFE703980199884207D8FFE702F018
:1043F0008BFB03980199FFF709FF1AE0029838B187
:10440000FFE7474800680068414248410290FFE7E3
:104410000B4800680399019A891A029A01F0F6FB89
:1044200002F072FB18B9FFE701F0E4FB00E0FFE7E0
:10443000FFE702E002F068FBFFE704B080BDC04682
:10444000DC3C002080B584B0039002910192FFE72C
:104450000398029B81695918019AFFF76DFE48B1D4
:10446000FFE7039881690298401802900398016A57
:104470008847EDE704B080BD08480068006828B9A7
:10448000FFE707490020C043086006E003480068D2
:10449000C068006802490860FFE77047F009002023
:1044A0007C3C002080B582B0019002F0D3F80090EF
:1044B00000980A490968884206D2FFE700F010F820
:1044C00001990120086003E0019900200860FFE7DE
:1044D000009802490860009802B080BDE4090020FD
:1044E00080B582B0FFE70D480068006858B1FFE76B
:1044F0000A480068C0680068019001980021C9431B
:10450000FFF784FEEFE7054A106800900449086849
:1045100010600098086002B080BDC046EC09002021
:10452000FC09002081B00020009008480068401C71
:1045300018B1FFE772B6FFE7FEE772B6FFE7009833
:1045400008B9FFE7FBE701B07047C04658000020FC
:1045500080B584B00390FFE701A8FFF7EBFB029062
:1045600002980199FFF72EFFFFF776FEF4E780B57A
:1045700084B0039001F0B0F903984521405C02A992
:104580000870FFE7002102A84056012815DBFFE76D
:104590000398406A58B1FFE70398243002F0F2F91B
:1045A00018B1FFE701F0B4FB00E0FFE700E004E032
:1045B0000298401E02A90870E4E703994522FF20F3
:1045C000885401F093F901F087F903984421405C85
:1045D00001A90870FFE7002101A84056012815DB5A
:1045E000FFE70398006978B1FFE70398103002F005
:1045F000C9F918B1FFE701F08BFB00E0FFE7019874
:10460000401E01A9087000E000E0E4E7039944229D
:10461000FF20885401F06AF904B080BD80B590B0E5
:104620000F9000200B900F9848B3FFE70F980821D8
:10463000C94388421FD8FFE70F9808300F900FA892
:1046400000784007A8B1FFE70F9907200140082034
:10465000401A0A900F980A99C943884205D8FFE783
:104660000A990F9840180F9002E000200F90FFE782
:1046700000E0FFE702E000200F90FFE700E0FFE727
:1046800001F004FC7C48006818B9FFE7FFF76EFBF7
:1046900000E0FFE70FA8C0780006002800D5DCE0A6
:1046A0000F9800B9D7E00F9874490968884200D97B
:1046B000D1E073480D9000680E900E990020714A69
:1046C000914209900FD3FFE70E996E486E4A821807
:1046D0000120002307939142089001D90798089080
:1046E00008980990FFE70998C00718B9FFE772B664
:1046F000FFE7FEE7FFE70E9841680F9A002091421E
:10470000069006D2FFE70E980068411E8841069089
:10471000FFE70698C00718B3FFE70E980D900E98B4
:1047200000680E900E990020564A914205900FD3D2
:10473000FFE70E995348544A82180120002303933F
:104740009142049001D90398049004980590FFE7E2
:104750000598C00718B9FFE772B6FFE7FEE7CAE79A
:104760000E9845490968884273D0FFE70D980068A4
:1047700008300B900B990020424A914202900FD3CF
:10478000FFE70B993F48404A82180120002300931D
:104790009142019001D90098019001980290FFE7A1
:1047A0000298C00718B9FFE772B6FFE7FEE70E9858
:1047B00000680D9908600E9840680F99884203D2EE
:1047C000FFE772B6FFE7FEE70E9840680F99401AC0
:1047D00011281DD3FFE70E980F9940180C900CA8D4
:1047E0000078400718B1FFE772B6FFE7FEE70E98C2
:1047F00040680F99401A0C9948600F980E994860CC
:104800000D9800680C9908600C980D99086000E0FC
:10481000FFE70E98426819480168891A016000682C
:104820001A490968884205D2FFE714480068174909
:10483000086000E0FFE70E9948680122D2071043A4
:1048400048600E990020086011490868401C086003
:1048500000E0FFE700E0FFE700E0FFE702F054F9C7
:104860000BA80078400718B1FFE772B6FFE7FEE734
:104870000B9810B080BDC046F40900206C3C0020AD
:10488000A83C0020780A0020FF2F0000783C002080
:10489000843C002084B0039002910192009303981D
:1048A000001F039003990120000608600398001F71
:1048B00003900198039908600398001F03900399DF
:1048C0002F4808600398001F039003992D48086043
:1048D0000398001F039003992B4808600398001F5A
:1048E00003900399294808600398001F03900399D7
:1048F000274808600398001F0390009803990860F8
:104900000398001F03900399224808600398001F32
:1049100003900399204808600398001F03900399AF
:104920001E4808600398001F039003991C48086004
:104930000398001F039003991A4808600398001F0A
:1049400003900399184808600398001F0390039987
:10495000164808600398001F0390039914480860E4
:104960000398001F039003994320C04308600398F5
:10497000001F0390029803990860039804B07047E1
:104980002545000812121212030303030202020259
:10499000010101011111111110101010090909096B
:1049A000080808080707070706060606050505059F
:1049B00004040404A0B01FA90870002002901E90F7
:1049C0001D901C901B901A9019901890179016909B
:1049D0001590149013901290119010900F900E90CB
:1049E000F9490D91F9490C910B900A9009910890A1
:1049F0000791069005910490F54800680C21084045
:104A000080081E901E98039040B1FFE7039801288C
:104A100007D0FFE70398022806D065E0ED481A901A
:104A200065E0ED481A9062E0E94801683F2292048F
:104A30001140890C139100680121C9060840C00E7D
:104A400012901298800113994018139013980E2811
:104A500004D3FFE71398401C13900BE013980F2822
:104A600003D1FFE71020139003E01398801C1390EC
:104A7000FFE7FFE7D6480068032109040840000C5F
:104A80001190119870B9FFE7D44800680F210840D1
:104A9000401C10901099CF48B0FBF1F11398484397
:104AA0001A9020E0119801280ED1FFE7CB4800684A
:104AB0000F210840401C10901099C748B0FBF1F13D
:104AC000139848431A900DE0C44800680F2108402D
:104AD000401C10901099C248B0FBF1F11398484364
:104AE0001A90FFE7FFE702E0BA481A90FFE7B848DC
:104AF0000168C9B209090F910F9A0AA9895C0E9140
:104B00001A990E9AD1401991016840F20072114031
:104B1000090A0F910F9A08A9895C0E9119990E9AAA
:104B2000D1401891006843F600010840C00A0F9078
:104B30000F9906A8405C0E9019980E99C8401790DE
:104B40001FA8007801900B2800D90FE201998A0074
:104B500001A080188746C04600F016B800F017B8CC
:104B600000F018B800F019B800F01AB800F0EBB86F
:104B700000F0FCB900F0FAB900F0F8B900F06FB934
:104B800000F01CB900F0AEB91A981B90EFE119982B
:104B90001B90ECE118981B90E9E117981B90E6E157
:104BA000F748006840F200110840884203D0FFE750
:104BB000F1481690C4E0EF48006880B2800B1D9069
:104BC000EF480068800F1C901D980090032800D9C2
:104BD000B4E000998A0001A08018874600F006B86A
:104BE00000F02EB800F056B800F080B81C9820B93C
:104BF000FFE717984008169021E01C98012806D17D
:104C0000FFE717980A21B0FBF1F0169016E01C9808
:104C1000022806D1FFE719980321B0FBF1F01690A6
:104C20000BE01C98032806D1FFE719980B21B0FB75
:104C3000F1F0169000E0FFE7FFE7FFE7FFE77EE017
:104C40001C9820B9FFE717988008169021E01C985F
:104C5000012806D1FFE717980C21B0FBF1F0169060
:104C600016E01C98022806D1FFE719980521B0FB31
:104C7000F1F016900BE01C98032806D1FFE7199875
:104C80000D21B0FBF1F0169000E0FFE7FFE7FFE732
:104C9000FFE754E01C9830B9FFE717980621B0FBF6
:104CA000F1F0169021E01C98012806D1FFE7179833
:104CB0000E21B0FBF1F0169016E01C98022806D1E8
:104CC000FFE719980721B0FBF1F016900BE01C9854
:104CD000032806D1FFE719980F21B0FBF1F01690D9
:104CE00000E0FFE7FFE7FFE7FFE728E01C9820B9B7
:104CF000FFE71798C00816901FE01C98012804D100
:104D0000FFE717980009169016E01C98022806D1B4
:104D1000FFE719980921B0FBF1F016900BE01C9801
:104D2000032806D1FFE719981121B0FBF1F0169086
:104D300000E0FFE7FFE7FFE7FFE700E0FFE7FFE74F
:104D400016981B9013E18E480068800718B9FFE79A
:104D5000179815902FE08A48006803210840012821
:104D600003D1FFE71A98159024E0854800680321D5
:104D70000840022804D1FFE748F20000159018E02F
:104D80007F48006803210840032810D1FFE77C48D2
:104D90000068072189040840800C0F900F9904A82F
:104DA000405C0E900E997548C840159000E0FFE7F2
:104DB000FFE7FFE7FFE715981B90D8E07048006811
:104DC0008003800F88B90DE006070809010203047B
:104DD000041002400024F40000127A002C1002405B
:104DE000006CDC021898159036E0654800680321D5
:104DF0000904084001210904884203D1FFE71A98F9
:104E0000159028E05E48006803210904084001214C
:104E10004904884204D1FFE748F20000159019E0E8
:104E200057480068032109040840884210D1FFE771
:104E300053480068072189040840800C0F900F999F
:104E400004A8405C0E900E994C48C840159000E0B4
:104E5000FFE7FFE7FFE7FFE715981B9087E048486B
:104E60000068C004800F18B9FFE71898159036E065
:104E70004348006841F60001084040F600018842BE
:104E800003D1FFE71A98159028E03D48006841F6E5
:104E90000001084041F20001884204D1FFE748F2D6
:104EA0000000159019E03648006841F600010840FE
:104EB000884210D1FFE73248006807218904084082
:104EC000800C0F900F9904A8405C0E900E992B480F
:104ED000C840159000E0FFE7FFE7FFE7FFE7159800
:104EE0001B9044E0264800684005800F18B9FFE792
:104EF0001898149037E02248006840F2006108409A
:104F000040F20021884204D1FFE747F60050149098
:104F100028E01B48006840F20061084040F2004170
:104F2000884204D1FFE748F20000149019E01448C9
:104F3000006840F200610840884210D1FFE7104845
:104F40000068072189040840800C0F900F9904A87D
:104F5000405C0E900E990948C840159000E0FFE7AC
:104F6000FFE7FFE7FFE714981B9000E0FFE71B98BF
:104F700020B0704704100240006CDC020024F400F2
:104F80003010024081B001466846018000881F222F
:104F90000146114001238B408109A24A88581843D9
:104FA000885001B07047C04681B001466846018014
:104FB00000881F220146114001238B408109994A34
:104FC00088589843885001B07047C04681B0014668
:104FD0006846018000881F220146114001238B4052
:104FE0008109904A88581843885001B07047C046DC
:104FF00010B59AB019AC207018A80170179216A8B5
:10500000037018980EA90870179890B1FFE716A8BA
:10501000007801280DDBFFE716A800781E2808DCC1
:10502000FFE70EA8401C179916AA1278FBF7AAF8FA
:10503000FFE71698411C0DA801700178354A0192CE
:105040000EA80CAB0093FCF74BFE009B01990BAA3A
:105050001080DC78304804705B8843700C9B1B0A1E
:1050600083700C9BC3700023029303711288401D50
:10507000FBF788F8029819A90978491C0AAA118037
:1050800009A90870FFE709A80078022838DCFFE7C3
:105090000B98401D0AA90A8881B21F481723FBF705
:1050A000F7FF04A91020088005A840F2D072FBF792
:1050B00081FFC0B9FFE719A80078FDF791FD0390C3
:1050C000039840B1FFE703992D22002088540399EB
:1050D0002E228854FFE719A8017809A80278114800
:1050E000FDF775FB14E019A8017809A802780C48AF
:1050F000FDF708FCFFE70998401C09A90870C2E702
:1051000019A8017818A802780448FDF7FBFBFFE70F
:105110001AB010BD78050020FB060020EE7D0008C7
:10512000677D0008A07D000881B0014668460170D7
:10513000017841F6001048430149401801B070471A
:105140000000030810B584B0002003900290354998
:1051500008680122120410430860FFE70398401C0E
:105160000390304800680121490408400290FFE79D
:1051700002990020019039B9FFE703982A49401AA3
:10518000411E88410190FFE70198C0070028E5D142
:10519000FFE7244800688003002802D4FFE7FFE708
:1051A000FEE722490868012210430623984308605D
:1051B0001F4900910868086008680860086840F2A4
:1051C0000043184308601B4B18680F24A043186065
:1051D0000868194B18400860086819231B04184315
:1051E000086010490868120610430860FFE70D4880
:1051F00000688001002801D4FFE7F8E70C4908683F
:105200000322904308600868022210430860FFE709
:10521000074800680C210840082801D0FFE7F7E79D
:1052200004B010BD00100240FFFF0000002002404B
:10523000041002402C100240FFFF007F80B5FFF7F2
:1052400081FF80BD80B584B00023019304200090CD
:105250001B481C4940F2002201F05AF903900398C0
:10526000012804D0FFE71848FDF7C5FAFFE700233F
:105270000193052000901548154940F2001201F0F5
:1052800047F903900398012804D0FFE71148FDF780
:10529000B2FAFFE700230193032000900E480F4964
:1052A00040F2001201F034F903900398012804D071
:1052B000FFE70B48FDF79FFAFFE704B080BDC0464B
:1052C000152E0008037D0008D47C0008112D00086D
:1052D000847C0008B17C0008A12900087A7C0008C1
:1052E000907C0008EFF3108072B6704780B586B0EE
:1052F0002748FFF747FE2748FFF744FE0920C0066E
:1053000001900721009140F200220292FDF74EF930
:105310000099019840F20042FDF748F901980221F6
:10532000012240F20063FDF7C6F90198029B0021BB
:10533000039103220492FDF705FAB248059000F0AC
:105340001FF90598E121490200F09AF803990598A0
:1053500000F033FA0399059800F00BFA03990598C9
:1053600000F0E3F90598042100F0F4F9059808210C
:1053700000F014FA059800F04FF904991B20FDF78E
:1053800013FF0598052100F06EF906B080BDC046F8
:105390000E06000011050000374900200880704704
:1053A000354800887047C04685B000910146009896
:1053B000049103A908803048028802A8028000886E
:1053C0000988491E884205DDFFE70398401E02A9AF
:1053D0000880FFE701A900200880FFE701A80088F6
:1053E00002A9098888420CDAFFE701A8028823484D
:1053F000805C04998854FFE70198401C01A908804B
:10540000ECE7049A02A803880021D154008805B073
:105410007047C04685B0009101460098049103A9E9
:1054200008801548028802A80280008809888842FE
:1054300004DDFFE7039802A90880FFE701A9002027
:105440000880FFE701A8008802A9098888420CDAD1
:10545000FFE701A802880948805C04998854FFE7A7
:105460000198401C01A90880ECE70349002008804E
:1054700002A8008805B0704764000020083B0020A7
:1054800080B588B0079006910020059004900390A5
:105490000290079801905849884214D0FFE701987C
:1054A0005649884214D0FFE701985549884214D0E4
:1054B000FFE701985349884214D1FFE70520FFF721
:1054C00079FA05900FE00A20FFF774FA05900AE0D8
:1054D0000220FFF76FFA059005E00220FFF76AFA55
:1054E000059000E0FFE7079800680004002818D541
:1054F000FFE70598400006994A088018B0FBF1F0D4
:105500000290029813490840049002980007400F47
:10551000039004A8008803A9098808430799C86074
:1055200016E0059806994A088018B0FBF1F0029041
:10553000029808490840049002980F2108400390FF
:1055400004A8008803A9098808430799C860FFE7F1
:1055500008B080BDF0FF000081B000900098406A64
:105560000649084001B0704782B001900091009850
:10557000024908400199886202B07047FF010000AB
:1055800080B586B00590059804901B49884217D0D5
:10559000FFE70498194988421AD0FFE70498184990
:1055A00088421DD0FFE704981649884220D1FFE7C2
:1055B00018480390FFF70AFD0398FFF7F5FC18E081
:1055C00013480290FFF702FD0298FFF7EDFC10E090
:1055D0000E480190FFF7FAFC0198FFF7E5FC08E0A0
:1055E00009480090FFF7F2FC0098FFF7DDFC00E0AF
:1055F000FFE706B080BDC04600440040004C0040BC
:105600000050004000380140140400001304000062
:10561000110400000E03000081B00090009908689A
:1056200001221043086001B0704784B00091014628
:105630000098029101A9088002980A88920980586E
:1056400009881F221140C840C00720B1FFE703A905
:105650000120087003E003A900200870FFE703A8F9
:10566000007804B0704782B00190684601800088DD
:105670001F220146114001238B400199820988585D
:105680001843885002B0704782B001900091009892
:105690000C49884208D1FFE70199D022885848F286
:1056A0000003984388500BE000981F21090408402C
:1056B000000C012282400199086A10430862FFE74A
:1056C00002B0704709340F3410B585B003900291D1
:1056D000002001900090039802A909888909405888
:1056E000029C1F231C4001210A46A2401040019049
:1056F0000398029A920D8058029A1B041A40120CC9
:10570000914008400090009838B1FFE7019820B11F
:10571000FFE704A90120087003E004A90020087035
:10572000FFE704A8007805B010BD82B00190009199
:10573000019908680122904308600199086840F2C5
:10574000006290430860009A01990868104308605D
:1057500002B0704782B0019000910199086804225C
:1057600090430860009A019908681043086002B0ED
:10577000704782B00190009101990868012290431E
:1057800008600199486843F2000290434860009A1B
:10579000019948681043486002B0704782B0019098
:1057A000009101990868082290430860009A0199C5
:1057B00008681043086002B0704782B00190009101
:1057C000019908680122904308600199086841F234
:1057D000000290430860009A01990868104308602D
:1057E00002B0704782B00190019800690090019961
:1057F00088684968886001994868896848600098A5
:1058000040680199884205D1FFE7019880680099B6
:10581000486000E0FFE701990020086100990868EE
:10582000401E08600098006802B07047704780F31F
:105830001088704781B00090009908460830486091
:10584000009A0020C1439160009A11460831D1604E
:10585000009A1146083111610099086001B0704743
:1058600081B0009000990020086101B0704784B0B9
:10587000039002910298006800900098401C20B9A3
:10588000FFE703980069019010E003980830019049
:10589000FFE70198406800680099884205D8FFE753
:1058A000FFE7019840680190F3E7FFE7019840683F
:1058B000029948600298416888600198029988605E
:1058C0000298019948600398029908610399086851
:1058D000401C086004B0704772B60D490868401C4F
:1058E0000860BFF34F8FBFF36F8F704708480068A1
:1058F00018B9FFE772B6FFE7FEE705480168491EE1
:105900000160006810B9FFE762B6FFE77047C04664
:105910005800002080B586B0059005980490059841
:10592000002856D0FFE704980838049004980390A4
:1059300003990020284A914202900FD3FFE7039970
:105940002548264A821801200023009391420190A5
:1059500001D90098019001980290FFE70298C007D2
:1059600018B9FFE772B6FFE7FEE70398C079C009F0
:1059700018B9FFE772B6FFE7FEE70398006818B1B1
:10598000FFE772B6FFE7FEE70398C079C009F0B100
:10599000FFE703980068C0B9FFE703994868012250
:1059A000D2079043486000F071FA039842680C49AE
:1059B0000868801808600398FEF738FB09490868F2
:1059C000401C086001F0A0F800E0FFE700E0FFE7FE
:1059D000FFE706B080BDC046780A0020FF2F000018
:1059E0006C3C0020883C002080B584B00390039874
:1059F000806902900298801E017801A801700078E9
:105A0000662803D1FFE700F033F902E072B6FFE742
:105A1000FEE704B080BD000010B51048016840F2F8
:105A2000E832B1FBF2F370490B600B680C49B1FB33
:105A3000F3F16A4B19606D4B5E21196068490423CC
:105A40000B60684C002323600068B0FBF2F0401E3E
:105A5000674A10600720086010BDC046080000209B
:105A6000FFFFFF0080B588B0079007985B49096881
:105A7000884204D9FFE7594800680790FFE772B6EB
:105A8000BFF34F8FBFF36F8FFCF7B0FB10B9FFE789
:105A900062B6A1E0524906200860524800680390AF
:105AA000039820B9FFE7504800680390FFE7039888
:105AB0004D490A680799491E5143401806905248BB
:105AC0000068400100280AD5FFE7012040064E4942
:105AD0000860454801680698401A0690FFE7069856
