:020000040800F2
:100000008043002069010008F9160008A50B0008CC
:1000100000000000000000000000000000000000E0
:100020000000000000000000000000004117000870
:100030000000000000000000FD1600085D17000829
:100040007B0100087B0100087B0100087B010008A0
:100050007B0100087B0100087B0100087B01000890
:100060007B0100087B0100087B0100087B01000880
:100070007B0100087B0100087B0100087B01000870
:100080007B0100087B0100087B0100087B01000860
:100090007B0100087B0100087B0100087B01000850
:1000A0007B0100087B0100087B0100081D18000887
:1000B000791800087B0100087B0100087B0100081B
:1000C0007B0100087B0100087B0100087B01000820
:1000D0007B0100087B010008000000007B01000894
:1000E0007B0100087B0100087B0100087D0B0008F4
:1000F0000000000000000000000000007B0100087C
:1001000000000000000000000000000000000000EF
:100110000000000000000000000000007B0100085B
:100120007B0100087B0100087B0100087B010008BF
:100130007B0100087B0100087B0100087B010008AF
:100140007B0100087B0100087B0100087B0100089F
:100150007B0100080348854600F0E4FB00480047A7
:1001600005270008804300200448804704480047D2
:10017000FEE7FEE7FEE7FEE7FEE7FEE78917000879
:1001800055010008F0B51FB40646002082B00546B0
:100190004024019100901BE0019922460F46304611
:1001A00000F06FF9049A059B801A994110D310460C
:1001B0001946224600F055F9361A8F41019722461A
:1001C00001200021009F00F04CF938184D410090AB
:1001D0002046641E0028DFDC019B00982946324639
:1001E00007B0F0BD30B5434351435C18010C130C0C
:1001F0000D465D432C1980B292B2054655435143DA
:100200000A0C09044D1962415843010C00044019BD
:10021000514130BD03460B439B0703D009E008C999
:10022000121F08C0042AFAD203E00B780370401CA6
:10023000491C521EF9D27047D2B201E00270401C34
:10024000491EFBD270470022F6E710B513460A4656
:1002500004461946FFF7F0FF204610BD30B50546AD
:100260002A460B4610781C78521C5B1C002801D0D3
:10027000A042F7D0002C03D0002802D06D1CEFE77D
:10028000284630BDF8B502464A40D40F42004B0024
:1002900052085B089A4202D20246084611464A00BA
:1002A00023D0C30D4A00DDB2120EAD1A202D35DA6F
:1002B00049020126490AF6058A19002C00D052424B
:1002C00020214F1B1146B9402A411018C20D9A42F5
:1002D00021D0002C17D0012D08DCDA05801AD20FAE
:1002E0008019D207DBB200F0E5F8F8BDDA05801A14
:1002F000012340001B06C01880185A428018CA0FFC
:100300001043490007E04908C2071143DA05801A83
:1003100080194008801800F0C5F8F8BD610001227E
:10032000511A001BF7E70122D2075140AAE7012228
:10033000D2075040A6E7024670B54A40D30FDB070C
:1003400040002DD04A002AD0010E140E00021202E5
:100350000919400A520A8418E50104465443000A68
:10036000120A2E045043A4194219200CC543AA189E
:10037000120C0125AD03521C521912047F392404BA
:1003800000D0521C104301D44000491EC2B20C06DA
:10039000C0092018401C4008802A02D003E0002039
:1003A00070BD40084000002900DA0020184370BDED
:1003B00070B502464A40D50F40004A00ED0740089C
:1003C0005208002814D0002A12D0C40DD30D4102C7
:1003D0000120C0055202490A520AE41A09181218EB
:1003E0007D34914201D3641C00E04900002C01DA05
:1003F000002070BD0023914201D3891A03434008B5
:1004000049000028F7D100290AD0914202D10121E8
:10041000C90705E0914201D2012101E00121C94350
:10042000E005C018401900F03DF870BD10B500227D
:100430009623114600F03EF810BDC20FD2074000CF
:1004400040080BD0C10D0723DB01C9184002090584
:10045000400A1143C208400711437047002001467B
:10046000704710B5202A04DB0146203A9140002055
:1004700010BD914020239C1A0346E340194390404D
:1004800010BD10B5202A04DB0846203AD0400021D8
:1004900010BD0B46D340D0402024A21A91400843FF
:1004A000194610BD002904DA401C490001D140085A
:1004B0004000704770B40024050C05D110240004DE
:1004C00002D1002921D01124050E01D100020834E7
:1004D000050F01D10001241D850F01D18000A41C4E
:1004E000002801DB4000641C002908D020252E1BB9
:1004F0000D46F540A14000D00121294308430106E3
:100500001B1B000ADB1D02D5002070BC7047DB05F9
:10051000181880180029F8DA401C4900F5D170BC81
:1005200040084000704710B541000DD04100090E51
:10053000962909DC7E290ADC07DB410205D0C00FC1
:100540007F21C007C905401810BD002010BD9622AC
:10055000541A20210A1B01469140E040FFF7A2FFF8
:10056000A04010BDF0B507460846584087B0C00F00
:10057000049048000E46590040084908BC1A8841BA
:1005800005D2384631461E4617460B4602465800ED
:10059000400810434CD0300D039040055900400DE9
:1005A000490D0590401A0290402872DA1803012183
:1005B000000B09050843019004980092002805D01B
:1005C00001995242002088410092019002984021F6
:1005D0000A1A01990098FFF744FF05460C466B463E
:1005E00007CB00F0D6F9C0197141039A0E0D002314
:1005F000D71756401A467A40164344D0049A002A28
:100600002DD0029A012A039A15DC1205C01A9141D5
:1006100001263605001C7141D20F059ED2070093BA
:10062000019202962A46234600F0DFF907B0F0BD9A
:1006300038463146FAE71605224A0F46B218C01A64
:10064000B74101210905001C4F4100187F411146A7
:1006500018187941E20F10436D19644113E0E20765
:100660006D0815436408C2071443039A0126120556
:10067000C01A91413605001C7141CE074008304335
:100680004908C01851412A46234600F0A1F9CDE798
:10069000FFE7049801224000C117121A00238B4182
:1006A00004983146C417381AA141EEE730B401244A
:1006B000E407634030BC55E730B40124E4076140EF
:1006C00030BC4FE70000E0FFF0B51FB488B00B99D5
:1006D0000998002448400999C00F49004908099128
:1006E000C0070B990090490049080B910999089897
:1006F000A64608431CD00B990A98084318D00998BD
:1007000001244000420D4800410D099824050003D2
:10071000000B204309900B980003000B20430B9023
:1007200050181C494018002201901446104605E05C
:10073000002001460DB0F0BD032801DA034600E0B9
:1007400003239C46C11A0AAE0AE05F0008ADED5BC8
:100750004F00F75B7D430027AA187C41491C5B1EB4
:100760006145F2DD410004AB5A522104120C0A43E8
:10077000240C401C0828DFDB019802900099704689
:1007800001910090059B049A0799069800F02DF9B5
:10079000D0E700000DFCFFFFF0B50C465C4085B0D3
:1007A000E40FE40703944C000026640859009446C3
:1007B000490802460296224321D062460A431ED0CF
:1007C0006200570D4A000E032303550D0124024613
:1007D0002C492405781B1B0B360B4018234326435A
:1007E000614600901C46501AB44103D30098401C47
:1007F000009002E0921800985B41002803DA002084
:10080000014605B0F0BD00200121090507468646D6
:1008100011E064461D46141BB54106D36546521BC4
:10082000B341744607430C43A646CD074008490828
:10083000284392185B4105460D43EAD11046184300
:1008400013D06046194650407140084306D06046B8
:10085000101AB34106D20122002306E00022012330
:10086000DB0702E00122D2435310009874460105D1
:10087000381C6141029C039D0019694100F0A8F8F1
:10088000BFE70000FD030000C20F4100400201234A
:10089000400ADB05D207090EC0187F2901DA0020C3
:1008A0007047962903DC9623591AC84001E096390F
:1008B0008840002AF4D04042704700004A000903F3
:1008C0000123090B1B0519430A4B10B5520D9A421F
:1008D00002DA0020014610BD064B34339A4203DC95
:1008E0009A1AFFF7CEFD10BD034BD218FFF7B9FDE2
:1008F00010BD0000FF030000CDFBFFFF10B5002975
:1009000004DB0124E40740428C412146002B04DB38
:100910001C460123DB075242A341994200D1904279
:1009200010BD00001CB5094800900948019005461B
:100930000126009C05E0E36807CC33430C3C984754
:100940001034AC42F7D3FFF709FC000044840008E0
:100950006484000870B50446002903D000202022DA
:10096000012310E0002801D00020C043C046C0464B
:100970000DE02546D5408D4205D30D469540641BBC
:100980001D46954040191546521E002DF1DC2146AA
:1009900070BD10B5202A06DBCB170846203A10415F
:1009A000C1170B4306E00B461341D0402024A21A86
:1009B00091400843194610BD420005D04200120E76
:1009C00052428A4201DB00207047C905081870476F
:1009D00010B5002B08DA0024401C614192185B41DD
:1009E0001A4301D14008400010BDF0B51FB482B0D9
:1009F00005460C0003D0084606F024F802E006F095
:100A000021F820300246009021462846FFF729FDB4
:100A1000049B059A04460F4618431143084314D01B
:100A2000184610431BD0009840210A1A1846059911
:100A3000FFF727FD05460E46009A05990498FFF733
:100A400010FD084305D0012004E02046394607B0D8
:100A5000F0BD0020C11705430E432C4337430099D6
:100A60000E986305401A7905E40A00220C43FD0A3A
:100A70000A3002D500200146E9E701051019694155
:100A80000C9C0D9D00196941FFF7A2FFDFE7C2171B
:100A9000C10F504010B54018CA0796230021FFF738
:100AA00009FD10BD80B5A8B040F2F4101690FFE724
:100AB0001698411E169168B3FFE704F003FB014648
:100AC00015A801800088012820DBFFE717A8019006
:100AD0004021FFF7B8FB01983F2104F017FB0246C5
:100AE000019814A90A800A88002181542149FFF73E
:100AF000B5FB50B1FFE7204817A905F075FF04F0DA
:100B0000D9FA27A9012008702BE0FFE7012001F0A6
:100B1000DFF8CDE704F0D6FA014613A8018000887B
:100B2000012816DBFFE703A800904021FFF78BFBAD
:100B300000983F2104F0EAFA0099024602A80280D8
:100B40000288002088540A4805F04EFF04F0B2FAEB
:100B500003E0064805F048FFFFE727A900200870DA
:100B6000FFE727A8007828B080BDC0462F7D000889
:100B7000B7820008BB8300082784000880B540F2D4
:100B8000002001F0B5F948B1FFE740F2002001F084
:100B9000A7F903490868401C0860FFE780BDC0460C
:100BA00064000020FFE7FEE780B5FFE7174840F24A
:100BB000001101F04FFCFFE7054805F015FF40F27A
:100BC000F41001F085F816490020087080BDC04679
:100BD000467D000880B5FFE70C4840F2001101F0A7
:100BE00031FCFFE70A4805F0FFFE0A4800F056FD19
:100BF00020B9FFE7084805F0F7FE03E0074805F0D5
:100C0000F3FEFFE706490120087080BD000400489C
:100C10002C7F000888130000947F0008997D00084D
:100C200060000020F0B5DFB05EA9159100201090A3
:100C30000870C44803F066FFC34803F063FF09204F
:100C4000C0060F9007210E910422119201F09AFB29
:100C50000E990F980822129201F094FB0F9802212E
:100C6000012213920C2301F012FC0F981099119B92
:100C7000032201F053FCB548149004F0D3FB149800
:100C8000E121490204F04CFB1099149804F0F7FCA0
:100C90001099149804F0CFFC1099149804F0A7FC54
:100CA0001199149804F0B8FC1299149804F0D8FC27
:100CB000149804F003FC13991C2002F019FA1498FC
:100CC000052104F031FC00F01BFEFFF76DFF1599C4
:100CD00014200870FFE75EA80078002848D0FFE7DE
:100CE00004F0E8F95CA90020087199495C915B90D7
:100CF000FFE75B98032813D8FFE7FFE7EE48EF49CB
:100D000004F0F4FB08B9FFE7F8E75B995CA8415CE5
:100D1000E94804F07BFBFFE75B98401C5B90E8E749
:100D200040F22C1000F0D4FF04F0CCF9014652A898
:100D300001800088012812DBFFE753A80D902021D5
:100D400004F0E4F90D988449FFF788FA30B1FFE721
:100D500004F0B0F9814805F047FE09E003E07D4862
:100D600005F042FEFFE75E98401E5EA90870B2E7FC
:100D70005EA8007860B9FFE7794805F035FEFFE727
:100D8000784805F031FE40F2E83000F0A1FFF7E7C7
:100D9000754805F029FE4FA900200C908872734811
:100DA00008817348509073484F9004F083F90C9871
:100DB0004E90FFE74E98092813D8FFE7FFE7F34866
:100DC000F34904F093FB08B9FFE7F8E74E994FA801
:100DD000415CEE4804F01AFBFFE74E98401C4E9031
:100DE000E8E740F2F41000F073FF04F06BF90146FD
:100DF0004DA801800088012814DBFFE73DA80B9077
:100E00004021FFF720FA0B983F2104F0C1F90B991C
:100E100002463CA80280028800208854574805F00A
:100E2000E3FD03E0544805F0DFFDFFE739A90A20A0
:100E3000088153483A905348399004F03BF9002018
:100E40003890FFE73898082813D8FFE7FFE7CF4826
:100E5000CF4904F04BFB08B9FFE7F8E7389939A808
:100E6000415CCA4804F0D2FAFFE73898401C389039
:100E7000E8E740F2F41000F02BFF04F023F90146FC
:100E800037A801800088012814DBFFE717A80A9023
:100E90008021FFF7D8F90A987F2104F079F90A999F
:100EA000024616A80280028800208854374805F0C0
:100EB0009BFD03E0344805F097FDFFE7344805F05B
:100EC00093FD0A20069000F0FFF86420059000F0E2
:100ED000FFFE0020079000F0C5F9059800F0F8FE2D
:100EE0000320099000F026FA059800F0F1FE172083
:100EF00008900724214600F05DFB059800F0E8FE0D
:100F00000125284600F0ECFA059800F0E1FE0426E1
:100F1000304600F07BFA059800F0DAFE204600F03B
:100F20003DF90699079A089B09980494039602953F
:100F300001940090174805F057FDFFF74BFE5FB096
:100F4000F0BDC0461107000011050000004400403C
:100F500041540D0A8D7E0008BB830008AA8000085A
:100F6000FB7C0008177D0008AD7E00080D0A00001C
:100F70004444523F41542B4149830008FE820008FB
:100F800046473F0D41542B4331830008EA82000855
:100F9000D37E00089581000880B584B00191014698
:100FA0000198039102A90880039809880B2217234E
:100FB00000F002F804B080BD10B58AB004920A4671
:100FC00001460498099108A90A8007AA108006A87A
:100FD0000370098812880378354805F005FD354807
:100FE00005F002FDFFE7CF48CF4904F07FFA08B9CA
:100FF000FFE7F8E707A803904178CA4804F006FA2B
:10100000039841782E4805F0EFFCFFE7C548C64934
:1010100004F06CFA08B9FFE7F8E707A80290017836
:10102000F54804F0F3F902980178254805F0DCFC56
:10103000FFE7F148F14904F059FA08B9FFE7F8E78A
:1010400006A801900178EC4804F0E0F901980178D5
:101050001B4805F0C9FC05A900200880FFE705A88A
:10106000008808A9098888421CDAFFE7099805A9C1
:101070000988415C124805F0B7FCFFE7DE48DF490C
:1010800004F034FA08B9FFE7F8E7099805A90988D8
:10109000415CD94804F0BAF9FFE70598401C05A95E
:1010A0000880DCE7074805F09FFC0AB010BDC04689
:1010B000697D00089983000800440040070700008C
:1010C000938300085F83000880B58AB008A9009167
:1010D000088003F0EFFF00980088020AC3B22A4993
:1010E00003A8019005F090FC0199F84805F07CFCFC
:1010F00000200290FFE7029903A8405C98B1FFE747
:10110000FFE7F348F34904F0F1F908B9FFE7F8E71E
:10111000029903A8415CEE4804F078F9FFE70298D1
:10112000401C0290E7E7FFE7E948EA4904F0DEF9EE
:1011300008B9FFE7F8E7E6480D2104F067F9FFE793
:10114000E348E44904F0D2F908B9FFE7F8E7E048DA
:101150000A2104F05BF9FFF7A5FC48B1FFE708A8F6
:1011600001880D4805F040FC09A90120087006E03F
:10117000084805F039FC09A900200870FFE709A814
:1011800000780AB080BDC046BE830008004400401D
:101190000707000060820008B780000880B58AB0A9
:1011A00008A90091087003F085FF009802782A4989
:1011B00003A8019005F028FC0199F94805F014FCFA
:1011C00000200290FFE7029903A8405C98B1FFE776
:1011D000FFE7F448F44904F089F908B9FFE7F8E7B4
:1011E000029903A8415CEF4804F010F9FFE7029868
:1011F000401C0290E7E7FFE7EA48EB4904F076F984
:1012000008B9FFE7F8E7E7480D2104F0FFF8FFE72A
:10121000E448E54904F06AF908B9FFE7F8E7E1486E
:101220000A2104F0F3F8FFF73DFC48B1FFE708A8F6
:1012300001780B4805F0D8FB09A90120087006E0E9
:10124000064805F0D1FB09A900200870FFE709A8AE
:1012500000780AB080BDC0461D840008898200085D
:101260008081000880B58AB008A90091087003F059
:1012700021FF009802782A4903A8019005F0C4FBD9
:101280000199C74805F0B0FB00200290FFE70299E2
:1012900003A8405C98B1FFE7FFE7FB48FB4904F077
:1012A00025F908B9FFE7F8E7029903A8415CF64879
:1012B00004F0ACF8FFE70298401C0290E7E7FFE774
:1012C000F148F24904F012F908B9FFE7F8E7EE48EF
:1012D0000D2104F09BF8FFE7EB48EC4904F006F918
:1012E00008B9FFE7F8E7E8480A2104F08FF8FFF7AC
:1012F000D9FB48B1FFE708A801780D4805F074FB59
:1013000009A90120087006E0084805F06DFB09A94D
:1013100000200870FFE709A800780AB080BDC04629
:10132000E08300080044004007070000F581000842
:10133000F480000880B58AB008A90091087003F015
:10134000B9FE009802782B4903A8019005F05CFBD8
:101350000199CC4805F048FB00200290FFE7029974
:1013600003A8405C98B1FFE7FFE7C748C74904F00E
:10137000BDF808B9FFE7F8E7029903A8415CC24845
:1013800004F044F8FFE70298401C0290E7E7FFE70B
:10139000BD48BE4904F0AAF808B9FFE7F8E7BA4823
:1013A0000D2104F033F8FFE7B748B84904F09EF880
:1013B00008B9FFE7F8E7B4480A2104F027F8FFF777
:1013C00071FB60B1FFE708A801780E4805F00CFB3F
:1013D00008980D49087009A90120087006E008481E
:1013E00005F002FB09A900200870FFE709A80078B2
:1013F0000AB080BDF88300080044004007070000E1
:10140000358200083A8100080C00002080B58AB0BF
:1014100008A90091087003F04DFE009802782A494F
:1014200003A8019005F0F0FA0199964805F0DCFA5E
:1014300000200290FFE7029903A8405C98B1FFE703
:10144000FFE79148914904F051F808B9FFE7F8E740
:10145000029903A8415C8C4803F0D8FFFFE702988B
:10146000401C0290E7E7FFE78748884904F03EF810
:1014700008B9FFE7F8E784480D2103F0C7FFFFE74D
:101480008148824904F032F808B9FFE7F8E77E485E
:101490000A2103F0BBFFFFF705FB48B1FFE708A8EF
:1014A00001780E4805F0A0FA09A90120087006E0AD
:1014B000094805F099FA09A900200870FFE709A872
:1014C00000780AB080BDC04611840008D8820008A8
:1014D000004400400707000074820008698100088A
:1014E00080B58AB008A90091087003F0E3FD009868
:1014F00002782A4903A8019005F086FA019961480B
:1015000005F072FA00200290FFE7029903A8405C00
:1015100098B1FFE7FFE7F2485C4903F0E7FF08B93D
:10152000FFE7F8E7029903A8415CED4803F06EFF7E
:10153000FFE70298401C0290E7E7FFE7E8485349BD
:1015400003F0D4FF08B9FFE7F8E7E5480D2103F001
:101550005DFFFFE7E2484D4903F0C8FF08B9FFE728
:10156000F8E7DF480A2103F051FFFFF79BFA48B183
:10157000FFE708A801780E4805F036FA09A901200E
:10158000087006E0094805F02FFA09A90020087044
:10159000FFE709A800780AB080BDC046EC830008C8
:1015A000D882000800440040070700000A820008B3
:1015B0000B81000880B58CB00AAA0092107009A8AF
:1015C0000190017003F076FD009901980A78037884
:1015D0002B4904A8029005F017FA0299294805F052
:1015E00003FA00200390FFE7039904A8405C98B138
:1015F000FFE7FFE7BA48254903F078FF08B9FFE79E
:10160000F8E7039904A8415CB54803F0FFFEFFE743
:101610000398401C0390E7E7FFE7B1481B4903F03C
:1016200065FF08B9FFE7F8E7AD480D2103F0EEFECE
:10163000FFE7AB48154903F059FF08B9FFE7F8E7A2
:10164000A7480A2103F0E2FEFFF72CFA60B1FFE79A
:1016500009A801780F4805F0C7F909980E490870E4
:101660000BA90120087006E0094805F0BDF90BA997
:1016700000200870FFE70BA800780CB080BDC046C2
:10168000D0830008D882000800440040070700000B
:101690001F820008228100080D00002080B582B062
:1016A0000090FFE70098411E009178B1FFE7B44831
:1016B00040F2002100F0D6FE20B1FFE701A9012091
:1016C000087012E0012000F003FBEBE7AC4840F2A9
:1016D000002100F0C7FE0146481E8141054805F083
:1016E00083F901A900200870FFE701A8007802B083
:1016F00080BDC0461383000870470000EFF30980E7
:101700000E4A11682838086000227346FCC044461F
:101710004D4656465F46F0C072B604F01FFB62B6F7
:10172000064A116808681830F0C8A046A946B246B3
:10173000BB4680F309882838FCC81847FC070020FE
:1017400004207146084203D0EFF30980024A104793
:10175000EFF30880004A1047AD58000880B582B00A
:1017600003F04EFC019004F04BFE28B1FFE701208E
:1017700000070449086000E0FFE7019803F0B9FFA3
:1017800002B080BD04ED00E080B582B01B4908685E
:10179000012210430860FFE718480068800700280E
:1017A00001D4FFE7F8E716490868164A10400860B8
:1017B0000868154A1040086010490868134A10402C
:1017C0000860134908680F229043086011490868AF
:1017D00040F2031290430860086803229207904386
:1017E00008600D4900200190086003F0B5FB0199E5
:1017F0000120C00601F092FC02B080BD0010024042
:10180000041002400C00FF08FFFF007FFFFFF2FE04
:101810002C100240301002400810024080B582B007
:1018200011490868401C086010482E4903F0AEFEBC
:10183000B8B1FFE70E480088FF280DDCFFE70B4832
:1018400003F0DCFD01A908700198094B1A88511CAE
:10185000198008498854FFE70448224903F076FEBE
:10186000FFE702B080BDC0469C3C0020003801402C
:1018700062000020A03C002080B582B018481949C1
:1018800003F084FED8B1FFE7154803F0B7FD01A9C6
:10189000087015480088154988420FDCFFE7019859
:1018A00013490B88134AD0540888401C0F4A104033
:1018B00008800D490888401C0880FFE7FFE70848BA
:1018C0000D4903F013FE28B1FFE705480A4903F06C
:1018D000FEFDFFE70248094903F038FE02B080BD73
:1018E00000440040050005078C0C0020FF030000A9
:1018F000900C00208C080020030700000002020763
:1019000080B586B01D48009003F0FCF8009803F005
:10191000F9F8009803F0F6F81948029001220592B0
:1019200040F200130193114600F0B1FD019B0298B3
:1019300000210391032200F0F1FD02980399059A1A
:1019400040F20023049300F0A2FD40F2006003F097
:10195000D9F80598092103F029FA039A0498114649
:1019600000F046FA049800F0B1FA049800F0B8FAD2
:1019700005992B2001F0BCFB06B080BD12050000CC
:101980000004004881B001466846017000214056BD
:1019900000280DD4FFE70021684641561F200A4663
:1019A00002400120904049098900024A8850FFE71F
:1019B00001B0704700E100E070B582B0024601A8B6
:1019C0000270009100214056002816D4FFE7002441
:1019D00001A908570322D3431840174A80580957D2
:1019E0008C07E50EFF24AC40A043009CA401E4B2A8
:1019F000AC402043194088501AE001A908780F2410
:101A0000204008380322D34318400A4A8058002552
:101A100049578D07EE0EFF25B540A843009DAD0147
:101A2000EDB2B54028432140083919408850FFE7FE
:101A300002B070BD1CED00E000E400E085B0049051
:101A400003A8018002A90020087001A90880FFE70F
:101A500001A8008803A9098888422FDAFFE70498C3
:101A600001A90988415C0298484002A908706946AA
:101A700000200870FFE768460078072818DCFFE7B9
:101A800002A800780006002807D5FFE7029840006A
:101A90000721484002A9087004E00298400002A90A
:101AA0000870FFE7FFE70098401C69460870E2E70E
:101AB000FFE70198401C01A90880C9E702A8007847
:101AC00005B0704780B584B000200390FFE703980D
:101AD000032807DCFFE700F083F8FFE70398401CCA
:101AE0000390F4E778480068029078480068019015
:101AF0000299019841406846017002990A0A0099CA
:101B00005140017001A94A8800995140017002A911
:101B1000CA78009951400170007804B080BDC04679
:101B200080B582B001A900200880FFE701A80088E5
:101B3000FF280CDCFFE7FFF7C5FF01A90A8806496B
:101B40008854FFE70198401C01A90880EEE723496B
:101B50000020088002B080BD6E05002080B586B0F0
:101B6000059005A801900088FEF760FC8F21C9054B
:101B70000291FEF71DFC3F2109060391FEF7DBFBF6
:101B80001449FEF77FFB014601984F4A11604088D7
:101B9000FEF74CFC0299FEF70BFC0399FEF7CBFB1A
:101BA0000D49FEF76FFB494908600C490020088089
:101BB0000490FFE70498C0087C2807D8FFE7FFF7E8
:101BC00081FFFFE70498401C0490F3E7FFF7A8FFAC
:101BD00006B080BDCDCCCC3DCDCC4C3E6C050020BC
:101BE00080B592B0374907910868059036480E9045
:101BF00000688969FEF746FB05F0AAFC0799049086
:101C0000486803908868019030480F900068C9695F
:101C1000FEF738FB05F058FD079A01460198126A55
:101C20000292FEF788FB0299FEF72CFB05F04CFDB3
:101C300001460398FEF77FFB049902460598069239
:101C4000FEF779FB0699FEF71DFB079902460F98F0
:101C50001192CA680C920068496AFEF713FB05F0FE
:101C600077FC079902460E980B920A690A924A6914
:101C700008920068896AFEF705FB05F025FD079AC2
:101C800001460898D26A0992FEF755FB0999FEF7BA
:101C9000F9FA05F019FD01460A98FEF74CFB0B997D
:101CA00002460C980D92FEF746FB0D99FEF7EAFAF4
:101CB0000E9A0F991090119810601098086012B049
:101CC00080BDC046100000204000002044000020DD
:101CD00081B00090FFE70098411E0091D8B1FFE766
:101CE0000E48006840F2E831B0FBF1F0401E0C49AC
:101CF00008600C49002008600B4905200860FFE7D8
:101D000009480068C003002801D4FFE7F8E7064946
:101D100000200860DFE701B07047C04608000020DF
:101D200014E000E018E000E010E000E082B0019074
:101D30000198017800200090C1B9FFE70198417B2C
:101D40000020009091B9FFE70198817B002000906E
:101D500061B9FFE70198C17B0020009031B9FFE72E
:101D60000198007C414248410090FFE70098012122
:101D7000084002B07047000082B00120019069461F
:101D800008701648006820B1FFE769460020087017
:101D90001FE01348006820B1FFE769460020087083
:101DA00016E01048006820B1FFE76946002008707F
:101DB0000DE00D4800680D490968491E884204D1AC
:101DC000FFE769460220087000E0FFE7FFE7FFE752
:101DD000FFE76846007802B07047C046283F002001
:101DE0007C3F0020243F0020483F0020A03E0020F0
:101DF00085B0049003A8017002A90A70049B4C4AA4
:101E0000116899431160049B2D4A11689943116030
:101E1000049B2C4A116899431160049B2A4A11685B
:101E2000994311600078019020B1FFE701980128E3
:101E300006D00BE0049A3E4908681043086006E0AB
:101E4000049A1F4908681043086000E0FFE702A8F1
:101E50000078009003282FD800998A0001A08018EC
:101E60008746C04600F006B800F00FB800F018B87A
:101E700000F021B8049A1349086810430860049AD6
:101E8000114908689043086017E0049A0D490868F2
:101E900090430860049A0C490868104308600CE0FD
:101EA000049A0849086810430860049A06490868BB
:101EB0001043086001E000E0FFE705B07047C0464E
:101EC00004040140080401400C04014081B000906A
:101ED000009A174908681043086001B07047C0466F
:101EE00081B0009000981149086001B07047C04669
:101EF00084B002900D4800680299084001900C4897
:101F00000068029908400090019838B1FFE70098F6
:101F100020B1FFE703A90120087003E003A9002016
:101F20000870FFE703A8007804B07047140401406C
:101F30000004014080B586B00590049105981149D0
:101F4000084003900598049A80180F4A80180840AA
:101F5000029000F0FFF803980190FFE701980299C2
:101F600088420AD2FFE7019800F058F8FFE701988D
:101F700041F2000140180190F0E700F049F806B086
:101F800080BDC04600F0FFFFFF0F000080B586B0A7
:101F900005900491039200F0DDF800200290FFE725
:101FA0000298001D0399884218D8FFE70499029A05
:101FB00088188A5C41780902891882781204C078EE
:101FC0000006801840180190059802994018019960
:101FD00000F0D4F80298001D0290E1E702980399FE
:101FE000884211D2FFE7002000900498029A8118DD
:101FF0000398821A6846FEF70DF905980299401871
:10200000009900F0BBF8FFE700F002F806B080BDD1
:102010006E490868802210430860704780B584B01C
:1020200003900120000500F027F8014602A8017086
:102030000078D0B9FFE76549019108680222009253
:102040001043086003980B4A106008684022104350
:1020500008600120000500F00FF8009A019902AB1A
:102060001870086890430860FFE702A8007804B081
:1020700080BDC0461420024080B584B0039002A900
:1020800001200870FFE700F025F802A90870039806
:10209000401E0390FFE702A801780020012901906B
:1020A00005D1FFE70398411E88410190FFE70198A1
:1020B000C0070028E7D1FFE702A80078012804D173
:1020C000FFE702A905200870FFE702A8007804B026
:1020D00080BD000081B06946002008701C4800687F
:1020E000C00720B1FFE76946012008702BE01848BF
:1020F0000068C006002804D5FFE769460420087080
:1021000020E0134800684007002804D5FFE769462F
:102110000220087015E00E4800680007002804D56A
:10212000FFE76946032008700AE0094800680004D8
:10213000002804D5FFE7694607200870FFE7FFE79E
:10214000FFE7FFE7FFE76846007801B07047C04649
:102150000C2002401D4800680006002806D5FFE755
:1021600003490448086004480860FFE77047C04618
:102170000420024023016745AB89EFCD80B586B0CE
:102180000590049101200005FFF776FF014603A8A2
:1021900001700078A8B9FFE70C4A0292116801208B
:1021A0000190014311600499059A11600005FFF741
:1021B00063FF019A029903AB1870086890430860A6
:1021C000FFE703A8007806B080BDC046102002409B
:1021D00080B582B00190009101A80178064803F013
:1021E00015F9FFE70448054903F080F908B9FFE74E
:1021F000F8E7019802B080BD0038014007070000F1
:1022000088B0079006A801800592002004900390F2
:10221000FFE7039806A90988491E88425DDAFFE7AF
:1022200007980399405CAA2852D1FFE707990398C1
:102230004018407855284BD1FFE70398001D06A9A8
:102240000988884201DDFFE747E0079903984118B4
:1022500088780002C978401802A908800398098884
:102260004018401D01900198801C06A909888842E9
:102270002DDCFFE707980199405C552827D1FFE73F
:102280000799019840184078AA2820D1FFE70798BD
:102290000399401800900098007A059908700099F9
:1022A000487A00068A7A12048018CA7A12028018C4
:1022B000097B4018059948600298093805990881FA
:1022C00000980D300599C8600120049005E0FFE7F3
:1022D000FFE70398401C03909BE70498D0B9FFE701
:1022E0000799087800064A78120480188A78120242
:1022F0008018C978401805994860079800790599B1
:1023000008700698401F059908810798401D059997
:10231000C860FFE708B0704780B586B0014605A8E1
:1023200002900170007841001348405A02F0EAFB25
:102330000298007882001148049080581049039157
:102340008B5801210022019200F0A1F80199029B13
:10235000039A04981B789B00C058D358032200F0BE
:10236000DDF8029A039804991278920080588958EF
:10237000886206B080BDC0466C780008847800088A
:102380007478000886B00590049103920598006A5D
:1023900001900598406A009002A900200880FFE79C
:1023A00002A8008807281DD8FFE702A80188039823
:1023B000C840C00780B1FFE702A8018889000F224A
:1023C0008A400199914301910499008880008140DD
:1023D000019808430190FFE7FFE70298401C02A91B
:1023E0000880DDE702A908200880FFE702A800882E
:1023F0000F281FD8FFE702A801880398C840C0072C
:1024000090B1FFE702A80188890020390F228A4095
:102410000099914300910499008880002038814000
:10242000009808430090FFE7FFE70298401C02A9CC
:102430000880DBE7019805990862009805994862D1
:1024400006B0704782B001900091009801998862AF
:1024500002B0704782B001900091009801998861A4
:1024600002B0704783B00190009101980069009913
:10247000084204D0FFE702A90120087003E002A986
:1024800000200870FFE702A8007803B0704787B00B
:1024900006900591049203930698006801900698AF
:1024A000C068009002A900200880FFE702A8008809
:1024B0000F282BD8FFE702A801880398C840C0075F
:1024C000F0B1FFE702A801884900032213468B40C0
:1024D000019999430191059B018849008B4001991D
:1024E00019430191018849008A4000999143009164
:1024F0000499008840008140009808430090FFE75D
:10250000FFE70298401C02A90880CFE701980699CE
:10251000086000980699C86007B0704710B586B08B
:10252000059004A80170039202930078012806D157
:10253000FFE7029A059948681043486005E0029A4F
:102540000599486890434860FFE7059880680090C7
:1025500001A900200880FFE701A800880F281DD8E6
:10256000FFE701A801880298C840C00780B1FFE7D3
:1025700001A80188490003228A40009991430091F3
:102580000399008840008140009808430090FFE7CD
:10259000FFE70198401C01A90880DDE70098059934
:1025A000886006B010BD83B080B583B007930692F3
:1025B0000591029005A801900299019A002000F06F
:1025C0002FF803B080BC01BC03B08646704783B0CF
:1025D00080B583B0079306920591029005A80190FB
:1025E0000299019A032000F01BF803B080BC01BCE3
:1025F00003B08646704783B080B583B007930692D8
:102600000591029005A801900299019A012000F01D
:1026100007F803B080BC01BC03B0864670470000D9
:10262000B0B58CB00392024603980B900AA80270D2
:102630000991007823490978884201DAFFE73EE0F2
:1026400003F0D4FE0890089840F2E831B0FBF1F3B3
:102650000A465A43801A07900898B0FBF1F03C21D3
:10266000B0FBF1F30A465A43801A06900898164ABE
:10267000B0FBF2F0B0FBF1F25143401A059008981C
:102680001249B0FBF1F01821B0FBF1F25143401AAE
:1026900004900499059A069B07980AAC2478A50033
:1026A0000B4C6459019400900A4804F09DF9099874
:1026B0000B9904F0BDF9084804F096F9FFE70CB057
:1026C000B0BDC0466E06002060EA000080EE360015
:1026D00048000020F87900085F83000883B080B5C7
:1026E00083B0079306920591029005A80190029984
:1026F000019A0220FFF794FF03B080BC01BC03B035
:102700008646704780B582B000200190FFF704FE36
:102710000120FFF701FE02F077FC104804F064F995
:102720000F481049104AFFF766FFFEF77BFA0F4883
:10273000FFF761FF0E48FFF711FA0E48FFF75BFF46
:1027400000F0CCF80C48FFF756FF02F009FC0B48EC
:10275000FFF751FF03F08EFAFFE7FEE7C8780008A5
:10276000BC790008B3780008BF7800080979000830
:102770007856341221790008EC7800089478000823
:1027800080B584B0014603A801700078032801DBFE
:10279000FFE713E003A80190007803F073FB0290B9
:1027A000029845F20001FFF7C5FB019800782C2143
:1027B0004143804841180020C870FFE704B080BD45
:1027C00080B586B0034605A80370049103A90A806A
:1027D0000078022805DCFFE703A80088292801DB30
:1027E000FFE729E005A8007802F0D2FA029003A8DA
:1027F000018814204843019001982B49884201D355
:10280000FFE719E0029845F20001FFF793FB0298F9
:102810000499019AFFF7BAFB05A801782C224A43D4
:1028200064498A1801219170017803A80288019BEC
:102830000248FFF7E0FEFFE706B080BDB27B00086C
:1028400010B586B0044605A80470049103A90A8057
:1028500002930078022804DCFFE703A8008808B987
:10286000FFE71EE005A8007803F00CFB019002983A
:1028700003A9098840180C49884201D3FFE710E0FA
:10288000019802994018049903AA1288FFF77EFB69
:1028900005A800782C214143464841180120C87002
:1028A000FFE706B010BDC046015000004248704727
:1028B00082B00146684601700078032803DBFFE719
:1028C0000020019007E0684600782C2141433948F8
:1028D00040180190FFE7019802B07047B0B586B08C
:1028E00034488421FDF7AFFC33483449FDF7ABFC95
:1028F00033490020086005A90870FFE705A80078A3
:1029000002284CDCFFE705AA019213782C210291E2
:102910000C465C4327480390035514780B466343E9
:10292000C41800230493637015780C466C43041993
:10293000A37015780C466C430419E37015780C46A7
:102940006C430419237115780C466C4304196371A8
:1029500015780C466C430419A36015780C466C433B
:102960000419E36015780C466C4304192A25635555
:1029700015780C466C4304192B25635515780C46C5
:102980006C43041963771278514341182922FF20C0
:102990008854FFE70598401C05A90870AEE7094870
:1029A000009009480321054A084BFFF724FE06B0B2
:1029B000B0BDC046700700207C0000201404000059
:1029C000F407002000000408767B000800000308DC
:1029D00080B586B0059003F009FD04902148FFF70B
:1029E0000AFEFFE703F002FD039002A90020087031
:1029F000FFE702A8007802282CDCFFE702A8007895
:102A0000FFF756FF0190019808B9FFE71DE0039812
:102A100001998968401A00900098134988420ED3A2
:102A2000FFE70198407850B1FFE701990020487016
:102A300002A80178009A0D48FFF750FE05E00198C2
:102A4000407808B9FFE700E0FFE70298401C02A9C0
:102A50000870CEE7FFE704A840F2E83103F048FC35
:102A6000FFE7BFE7437A0008993A00002D7A000893
:102A700080B598B01790FFF719FF16907A48FFF7C6
:102A8000BAFDFFE703F0B2FC139014A900200690F2
:102A9000087003F0ABFC01460698129112A9CB789E
:102AA00011AA1370498851701299090A91701299EC
:102AB000D17010A90870FFE710A80078022848DC40
:102AC000FFE710A805900078FFF7F2FE0146059891
:102AD0000F910078142111AA042302F05BF81698D4
:102AE00040F2E83103F08AF930B9FFE710A8017825
:102AF0006348FFF7F3FD27E010A801780F980279EB
:102B00006048FFF778FD0F98007901281BDBFFE78D
:102B100014A80078022816DCFFE70F982921405CF2
:102B2000FF2808D0FFE70F992920085C401CC968DE
:102B3000884208D2FFE7109814AB1A78511C19701C
:102B400015A98854FFE7FFE71098401C10A90870EA
:102B5000B2E714A8007801285ADBFFE703F046FC2F
:102B6000424940180E900DA900200870FFE70DA8FB
:102B7000007814A90978884249DAFFE703F036FCA7
:102B80000E99884201D3FFE741E00DA8017815A80E
:102B9000405CFFF78DFE0C900C9820B1FFE70C987D
:102BA000407808B9FFE72DE00C982921405C401CD3
:102BB0000BA908700DA90A7815A8835C0AAA1370DE
:102BC0000B9B53700978405C1021022301F0E2FF57
:102BD000169840F2E83103F011F940B9FFE70DA86B
:102BE000017815A8415C2248FFF778FD0AE00DA89E
:102BF000017815A8415C0C982922825C1D48FFF7DA
:102C0000FAFCFFE70D98401C0DA90870AFE7FFE73D
:102C100003F0ECFB1399401A099014A801781648A8
:102C2000164A03920029049001DC0398049004984A
:102C30000890089840F2E832019200230293194666
:102C4000FDF7D0FA019A029BFDF79CFA07900998CC
:102C50000799884206D2FFE707980999401A02F0BF
:102C600087FFFFE70EE7C046177C0008B80B00009F
:102C7000457C0008297C0008E02E0000983A0000FE
:102C80005F7C0008DB7B000810B5FFB089B087903F
:102C900024A900200870FFF709FE2390F248FFF7EF
:102CA000AAFCFFE702F012FA20B9FFE70A2002F0BF
:102CB0005FFFF7E702F00AFA21A9088000202090C0
:102CC000FFE72098042819DCFFE7012002F050FFFD
:102CD00002F0FCF901461FA80180008821A909889B
:102CE000884204D1FFE72098401C209005E01F98FF
:102CF00021A9088000202090FFE7E2E702F0EAF92E
:102D000047A840F2001102F083FA014625A801808D
:102D100000880C281CDCFFE71EA900200880FFE7C4
:102D20001EA8008825A9098888420DDAFFE71EA899
:102D3000018847A8415CDB4803F056FEFFE71E9878
:102D4000401C1EA90880EBE7D24803F04DFEA9E71E
:102D500047A81D9025981CA908801D98098812AACB
:102D6000FFF74EFA12981BA9087013981A90149A3C
:102D700019A80280159A189209780288C44803F0AD
:102D800033FE11A900200880FFE711A8018819A8C7
:102D900002880020914207900DDAFFE711A8018810
:102DA0000120002205924029069001DB059806903B
:102DB00006980790FFE70798C00768B1FFE71898E3
:102DC00011A90988415CB74803F00EFEFFE711988E
:102DD000401C11A90880D8E7AE4803F005FE1A98F8
:102DE00080B1FFE719A8008801280BDBFFE719A8CD
:102DF0000088802806DCFFE7199816A90880189833
:102E0000179005E0199816A9088018981790FFE701
:102E10002398007878B1FFE71BA80078042805D034
:102E2000FFE71BA80078052805D1FFE72398407825
:102E300010A9087087E010A9002008701BA800786E
:102E4000012838D1FFE716A80088102833D3FFE700
:102E500017980490027B417B09028A18817B0B043E
:102E6000C17B0906C91889180F91027A417A0902B3
:102E70008A18817A0B04C17A0906C91889180E913B
:102E80000279417909028A1881790B04C17909060E
:102E9000C91889180D910278417809028918827839
:102EA0001204C0780006801840180C900CA8C07856
:102EB00010A908703DE01BA80078022838D1FFE770
:102EC00016A80088102833D3FFE717980390027BD9
:102ED000417B09028A18817B0B04C17B0906C91852
:102EE00089180B91027A417A09028A18817A0B04B7
:102EF000C17A0906C91889180A910279417909022B
:102F00008A1881790B04C1790906C91889180991B1
:102F1000027841780902891882781204C078000684
:102F200080184018089008A8407810A90870FFE79A
:102F3000FFE710A80078032804DBFFE710A90020B2
:102F40000870FFE7FFE710A801780B3126AA11806F
:102F50000078FFF7ADFC2290229808B9FFE7A1E6C0
:102F600022990120487003F041FA229988601BA839
:102F70000078401E029004283DD802998A0001A0E2
:102F80008018874600F008B800F011B800F01DB8AE
:102F900000F021B800F027B8239900200870179896
:102FA00016A90988239A229B00F002F924E02399AC
:102FB00000200870179816A90988239A229B26AC2E
:102FC0002488009400F0DCF916E016A80188324845
:102FD000FFF7E9FA10E0179816A90988239A229BAF
:102FE00000F082F908E0179816A90988239A229B15
:102FF00000F0A4F800E0FFE7002001F0BBFD2398FB
:10300000807B40B1FFE723984078FFF7B9FB239915
:1030100000208873FFE72398C07B60B1FFE7239B04
:103020005878194616319A8A5B8AFFF709FC23996A
:103030000020C873FFE72398007C80B1FFE7239945
:103040004878C98800F030F823984178C2888368AE
:103050001248FFF7D0FA239900200874FFE723985D
:10306000407BA0B102E0C046447B0008239A507820
:103070001146F431D288FFF7A3FB23984178C28828
:103080000748FFF7B8FA239900204873FFE709E6DD
:10309000567A00085F830008717A0008567B0008A2
:1030A0008F7A0008AD7A000883B0024602A8027049
:1030B00001AA11800078032801DBFFE712E002A8D3
:1030C00000782C21414308484018009000990120C5
:1030D000C87001A8008800994862044800680099F7
:1030E0008860FFE703B0704770070020F4070020F6
:1030F00080B584B00A46014603A80190017002A978
:103100000A700022009280560978FEF755FC00995B
:1031100001984056FEF736FC04B080BD82B00190A5
:10312000009101980099034A114008430249086040
:1031300002B0704780FFFF1F08ED00E010B586B0B9
:10314000059004A80180039202930398007828B1A7
:10315000FFE703988078022801D0FFE725E0039974
:10316000C8884000488204980399888203981630E2
:10317000059904AA01921288FDF74CF8019800887D
:1031800042080399C8888018C88003990120C87331
:103190000399C8888988884207DBFFE703990020E4
:1031A0000870039901200874FFE706B010BD000005
:1031B00010B590B00F900EA801800D920C9300886E
:1031C0000F2801D8FFE789E00F980690027B417B2A
:1031D00009028A18817B0B04C17B0906C91889186A
:1031E0000B91027A417A09028A18817A0B04C17A1A
:1031F0000906C91889180A910279417909028A18C1
:1032000081790B04C1790906C918891809910278D6
:1032100041780902891882781204C0780006801863
:103220004018089008A8C17807A801700078032802
:1032300001DBFFE752E00D990120087007990D9A14
:1032400051700D99887008A8059041890D9A918058
:103250000D9A0021D18001890D9A916041780D9AD3
:10326000117341890C9A11820A990C9A51820B9917
:103270000C9A516109990C9A916141780C9A1171DB
:1032800081780C9A517181780C9A1177807888B185
:10329000FFE70C99C868401CC86007A80178099A24
:1032A00008ACA37860786489019400900D48FFF71A
:1032B000A2F913E007A80078049008AC60780390A6
:1032C0000B98FDF7BAF8039A0B46049964890294A7
:1032D000019300900248FFF766F9FFE710B010BDB8
:1032E000E27A0008B57A000810B586B0059004A807
:1032F0000180039202930398007828B1FFE70398B6
:103300008078012801D0FFE738E004A80088142164
:10331000B0FBF1F101A80180008808B9FFE72DE0BA
:103320000398C08801A909884018292807DBFFE70E
:103330000398C1882820401A01A90880FFE7039854
:10334000C3881422114659434018F430059901AB43
:103350001B885A43FCF75EFF019A0399C8888018BE
:10336000C8800399C8888988884207DBFFE70399EA
:1033700000200870039901204873FFE706B010BDD4
:10338000B0B58EB00C4612990D900CA804800B922B
:103390000A9309AA118000880F2801D8FFE76FE07F
:1033A0000D980390027B417B09028A18817B0B04F4
:1033B000C17B0906C91889180891027A417A090265
:1033C0008A18817A0B04C17A0906C91889180791ED
:1033D0000279417909028A1881790B04C1790906B9
:1033E000C9188918069102784178090289188278EB
:1033F0001204C078000680184018059005A841788E
:1034000004A801700078032804DBFFE704A900206A
:103410000870FFE70B990120087004990B9A51700E
:103420000B9A0221917008990B9A91800B9A0021B6
:10343000D18007990B9A916005ADA9780B9A117309
:103440000A99487707990A9A1162A9890A9A5162DA
:10345000A9780A9A2823D154E9780A9A2923D154C1
:103460000B99887304A80178079AAB78A889069C01
:10347000ED780295019400900248FFF7BCF8FFE751
:103480000EB0B0BD0F7B000880B588B007900691E4
:103490002E48006804902E48006803902D4800686C
:1034A000029070480068001D02F0FEF808B9FFE7BE
:1034B00000E0FFE70798401CF8B9FFE70698E0B185
:1034C000FFE7FFE7244948680190019A65480368CF
:1034D0009A60019A92680368DA600268121D019B83
:1034E0009B685A600268121D019B9A6000684161E6
:1034F0000868401C0860FFE726E004980799401818
:1035000005900598F449096848600598049988422F
:1035100007D2FFE70298F0490968091D02F009F98E
:1035200011E00398EC490968091D02F002F90598B9
:10353000EB490968884204D2FFE70598E84908602A
:1035400000E0FFE7FFE7FFE708B080BD703F002025
:10355000040800200C080020483F002010B582B06D
:10356000019002F01BF96B490868401C0860DA48BA
:10357000006868B9FFE70198D749086065480068A6
:10358000012803D1FFE700F0EBFA00E0FFE713E0CA
:103590003548006870B9FFE7CF480068C06A0199F4
:1035A000C96A884204D8FFE70198CB49086000E067
:1035B000FFE700E0FFE7FFE72C480168491C0160D6
:1035C000006801990864FFE7FFE70198C06AC149F4
:1035D0000968884205D9FFE70198C06ABD490860BB
:1035E000FFE7FFE7FFE70198C16A1422104648434E
:1035F000BA490818406800900098019B98600098AC
:103600008068019BD8600198001D009B9B685860F2
:103610000198001D009B9860019BDC6A1046604386
:10362000081858610198C06A42438858401C885065
:10363000FFE7FFE702F0BCF80B48006878B1FFE74E
:10364000FFE7A5480068C06A0199C96A884203D2A9
:10365000FFE702F031FA00E0FFE7FFE700E0FFE7F5
:1036600002B010BDFC0700203C3F0020AC3E002013
:1036700080B582B002F092F80F480068B0B9FFE759
:103680000E48009002F038F80D48019002F034F82E
:1036900000990198A04A11600A490860052010218C
:1036A000002202F03DFC0449086000E0FFE702F060
:1036B0007FF802B080BDC046743F0020B43E0020B9
:1036C000C83E00201008002080B582B0FFE70F48F8
:1036D0000068C0B1FFE702F061F80D48C068C0683B
:1036E00001900198001D01F0DFFF0A490868401EA3
:1036F000086006490868401E086002F059F8019801
:1037000000F0AEF8E3E702B080BDC046A43E002062
:103710005C3F0020A03E002080B582B00190009167
:103720000198006CB8B1FFE701990A6CC86880186D
:10373000C8600199C8688968884204D3FFE7019985
:103740000868C86000E0FFE70098019AD168126C31
:10375000FCF760FDFFE702B080BD000080B58AB0D5
:1037600001200990002004900390FFE703980B28A4
:1037700010DCFFE7039A1948815C05A8815403997E
:10378000405C08B9FFE705E0FFE7FFE70398401C4E
:103790000390EBE700200890FFE70898002819DC69
:1037A000FFE70F480490049808998A000D4989188A
:1037B00000230093019105A9802202F075FD099074
:1037C000099808B9FFE705E0FFE7FFE70898401C04
:1037D0000890E2E709980AB080BDC046207A000848
:1037E000AD390008083F0020F0B58BB0119C109C4B
:1037F0000A900991089207930898800000F0CEFC87
:1038000005900598A0B1FFE7582000F0C7FC06908E
:10381000069840B1FFE706985821FCF714FD05987B
:103820000699086303E0059801F0D6FFFFE702E080
:1038300000200690FFE7069878B1FFE70A980999FB
:10384000089A079B109C119D069E002703970296DD
:103850000195009400F004F9FFE706980BB0F0BD65
:1038600080B582B001900198006B01F0B5FF01981E
:1038700001F0B2FF02B080BD82B000200090154878
:10388000006818B1FFE701200090FFE712480068C8
:10389000C06A18B1FFE70020019018E0CE48006828
:1038A000022803D3FFE7002001900FE0009818B131
:1038B000FFE70020019008E0564800680190564854
:1038C00001680198401A0190FFE7FFE7FFE70198C0
:1038D00002B07047B03E0020FC0700201408002012
:1038E000143F002082B001900B48006800684142FC
:1038F0004841019908600198006830B9FFE706481F
:103900000068C0680068009002E000200090FFE7B7
:10391000009802B07047C0460008002084B043F20F
:1039200000000090ED48029002A80078400770B1B6
:10393000FFE70298C01D0290029807218843029079
:10394000029AE6490098891A40180090FFE7029908
:10395000E1480160002141600298009A80180190BE
:1039600001980838019001980722D2431040019035
:10397000019ADC4802600268516002681160029995
:1039800003910199039A891A5160006803990860AC
:10399000039840680349086003984068024908603A
:1039A00004B07047103F0020043F002080B582B073
:1039B0000190FFE7FFF788FE87480068022803D3DD
:1039C000FFE702F079F800E0FFE7FFF755FF00900E
:1039D000009802281BD3FFE702F0BAF90D480068EF
:1039E0000D490968884203D2FFE772B6FFE7FEE798
:1039F000FFF742FF00900098022804D3FFE70098E9
:103A000001F092FF00E0FFE702F0CCFE00E0FFE7EC
:103A1000D0E7C046143F0020703F002010B584B0AE
:103A2000069C03900291019268460370029818B9AF
:103A3000FFE70698006003E0019806990860FFE739
:103A400003980699C86302980699086406980121AC
:103A500002F0A9FA009806994C22885404B010BDCF
:103A600010B586B00B9C0A9C099C089C059004919B
:103A7000039202930A98006B03998900A522FCF730
:103A8000DBFB0A98016B039880004018001F01902F
:103A9000019807218843019001A80078400718B1D8
:103AA000FFE772B6FFE7FEE70498F8B1FFE70020F2
:103AB0000090FFE700980B2813D8FFE70498009ABE
:103AC000805C0A9989183422885404980099405CD3
:103AD00008B9FFE705E0FFE7FFE70098401C00900A
:103AE000E8E70A993F220020885400E0FFE70898A1
:103AF000062803D3FFE772B6FFE7FEE7089806281B
:103B000003D3FFE70520089000E0FFE708980A9933
:103B1000C86208980A9988640A98001D01F002FE9C
:103B20000A98183001F0FEFD0A98006108990620F5
:103B3000401A0A9988610A98406201980A99096BAB
:103B4000059A029B00F066FC0A990860099820B16A
:103B5000FFE70A980999086000E0FFE706B010BD8A
:103B600080B584B000200390FFE7039805280CD8A7
:103B7000FFE70398142141431748401801F0BCFDAA
:103B8000FFE70398401C0390EFE70C48019001F019
:103B9000B3FD0B48029001F0AFFD0A4801F0ACFD07
:103BA000094801F0A9FD094801F0A6FD0199029814
:103BB000074A11600749086004B080BDDC3E002060
:103BC000F03E0020283F00205C3F0020483F0020BE
:103BD000040800200C0800201408002086B005907E
:103BE0003D480490FFE7049800680599884205D293
:103BF000FFE7FFE7049800680490F4E7049836496B
:103C000088421ED0FFE704990020344A9142029076
:103C10000FD3FFE704993148314A8218012000236D
:103C200000939142019001D900980190019802906F
:103C3000FFE70298C00718B9FFE772B6FFE7FEE793
:103C4000FFE7049803900398049949684018059980
:103C5000884209D1FFE705984268049948688018AE
:103C600048600498059000E0FFE7059803900398EA
:103C70000599496840180499096888421AD1FFE7F4
:103C8000049800681749096888420DD0FFE7049836
:103C90000068426805994868801848600498006880
:103CA00000680599086004E00E48006805990860FE
:103CB000FFE704E00498006805990860FFE70498AE
:103CC0000599884204D0FFE705980499086000E050
:103CD000FFE706B07047C046403F0020920C00202E
:103CE000FF2F00000808002080B586B005900491E1
:103CF000039202930020019004980599486005986A
:103D0000006104980399884213D8FFE70398029949
:103D1000401A05998969884203D3FFE70120019081
:103D200006E0DF4800680599091D01F002FDFFE784
:103D300014E003980299884208D2FFE70498029998
:103D4000884203D3FFE70120019006E0D3480068D2
:103D50000599091D01F0EDFCFFE7FFE7019806B0AA
:103D600080BDC04680B582B0019001F017FD01987A
:103D7000806B18B9FFE70120009002E0002000905E
:103D8000FFE701F015FD009802B080BD80B584B05A
:103D900003900291C1480068C068C0680190019812
:103DA000001D01F081FC01982821405C400700289B
:103DB00006D5FFE701980399029A00F003F906E09F
:103DC00001992822885CFE2318408854FFE7019857
:103DD000016A884704B080BD80B58AB00020099090
:103DE000089007900690FFE77548006806A9002232
:103DF00002F044F900B9A3E0069800280FD5FFE7C8
:103E000006A8001D0290029818B9FFE772B6FFE7F6
:103E1000FEE702990A6848688968904700E0FFE772
:103E20000698002800D58AE0089805900598406912
:103E300028B1FFE70598001D01F036FC00E0FFE720
:103E400004A800F0EFF803900698401E019008289F
:103E500073D801998A0001A08018874600F010B835
:103E600000F00EB800F037B800F03CB800F052B8DF
:103E700000F006B800F004B800F02DB800F032B839
:103E800005992822885C0123184388540598079BCC
:103E900081695918039AFFF727FFD0B1FFE705980A
:103EA0002821405C4007002808D5FFE705980799BE
:103EB00082698918039A00F085F806E0059928229E
:103EC000885CFE2318408854FFE70598016A8847FC
:103ED00000E0FFE732E005992822885CFE231840C5
:103EE00088542BE005992822885C012318438854C4
:103EF0000798059988610598806918B9FFE772B637
:103F0000FFE7FEE70598039B816959181A46FFF7FA
:103F1000EBFE13E005982821405C8007002804D4BC
:103F2000FFE7059801F058FC06E005992822885C17
:103F3000FE2318408854FFE700E0FFE7FFE753E760
:103F40000AB080BD80B584B00390029101F000FFFB
:103F5000684600F067F80190009858BBFFE70298A8
:103F600060B9FFE703980199884207D8FFE702F09C
:103F700019FC03980199FFF709FF1AE0029838B17C
:103F8000FFE7474800680068414248410290FFE768
:103F90000B4800680399019A891A029A01F098FD6A
:103FA00002F000FC18B9FFE701F086FD00E0FFE732
:103FB000FFE702E002F0F6FBFFE704B080BDC04679
:103FC000743F002080B584B0039002910192FFE716
:103FD0000398029B81695918019AFFF785FE48B141
:103FE000FFE7039881690298401802900398016ADC
:103FF0008847EDE704B080BD08480068006828B92C
:10400000FFE707490020C043086006E00348006856
:10401000C068006802490860FFE770470408002094
:10402000143F002080B582B0019002F0DFF90090CB
:1040300000980A490968884206D2FFE700F010F8A4
:1040400001990120086003E0019900200860FFE762
:10405000009802490860009802B080BDF80700206F
:1040600080B582B0FFE70D480068006858B1FFE7EF
:104070000A480068C0680068019001980021C9439F
:10408000FFF784FEEFE7054A1068009004490868CE
:1040900010600098086002B080BDC0460008002093
:1040A0001008002081B00020009008480068401CE3
:1040B00018B1FFE772B6FFE7FEE772B6FFE70098B8
:1040C00008B9FFE7FBE701B07047C0465800002081
:1040D00080B584B00390FFE701A8FFF703FC0290CE
:1040E00002980199FFF72EFFFFF776FEF4E780B5FF
:1040F00084B0039001F052FB03984521405C02A973
:104100000870FFE7002102A84056012815DBFFE7F1
:104110000398406A58B1FFE70398243002F080FA10
:1041200018B1FFE701F056FD00E0FFE700E004E012
:104130000298401E02A90870E4E703994522FF2077
:10414000885401F035FB01F029FB03984421405CC1
:1041500001A90870FFE7002101A84056012815DBDE
:10416000FFE70398006978B1FFE70398103002F089
:1041700057FA18B1FFE701F02DFD00E0FFE70198C5
:10418000401E01A9087000E000E0E4E70399442222
:10419000FF20885401F00CFB04B080BD80B590B0C6
:1041A0000F9000200B900F9848B3FFE70F9808215D
:1041B000C94388421FD8FFE70F9808300F900FA817
:1041C00000784007A8B1FFE70F99072001400820B9
:1041D000401A0A900F980A99C943884205D8FFE708
:1041E0000A990F9840180F9002E000200F90FFE707
:1041F00000E0FFE702E000200F90FFE700E0FFE7AC
:1042000001F0A6FD7C48006818B9FFE7FFF786FBC0
:1042100000E0FFE70FA8C0780006002800D5DCE02A
:104220000F9800B9D7E00F9874490968884200D9FF
:10423000D1E073480D9000680E900E990020714AED
:10424000914209900FD3FFE70E996E486E4A82188B
:104250000120002307939142089001D90798089004
:1042600008980990FFE70998C00718B9FFE772B6E8
:10427000FFE7FEE7FFE70E9841680F9A00209142A2
:10428000069006D2FFE70E980068411E884106900E
:10429000FFE70698C00718B3FFE70E980D900E9839
:1042A00000680E900E990020564A914205900FD357
:1042B000FFE70E995348544A8218012000230393C4
:1042C0009142049001D90398049004980590FFE767
:1042D0000598C00718B9FFE772B6FFE7FEE7CAE71F
:1042E0000E9845490968884273D0FFE70D98006829
:1042F00008300B900B990020424A914202900FD354
:10430000FFE70B993F48404A8218012000230093A1
:104310009142019001D90098019001980290FFE725
:104320000298C00718B9FFE772B6FFE7FEE70E98DC
:1043300000680D9908600E9840680F99884203D272
:10434000FFE772B6FFE7FEE70E9840680F99401A44
:1043500011281DD3FFE70E980F9940180C900CA858
:104360000078400718B1FFE772B6FFE7FEE70E9846
:1043700040680F99401A0C9948600F980E99486050
:104380000D9800680C9908600C980D99086000E081
:10439000FFE70E98426819480168891A01600068B1
:1043A0001A490968884205D2FFE71448006817498E
:1043B000086000E0FFE70E9948680122D207104329
:1043C00048600E990020086011490868401C086088
:1043D00000E0FFE700E0FFE700E0FFE702F0E2F9BE
:1043E0000BA80078400718B1FFE772B6FFE7FEE7B9
:1043F0000B9810B080BDC04608080020043F002084
:10440000403F0020920C0020FF2F0000103F0020B2
:104410001C3F002084B00390029101920093039806
:10442000001F039003990120000608600398001FF5
:1044300003900198039908600398001F0390039963
:104440002F4808600398001F039003992D480860C7
:104450000398001F039003992B4808600398001FDE
:1044600003900399294808600398001F039003995B
:10447000274808600398001F03900098039908607C
:104480000398001F03900399224808600398001FB7
:1044900003900399204808600398001F0390039934
:1044A0001E4808600398001F039003991C48086089
:1044B0000398001F039003991A4808600398001F8F
:1044C00003900399184808600398001F039003990C
:1044D000164808600398001F039003991448086069
:1044E0000398001F039003994320C043086003987A
:1044F000001F0390029803990860039804B0704766
:10450000A540000812121212030303030202020262
:1045100001010101111111111010101009090909EF
:104520000808080807070707060606060505050523
:1045300004040404A0B01FA90870002002901E907B
:104540001D901C901B901A9019901890179016901F
:104550001590149013901290119010900F900E904F
:10456000F9490D91F9490C910B900A900991089025
:104570000791069005910490F54800680C210840C9
:1045800080081E901E98039040B1FFE70398012811
:1045900007D0FFE70398022806D065E0ED481A909F
:1045A00065E0ED481A9062E0E94801683F22920414
:1045B0001140890C139100680121C9060840C00E02
:1045C00012901298800113994018139013980E2896
:1045D00004D3FFE71398401C13900BE013980F28A7
:1045E00003D1FFE71020139003E01398801C139071
:1045F000FFE7FFE7D6480068032109040840000CE4
:104600001190119870B9FFE7D44800680F21084055
:10461000401C10901099CF48B0FBF1F1139848431B
:104620001A9020E0119801280ED1FFE7CB480068CE
:104630000F210840401C10901099C748B0FBF1F1C1
:10464000139848431A900DE0C44800680F210840B1
:10465000401C10901099C248B0FBF1F113984843E8
:104660001A90FFE7FFE702E0BA481A90FFE7B84860
:104670000168C9B209090F910F9A0AA9895C0E91C4
:104680001A990E9AD1401991016840F200721140B6
:10469000090A0F910F9A08A9895C0E9119990E9A2F
:1046A000D1401891006843F600010840C00A0F90FD
:1046B0000F9906A8405C0E9019980E99C840179063
:1046C0001FA8007801900B2800D90FE201998A00F9
:1046D00001A080188746C04600F016B800F017B851
:1046E00000F018B800F019B800F01AB800F0EBB8F4
:1046F00000F0FCB900F0FAB900F0F8B900F06FB9B9
:1047000000F01CB900F0AEB91A981B90EFE11998AF
:104710001B90ECE118981B90E9E117981B90E6E1DB
:10472000F748006840F200110840884203D0FFE7D4
:10473000F1481690C4E0EF48006880B2800B1D90ED
:10474000EF480068800F1C901D980090032800D946
:10475000B4E000998A0001A08018874600F006B8EE
:1047600000F02EB800F056B800F080B81C9820B9C0
:10477000FFE717984008169021E01C98012806D101
:10478000FFE717980A21B0FBF1F0169016E01C988D
:10479000022806D1FFE719980321B0FBF1F016902B
:1047A0000BE01C98032806D1FFE719980B21B0FBFA
:1047B000F1F0169000E0FFE7FFE7FFE7FFE77EE09C
:1047C0001C9820B9FFE717988008169021E01C98E4
:1047D000012806D1FFE717980C21B0FBF1F01690E5
:1047E00016E01C98022806D1FFE719980521B0FBB6
:1047F000F1F016900BE01C98032806D1FFE71998FA
:104800000D21B0FBF1F0169000E0FFE7FFE7FFE7B6
:10481000FFE754E01C9830B9FFE717980621B0FB7A
:10482000F1F0169021E01C98012806D1FFE71798B7
:104830000E21B0FBF1F0169016E01C98022806D16C
:10484000FFE719980721B0FBF1F016900BE01C98D8
:10485000032806D1FFE719980F21B0FBF1F016905D
:1048600000E0FFE7FFE7FFE7FFE728E01C9820B93B
:10487000FFE71798C00816901FE01C98012804D184
:10488000FFE717980009169016E01C98022806D139
:10489000FFE719980921B0FBF1F016900BE01C9886
:1048A000032806D1FFE719981121B0FBF1F016900B
:1048B00000E0FFE7FFE7FFE7FFE700E0FFE7FFE7D4
:1048C00016981B9013E18E480068800718B9FFE71F
:1048D000179815902FE08A480068032108400128A6
:1048E00003D1FFE71A98159024E08548006803215A
:1048F0000840022804D1FFE748F20000159018E0B4
:104900007F48006803210840032810D1FFE77C4856
:104910000068072189040840800C0F900F9904A8B3
:10492000405C0E900E997548C840159000E0FFE776
:10493000FFE7FFE7FFE715981B90D8E07048006895
:104940008003800F88B90DE00607080901020304FF
:10495000041002400024F40000127A002C100240DF
:10496000006CDC021898159036E065480068032159
:104970000904084001210904884203D1FFE71A987D
:10498000159028E05E4800680321090408400121D1
:104990004904884204D1FFE748F20000159019E06D
:1049A00057480068032109040840884210D1FFE7F6
:1049B00053480068072189040840800C0F900F9924
:1049C00004A8405C0E900E994C48C840159000E039
:1049D000FFE7FFE7FFE7FFE715981B9087E04848F0
:1049E0000068C004800F18B9FFE71898159036E0EA
:1049F0004348006841F60001084040F60001884243
:104A000003D1FFE71A98159028E03D48006841F669
:104A10000001084041F20001884204D1FFE748F25A
:104A20000000159019E03648006841F60001084082
:104A3000884210D1FFE73248006807218904084006
:104A4000800C0F900F9904A8405C0E900E992B4893
:104A5000C840159000E0FFE7FFE7FFE7FFE7159884
:104A60001B9044E0264800684005800F18B9FFE716
:104A70001898149037E02248006840F2006108401E
:104A800040F20021884204D1FFE747F6005014901D
:104A900028E01B48006840F20061084040F20041F5
:104AA000884204D1FFE748F20000149019E014484E
:104AB000006840F200610840884210D1FFE71048CA
:104AC0000068072189040840800C0F900F9904A802
:104AD000405C0E900E990948C840159000E0FFE731
:104AE000FFE7FFE7FFE714981B9000E0FFE71B9844
:104AF00020B0704704100240006CDC020024F40077
:104B00003010024081B001466846018000881F22B3
:104B10000146114001238B408109154A88581843EA
:104B2000885001B07047C04681B001466846018098
:104B300000881F220146114001238B4081090C4A45
:104B400088589843885001B07047C04681B00146EC
:104B50006846018000881F220146114001238B40D6
:104B60008109F74A88581843885001B07047C046F9
:104B70000010024080B582B0014601A801700178A2
:104B8000481E8141684601700121FCF705FA0020AA
:104B900002B080BD10B59AB019AC207018A8017091
:104BA000179216A8037018980EA90870179890B15C
:104BB000FFE716A8007801280DDBFFE716A80078AC
:104BC0001E2808DCFFE70EA8401C179916AA1278C9
:104BD000FBF720FBFFE71698411C0CA80170002191
:104BE0000B9101780AAA0292118002781E48039064
:104BF0000EA9FBF70FFB029A03990BABDC781B485D
:104C0000059004705B8843700B9B1B0A83700B9BA1
:104C1000C3701288001DFBF7FDFA19A806900078F2
:104C20000B3009A9049108801720887001F0DEFB81
:104C3000049B0146059808910A990A1D0DA90A804E
:104C4000098818AA07921278089C019403240094FA
:104C500000F010F806990798097802780448FDF7E3
:104C60003DFD1AB010BDC046900400206F06002024
:104C7000F97B000870B5FFB099B001920C4601991C
:104C800002469D989C98979296AA148095AC2170A4
:104C9000949393A908700DA90991002002900870BF
:104CA0000CA908809DABDC780D88681C088052A890
:104CB000049044555B880C88651C0D8003559D9BB2
:104CC0001B0A0C88651C0D8003559D9B0C88651C78
:104CD0000D800355959B0C88651C0D800355098834
:104CE000401897991288FBF795FA049902980C9A44
:104CF000969BD3180BAA039213800AAB07931880D4
:104D00001D88681C18800EA80890AA240694445593
:104D10001D886C1C1C8055240594445554781D88AE
:104D20006E1C1E8044550B9C1D886E1C1E804455B5
:104D30001B88C0181288FBF76DFA0399079B04982B
:104D40000B9C0A9A12191A800988FCF777FE059BBA
:104D5000069A0799044608980D886E1C0E804455E3
:104D60000C88651C0D8003550B885C1C0C80C2549C
:104D70000988949B1A889B78FCF71EF909990D986D
:104D8000401C0870642000F0F3FE7FB019B070BDC5
:104D900081B0014668460170017845F20000484341
:104DA0000149401801B070470000030885B00A4669
:104DB00004A9087003A8027002789207130F0F224B
:104DC0009A40D2430292097802789207120F9140DA
:104DD0000191007880080090032835D800998A0056
:104DE00001A080188746C04600F006B800F00EB853
:104DF00000F016B800F01EB8029A18490868104072
:104E00000860019A0868104308601EE0029A12497F
:104E1000086810400860019A08681043086014E0B0
:104E2000029A0C49086810400860019A086810430B
:104E300008600AE0029A0649086810400860019A72
:104E400008681043086000E0FFE705B07047C046FF
:104E500014000140100001400C0001400800014016
:104E600010B584B0002003900290354908680122F3
:104E7000120410430860FFE70398401C0390304879
:104E800000680121490408400290FFE702990020D0
:104E9000019039B9FFE703982A49401A411E884119
:104EA0000190FFE70198C0070028E5D1FFE72448FB
:104EB00000688003002802D4FFE7FFE7FEE72249ED
:104EC0000868012210430623984308601F49009197
:104ED0000868086008680860086840F200431843E2
:104EE00008601B4B18680F24A04318600868194B12
:104EF00018400860086819231B041843086010490B
:104F00000868120610430860FFE70D48006880013A
:104F1000002801D4FFE7F8E70C4908680322904312
:104F200008600868022210430860FFE7074800682D
:104F30000C210840082801D0FFE7F7E704B010BDB6
:104F400000100240FFFF0000002002400410024059
:104F50002C100240FFFF007F80B5FFF781FF80BD6E
:104F600080B584B000230193042000901B481C49A5
:104F700040F2002201F098F903900398012804D030
:104F8000FFE71848FDF723FBFFE700230193052007
:104F900000901548154940F2001201F085F9039080
:104FA0000398012804D0FFE71148FDF710FBFFE745
:104FB00000230193032000900E480F4940F2002285
:104FC00001F072F903900398012804D0FFE70B4821
:104FD000FDF7FDFAFFE704B080BDC046892C00084C
:104FE000C97900088F790008D12900083E790008A6
:104FF0004A790008712A0008B17900086D79000823
:10500000EFF3108072B6704780B586B02748FFF77F
:1050100079FD2748FFF776FD0920C006019007219A
:10502000009140F200220292FDF7ACF9009901983C
:1050300040F20042FDF7A6F901980221012240F258
:105040000063FDF724FA0198029B002103910322DB
:105050000492FDF763FAE748059000F0E3F905983C
:10506000E121490200F05CF90399059800F007FB83
:105070000399059800F0DFFA0399059800F0B7FA54
:105080000598042100F0C8FA0598082100F0E8FA14
:10509000059800F013FA04991B20FEF729F80598EB
:1050A000052100F041FA06B080BDC0460E060000A2
:1050B0001105000014480088954908809549002092
:1050C00008807047934800887047C0469148008820
:1050D0007047C04681B08B480078411C07200140D2
:1050E0006846017000788849097888420AD0FFE74D
:1050F0000548008883490A785300844AD0520098B2
:105100000870FFE701B07047900C002087B0019154
:1051100001460198069105A908807E480088098803
:10512000884204DAFFE77B480088009003E005A886
:1051300000880090FFE7009804A908807448008860
:1051400003A9088002A900200880FFE702A80088C0
:1051500004A90988884213DAFFE703A90A886E4880
:10516000805C069A02AB1B88D0540398401C6B4AA3
:1051700010400880FFE70298401C02A90880E5E77C
:10518000069A04A803880021D154008807B070470C
:1051900086B0019101460198059104A908805D48F7
:1051A00000880988884204DAFFE75A48008800909E
:1051B00003E004A800880090FFE7009803A9088096
:1051C00002A900200880FFE702A8008803A9098837
:1051D000884213DAFFE74E490A884F48805C059AF7
:1051E00002AB1B88D0540888401C4C4A10400880F1
:1051F000FFE70298401C02A90880E5E7039A4549A9
:105200000888801A088003A8008806B07047C04646
:1052100010B588B0069005A801803A4800783A4950
:105220000978884204D1FFE707A90020088064E0DC
:10523000354B187841003548415A04A8018034495B
:105240000A8803A90A801A78521C072422401A707F
:1052500000880988884207DBFFE704A8008803A9C3
:105260000988401A009009E003A8018804A8008872
:10527000401A40F2004140180090FFE7009902A850
:105280000180008820B9FFE707A90020088034E0EA
:1052900002A8008805A90988884204DDFFE705986F
:1052A00002A90880FFE701A900200880FFE701A804
:1052B000008802A90988884213DAFFE703A90A884F
:1052C0001548805C069A01AB1B88D0540398401C9B
:1052D000124A10400880FFE70198401C01A908808D
:1052E000E5E704980A490880029A0A490888801A62
:1052F0000880029807A90880FFE707A8008808B07F
:1053000010BDC046680000207A0000206A0000201E
:105310008E0C00208C0C00208C080020FF03000065
:1053200080B588B007900691002005900490039006
:105330000290079801905949884214D0FFE70198DC
:105340005749884214D0FFE701985649884214D043
:10535000FFE701985449884214D1FFE70520FFF781
:10536000E9F805900FE00A20FFF7E4F805900AE05D
:105370000220FFF7DFF8059005E00220FFF7DAF8DA
:10538000059000E0FFE7079800680004002818D5A2
:10539000FFE70598400006994A088018B0FBF1F035
:1053A0000290029814490840049002980007400FA8
:1053B000039004A8008803A9098808430799C860D6
:1053C00016E0059806994A088018B0FBF1F00290A3
:1053D000029809490840049002980F210840039060
:1053E00004A8008803A9098808430799C860FFE753
:1053F00008B080BD00380140F0FF000081B000908F
:105400000098406A0649084001B0704782B0019098
:1054100000910098024908400199886202B07047E3
:10542000FF01000080B586B00590059804901B49E7
:10543000884217D0FFE70498194988421AD0FFE73D
:105440000498184988421DD0FFE7049816498842FD
:1054500020D1FFE718480390FFF778FB0398FFF788
:1054600063FB18E013480290FFF770FB0298FFF708
:105470005BFB10E00E480190FFF768FB0198FFF717
:1054800053FB08E009480090FFF760FB0098FFF726
:105490004BFB00E0FFE706B080BDC0460044004083
:1054A000004C00400050004000380140140400004F
:1054B00013040000110400000E03000081B00090EE
:1054C0000099086801221043086001B0704782B05B
:1054D00001906846018000881F2108400122824017
:1054E0000199086A1043086202B0704784B00091C5
:1054F00001460098029101A9088002980A88920941
:10550000805809881F221140C840C00720B1FFE71A
:1055100003A90120087003E003A900200870FFE739
:1055200003A8007804B0704782B0019068460180FB
:1055300000881F220146114001238B4001998209F6
:1055400088581843885002B07047000082B001901C
:10555000009100980C49884208D1FFE70199D022B8
:10556000885848F20003984388500BE000981F21A8
:1055700009040840000C012282400199086A104386
:105580000862FFE702B0704709340F3410B585B0E8
:1055900003900291002001900090039802A90988CD
:1055A00089094058029C1F231C4001210A46A24041
:1055B000104001900398029A920D8058029A1B04A1
:1055C0001A40120C914008400090009838B1FFE753
:1055D000019820B1FFE704A90120087003E004A9A5
:1055E00000200870FFE704A8007805B010BD82B065
:1055F0000190009101990868012290430860019987
:10560000086840F2006290430860009A01990868B7
:105610001043086002B0704782B001900091019978
:105620000868042290430860009A019908681043B2
:10563000086002B0704782B001900091019908683B
:105640000122904308600199486843F200029043A8
:105650004860009A019948681043486002B070475A
:1056600082B0019000910199086808229043086077
:10567000009A019908681043086002B0704782B030
:1056800001900091019908680122904308600199F6
:10569000086841F2000290430860009A0199086886
:1056A0001043086002B0704782B001900198006911
:1056B00000900199886849688860019948688968FC
:1056C0004860009840680199884205D1FFE7019839
:1056D00080680099486000E0FFE7019900200861B8
:1056E00000990868401E08600098006802B0704782
:1056F000704780F31088704781B000900099084689
:1057000008304860009A0020C1439160009A114619
:105710000831D160009A1146083111610099086082
:1057200001B0704781B0009000990020086101B07D
:10573000704784B00390029102980068009000982E
:10574000401C20B9FFE703980069019010E003981E
:1057500008300190FFE7019840680068009988428E
:1057600005D8FFE7FFE7019840680190F3E7FFE7FE
:1057700001984068029948600298416888600198E1
:10578000029988600298019948600398029908611B
:1057900003990868401C086004B0704772B60D4950
:1057A0000868401C0860BFF34F8FBFF36F8F7047CE
:1057B0000848006818B9FFE772B6FFE7FEE705483A
:1057C0000168491E0160006810B9FFE762B6FFE793
:1057D0007047C0465800002080B586B005900598F7
:1057E00004900598002856D0FFE7049808380490E4
:1057F0000498039003990020284A914202900FD305
:10580000FFE703992548264A8218012000230093C8
:105810009142019001D90098019001980290FFE710
:105820000298C00718B9FFE772B6FFE7FEE70398D2
:10583000C079C00918B9FFE772B6FFE7FEE7039821
:10584000006818B1FFE772B6FFE7FEE70398C0797A
:10585000C009F0B1FFE703980068C0B9FFE70399FA
:1058600048680122D2079043486000F071FA03981B
:1058700042680C490868801808600398FEF7AEF982
:1058800009490868401C086000F08CFF00E0FFE751
:1058900000E0FFE7FFE706B080BDC046920C0020A5
:1058A000FF2F0000043F0020203F002080B584B07F
:1058B00003900398806902900298801E017801A8E5
:1058C00001700078662803D1FFE700F033F902E0A9
:1058D00072B6FFE7FEE704B080BD000010B51048C7
:1058E000016840F2E832B1FBF2F370490B600B68DB
:1058F0000C49B1FBF3F16A4B19606D4B5E211960E5
:10590000684904230B60684C002323600068B0FBE7
:10591000F2F0401E674A10600720086010BDC046C4
:1059200008000020FFFFFF0080B588B007900798AF
:105930005B490968884204D9FFE759480068079025
:10594000FFE772B6BFF34F8FBFF36F8FFCF714FA08
:1059500010B9FFE762B6A1E052490620086052483C
:1059600000680390039820B9FFE75048006803904F
:10597000FFE703984D490A680799491E51434018AB
:10598000069052480068400100280AD5FFE7012030
:1059900040064E490860454801680698401A06903E
:1059A000FFE7069842490968884206D9FFE7404860
:1059B00001680698401A0690FFE706983D4908607E
:1059C00039490020086037490868012210430860FF
:1059D00007980290029830B1FFE7BFF34F8F30BFB6
:1059E000BFF36F8FFFE762B6BFF34F8FBFF36F8FC9
:1059F00072B6BFF34F8FBFF36F8F2A480621016045
:105A00000068C003002821D5FFE728480068069AEF
:105A100025490968891A4018401E019001982449B7
:105A20000968884206D9FFE7019820490968884239
:105A300005D9FFE71D480068401E0190FFE7019867
:105A40001C4908600798401E059017E0164800683A
:105A50000390079A154801685143039A891A0491E3
:105A600004990268B1FBF2F105910599491C00689F
:105A700048430499401A0F490860FFE70A4900208B
:105A8000086008490720086008480068401E094966
:105A90000860059800F01EF962B6FFE708B080BD07
:105AA0000C3F002010E000E018E000E0983C0020EF
:105AB000943C002014E000E0012000070349086046
:105AC000BFF34F8FBFF36F8F7047C04604ED00E008
:105AD00080B584B003900291019203980090FFF783
