:020000040800F2
:100000000846002069010008C9170008A10B000874
:1000100000000000000000000000000000000000E0
:10002000000000000000000000000000111800089F
:100030000000000000000000CD1700082D18000887
:100040007B0100087B0100087B0100087B010008A0
:100050007B0100087B0100087B0100087B01000890
:100060007B0100087B0100087B0100087B01000880
:100070007B0100087B0100087B0100087B01000870
:100080007B0100087B0100087B0100087B01000860
:100090007B0100087B0100087B0100087B01000850
:1000A0007B0100087B0100087B010008ED180008B7
:1000B000491900087B0100087B0100087B0100084A
:1000C0007B0100087B0100087B0100087B01000820
:1000D0007B0100087B010008000000007B01000894
:1000E0007B0100087B0100087B010008790B0008F8
:1000F0000000000000000000000000007B0100087C
:1001000000000000000000000000000000000000EF
:100110000000000000000000000000007B0100085B
:100120007B0100087B0100087B0100087B010008BF
:100130007B0100087B0100087B0100087B010008AF
:100140007B0100087B0100087B0100087B0100089F
:100150007B0100080348854600F0C0FB00480047CB
:100160004129000808460020044880470448004709
:10017000FEE7FEE7FEE7FEE7FEE7FEE759180008A8
:100180005501000803460B439B0703D009E008C94B
:10019000121F08C0042AFAD203E00B780370401C37
:1001A000491C521EF9D27047D2B201E00270401CC5
:1001B000491EFBD270470022F6E710B513460A46E7
:1001C00004461946FFF7F0FF204610BD30B505463E
:1001D0002A460B4610781C78521C5B1C002801D064
:1001E000A042F7D0002C03D0002802D06D1CEFE70E
:1001F000284630BDF8B502464A40D40F42004B00B5
:1002000052085B089A4202D20246084611464A004A
:1002100023D0C30D4A00DDB2120EAD1A202D35DAFF
:1002200049020126490AF6058A19002C00D05242DB
:1002300020214F1B1146B9402A411018C20D9A4285
:1002400021D0002C17D0012D08DCDA05801AD20F3E
:100250008019D207DBB200F008F9F8BDDA05801A80
:10026000012340001B06C01880185A428018CA0F8C
:100270001043490007E04908C2071143DA05801A14
:1002800080194008801800F0E8F8F8BD61000122EC
:10029000511A001BF7E70122D2075140AAE70122B9
:1002A000D2075040A6E7024670B54A40D30FDB079D
:1002B00040002DD04A002AD0010E140E0002120276
:1002C0000919400A520A8418E50104465443000AF9
:1002D000120A2E045043A4194219200CC543AA182F
:1002E000120C0125AD03521C521912047F3924044B
:1002F00000D0521C104301D44000491EC2B20C066B
:10030000C0092018401C4008802A02D003E00020C9
:1003100070BD40084000002900DA0020184370BD7D
:1003200070B502464A40D50F40004A00ED0740082C
:100330005208002814D0002A12D0C40DD30D410257
:100340000120C0055202490A520AE41A091812187B
:100350007D34914201D3641C00E04900002C01DA95
:10036000002070BD0023914201D3891A0343400845
:1003700049000028F7D100290AD0914202D1012179
:10038000C90705E0914201D2012101E00121C943E1
:10039000E005C018401900F060F870BD10B50022EB
:1003A0009623114600F061F810BD41004002012281
:1003B000400AD205090E80187F2901DA0020704713
:1003C000962903DC9622511AC84070479639884016
:1003D0007047C20FD207400040080BD0C10D072361
:1003E000DB01C91840020905400A1143C208400751
:1003F00011437047002001467047F0B51FB4064610
:10040000002082B005464024019100901BE0019934
:1004100022460F46304600F0A8FA049A059B801A3F
:10042000994110D310461946224600F08EFA361A2A
:100430008F410197224601200021009F00F085FA9C
:1004400038184D4100902046641E0028DFDC019BD7
:1004500000982946324607B0F0BD002904DA401C56
:10046000490001D140084000704770B40024050CD9
:1004700005D11024000402D1002921D01124050E39
:1004800001D100020834050F01D10001241D850FA0
:1004900001D18000A41C002801DB4000641C00295D
:1004A00008D020252E1B0D46F540A14000D001218B
:1004B0002943084301061B1B000ADB1D02D500204F
:1004C00070BC7047DB05181880180029F8DA401C4A
:1004D0004900F5D170BC40084000704710B541009C
:1004E0000DD04100090E962909DC7E290ADC07DBC4
:1004F000410205D0C00F7F21C007C905401810BDBB
:10050000002010BD9622541A20210A1B014691405A
:10051000E040FFF7A2FFA04010BD0000F0B5074685
:100520000846584087B0C00F049048000E46590056
:1005300040084908BC1A884105D2384631461E4653
:1005400017460B4602465800400810434CD0300D69
:10055000039040055900400D490D0590401A029046
:10056000402872DA18030121000B090508430190A5
:1005700004980092002805D0019952420020884139
:1005800000920190029840210A1A0199009800F007
:10059000DCF905460C466B4607CB00F0F7F9C019AD
:1005A0007141039A0E0D0023D71756401A467A4020
:1005B000164344D0049A002A2DD0029A012A039AA5
:1005C00015DC1205C01A914101263605001C714147
:1005D000D20F059ED2070093019202962A46234627
:1005E00000F000FA07B0F0BD38463146FAE71605CC
:1005F000224A0F46B218C01AB74101210905001C52
:100600004F4100187F41114618187941E20F1043FD
:100610006D19644113E0E2076D0815436408C207D1
:100620001443039A01261205C01A91413605001C95
:100630007141CE07400830434908C01851412A464D
:10064000234600F0C2F9CDE7FFE7049801224000FD
:10065000C117121A00238B4104983146C417381A67
:10066000A141EEE730B40124E407634030BC55E714
:1006700030B40124E407614030BC4FE70000E0FFE4
:10068000F0B51FB488B00B99099800244840099927
:10069000C00F490049080991C0070B990090490013
:1006A00049080B9109990898A64608431CD00B9954
:1006B0000A98084318D0099801244000420D4800C8
:1006C000410D099824050003000B204309900B9865
:1006D0000003000B20430B9050181C4940180022C7
:1006E00001901446104605E0002001460DB0F0BD13
:1006F000032801DA034600E003239C46C11A0AAE30
:100700000AE05F0008ADED5B4F00F75B7D4300271B
:10071000AA187C41491C5B1E6145F2DD410004AB17
:100720005A522104120C0A43240C401C0828DFDB17
:10073000019802900099704601910090059B049ADF
:100740000799069800F04EF9D0E700000DFCFFFF76
:10075000F0B50C465C4085B0E40FE40703944C0010
:10076000002664085900944649080246029622432E
:1007700021D062460A431ED06200570D4A000E0384
:100780002303550D012402462C492405781B1B0B1D
:10079000360B401823432643614600901C46501AEE
:1007A000B44103D30098401C009002E092180098D6
:1007B0005B41002803DA0020014605B0F0BD0020AF
:1007C000012109050746864611E064461D46141BB3
:1007D000B54106D36546521BB341744607430C43EB
:1007E000A646CD0740084908284392185B410546B4
:1007F0000D43EAD11046184313D0604619465040C5
:100800007140084306D06046101AB34106D2012257
:10081000002306E000220123DB0702E00122D2438D
:100820005310009874460105381C6141029C039DD9
:100830000019694100F0C9F8BFE70000FD0300009E
:10084000C20F410040020123400ADB05D207090E16
:10085000C0187F2901DA00207047962903DC96230F
:10086000591AC84001E096398840002AF4D0404225
:10087000704700004A0009030123090B1B051943B7
:100880000A4B10B5520D9A4202DA0020014610BD03
:10089000064B34339A4203DC9A1A00F066F810BD16
:1008A000034BD21800F051F810BD0000FF03000008
:1008B000CDFBFFFF10B5002904DB0124E407404213
:1008C0008C412146002B04DB1C460123DB075242EE
:1008D000A341994200D1904210BD00001CB50948C7
:1008E00000900948019005460126009C05E0E36858
:1008F00007CC33430C3C98471034AC42F7D3FFF796
:100900002DFC00004C8600086C86000870B504467B
:10091000002903D000202022012310E0002801D06C
:100920000020C043C046C0460DE02546D5408D425C
:1009300005D30D469540641B1D469540401915464C
:10094000521E002DF1DC214670BD10B5202A04DBBB
:100950000146203A9140002010BD914020239C1A6E
:100960000346E3401943904010BD10B5202A04DB34
:100970000846203AD040002110BD0B46D340D0405D
:100980002024A21A91400843194610BD10B5202A10
:1009900006DBCB170846203A1041C1170B4306E08F
:1009A0000B461341D0402024A21A91400843194617
:1009B00010BD420005D04200120E52428A4201DBB5
:1009C00000207047C9050818704710B5002B08DAD9
:1009D0000024401C614192185B411A4301D1400838
:1009E000400010BDF0B51FB482B005460C0003D026
:1009F000084606F03DF902E006F03AF920300246DA
:100A0000009021462846FFF7A0FF049B059A044664
:100A10000F4618431143084314D0184610431BD007
:100A2000009840210A1A18460599FFF79EFF0546CF
:100A30000E46009A05990498FFF787FF084305D0F2
:100A4000012004E02046394607B0F0BD0020C11760
:100A500005430E432C43374300990E986305401A13
:100A60007905E40A00220C43FD0A0A3002D5002071
:100A70000146E9E70105101969410C9C0D9D00191B
:100A80006941FFF7A2FFDFE7C217C10F504010B561
:100A90004018CA0796230021FFF7E7FC10BD0000AD
:100AA00080B5A8B040F2F4101690FFE71698411EEA
:100AB000169168B3FFE704F05FFC014615A80180BA
:100AC0000088012820DBFFE717A801904021FFF7ED
:100AD00072FB01983F2104F073FC0246019814A9AF
:100AE0000A800A88002181542149FFF76FFB50B129
:100AF000FFE7204817A906F08DF804F035FC27A978
:100B0000012008702BE0FFE7012001F025FACDE776
:100B100004F032FC014613A801800088012816DB8E
:100B2000FFE703A800904021FFF745FB00983F2115
:100B300004F046FC0099024602A8028002880020C8
:100B400088540A4806F066F804F00EFC03E00648F4
:100B500006F060F8FFE727A900200870FFE727A844
:100B6000007828B080BDC0463B7F0008C3840008E1
:100B7000C78500083086000880B540F2002001F0EB
:100B8000D5FA48B1FFE740F2002001F0C7FA034967
:100B90000868401C0860FFE780BDC0466400002074
:100BA000FFE7FEE780B5FFE7174840F2001101F0CC
:100BB0006FFDFFE7054806F02DF840F2F41001F054
:100BC000CBF916490020087080BDC046527F00084E
:100BD00080B5FFE70C4840F2001101F051FDFFE73E
:100BE0000A4806F017F80A4800F0C0FD20B9FFE7F0
:100BF000084806F00FF803E0074806F00BF8FFE797
:100C000006490120087080BD0004004838810008B2
:100C100088130000A0810008A57F00086000002064
:100C2000F0B5DFB05EA91591002010900870C7489C
:100C300004F0C8F8C64804F0C5F80920C0060F90B3
:100C400007210E910422119201F0BAFC0E990F981F
:100C50000822129201F0B4FC0F9802210122139293
:100C60000C2301F032FD0F981099119B032201F023
:100C700073FDB848149004F02FFD1498E121490247
:100C800004F0A8FC1099149804F053FE10991498DD
:100C900004F02BFE1099149804F003FE1199149897
:100CA00004F014FE1299149804F034FE149804F021
:100CB0005FFD13991C2002F0DBFA1498052104F063
:100CC0008DFD00F085FEFFF76DFF1599142008706B
:100CD000FFE75EA80078002848D0FFE704F044FB57
:100CE0005CA9002008719C495C915B90FFE75B98D0
:100CF000032813D8FFE7FFE7F148F24904F050FD5D
:100D000008B9FFE7F8E75B995CA8415CEC4804F0A0
:100D1000D7FCFFE75B98401C5B90E8E740F22C10A3
:100D200001F01AF904F028FB014652A8018000885E
:100D3000012812DBFFE753A80D90202104F040FBAF
:100D40000D988749FFF742FA30B1FFE704F00CFB3A
:100D5000844805F05FFF09E003E0804805F05AFF92
:100D6000FFE75E98401E5EA90870B2E75EA80078B3
:100D700060B9FFE77C4805F04DFFFFE77B4805F0D1
:100D800049FF40F2E83001F0E7F8F7E7784805F06E
:100D900041FF4FA900200C90887276480881764860
:100DA000509076484F9004F0DFFA0C984E90FFE791
:100DB0004E98092813D8FFE7FFE7F648F64904F0F4
:100DC000EFFC08B9FFE7F8E74E994FA8415CF148FE
:100DD00004F076FCFFE74E98401C4E90E8E740F2A6
:100DE000F41001F0B9F804F0C7FA01464DA80180EB
:100DF0000088012814DBFFE73DA80B904021FFF796
:100E0000DAF90B983F2104F01DFB0B9902463CA830
:100E100002800288002088545A4805F0FBFE03E057
:100E2000574805F0F7FEFFE739A90A200881564820
:100E30003A905648399004F097FA00203890FFE72E
:100E40003898082813D8FFE7FFE7D248D24904F0C2
:100E5000A7FC08B9FFE7F8E7389939A8415CCD4805
:100E600004F02EFCFFE73898401C3890E8E740F289
:100E7000F41001F071F804F07FFA014637A8018000
:100E80000088012814DBFFE717A80A908021FFF7EC
:100E900092F90A987F2104F0D5FA0A99024616A819
:100EA00002800288002088543A4805F0B3FE03E02F
:100EB000374805F0AFFEFFE7374805F0ABFE0B20E3
:100EC000069000F005F96420059001F045F8002037
:100ED000079000F033FA059801F03EF817200890CB
:100EE00000F0C4F9059801F037F80320099000F0EC
:100EF0008DFA059801F030F80524204600F0C8FB73
:100F0000059801F029F80125284600F057FB0598BF
:100F100001F022F80426304600F0E6FA059801F0C8
:100F20001BF80727384600F03DF90699079A089BF9
:100F3000099804970396029501940090174805F0CC
:100F400069FEFFF745FE5FB0F0BDC0461107000027
:100F5000110500000044004041540D0A998000082A
:100F6000C7850008B6820008077F0008237F0008B5
:100F7000B98000080D0A00004444523F41542B41FF
:100F8000558500080A85000846473F0D41542B430C
:100F90003D850008F6840008DF800008A183000872
:100FA00080B584B0019101460198039102A908809F
:100FB000039809880A22172300F002F804B080BDC4
:100FC00010B58AB004920A4601460498099108A90E
:100FD0000A8007AA108006A803700988128803787F
:100FE000354805F017FE354805F014FEFFE7CF48F9
:100FF000CF4904F0D5FB08B9FFE7F8E707A803904D
:101000004178CA4804F05CFB039841782E4805F00B
:1010100001FEFFE7C548C64904F0C2FB08B9FFE777
:10102000F8E707A802900178F44804F049FB029819
:101030000178254805F0EEFDFFE7F048F04904F09F
:10104000AFFB08B9FFE7F8E706A801900178EB4885
:1010500004F036FB019801781B4805F0DBFD05A97B
:1010600000200880FFE705A8008808A909888842B1
:101070001CDAFFE7099805A90988415C124805F0C8
:10108000C9FDFFE7DD48DE4904F08AFB08B9FFE748
:10109000F8E7099805A90988415CD84804F010FBD5
:1010A000FFE70598401C05A90880DCE7074805F024
:1010B000B1FD0AB010BDC046757F0008A5850008C7
:1010C00000440040070700009F8500086B8500086A
:1010D00080B58AB008A90091088004F045F900980D
:1010E0000088020AC3B22A4903A8019005F0A2FDB4
:1010F0000199F74805F08EFD00200290FFE7029964
:1011000003A8405C98B1FFE7FFE7F248F24904F01A
:1011100047FB08B9FFE7F8E7029903A8415CED48EF
:1011200004F0CEFAFFE70298401C0290E7E7FFE7E1
:10113000E848E94904F034FB08B9FFE7F8E7E54877
:101140000D2104F0BDFAFFE7E248E34904F028FB73
:1011500008B9FFE7F8E7DF480A2104F0B1FAFFF722
:101160009FFC48B1FFE708A801880D4805F052FD33
:1011700009A90120087006E0084805F04BFD09A9FF
:1011800000200870FFE709A800780AB080BDC046BB
:10119000CA85000800440040070700006C8400086E
:1011A000C382000880B58AB008A90091087004F0D5
:1011B000DBF8009802782A4903A8019005F03AFD6F
:1011C0000199F94805F026FD00200290FFE70299F9
:1011D00003A8405C98B1FFE7FFE7F448F44904F046
:1011E000DFFA08B9FFE7F8E7029903A8415CEF4886
:1011F00004F066FAFFE70298401C0290E7E7FFE779
:10120000EA48EB4904F0CCFA08B9FFE7F8E7E74809
:101210000D2104F055FAFFE7E448E54904F0C0FA6F
:1012200008B9FFE7F8E7E1480A2104F049FAFFF7B7
:1012300037FC48B1FFE708A801780B4805F0EAFC45
:1012400009A90120087006E0064805F0E3FC09A999
:1012500000200870FFE709A800780AB080BDC046EA
:1012600026860008958400088C83000880B58AB023
:1012700008A90091087004F077F8009802782A49CC
:1012800003A8019005F0D6FC0199FC4805F0C2FCCA
:1012900000200290FFE7029903A8405C98B1FFE7A5
:1012A000FFE7F748F74904F07BFA08B9FFE7F8E7EA
:1012B000029903A8415CF24804F002FAFFE70298A1
:1012C000401C0290E7E7FFE7ED48EE4904F068FABA
:1012D00008B9FFE7F8E7EA480D2104F0F1F9FFE764
:1012E000E748E84904F05CFA08B9FFE7F8E7E448A2
:1012F0000A2104F0E5F9FFF7D3FB48B1FFE708A89E
:1013000001780D4805F086FC09A90120087006E067
:10131000084805F07FFC09A900200870FFE709A82C
:1013200000780AB080BDC046108600080044004026
:1013300007070000598400086083000880B58AB060
:1013400008A90091087004F00FF8009802782A4963
:1013500003A8019005F06EFC0199FE4805F05AFCC7
:1013600000200290FFE7029903A8405C98B1FFE7D4
:10137000FFE7F948F94904F013FA08B9FFE7F8E77D
:10138000029903A8415CF44804F09AF9FFE7029837
:10139000401C0290E7E7FFE7EF48F04904F000FA4D
:1013A00008B9FFE7F8E7EC480D2104F089F9FFE7F9
:1013B000E948EA4904F0F4F908B9FFE7F8E7E64834
:1013C0000A2104F07DF9FFF76BFB48B1FFE708A89D
:1013D00001780D4805F01EFC09A90120087006E0FF
:1013E000084805F017FC09A900200870FFE709A8C4
:1013F00000780AB080BDC046DC850008004400408B
:1014000007070000018400080083000880B58AB047
:1014100008A90091087003F0A7FF009802782B49F3
:1014200003A8019005F006FC0199CA4805F0F2FBFB
:1014300000200290FFE7029903A8405C98B1FFE703
:10144000FFE7C548C54904F0ABF908B9FFE7F8E77D
:10145000029903A8415CC04804F032F9FFE7029802
:10146000401C0290E7E7FFE7BB48BC4904F098F94D
:1014700008B9FFE7F8E7B8480D2104F021F9FFE7C4
:10148000B548B64904F08CF908B9FFE7F8E7B24867
:101490000A2104F015F9FFF703FB60B1FFE708A884
:1014A00001780F4805F0B6FB08980E49087009A9A5
:1014B0000120087006E0094805F0ACFB09A90020EE
:1014C0000870FFE709A800780AB080BD018600080F
:1014D000E48400080044004007070000418400083D
:1014E000468300080C00002080B58AB008A900914E
:1014F000087003F039FF009802782A4903A8019088
:1015000005F098FB0199934805F084FB00200290B8
:10151000FFE7029903A8405C98B1FFE7FFE78E4818
:101520008E4904F03DF908B9FFE7F8E7029903A8EE
:10153000415C894804F0C4F8FFE70298401C02901F
:10154000E7E7FFE78448854904F02AF908B9FFE78F
:10155000F8E781480D2104F0B3F8FFE77E487F49A2
:1015600004F01EF908B9FFE7F8E77B480A2104F008
:10157000A7F8FFF795FA48B1FFE708A801780E48E9
:1015800005F048FB09A90120087006E0094805F0AC
:1015900041FB09A900200870FFE709A800780AB0FC
:1015A00080BDC0461A860008E4840008004400405C
:1015B00007070000808400087583000880B58AB0A2
:1015C00008A90091087003F0CFFE009802782A491C
:1015D00003A8019005F02EFB01995E4805F01AFB67
:1015E00000200290FFE7029903A8405C98B1FFE752
:1015F000FFE7EF48594904F0D3F808B9FFE7F8E7E7
:10160000029903A8415CEA4804F05AF8FFE70298FF
:10161000401C0290E7E7FFE7E548504904F0C0F8B6
:1016200008B9FFE7F8E7E2480D2104F049F8FFE7C1
:10163000DF484A4904F0B4F808B9FFE7F8E7DC48A6
:101640000A2104F03DF8FFF72BFA48B1FFE708A89C
:1016500001780E4805F0DEFA09A90120087006E0BD
:10166000094805F0D7FA09A900200870FFE709A882
:1016700000780AB080BDC046E8850008E484000810
:101680000044004007070000168400081783000884
:1016900080B58AB008A90091087003F065FE009833
:1016A00002782B4903A8019005F0C4FA0199294852
:1016B00005F0B0FA00200290FFE7029903A8405C11
:1016C00098B1FFE7FFE7BA48244904F069F808B980
:1016D000FFE7F8E7029903A8415CB54803F0F0FF83
:1016E000FFE70298401C0290E7E7FFE7B0481B497C
:1016F00004F056F808B9FFE7F8E7AD480D2103F00C
:10170000DFFFFFE7AA48154904F04AF808B9FFE7E8
:10171000F8E7A7480A2103F0D3FFFFF7C1F960B14A
:10172000FFE708A801780F4805F074FA08980E49F9
:10173000087009A90120087006E0094805F06AFA56
:1017400009A900200870FFE709A800780AB080BD49
:10175000F4850008E4840008004400400707000006
:101760002B8400082E8300080D00002080B582B075
:101770000090FFE70098411E009178B1FFE7B44860
:1017800040F2002100F08CFF20B1FFE701A9012009
:10179000087012E0012000F0DFFBEBE7AC4840F2FC
:1017A000002100F07DFF0146481E8141054805F0FB
:1017B00031FA01A900200870FFE701A8007802B003
:1017C00080BDC0461F85000870470000EFF3098008
:1017D0000E4A11682838086000227346FCC044464F
:1017E0004D4656465F46F0C072B604F011FC62B634
:1017F000064A116808681830F0C8A046A946B246E3
:10180000BB4680F309882838FCC81847840A0020A2
:1018100004207146084203D0EFF30980024A1047C2
:10182000EFF30880004A1047615B000880B582B082
:1018300003F040FD019004F0F9FE28B1FFE701201C
:1018400000070449086000E0FFE7019804F0ABF8E6
:1018500002B080BD04ED00E080B582B01B4908688D
:10186000012210430860FFE718480068800700283D
:1018700001D4FFE7F8E716490868164A10400860E7
:101880000868154A1040086010490868134A10405B
:101890000860134908680F229043086011490868DE
:1018A00040F20312904308600868032292079043B5
:1018B00008600D4900200190086003F0A7FC019921
:1018C0000120C00601F0EAFC02B080BD0010024019
:1018D000041002400C00FF08FFFF007FFFFFF2FE34
:1018E0002C100240301002400810024080B582B037
:1018F00011490868401C086010482E4903F0A0FFF9
:10190000B8B1FFE70E480088FF280DDCFFE70B4861
:1019100003F0CEFE01A908700198094B1A88511CEA
:10192000198008498854FFE70448224903F068FFFA
:10193000FFE702B080BDC046243F002000380140D0
:1019400062000020283F002080B582B01848194965
:1019500003F076FFD8B1FFE7154803F0A9FE01A90F
:10196000087015480088154988420FDCFFE7019888
:1019700013490B88134AD0540888401C0F4A104062
:1019800008800D490888401C0880FFE7FFE70848E9
:101990000D4903F005FF28B1FFE705480A4903F0A8
:1019A000F0FEFFE70248094903F02AFF02B080BDBC
:1019B0000044004005000507140F0020FF0300004D
:1019C000180F0020140B002003070000000202077C
:1019D00080B586B01D48009003F0F4F9009803F03C
:1019E000F1F9009803F0EEF91948029001220592EE
:1019F00040F200130193114600F067FE019B02982C
:101A000000210391032200F0A7FE02980399059A92
:101A100040F20023049300F058FE40F2006003F00F
:101A2000D1F90598092103F01BFB039A049811468C
:101A300000F0FCFA049800F067FB049800F06EFBDD
:101A400005992B2001F014FC06B080BD12050000A2
:101A50000004004881B001466846017000214056EC
:101A600000280DD4FFE70021684641561F200A4692
:101A700002400120904049098900024A8850FFE74E
:101A800001B0704700E100E070B582B0024601A8E5
:101A90000270009100214056002816D4FFE7002470
:101AA00001A908570322D3431840174A8058095701
:101AB0008C07E50EFF24AC40A043009CA401E4B2D7
:101AC000AC402043194088501AE001A908780F243F
:101AD000204008380322D34318400A4A8058002582
:101AE00049578D07EE0EFF25B540A843009DAD0177
:101AF000EDB2B54028432140083919408850FFE72E
:101B000002B070BD1CED00E000E400E085B0049080
:101B100003A8018002A90020087001A90880FFE73E
:101B200001A8008803A9098888422FDAFFE70498F2
:101B300001A90988415C0298484002A908706946D9
:101B400000200870FFE768460078072818DCFFE7E8
:101B500002A800780006002807D5FFE70298400099
:101B60000721484002A9087004E00298400002A939
:101B70000870FFE7FFE70098401C69460870E2E73D
:101B8000FFE70198401C01A90880C9E702A8007876
:101B900005B0704780B584B0039002A80180039817
:101BA00020B1FFE702A8008808B9FFE719E001A902
:101BB00000200880FFE701A8008802A90988884260
:101BC0000FDAFFE700F070F90346039901A80288D5
:101BD000885C58408854FFE70198401C01A90880A0
:101BE000E9E704B080BD10B586B0049003A8018079
:101BF00002920193049860B1FFE7029848B1FFE7B1
:101C000003A8008828B1FFE703A80088812804DB27
:101C1000FFE705A90020088018E000F065F80199A9
:101C200008600298049903AA00921288FEF7AAFAA3
:101C300000990298098800F051F9009902980988E2
:101C4000FFF7A8FF039805A90880FFE705A800880B
:101C500006B010BD80B584B000200390FFE7039864
:101C6000032807DCFFE700F0A7F8FFE70398401C14
:101C70000390F4E78A48006802908A48006801905F
:101C80000299019841406846017002990A0A009938
:101C90005140017001A94A8800995140017002A980
:101CA000CA78009951400170007804B080BDC046E8
:101CB00080B582B001A900200880FFE701A8008854
:101CC000FF280CDCFFE7FFF7C5FF01A90A8882495E
:101CD0008854FFE70198401C01A90880EEE77D4980
:101CE0000020088002B080BD80B584B00020039041
:101CF0006B4800680E49019108400E490291FEF7B9
:101D0000D2FAFEF752FB019A029903040398184392
:101D10000390644800681040FEF7C5FAFEF745FBE3
:101D200081B2039808430390039804B080BDC04675
:101D3000FFFFFF7F00401C4680B586B0059005A8D8
:101D400001900088FEF72AFB8F21C9050291FEF75A
:101D5000E7FA3F2109060391FEF7A5FA1449FEF7B9
:101D600049FA014601984E4A11604088FEF716FB79
:101D70000299FEF7D5FA0399FEF795FA0D49FEF799
:101D800039FA484908605349002008800490FFE769
:101D90000498C0087C2807D8FFE7FFF75BFFFFE740
:101DA0000498401C0490F3E7FFF782FF06B080BD63
:101DB000CDCCCC3DCDCC4C3E80B592B037490791CF
:101DC0000868059036480E9000688969FEF712FA97
:101DD00005F0D4FC07990490486803908868019046
:101DE00030480F900068C969FEF704FA05F082FDDB
:101DF000079A01460198126A0292FEF754FA029974
:101E0000FEF7F8F905F076FD01460398FEF74BFA68
:101E10000499024605980692FEF745FA0699FEF7E0
:101E2000E9F9079902460F981192CA680C92006866
:101E3000496AFEF7DFF905F0A1FC079902460E9802
:101E40000B920A690A924A6908920068896AFEF749
:101E5000D1F905F04FFD079A01460898D26A099218
:101E6000FEF721FA0999FEF7C5F905F043FD014691
:101E70000A98FEF718FA0B9902460C980D92FEF795
:101E800012FA0D99FEF7B6F90E9A0F991090119863
:101E900010601098086012B080BDC046100000208D
:101EA000400000204400002080B582B0094802882C
:101EB0000949895C01AA11700188491C01800088C8
:101EC000FF2803DDFFE7FFF7F3FEFFE701A8007837
:101ED00002B080BD940600209606002010B586B0A2
:101EE000059004A801800088012801DCFFE730E0AC
:101EF00002A900200880FFE702A8008804A9098839
:101F00004908884225DAFFE7FFF7CEFF03A90870EA
:101F100002AB1888097804AA1288121A91FBF2F40D
:101F20006243891A401801AA108005981988405CFC
:101F30006946087005991088085C1B88C854009889
:101F4000059912888854FFE70298401C02A908806E
:101F5000D2E706B010BD000081B00090FFE7009806
:101F6000411E0091D8B1FFE70E48006840F2E83109
:101F7000B0FBF1F0401E0C4908600C4900200860DD
:101F80000B4905200860FFE709480068C0030028E6
:101F900001D4FFE7F8E7064900200860DFE701B059
:101FA0007047C0460800002014E000E018E000E0A0
:101FB00010E000E082B001200190694608701648E8
:101FC000006820B1FFE76946002008701FE0134851
:101FD000006820B1FFE769460020087016E010484D
:101FE000006820B1FFE76946002008700DE00D4849
:101FF00000680D490968491E884204D1FFE7694617
:102000000220087000E0FFE7FFE7FFE7FFE7684610
:10201000007802B07047C046B04100200442002062
:10202000AC410020D04100202841002085B0049020
:1020300003A8017002A90A70049B4C4A11689943D5
:102040001160049B2D4A116899431160049B2C4A2E
:10205000116899431160049B2A4A116899431160E1
:102060000078019020B1FFE70198012806D00BE02D
:10207000049A3E4908681043086006E0049A1F4924
:1020800008681043086000E0FFE702A800780090AD
:1020900003282FD800998A0001A080188746C046DF
:1020A00000F006B800F00FB800F018B800F021B842
:1020B000049A1349086810430860049A1149086893
:1020C0009043086017E0049A0D490868904308603F
:1020D000049A0C490868104308600CE0049A084907
:1020E000086810430860049A0649086810430860AD
:1020F00001E000E0FFE705B07047C046040401407E
:10210000080401400C04014081B00090009A174976
:1021100008681043086001B07047C04681B0009065
:1021200000981149086001B07047C04684B0029021
:102130000D4800680299084001900C480068029917
:1021400008400090019838B1FFE7009820B1FFE700
:1021500003A90120087003E003A900200870FFE72D
:1021600003A8007804B07047140401400004014043
:1021700080B586B0059004910598114908400390F8
:102180000598049A80180F4A80180840029000F0C1
:10219000FFF803980190FFE70198029988420AD25C
:1021A000FFE7019800F058F8FFE7019841F20001BD
:1021B00040180190F0E700F049F806B080BDC04635
:1021C00000F0FFFFFF0F000080B586B0059004917E
:1021D000039200F0DDF800200290FFE70298001D56
:1021E0000399884218D8FFE70499029A88188A5CF4
:1021F00041780902891882781204C0780006801894
:1022000040180190059802994018019900F0D4F8FF
:102210000298001D0290E1E702980399884211D2CA
:10222000FFE7002000900498029A81180398821A10
:102230006846FDF7A7FF059802994018009900F03D
:10224000BBF8FFE700F002F806B080BD6E490868F1
:10225000802210430860704780B584B0039001204D
:10226000000500F027F8014602A801700078D0B9F7
:10227000FFE7654901910868022200921043086057
:1022800003980B4A10600868402210430860012040
:10229000000500F00FF8009A019902AB1870086869
:1022A00090430860FFE702A8007804B080BDC046F4
:1022B0001420024080B584B0039002A90120087068
:1022C000FFE700F025F802A908700398401E03906C
:1022D000FFE702A8017800200129019005D1FFE75E
:1022E0000398411E88410190FFE70198C00700282C
:1022F000E7D1FFE702A80078012804D1FFE702A98F
:1023000005200870FFE702A8007804B080BD000037
:1023100081B06946002008701C480068C00720B1E1
:10232000FFE76946012008702BE018480068C006E6
:10233000002804D5FFE769460420087020E0134810
:1023400000684007002804D5FFE7694602200870AE
:1023500015E00E4800680007002804D5FFE769462D
:10236000032008700AE0094800680004002804D52A
:10237000FFE7694607200870FFE7FFE7FFE7FFE791
:10238000FFE76846007801B07047C0460C20024065
:102390001D4800680006002806D5FFE703490448E9
:1023A000086004480860FFE77047C0460420024008
:1023B00023016745AB89EFCD80B586B005900491C8
:1023C00001200005FFF776FF014603A801700078A1
:1023D000A8B9FFE70C4A029211680120019001435D
:1023E00011600499059A11600005FFF763FF019AD7
:1023F000029903AB1870086890430860FFE703A8D0
:10240000007806B080BDC0461020024080B582B082
:102410000190009101A80178064803F051F9FFE707
:102420000448054903F0BCF908B9FFE7F8E701984B
:1024300002B080BD003801400707000088B0079057
:1024400006A801800592002004900390FFE70398FE
:1024500006A90988491E88425DDAFFE707980399B3
:10246000405CAA2852D1FFE70799039840184078AA
:1024700055284BD1FFE70398001D06A9098888421B
:1024800001DDFFE747E007990398411888780002CB
:10249000C978401802A90880039809884018401D8F
:1024A00001900198801C06A9098888422DDCFFE76D
:1024B00007980199405C552827D1FFE707990198B3
:1024C00040184078AA2820D1FFE7079803994018C0
:1024D00000900098007A059908700099487A0006E3
:1024E0008A7A12048018CA7A12028018097B40186E
:1024F00005994860029809380599088100980D30BF
:102500000599C8600120049005E0FFE7FFE7039804
:10251000401C03909BE70498D0B9FFE7079908781F
:1025200000064A78120480188A7812028018C97846
:102530004018059948600798007905990870069831
:10254000401F059908810798401D0599C860FFE75D
:1025500008B0704780B586B0014605A802900170AA
:10256000007841001348405A02F02CFC0298007891
:102570008200114804908058104903918B58012122
:102580000022019200F0A1F80199029B039A04989D
:102590001B789B00C058D358032200F0DDF8029A44
:1025A000039804991278920080588958886206B07E
:1025B00080BDC046987A0008B07A0008A07A00086A
:1025C00086B00590049103920598006A01900598E1
:1025D000406A009002A900200880FFE702A8008856
:1025E00007281DD8FFE702A801880398C840C00744
:1025F00080B1FFE702A8018889000F228A40019973
:10260000914301910499008880008140019808431A
:102610000190FFE7FFE70298401C02A90880DDE770
:1026200002A908200880FFE702A800880F281FD809
:10263000FFE702A801880398C840C00790B1FFE7F0
:1026400002A80188890020390F228A40009991430D
:102650000091049900888000203881400098084348
:102660000090FFE7FFE70298401C02A90880DBE723
:1026700001980599086200980599486206B070476C
:1026800082B00190009100980199886202B0704771
:1026900082B00190009100980199886102B0704762
:1026A00083B001900091019800690099084204D01C
:1026B000FFE702A90120087003E002A900200870CA
:1026C000FFE702A8007803B0704787B00690059135
:1026D000049203930698006801900698C0680090E1
:1026E00002A900200880FFE702A800880F282BD845
:1026F000FFE702A801880398C840C007F0B1FFE7D0
:1027000002A801884900032213468B40019999438E
:102710000191059B018849008B4001991943019162
:10272000018849008A4000999143009104990088EA
:1027300040008140009808430090FFE7FFE70298BF
:10274000401C02A90880CFE701980699086000980C
:102750000699C86007B0704710B586B0059004A808
:102760000170039202930078012806D1FFE7029AD4
:10277000059948681043486005E0029A0599486841
:1027800090434860FFE705988068009001A9002009
:102790000880FFE701A800880F281DD8FFE701A8DF
:1027A00001880298C840C00780B1FFE701A80188EE
:1027B000490003228A4000999143009103990088BF
:1027C00040008140009808430090FFE7FFE7019830
:1027D000401C01A90880DDE700980599886006B0D3
:1027E00010BD83B080B583B0079306920591029027
:1027F00005A801900299019A002000F02FF803B07B
:1028000080BC01BC03B08646704783B080B583B0FE
:10281000079306920591029005A801900299019AEA
:10282000032000F01BF803B080BC01BC03B0864657
:10283000704783B080B583B00793069205910290EC
:1028400005A801900299019A012000F007F803B051
:1028500080BC01BC03B0864670470000B0B58CB0A8
:102860000392024603980B900AA80270099100781F
:1028700023490978884201DAFFE73EE003F0CCFE05
:102880000890089840F2E831B0FBF1F30A465A4349
:10289000801A07900898B0FBF1F03C21B0FBF1F3EF
:1028A0000A465A43801A06900898164AB0FBF2F07E
:1028B000B0FBF1F25143401A059008981249B0FB61
:1028C000F1F01821B0FBF1F25143401A0490049941
:1028D000059A069B07980AAC2478A5000B4C64590E
:1028E000019400900A4804F095F909980B9904F0B6
:1028F000B5F9084804F08EF9FFE70CB0B0BDC0464A
:102900009607002060EA000080EE360048000020B4
:10291000FA7B00086B85000883B080B583B007930D
:1029200006920591029005A801900299019A022051
:10293000FFF794FF03B080BC01BC03B0864670472C
:1029400080B582B000200190FFF704FE0120FFF760
:1029500001FE02F0B3FC0F4804F05CF90E480F4989
:102960000F4AFFF766FFFEF75BF90E48FFF761FFBE
:102970000D48FFF7E1F90D48FFF75BFF00F02EF976
:1029800002F048FC0A48FFF754FF03F0CDFAFFE7D6
:10299000FEE7C046F47A0008BE7B0008DF7A000834
:1029A000EB7A0008187B000878563412307B000858
:1029B000C07A000880B58AB009902D48FFF739FF2A
:1029C000FFE7C34800680021CA4307A903F06CFC75
:1029D000012801D0FFE7F4E707A8407800F0E8F805
:1029E0000690069820B1FFE70698407808B9FFE7FF
:1029F000E7E707A800780490022808D0FFE70498CA
:102A0000032812D0FFE7049804281CD02EE007A862
:102A100003904078112100231A4602F01BFA039814
:102A200041781648FFF705FF21E007A8029040789B
:102A3000122100231A4602F00DFA029841780E483E
:102A4000FFF7F7FE13E0089805AA107007A8019099
:102A50004179517040781321022302F0FBF901986B
:102A6000417882880348FFF7E4FE00E0FFE7A8E72B
:102A7000807C0008917C00082F7C0008477C0008BF
:102A800080B584B0014603A8017000780A2801DBF4
:102A9000FFE713E003A80190007803F009FB029020
:102AA000029841F60011FFF763FB0198007830218E
:102AB0004143844841180020C870FFE704B080BD3E
:102AC00080B586B0034605A80370049103A90A8067
:102AD0000078092805DCFFE703A80088512801DBFE
:102AE000FFE728E005A8007802F0ACFA029003A8FE
:102AF00000880001019001982B49884201D3FFE72B
:102B000019E0029841F60011FFF732FB0298049990
:102B1000019AFFF759FB05A8017830224A43694919
:102B20008A1801219170017803A80288019B03484B
:102B3000FFF77FFEFFE706B080BDC0465E7E00085F
:102B400010B586B0044605A80470049103A90A8054
:102B500002930078092804DCFFE703A8008808B97D
:102B6000FFE71EE005A8007803F0A2FA01900298A2
:102B700003A9098840180C49884201D3FFE710E0F7
:102B8000019802994018049903AA1288FFF71CFBC8
:102B900005A80078302141434A4841180120C870F7
:102BA000FFE706B010BDC046011900004648704757
:102BB00082B001466846017000780A2803DBFFE70F
:102BC0000020019007E068460078302141433D48ED
:102BD00040180190FFE7019802B07047B0B588B087
:102BE000384840F2E011FDF7E6FA374840F29851D4
:102BF000FDF7E1FA3548002206920260052008211F
:102C000003F0A4FA01460698314A116007A908703A
:102C1000FFE707A80078092846DCFFE707AB029327
:102C200018783022039214464443264904910855EB
:102C30001C78104660430C180020059060701D78C9
:102C400014466C430C19A0701D7814466C430C1983
:102C5000E0701D7814466C430C1920711D781446E1
:102C60006C430C1960711D7814466C430C19A060FC
:102C70001D7814466C430C19E0601D7814466C43B3
:102C80000C192D2560551D7814466C430C192E2502
:102C900060551B785A43891821228854FFE707980A
:102CA000401C07A90870B4E70A4801900A48009040
:102CB0000A480A21052240F29853FFF7BAFD08B0EE
:102CC000B0BDC0469C0800207C0000207C0A00208B
:102CD000980800200000040800000308187E00087F
:102CE00080B586B0059003F097FC04902148FFF76B
:102CF000A0FDFFE703F090FC039002A900200870FC
:102D0000FFE702A8007809282CDCFFE702A800787A
:102D1000FFF74EFF0190019808B9FFE71DE0039807
:102D200001998968401A00900098134988420ED38F
:102D3000FFE70198407850B1FFE701990020487003
:102D400002A80178009A0D48FFF7E6FD05E001981A
:102D5000407808B9FFE700E0FFE70298401C02A9AD
:102D60000870CEE7FFE704A840F2E83103F0D6FB95
:102D7000FFE7BFE7CB7C0008993A0000B57C00086C
:102D800010B5FFB08DB08B9028A900200870FFF718
:102D90000DFF2790F848FFF74CFDFFE702F0F0FA2F
:102DA00020B9FFE70A2003F03DF8F7E702F0E8FA60
:102DB00025A9088000202490FFE72498042819DC26
:102DC000FFE7012003F02EF802F0DAFA014623A80B
:102DD0000180008825A90988884204D1FFE724984A
:102DE000401C249005E0239825A908800020249009
:102DF000FFE7E2E702F0C8FA4BA840F2001102F048
:102E000061FB014629A8018000880C2801DCFFE74E
:102E1000C4E74BA82290299821A908802298098804
:102E200017AAFFF70BFB179820A9087018981F9096
:102E3000199A1EA802801A9A1D9209780288F448ED
:102E400003F0E8FE16A900200880FFE716A8018815
:102E50001EA802880020914208900DDAFFE716A80C
:102E600001880120002206924029079001DB069884
:102E7000079007980890FFE70898C00768B1FFE738
:102E80001D9816A90988415CE64803F0C3FEFFE7D8
:102E90001698401C16A90880D8E7DE4803F0BAFE51
:102EA0001F9880B1FFE71EA8008801280BDBFFE711
:102EB0001EA80088802806DCFFE71E981BA9088052
:102EC0001D981C9005E01E981BA908801D981C9059
:102ED000FFE72798007878B1FFE720A8007804285A
:102EE00005D0FFE720A80078052805D1FFE727983F
:102EF000407815A90870C5E015A90020087020A821
:102F00000078012838D1FFE71BA80088102833D3A8
:102F1000FFE71C980590027B417B09028A18817BA0
:102F20000B04C17B0906C91889181491027A417AE9
:102F300009028A18817A0B04C17A0906C91889180E
:102F400013910279417909028A1881790B04C179B8
:102F50000906C9188918129102784178090289185E
:102F600082781204C078000680184018119011A8C9
:102F7000807815A908707BE020A80078072838D150
:102F8000FFE71BA80088102833D3FFE71C980490A4
:102F9000027B417B09028A18817B0B04C17B0906F5
:102FA000C91889181091027A417A09028A18817A1F
:102FB0000B04C17A0906C91889180F910279417961
:102FC00009028A1881790B04C1790906C918891880
:102FD0000E91027841780902891882781204C0782B
:102FE0000006801840180D900DA8407A15A90870A9
:102FF0003DE020A80078022838D1FFE71BA8008810
:10300000102833D3FFE71C980390027B417B090211
:103010008A18817B0B04C17B0906C91889180C9199
:10302000027A417A09028A18817A0B04C17A090668
:10303000C91889180B910279417909028A18817996
:103040000B04C1790906C91889180A9102784178D8
:103050000902891882781204C07800068018401886
:10306000099009A8407815A90870FFE7FFE7FFE776
:1030700015A800780A2804DBFFE715A900200870CE
:10308000FFE7FFE715A801780C312AAA1180007824
:10309000FFF78EFD2690269808B9FFE77EE6269971
:1030A0000120487003F0B8FA2699886020A80078BB
:1030B000401E0290062861D802998A0001A080185B
:1030C0008746C04600F00CB800F018B800F024B8ED
:1030D00000F028B800F02EB800F034B800F03EB888
:1030E0002799002008701C981BA909882AAA128811
:1030F000279B269C009400F027FA40E027990020A7
:1031000008701C981BA90988279A269B2AAC24883A
:10311000009400F099FA32E01BA801883E48FFF7BE
:1031200060FB2CE01C981BA90988279A269B00F0BD
:10313000C2F924E01C981BA90988279A269B00F055
:1031400081F91CE02799002008701C981BA90988A8
:103150002AAA1288269B00F039F910E0279900204E
:1031600008701C981BA909882AAA1288279B269CEC
:10317000009400F0A3F802E0E67D0008FFE70020DD
:1031800001F058FE2798807B40B1FFE727984078F0
:10319000FFF776FC279900208873FFE72798C07B0C
:1031A00060B1FFE7279B5878194616319A8A5B8AE7
:1031B000FFF7C6FC27990020C873FFE72798007C1B
:1031C00080B1FFE727994878C98800F02DF8279843
:1031D0004178C28883681148FFF72BFB27990020AC
:1031E0000874FFE72798407B88B1FFE7279A50785B
:1031F00011469831D288FFF763FC27984178C2883E
:103200000748FFF716FB279900204873FFE7C5E53D
:10321000DE7C00086B850008F97C0008F87D00085A
:10322000177D0008377D000883B0024602A80270AF
:1032300001AA118000780A2801DBFFE712E002A84A
:10324000007830214143084840180090009901203F
:10325000C87001A800880099886204480068009935
:103260008860FFE703B070479C0800207C0A0020BC
:1032700080B584B00A46014603A80190017002A9F6
:103280000A700022009280560978FEF7FDFB009933
:1032900001984056FEF7DEFB04B080BD82B001907D
:1032A000009101980099034A1140084302490860BF
:1032B00002B0704780FFFF1F08ED00E010B58CB032
:1032C0000E9C0B900AA8018009A90A800893008827
:1032D0000F2801D8FFE775E00B980290027B417B35
:1032E00009028A18817B0B04C17B0906C918891859
:1032F0000791027A417A09028A18817A0B04C17A0D
:103300000906C918891806910279417909028A18B3
:1033100081790B04C1790906C918891805910278C9
:1033200041780902891882781204C0780006801852
:103330004018049004A8417A03A8017000780A2874
:1033400001DBFFE73EE00898012101700398089A2D
:1033500050700898817004A84289089B9A80089B45
:103360000022DA808289089B9A604278089B1A734F
:103370000E9A117441890E9A518207990E9A918280
:1033800005990E9AD16141780E9A117106990E9A9B
:10339000517106990E9A2023D154007A28B1FFE783
:1033A0000E99C868401CC860FFE703A80178059A19
:1033B00004AC237A60786489019400900248FFF796
:1033C00038FAFFE70CB010BD8C7D000810B586B050
:1033D000059004A8018003A90A80029300880928A7
:1033E00004DBFFE704A908200880FFE701A900200B
:1033F000087069460870FFE76846007804A90988E4
:10340000884211DAFFE7059869460978405C28B1DF
:10341000FFE70198401C01A90870FFE7FFE700984B
:10342000401C69460870E7E703A8018801A80278F4
:1034300004A803880248FFF7FCF906B010BDC04697
:103440003F7D000810B586B0059004A80180039266
:1034500002930398007828B1FFE703988078022848
:1034600001D0FFE725E00399C8884000488204980E
:103470000399888203981630059904AA019212884C
:10348000FCF780FE0198008842080399C8888018DC
:10349000C88003990120C8730399C8888988884225
:1034A00007DBFFE7039900200870039901200874E7
:1034B000FFE706B010BD10B586B0059004A80180E6
:1034C000039202930398007828B1FFE7039880786D
:1034D000012801D0FFE734E004A80088010901A811
:1034E0000180008808B9FFE72BE00398C08801A994
:1034F00009884018512807DBFFE70398C18850204E
:10350000401A01A90880FFE70398C1880901401803
:103510009830059901AA12881201FCF733FE019A2E
:103520000399C8888018C8800399C8888988884208
:1035300007DBFFE703990020087003990120487317
:10354000FFE706B010BD000010B590B0129C0F90C0
:103550000EA801800DA90A800C9300880F2801D8BD
:10356000FFE76CE00F980690027B417B09028A1806
:10357000817B0B04C17B0906C91889180B91027A5B
:10358000417A09028A18817A0B04C17A0906C9189E
:1035900089180A910279417909028A1881790B0404
:1035A000C1790906C9188918099102784178090278
:1035B000891882781204C078000680184018089094
:1035C00008A8817807A8017000780A2801DBFFE7C6
:1035D00035E00C990120087007990C9A51700C99EC
:1035E00088700B980C9988800C990020C88008ACD2
:1035F000A1880C9A916061780C9A117312990874E1
:103600000B98129948820998129988820A981299FF
:10361000886160781299087107A800780590607831
:1036200004900A98FCF7D5FE049A0B460599A489E4
:103630000294019300900348FFF7D3F8FFE710B01E
:1036400010BDC046B97D0008B0B58EB00C461299C9
:103650000D900CA804800B920A9309AA118000888F
:103660000F2801D8FFE76AE00D980390027B417BA9
:1036700009028A18817B0B04C17B0906C9188918C5
:103680000891027A417A09028A18817A0B04C17A78
:103690000906C918891807910279417909028A181F
:1036A00081790B04C1790906C91889180691027835
:1036B00041780902891882781204C07800068018BF
:1036C0004018059005A8417804A8017000780A28E0
:1036D00004DBFFE704A900200870FFE70B98012135
:1036E000017004980B9A50700B9A02209070089801
:1036F0000B9A90800B9A0020D08007980B9A9060CC
:1037000005A882780B9B1A730A9A2123D154079A31
:103710000A9B5A6282890A9B9A6282780A9B2C24AD
:103720001A550B9A917304A90978079A83788089AE
:10373000069C019400900348FFF77BF8FFE70EB06A
:10374000B0BDC0465E7D000880B588B00790069188
:103750002E48006804902E48006803902D480068A9
:10376000029070480068001D02F0F8F808B9FFE701
:1037700000E0FFE70798401CF8B9FFE70698E0B1C2
:10378000FFE7FFE7244948680190019A654803680C
:103790009A60019A92680368DA600268121D019BC0
:1037A0009B685A600268121D019B9A600068416123
:1037B0000868401C0860FFE726E004980799401855
:1037C00005900598F449096848600598049988426D
:1037D00007D2FFE70298F0490968091D02F003F9D2
:1037E00011E00398EC490968091D02F0FCF80598FE
:1037F000EB490968884204D2FFE70598E849086068
:1038000000E0FFE7FFE7FFE708B080BDF8410020D8
:103810008C0A0020940A0020D041002010B582B00C
:10382000019002F015F96B490868401C0860DA48FD
:10383000006868B9FFE70198D749086065480068E3
:10384000012803D1FFE700F0EBFA00E0FFE713E007
:103850003548006870B9FFE7CF480068C06A019931
:10386000C96A884204D8FFE70198CB49086000E0A4
:10387000FFE700E0FFE7FFE72C480168491C016013
:10388000006801990864FFE7FFE70198C06AC14931
:103890000968884205D9FFE70198C06ABD490860F8
:1038A000FFE7FFE7FFE70198C16A1422104648438B
:1038B000BA490818406800900098019B98600098E9
:1038C0008068019BD8600198001D009B9B68586030
:1038D0000198001D009B9860019BDC6A10466043C4
:1038E000081858610198C06A42438858401C8850A3
:1038F000FFE7FFE702F0B6F80B48006878B1FFE792
:10390000FFE7A5480068C06A0199C96A884203D2E6
:10391000FFE702F02BFA00E0FFE7FFE700E0FFE738
:1039200002B010BD840A0020C441002034410020B0
:1039300080B582B002F08CF80F480068B0B9FFE79C
:103940000E48009002F032F80D48019002F02EF877
:1039500000990198A04A11600A49086005201021C9
:10396000002202F0F3FB0449086000E0FFE702F0E8
:1039700079F802B080BDC046FC4100203C410020E7
:1039800050410020980A002080B582B0FFE70F4820
:103990000068C0B1FFE702F05BF80D48C068C0687E
:1039A00001900198001D01F0D9FF0A490868401EE6
:1039B000086006490868401E086002F053F8019844
:1039C00000F0AEF8E3E702B080BDC0462C41002015
:1039D000E44100202841002080B582B00190009190
:1039E0000198006CB8B1FFE701990A6CC8688018AB
:1039F000C8600199C8688968884204D3FFE70199C3
:103A00000868C86000E0FFE70098019AD168126C6E
:103A1000FCF7B8FBFFE702B080BD000080B58AB0BC
:103A200001200990002004900390FFE703980B28E1
:103A300010DCFFE7039A1948815C05A881540399BB
:103A4000405C08B9FFE705E0FFE7FFE70398401C8B
:103A50000390EBE700200890FFE70898002819DCA6
:103A6000FFE70F480490049808998A000D498918C7
:103A700000230093019105A9802202F02BFD0990FB
:103A8000099808B9FFE705E0FFE7FFE70898401C41
:103A90000890E2E709980AB080BDC046227C000881
:103AA0006D3C000890410020F0B58BB0119C109C3B
:103AB0000A900991089207930898800000F0CEFCC4
:103AC00005900598A0B1FFE7582000F0C7FC0690CC
:103AD000069840B1FFE706985821FCF76CFB059863
:103AE0000699086303E0059801F0D0FFFFE702E0C4
:103AF00000200690FFE7069878B1FFE70A98099939
:103B0000089A079B109C119D069E0027039702961A
:103B10000195009400F004F9FFE706980BB0F0BDA2
:103B200080B582B001900198006B01F0AFFF019861
:103B300001F0ACFF02B080BD82B0002000901548BB
:103B4000006818B1FFE701200090FFE71248006805
:103B5000C06A18B1FFE70020019018E0CE48006865
:103B6000022803D3FFE7002001900FE0009818B16E
:103B7000FFE70020019008E0564800680190564891
:103B800001680198401A0190FFE7FFE7FFE70198FD
:103B900002B0704738410020840A00209C0A0020AF
:103BA0009C41002082B001900B48006800684142AF
:103BB0004841019908600198006830B9FFE706485C
:103BC0000068C0680068009002E000200090FFE7F5
:103BD000009802B07047C046880A002084B043F2C3
:103BE00000000090ED48029002A80078400770B1F4
:103BF000FFE70298C01D02900298072188430290B7
:103C0000029AE6490098891A40180090FFE7029945
:103C1000E1480160002141600298009A80180190FB
:103C200001980838019001980722D2431040019072
:103C3000019ADC48026002685160026811600299D2
:103C400003910199039A891A5160006803990860E9
:103C50000398406803490860039840680249086077
:103C600004B07047984100208C41002080B582B09C
:103C70000190FFE7FFF788FE87480068022803D31A
:103C8000FFE702F073F800E0FFE7FFF755FF009051
:103C9000009802281BD3FFE702F0B4F90D48006832
:103CA0000D490968884203D2FFE772B6FFE7FEE7D5
:103CB000FFF742FF00900098022804D3FFE7009826
:103CC00001F08CFF00E0FFE702F082FE00E0FFE77A
:103CD000D0E7C0469C410020F841002010B584B0D8
:103CE000069C03900291019268460370029818B9ED
:103CF000FFE70698006003E0019806990860FFE777
:103D000003980699C86302980699086406980121E9
:103D100002F05FFA009806994C22885404B010BD56
:103D200010B586B00B9C0A9C099C089C05900491D8
:103D3000039202930A98006B03998900A522FCF76D
:103D400033FA0A98016B039880004018001F019015
:103D5000019807218843019001A80078400718B115
:103D6000FFE772B6FFE7FEE70498F8B1FFE700202F
:103D70000090FFE700980B2813D8FFE70498009AFB
:103D8000805C0A9989183422885404980099405C10
:103D900008B9FFE705E0FFE7FFE70098401C009047
:103DA000E8E70A993F220020885400E0FFE70898DE
:103DB000062803D3FFE772B6FFE7FEE70898062858
:103DC00003D3FFE70520089000E0FFE708980A9971
:103DD000C86208980A9988640A98001D01F0FCFDE1
:103DE0000A98183001F0F8FD0A9800610899062039
:103DF000401A0A9988610A98406201980A99096BE9
:103E0000059A029B00F066FC0A990860099820B1A7
:103E1000FFE70A980999086000E0FFE706B010BDC7
:103E200080B584B000200390FFE7039805280CD8E4
:103E3000FFE70398142141431748401801F0B6FDED
:103E4000FFE70398401C0390EFE70C48019001F056
:103E5000ADFD0B48029001F0A9FD0A4801F0A6FD56
:103E6000094801F0A3FD094801F0A0FD019902985D
:103E7000074A11600749086004B080BD6441002012
:103E800078410020B0410020E4410020D0410020D2
:103E90008C0A0020940A00209C0A002086B005901D
:103EA0003D480490FFE7049800680599884205D2D0
:103EB000FFE7FFE7049800680490F4E704983649A8
:103EC00088421ED0FFE704990020344A91420290B4
:103ED0000FD3FFE704993148314A821801200023AB
:103EE00000939142019001D90098019001980290AD
:103EF000FFE70298C00718B9FFE772B6FFE7FEE7D1
:103F0000FFE70498039003980499496840180599BD
:103F1000884209D1FFE705984268049948688018EB
:103F200048600498059000E0FFE705980390039827
:103F30000599496840180499096888421AD1FFE731
:103F4000049800681749096888420DD0FFE7049873
:103F500000684268059948688018486004980068BD
:103F600000680599086004E00E480068059908603B
:103F7000FFE704E00498006805990860FFE70498EB
:103F80000599884204D0FFE705980499086000E08D
:103F9000FFE706B07047C046C84100201A0F002056
:103FA000FF2F0000900A002080B586B00590049194
:103FB00003920293002001900498059948600598A7
:103FC000006104980399884213D8FFE70398029987
:103FD000401A05998969884203D3FFE701200190BF
:103FE00006E0DF4800680599091D01F0FCFCFFE7C9
:103FF00014E003980299884208D2FFE704980299D6
:10400000884203D3FFE70120019006E0D34800680F
:104010000599091D01F0E7FCFFE7FFE7019806B0ED
:1040200080BDC04680B582B0019001F011FD0198BD
:10403000806B18B9FFE70120009002E0002000909B
:10404000FFE701F00FFD009802B080BD80B584B09D
:1040500003900291C1480068C068C068019001984F
:10406000001D01F07BFC01982821405C40070028DE
:1040700006D5FFE701980399029A00F003F906E0DC
:1040800001992822885CFE2318408854FFE7019894
:10409000016A884704B080BD80B58AB000200990CD
:1040A000089007900690FFE77548006806A900226F
:1040B00002F0FAF800B9A3E0069800280FD5FFE750
:1040C00006A8001D0290029818B9FFE772B6FFE734
:1040D000FEE702990A6848688968904700E0FFE7B0
:1040E0000698002800D58AE0089805900598406950
:1040F00028B1FFE70598001D01F030FC00E0FFE764
:1041000004A800F0EFF803900698401E01900828DC
:1041100073D801998A0001A08018874600F010B872
:1041200000F00EB800F037B800F03CB800F052B81C
:1041300000F006B800F004B800F02DB800F032B876
:1041400005992822885C0123184388540598079B09
:1041500081695918039AFFF727FFD0B1FFE7059847
:104160002821405C4007002808D5FFE705980799FB
:1041700082698918039A00F085F806E005992822DB
:10418000885CFE2318408854FFE70598016A884739
:1041900000E0FFE732E005992822885CFE23184002
:1041A00088542BE005992822885C01231843885401
:1041B0000798059988610598806918B9FFE772B674
:1041C000FFE7FEE70598039B816959181A46FFF738
:1041D000EBFE13E005982821405C8007002804D4FA
:1041E000FFE7059801F052FC06E005992822885C5B
:1041F000FE2318408854FFE700E0FFE7FFE753E79E
:104200000AB080BD80B584B00390029101F0FAFE3F
:10421000684600F067F80190009858BBFFE70298E5
:1042200060B9FFE703980199884207D8FFE702F0D9
:10423000CFFB03980199FFF709FF1AE0029838B104
:10424000FFE7474800680068414248410290FFE7A5
:104250000B4800680399019A891A029A01F092FDAD
:1042600002F0B6FB18B9FFE701F080FD00E0FFE7C0
:10427000FFE702E002F0ACFBFFE704B080BDC04600
:10428000FC41002080B584B0039002910192FFE7C9
:104290000398029B81695918019AFFF785FE48B17E
:1042A000FFE7039881690298401802900398016A19
:1042B0008847EDE704B080BD08480068006828B969
:1042C000FFE707490020C043086006E00348006894
:1042D000C068006802490860FFE770478C0A002048
:1042E0009C41002080B582B0019002F095F90090C9
:1042F00000980A490968884206D2FFE700F010F8E2
:1043000001990120086003E0019900200860FFE79F
:10431000009802490860009802B080BD800A002021
:1043200080B582B0FFE70D480068006858B1FFE72C
:104330000A480068C0680068019001980021C943DC
:10434000FFF784FEEFE7054A10680090044908680B
:1043500010600098086002B080BDC046880A002046
:10436000980A002081B00020009008480068401C96
:1043700018B1FFE772B6FFE7FEE772B6FFE70098F5
:1043800008B9FFE7FBE701B07047C04658000020BE
:1043900080B584B00390FFE701A8FFF703FC02900B
:1043A00002980199FFF72EFFFFF776FEF4E780B53C
:1043B00084B0039001F04CFB03984521405C02A9B6
:1043C0000870FFE7002102A84056012815DBFFE72F
:1043D0000398406A58B1FFE70398243002F036FA98
:1043E00018B1FFE701F050FD00E0FFE700E004E056
:1043F0000298401E02A90870E4E703994522FF20B5
:10440000885401F02FFB01F023FB03984421405C0A
:1044100001A90870FFE7002101A84056012815DB1B
:10442000FFE70398006978B1FFE70398103002F0C6
:104430000DFA18B1FFE701F027FD00E0FFE7019852
:10444000401E01A9087000E000E0E4E7039944225F
:10445000FF20885401F006FB04B080BD80B590B009
:104460000F9000200B900F9848B3FFE70F9808219A
:10447000C94388421FD8FFE70F9808300F900FA854
:1044800000784007A8B1FFE70F99072001400820F6
:10449000401A0A900F980A99C943884205D8FFE745
:1044A0000A990F9840180F9002E000200F90FFE744
:1044B00000E0FFE702E000200F90FFE700E0FFE7E9
:1044C00001F0A0FD7C48006818B9FFE7FFF786FB04
:1044D00000E0FFE70FA8C0780006002800D5DCE068
:1044E0000F9800B9D7E00F9874490968884200D93D
:1044F000D1E073480D9000680E900E990020714A2B
:10450000914209900FD3FFE70E996E486E4A8218C8
:104510000120002307939142089001D90798089041
:1045200008980990FFE70998C00718B9FFE772B625
:10453000FFE7FEE7FFE70E9841680F9A00209142DF
:10454000069006D2FFE70E980068411E884106904B
:10455000FFE70698C00718B3FFE70E980D900E9876
:1045600000680E900E990020564A914205900FD394
:10457000FFE70E995348544A821801200023039301
:104580009142049001D90398049004980590FFE7A4
:104590000598C00718B9FFE772B6FFE7FEE7CAE75C
:1045A0000E9845490968884273D0FFE70D98006866
:1045B00008300B900B990020424A914202900FD391
:1045C000FFE70B993F48404A8218012000230093DF
:1045D0009142019001D90098019001980290FFE763
:1045E0000298C00718B9FFE772B6FFE7FEE70E981A
:1045F00000680D9908600E9840680F99884203D2B0
:10460000FFE772B6FFE7FEE70E9840680F99401A81
:1046100011281DD3FFE70E980F9940180C900CA895
:104620000078400718B1FFE772B6FFE7FEE70E9883
:1046300040680F99401A0C9948600F980E9948608D
:104640000D9800680C9908600C980D99086000E0BE
:10465000FFE70E98426819480168891A01600068EE
:104660001A490968884205D2FFE7144800681749CB
:10467000086000E0FFE70E9948680122D207104366
:1046800048600E990020086011490868401C0860C5
:1046900000E0FFE700E0FFE700E0FFE702F098F945
:1046A0000BA80078400718B1FFE772B6FFE7FEE7F6
:1046B0000B9810B080BDC046900A00208C410020AD
:1046C000C84100201A0F0020FF2F00009841002051
:1046D000A441002084B003900291019200930398BA
:1046E000001F039003990120000608600398001F33
:1046F00003900198039908600398001F03900399A1
:104700002F4808600398001F039003992D48086004
:104710000398001F039003992B4808600398001F1B
:1047200003900399294808600398001F0390039998
:10473000274808600398001F0390009803990860B9
:104740000398001F03900399224808600398001FF4
:1047500003900399204808600398001F0390039971
:104760001E4808600398001F039003991C480860C6
:104770000398001F039003991A4808600398001FCC
:1047800003900399184808600398001F0390039949
:10479000164808600398001F0390039914480860A6
:1047A0000398001F039003994320C04308600398B7
:1047B000001F0390029803990860039804B07047A3
:1047C00065430008121212120303030302020202DD
:1047D000010101011111111110101010090909092D
:1047E0000808080807070707060606060505050561
:1047F00004040404A0B01FA90870002002901E90B9
:104800001D901C901B901A9019901890179016905C
:104810001590149013901290119010900F900E908C
:10482000F9490D91F9490C910B900A900991089062
:104830000791069005910490F54800680C21084006
:1048400080081E901E98039040B1FFE7039801284E
:1048500007D0FFE70398022806D065E0ED481A90DC
:1048600065E0ED481A9062E0E94801683F22920451
:104870001140890C139100680121C9060840C00E3F
:1048800012901298800113994018139013980E28D3
:1048900004D3FFE71398401C13900BE013980F28E4
:1048A00003D1FFE71020139003E01398801C1390AE
:1048B000FFE7FFE7D6480068032109040840000C21
:1048C0001190119870B9FFE7D44800680F21084093
:1048D000401C10901099CF48B0FBF1F11398484359
:1048E0001A9020E0119801280ED1FFE7CB4800680C
:1048F0000F210840401C10901099C748B0FBF1F1FF
:10490000139848431A900DE0C44800680F210840EE
:10491000401C10901099C248B0FBF1F11398484325
:104920001A90FFE7FFE702E0BA481A90FFE7B8489D
:104930000168C9B209090F910F9A0AA9895C0E9101
:104940001A990E9AD1401991016840F200721140F3
:10495000090A0F910F9A08A9895C0E9119990E9A6C
:10496000D1401891006843F600010840C00A0F903A
:104970000F9906A8405C0E9019980E99C8401790A0
:104980001FA8007801900B2800D90FE201998A0036
:1049900001A080188746C04600F016B800F017B88E
:1049A00000F018B800F019B800F01AB800F0EBB831
:1049B00000F0FCB900F0FAB900F0F8B900F06FB9F6
:1049C00000F01CB900F0AEB91A981B90EFE11998ED
:1049D0001B90ECE118981B90E9E117981B90E6E119
:1049E000F748006840F200110840884203D0FFE712
:1049F000F1481690C4E0EF48006880B2800B1D902B
:104A0000EF480068800F1C901D980090032800D983
:104A1000B4E000998A0001A08018874600F006B82B
:104A200000F02EB800F056B800F080B81C9820B9FD
:104A3000FFE717984008169021E01C98012806D13E
:104A4000FFE717980A21B0FBF1F0169016E01C98CA
:104A5000022806D1FFE719980321B0FBF1F0169068
:104A60000BE01C98032806D1FFE719980B21B0FB37
:104A7000F1F0169000E0FFE7FFE7FFE7FFE77EE0D9
:104A80001C9820B9FFE717988008169021E01C9821
:104A9000012806D1FFE717980C21B0FBF1F0169022
:104AA00016E01C98022806D1FFE719980521B0FBF3
:104AB000F1F016900BE01C98032806D1FFE7199837
:104AC0000D21B0FBF1F0169000E0FFE7FFE7FFE7F4
:104AD000FFE754E01C9830B9FFE717980621B0FBB8
:104AE000F1F0169021E01C98012806D1FFE71798F5
:104AF0000E21B0FBF1F0169016E01C98022806D1AA
:104B0000FFE719980721B0FBF1F016900BE01C9815
:104B1000032806D1FFE719980F21B0FBF1F016909A
:104B200000E0FFE7FFE7FFE7FFE728E01C9820B978
:104B3000FFE71798C00816901FE01C98012804D1C1
:104B4000FFE717980009169016E01C98022806D176
:104B5000FFE719980921B0FBF1F016900BE01C98C3
:104B6000032806D1FFE719981121B0FBF1F0169048
:104B700000E0FFE7FFE7FFE7FFE700E0FFE7FFE711
:104B800016981B9013E18E480068800718B9FFE75C
:104B9000179815902FE08A480068032108400128E3
:104BA00003D1FFE71A98159024E085480068032197
:104BB0000840022804D1FFE748F20000159018E0F1
:104BC0007F48006803210840032810D1FFE77C4894
:104BD0000068072189040840800C0F900F9904A8F1
:104BE000405C0E900E997548C840159000E0FFE7B4
:104BF000FFE7FFE7FFE715981B90D8E070480068D3
:104C00008003800F88B90DE006070809010203043C
:104C1000041002400024F40000127A002C1002401C
:104C2000006CDC021898159036E065480068032196
:104C30000904084001210904884203D1FFE71A98BA
:104C4000159028E05E48006803210904084001210E
:104C50004904884204D1FFE748F20000159019E0AA
:104C600057480068032109040840884210D1FFE733
:104C700053480068072189040840800C0F900F9961
:104C800004A8405C0E900E994C48C840159000E076
:104C9000FFE7FFE7FFE7FFE715981B9087E048482D
:104CA0000068C004800F18B9FFE71898159036E027
:104CB0004348006841F60001084040F60001884280
:104CC00003D1FFE71A98159028E03D48006841F6A7
:104CD0000001084041F20001884204D1FFE748F298
:104CE0000000159019E03648006841F600010840C0
:104CF000884210D1FFE73248006807218904084044
:104D0000800C0F900F9904A8405C0E900E992B48D0
:104D1000C840159000E0FFE7FFE7FFE7FFE71598C1
:104D20001B9044E0264800684005800F18B9FFE753
:104D30001898149037E02248006840F2006108405B
:104D400040F20021884204D1FFE747F6005014905A
:104D500028E01B48006840F20061084040F2004132
:104D6000884204D1FFE748F20000149019E014488B
:104D7000006840F200610840884210D1FFE7104807
:104D80000068072189040840800C0F900F9904A83F
:104D9000405C0E900E990948C840159000E0FFE76E
:104DA000FFE7FFE7FFE714981B9000E0FFE71B9881
:104DB00020B0704704100240006CDC020024F400B4
:104DC0003010024081B001466846018000881F22F1
:104DD0000146114001238B408109154A8858184328
:104DE000885001B07047C04681B0014668460180D6
:104DF00000881F220146114001238B408109FD4A92
:104E000088589843885001B07047C04681B0014629
:104E10006846018000881F220146114001238B4013
:104E20008109F44A88581843885001B07047C04639
:104E30000010024080B582B0014601A801700178DF
:104E4000481E8141684601700121FCF7A9F8002045
:104E500002B080BD10B59AB019AC207018A80170CE
:104E6000179216A8037018980EA90870179890B199
:104E7000FFE716A8007801280DDBFFE716A80078E9
:104E80001E2808DCFFE70EA8401C179916AA127806
:104E9000FBF778F9FFE71698411C0CA80170017820
:104EA0001F4A03920EA80BAB0293FCF79CFE029BD9
:104EB00003990AAA1080DC781A48059004705B8870
:104EC00043700B9B1B0A83700B9BC3701288401DA1
:104ED000FBF758F919A8069000780C3009A904913D
:104EE00008800020887001F097FB049B014605981C
:104EF00008910A990A1D0DA90A80098818AA079223
:104F00001278089C01940324009400F00FF806998D
:104F10000798097802780448FDF7FEFC1AB010BD26
:104F20001406002097070020627C000870B5FFB0CF
:104F300099B001920C46019902469D989C989792CF
:104F400096AA148095AC2170949393A908700DA92A
:104F500009910020029008700CA908809DABDC78B4
:104F60000D88681C088052A8049044555B880C8802
:104F7000651C0D8003559D9B1B0A0C88651C0D80CC
:104F800003559D9B0C88651C0D800355959B0C88D3
:104F9000651C0D8003550988401897991288FBF706
:104FA000F1F8049902980C9A969BD3180BAA0392D5
:104FB00013800AAB079318801D88681C18800EA800
:104FC0000890AA24069444551D886C1C1C80552406
:104FD0000594445554781D886E1C1E8044550B9CC6
:104FE0001D886E1C1E8044551B88C0181288FBF754
:104FF000C9F80399079B04980B9C0A9A12191A8006
:105000000988FCF783FD059B069A079904460898D2
:105010000D886E1C0E8044550C88651C0D80035550
:105020000B885C1C0C80C2540988FBF7B9FF0999F6
:105030000D98401C087040F22C1000F0F3FE7FB079
:1050400019B070BD81B0014668460170017841F623
:10505000001048430149401801B0704700000308A0
:1050600085B00A4604A9087003A802700278920766
:10507000130F0F229A40D2430292097802789207C6
:10508000120F91400191007880080090032835D8D4
:1050900000998A0001A080188746C04600F006B833
:1050A00000F00EB800F016B800F01EB8029A1849C9
:1050B000086810400860019A0868104308601EE004
:1050C000029A1249086810400860019A0868104363
:1050D000086014E0029A0C49086810400860019AC0
:1050E0000868104308600AE0029A06490868104000
:1050F0000860019A08681043086000E0FFE705B007
:105100007047C04614000140100001400C000140EF
:105110000800014010B584B000200390029035498A
:1051200008680122120410430860FFE70398401C3E
:105130000390304800680121490408400290FFE7CD
:1051400002990020019039B9FFE703982A49401AD3
:10515000411E88410190FFE70198C0070028E5D172
:10516000FFE7244800688003002802D4FFE7FFE738
:10517000FEE722490868012210430623984308608D
:105180001F4900910868086008680860086840F2D4
:105190000043184308601B4B18680F24A043186095
:1051A0000868194B18400860086819231B04184345
:1051B000086010490868120610430860FFE70D48B0
:1051C00000688001002801D4FFE7F8E70C4908686F
:1051D0000322904308600868022210430860FFE73A
:1051E000074800680C210840082801D0FFE7F7E7CE
:1051F00004B010BD00100240FFFF0000002002407C
:10520000041002402C100240FFFF007F80B5FFF722
:1052100081FF80BD80B584B00023019304200090FD
:105220001B481C4940F2002201F054F903900398F6
:10523000012804D0FFE71848FDF7E7FAFFE700234D
:105240000193052000901548154940F2001201F025
:1052500041F903900398012804D0FFE71148FDF7B6
:10526000D4FAFFE700230193032000900E480F4972
:1052700040F2001201F02EF903900398012804D0A7
:10528000FFE70B48FDF7C1FAFFE704B080BDC04659
:10529000812D0008CB7B00089C7B0008E12C0008D6
:1052A0004C7B0008797B0008B5290008427B000888
:1052B000587B0008EFF3108072B6704780B586B057
:1052C0002748FFF77FFD2748FFF77CFD0920C00630
:1052D00001900721009140F200220292FDF770F93F
:1052E0000099019840F20042FDF76AF90198022105
:1052F000012240F20063FDF7E8F90198029B0021CA
:10530000039103220492FDF727FAE748059000F085
:10531000E3F90598E121490200F05CF90399059849
:1053200000F007FB0399059800F0DFFA0399059850
:1053300000F0B7FA0598042100F0C8FA0598082192
:1053400000F0E8FA059800F013FA04991B20FDF725
:105350008FFF0598052100F041FA06B080BDC046D8
:105360000E060000110500001448008895490880C9
:105370009549002008807047934800887047C046D0
:10538000914800887047C04681B08B480078411C26
:1053900007200140684601700078884909788842F2
:1053A0000AD0FFE70548008883490A785300844AF9
:1053B000D05200980870FFE701B07047180F002026
:1053C00087B0019101460198069105A908807E48A1
:1053D00000880988884204DAFFE77B48008800904B
:1053E00003E005A800880090FFE7009804A9088062
:1053F0007448008803A9088002A900200880FFE7FC
:1054000002A8008804A90988884213DAFFE703A9E3
:105410000A886E48805C069A02AB1B88D0540398B9
:10542000401C6B4A10400880FFE70298401C02A90C
:105430000880E5E7069A04A803880021D154008873
:1054400007B0704786B0019101460198059104A903
:1054500008805D4800880988884204DAFFE75A48D6
:105460000088009003E004A800880090FFE70098FF
:1054700003A9088002A900200880FFE702A800888D
:1054800003A90988884213DAFFE74E490A884F4882
:10549000805C059A02AB1B88D0540888401C4C4A9B
:1054A00010400880FFE70298401C02A90880E5E749
:1054B000039A45490888801A088003A8008806B026
:1054C0007047C04610B588B0069005A801803A48DC
:1054D00000783A490978884204D1FFE707A90020FB
:1054E000088064E0354B187841003548415A04A8DB
:1054F000018034490A8803A90A801A78521C0724BB
:1055000022401A7000880988884207DBFFE704A858
:10551000008803A90988401A009009E003A80188BF
:1055200004A80088401A40F2004140180090FFE7AC
:10553000009902A80180008820B9FFE707A9002090
:10554000088034E002A8008805A90988884204DDA3
:10555000FFE7059802A90880FFE701A9002008805D
:10556000FFE701A8008802A90988884213DAFFE74B
:1055700003A90A881548805C069A01AB1B88D054A1
:105580000398401C124A10400880FFE70198401C15
:1055900001A90880E5E704980A490880029A0A49A7
:1055A0000888801A0880029807A90880FFE707A8E2
:1055B000008808B010BDC046680000207A000020B6
:1055C0006A000020160F0020140F0020140B00208A
:1055D000FF03000080B588B0079006910020059079
:1055E000049003900290079801905949884214D082
:1055F000FFE701985749884214D0FFE701985649C0
:10560000884214D0FFE701985449884214D1FFE73B
:105610000520FFF7EFF805900FE00A20FFF7EAF802
:1056200005900AE00220FFF7E5F8059005E002206A
:10563000FFF7E0F8059000E0FFE707980068000436
:10564000002818D5FFE70598400006994A088018F9
:10565000B0FBF1F0029002981449084004900298BF
:105660000007400F039004A8008803A90988084395
:105670000799C86016E0059806994A088018B0FB9B
:10568000F1F00290029809490840049002980F2115
:105690000840039004A8008803A9098808430799D3
:1056A000C860FFE708B080BD00380140F0FF00008F
:1056B00081B000900098406A0649084001B07047E8
:1056C00082B00190009100980249084001998862D7
:1056D00002B07047FF01000080B586B005900598C4
:1056E00004901B49884217D0FFE704981949884263
:1056F0001AD0FFE70498184988421DD0FFE70498A4
:105700001649884220D1FFE718480390FFF77EFB37
:105710000398FFF769FB18E013480290FFF776FB48
:105720000298FFF761FB10E00E480190FFF76EFB57
:105730000198FFF759FB08E009480090FFF766FB66
:105740000098FFF751FB00E0FFE706B080BDC046C0
:1057500000440040004C0040005000400038014030
:105760001404000013040000110400000E030000E4
:1057700081B000900099086801221043086001B0D0
:10578000704782B001906846018000881F21084060
:10579000012282400199086A1043086202B07047F2
:1057A00084B0009101460098029101A908800298F6
:1057B0000A889209805809881F221140C840C007F2
:1057C00020B1FFE703A90120087003E003A900202E
:1057D0000870FFE703A8007804B0704782B001901A
:1057E0006846018000881F220146114001238B403A
:1057F0000199820988581843885002B07047000008
:1058000082B00190009100980C49884208D1FFE7CE
:105810000199D022885848F20003984388500BE041
:1058200000981F2109040840000C012282400199C0
:10583000086A10430862FFE702B0704709340F346A
:1058400010B585B00390029100200190009003985C
:1058500002A9098889094058029C1F231C40012184
:105860000A46A240104001900398029A920D805877
:10587000029A1B041A40120C9140084000900098B4
:1058800038B1FFE7019820B1FFE704A901200870B3
:1058900003E004A900200870FFE704A8007805B021
:1058A00010BD82B0019000910199086801229043D7
:1058B00008600199086840F2006290430860009A0D
:1058C000019908681043086002B0704782B00190E7
:1058D000009101990868042290430860009A019998
:1058E00008681043086002B0704782B001900091D0
:1058F000019908680122904308600199486843F2C1
:10590000000290434860009A01994868104348603B
:1059100002B0704782B00190009101990868082296
:1059200090430860009A019908681043086002B02B
:10593000704782B00190009101990868012290435C
:1059400008600199086841F2000290430860009ADB
:10595000019908681043086002B0704782B0019056
:1059600001980069009001998868496888600199E8
:10597000486889684860009840680199884205D164
:10598000FFE7019880680099486000E0FFE701990F
:105990000020086100990868401E086000980068AF
:1059A00002B07047704780F31088704781B0009054
:1059B0000099084608304860009A0020C143916071
:1059C000009A11460831D160009A114608311161E0
:1059D0000099086001B0704781B0009000990020E4
:1059E000086101B0704784B003900291029800688A
:1059F00000900098401C20B9FFE7039800690190CF
:105A000010E0039808300190FFE7019840680068B3
:105A10000099884205D8FFE7FFE7019840680190A8
:105A2000F3E7FFE7019840680299486002984168EF
:105A300088600198029988600298019948600398EB
:105A40000299086103990868401C086004B0704717
:105A500072B60D490868401C0860BFF34F8FBFF352
:105A60006F8F70470848006818B9FFE772B6FFE704
:105A7000FEE705480168491E0160006810B9FFE7AC
:105A800062B6FFE77047C0465800002080B586B078
:105A90000590059804900598002856D0FFE70498D3
:105AA000083804900498039003990020284A9142F2
:105AB00002900FD3FFE703992548264A8218012058
:105AC000002300939142019001D900980190019820
:105AD0000290FFE70298C00718B9FFE772B6FFE728
