:020000040800F2
:10000000884700206901000895160008A90B000820
:1000100000000000000000000000000000000000E0
:10002000000000000000000000000000DD160008D5
:10003000000000000000000099160008F9160008F2
:100040007B0100087B0100087B0100087B010008A0
:100050007B0100087B0100087B0100087B01000890
:100060007B0100087B0100087B0100087B01000880
:100070007B0100087B0100087B0100087B01000870
:100080007B0100087B0100087B0100087B01000860
:100090007B0100087B0100087B0100087B01000850
:1000A0007B0100087B0100087B010008B9170008EC
:1000B000151800087B0100087B0100087B0100087F
:1000C0007B0100087B0100087B0100087B01000820
:1000D0007B0100087B010008000000007B01000894
:1000E0007B0100087B0100087B010008810B0008F0
:1000F0000000000000000000000000007B0100087C
:1001000000000000000000000000000000000000EF
:100110000000000000000000000000007B0100085B
:100120007B0100087B0100087B0100087B010008BF
:100130007B0100087B0100087B0100087B010008AF
:100140007B0100087B0100087B0100087B0100089F
:100150007B0100080348854600F0F0FB004800479B
:10016000D5280008884700200448804704480047F5
:10017000FEE7FEE7FEE7FEE7FEE7FEE725170008DD
:1001800055010008F0B51FB40646002082B00546B0
:100190004024019100901BE0019922460F46304611
:1001A00000F07AF9049A059B801A994110D3104601
:1001B0001946224600F060F9361A8F41019722460F
:1001C00001200021009F00F057F938184D410090A0
:1001D0002046641E0028DFDC019B00982946324639
:1001E00007B0F0BD30B5434351435C18010C130C0C
:1001F0000D465D432C1980B292B2054655435143DA
:100200000A0C09044D1962415843010C00044019BD
:10021000514130BD03460B439B0703D009E008C999
:10022000121F08C0042AFAD203E00B780370401CA6
:10023000491C521EF9D27047D2B201E00270401C34
:10024000491EFBD270470022F6E710B513460A4656
:1002500004461946FFF7F0FF204610BD30B50546AD
:100260002A460B4610781C78521C5B1C002801D0D3
:10027000A042F7D0002C03D0002802D06D1CEFE77D
:10028000284630BDF8B502464A40D40F42004B0024
:1002900052085B089A4202D20246084611464A00BA
:1002A00023D0C30D4A00DDB2120EAD1A202D35DA6F
:1002B00049020126490AF6058A19002C00D052424B
:1002C00020214F1B1146B9402A411018C20D9A42F5
:1002D00021D0002C17D0012D08DCDA05801AD20FAE
:1002E0008019D207DBB200F0F0F8F8BDDA05801A09
:1002F000012340001B06C01880185A428018CA0FFC
:100300001043490007E04908C2071143DA05801A83
:1003100080194008801800F0D0F8F8BD6100012273
:10032000511A001BF7E70122D2075140AAE7012228
:10033000D2075040A6E7024670B54A40D30FDB070C
:1003400040002DD04A002AD0010E140E00021202E5
:100350000919400A520A8418E50104465443000A68
:10036000120A2E045043A4194219200CC543AA189E
:10037000120C0125AD03521C521912047F392404BA
:1003800000D0521C104301D44000491EC2B20C06DA
:10039000C0092018401C4008802A02D003E0002039
:1003A00070BD40084000002900DA0020184370BDED
:1003B00070B502464A40D50F40004A00ED0740089C
:1003C0005208002814D0002A12D0C40DD30D4102C7
:1003D0000120C0055202490A520AE41A09181218EB
:1003E0007D34914201D3641C00E04900002C01DA05
:1003F000002070BD0023914201D3891A03434008B5
:1004000049000028F7D100290AD0914202D10121E8
:10041000C90705E0914201D2012101E00121C94350
:10042000E005C018401900F048F870BDC217C10FB0
:10043000504010B54018CA079623002100F045F837
:1004400010BD10B500229623114600F03EF810BDF5
:10045000C20FD207400040080BD0C10D0723DB01BB
:10046000C91840020905400A1143C2084007114358
:10047000704700200146704710B5202A04DB014672
:10048000203A9140002010BD914020239C1A034641
:10049000E3401943904010BD10B5202A04DB084604
:1004A000203AD040002110BD0B46D340D04020243C
:1004B000A21A91400843194610BD002904DA401CD5
:1004C000490001D140084000704770B40024050C79
:1004D00005D11024000402D1002921D01124050ED9
:1004E00001D100020834050F01D10001241D850F40
:1004F00001D18000A41C002801DB4000641C0029FD
:1005000008D020252E1B0D46F540A14000D001212A
:100510002943084301061B1B000ADB1D02D50020EE
:1005200070BC7047DB05181880180029F8DA401CE9
:100530004900F5D170BC40084000704710B541003B
:100540000DD04100090E962909DC7E290ADC07DB63
:10055000410205D0C00F7F21C007C905401810BD5A
:10056000002010BD9622541A20210A1B01469140FA
:10057000E040FFF7A2FFA04010BD0000F0B5074625
:100580000846584087B0C00F049048000E465900F6
:1005900040084908BC1A884105D2384631461E46F3
:1005A00017460B4602465800400810434CD0300D09
:1005B000039040055900400D490D0590401A0290E6
:1005C000402872DA18030121000B09050843019045
:1005D00004980092002805D00199524200208841D9
:1005E00000920190029840210A1A01990098FFF7A1
:1005F00043FF05460C466B4607CB00F0D6F9C01901
:100600007141039A0E0D0023D71756401A467A40BF
:10061000164344D0049A002A2DD0029A012A039A44
:1006200015DC1205C01A914101263605001C7141E6
:10063000D20F059ED2070093019202962A462346C6
:1006400000F0DFF907B0F0BD38463146FAE716058D
:10065000224A0F46B218C01AB74101210905001CF1
:100660004F4100187F41114618187941E20F10439D
:100670006D19644113E0E2076D0815436408C20771
:100680001443039A01261205C01A91413605001C35
:100690007141CE07400830434908C01851412A46ED
:1006A000234600F0A1F9CDE7FFE7049801224000BE
:1006B000C117121A00238B4104983146C417381A07
:1006C000A141EEE730B40124E407634030BC55E7B4
:1006D00030B40124E407614030BC4FE70000E0FF84
:1006E000F0B51FB488B00B990998002448400999C7
:1006F000C00F490049080991C0070B9900904900B3
:1007000049080B9109990898A64608431CD00B99F3
:100710000A98084318D0099801244000420D480067
:10072000410D099824050003000B204309900B9804
:100730000003000B20430B9050181C494018002266
:1007400001901446104605E0002001460DB0F0BDB2
:10075000032801DA034600E003239C46C11A0AAECF
:100760000AE05F0008ADED5B4F00F75B7D430027BB
:10077000AA187C41491C5B1E6145F2DD410004ABB7
:100780005A522104120C0A43240C401C0828DFDBB7
:10079000019802900099704601910090059B049A7F
:1007A0000799069800F02DF9D0E700000DFCFFFF37
:1007B000F0B50C465C4085B0E40FE40703944C00B0
:1007C00000266408590094464908024602962243CE
:1007D00021D062460A431ED06200570D4A000E0324
:1007E0002303550D012402462C492405781B1B0BBD
:1007F000360B401823432643614600901C46501A8E
:10080000B44103D30098401C009002E09218009875
:100810005B41002803DA0020014605B0F0BD00204E
:10082000012109050746864611E064461D46141B52
:10083000B54106D36546521BB341744607430C438A
:10084000A646CD0740084908284392185B41054653
:100850000D43EAD11046184313D060461946504064
:100860007140084306D06046101AB34106D20122F7
:10087000002306E000220123DB0702E00122D2432D
:100880005310009874460105381C6141029C039D79
:100890000019694100F0A8F8BFE70000FD0300005F
:1008A000C20F410040020123400ADB05D207090EB6
:1008B000C0187F2901DA00207047962903DC9623AF
:1008C000591AC84001E096398840002AF4D04042C5
:1008D000704700004A0009030123090B1B05194357
:1008E0000A4B10B5520D9A4202DA0020014610BDA3
:1008F000064B34339A4203DC9A1AFFF7CDFD10BD44
:10090000034BD218FFF7B8FD10BD0000FF03000035
:10091000CDFBFFFF10B5002904DB0124E4074042B2
:100920008C412146002B04DB1C460123DB0752428D
:10093000A341994200D1904210BD00001CB5094866
:1009400000900948019005460126009C05E0E368F7
:1009500007CC33430C3C98471034AC42F7D3FFF735
:10096000FDFB0000AC8A0008CC8A000870B5044684
:10097000002903D000202022012310E0002801D00C
:100980000020C043C046C0460DE02546D5408D42FC
:1009900005D30D469540641B1D46954040191546EC
:1009A000521E002DF1DC214670BD10B5202A06DB59
:1009B000CB170846203A1041C1170B4306E00B46FF
:1009C0001341D0402024A21A91400843194610BD7B
:1009D000420005D04200120E52428A4201DB002042
:1009E0007047C9050818704710B5002B08DA0024B5
:1009F000401C614192185B411A4301D140084000FC
:100A000010BDF0B51FB482B005460C0003D00846F7
:100A100006F0E2FA02E006F0DFFA2030024600902B
:100A200021462846FFF728FD049B059A04460F46F9
:100A300018431143084314D0184610431BD00098A4
:100A400040210A1A18460599FFF726FD05460E466D
:100A5000009A05990498FFF70FFD084305D001207F
:100A600004E02046394607B0F0BD0020C117054319
:100A70000E432C43374300990E986305401A7905BD
:100A8000E40A00220C43FD0A0A3002D50020014688
:100A9000E9E70105101969410C9C0D9D0019694198
:100AA000FFF7A2FFDFE7000080B5A8B040F2F41026
:100AB0001690FFE71698411E169168B3FFE704F001
:100AC00083FC014615A801800088012820DBFFE790
:100AD00017A801904021FFF7B6FB01983F2104F0D1
:100AE00097FC0246019814A90A800A8800218154C3
:100AF0002149FFF7B3FB50B1FFE7204817A906F0E3
:100B00003DFA04F059FC27A9012008702BE0FFE70B
:100B1000012001F07FF9CDE704F056FC014613A84F
:100B200001800088012816DBFFE703A80090402120
:100B3000FFF789FB00983F2104F06AFC0099024608
:100B400002A802800288002088540A4806F016FA9B
:100B500004F032FC03E0064806F010FAFFE727A98C
:100B600000200870FFE727A8007828B080BDC046A5
:100B7000CF83000827890008238A00088F8A00088D
:100B800080B540F2002001F02FFA48B1FFE740F2B3
:100B9000002001F021FA03490868401C0860FFE7C3
:100BA00080BDC04664000020FFE7FEE780B5FFE798
:100BB000174840F2001101F0E1FCFFE7054806F09C
:100BC000DDF940F2F41001F025F916490020087013
:100BD00080BDC046E683000880B5FFE70C4840F2C0
:100BE000001101F0C3FCFFE70A4806F0C7F90A4804
:100BF00000F022FD20B9FFE7084806F0BFF903E046
:100C0000074806F0BBF9FFE706490120087080BDE0
:100C1000000400489C850008881300000486000832
:100C20000984000860000020F0B5DFB05EA91591CE
:100C3000002010900870C44804F0C2F8C34804F0C3
:100C4000BFF80920C0060F9007210E9104221192CF
:100C500001F02CFC0E990F980822129201F026FC4C
:100C60000F980221012213920C2301F0A4FC0F988B
:100C70001099119B032201F0E5FCF848149004F050
:100C800053FD1498E121490204F0CCFC109914980A
:100C900004F077FE1099149804F04FFE1099149800
:100CA00004F027FE1199149804F038FE1299149854
:100CB00004F058FE149804F083FD13991C2002F0F0
:100CC00043FA1498052104F0B1FD00F0E7FDFFF7A9
:100CD0006DFF159914200870FFE75EA800780028C2
:100CE00048D0FFE704F068FB5CA900200871984930
:100CF0005C915B90FFE75B98032813D8FFE7FFE761
:100D0000D648D74904F074FD08B9FFE7F8E75B99C6
:100D10005CA8415CD14804F0FBFCFFE75B98401CF9
:100D20005B90E8E740F22C1001F074F804F04CFB03
:100D3000014652A801800088012812DBFFE753A872
:100D40000D90202104F064FB0D988349FFF786FA8B
:100D500030B1FFE704F030FB804806F00FF909E0FE
:100D600003E07C4806F00AF9FFE75E98401E5EA9A2
:100D70000870B2E75EA8007860B9FFE7784806F02F
:100D8000FDF8FFE7774806F0F9F840F2E83001F0A7
:100D900041F8F7E7744806F0F1F84FA900200C90ED
:100DA0008872724808817248509072484F9004F0DF
:100DB00003FB0C984E90FFE74E98092813D8FFE7E5
:100DC000FFE7D948D94904F013FD08B9FFE7F8E770
:100DD0004E994FA8415CD44804F09AFCFFE74E9826
:100DE000401C4E90E8E740F2F41001F013F804F0D4
:100DF000EBFA01464DA801800088012814DBFFE7CB
:100E00003DA80B904021FFF71EFA0B983F2104F0FC
:100E100041FB0B9902463CA80280028800208854BE
:100E2000564806F0ABF803E0534806F0A7F8FFE792
:100E300039A90A20088152483A905248399004F062
:100E4000BBFA00203890FFE73898082813D8FFE74E
:100E5000FFE7E948E94904F0CBFC08B9FFE7F8E708
:100E6000389939A8415CE44804F052FCFFE738980F
:100E7000401C3890E8E740F2F41000F0CBFF04F09B
:100E8000A3FA014637A801800088012814DBFFE798
:100E900017A80A908021FFF7D6F90A987F2104F05D
:100EA000F9FA0A99024616A802800288002088549E
:100EB000364806F063F803E0334806F05FF8FFE7D2
:100EC000334806F05BF80A20069000F0CBF8642067
:100ED000059000F09FFF0020079000F095F905981D
:100EE00000F098FF0320099000F0F2F9059800F057
:100EF00091FF172008900724214600F029FB059850
:100F000000F088FF0125284600F0B8FA059800F0A7
:100F100081FF0426304600F047FA059800F07AFF7A
:100F2000204600F009F90699079A089B099804944D
:100F30000396029501940090164806F01FF8FFF7FB
:100F40004BFE5FB0F0BDC046110700001105000068
:100F500041540D0AFD840008238A00081A870008FE
:100F60009B830008B78300081D8500080D0A000058
:100F70004444523F41542B41B98900086E8900080E
:100F800046473F0D41542B43A18900085A89000868
:100F9000438500080588000880B584B001910146AA
:100FA0000198039102A90880039809880B2217234E
:100FB00000F002F804B080BD10B586B0059004A81A
:100FC000018003A8028002A80370FFE7F148F249FC
:100FD00004F00EFC08B9FFE7F8E703A84178ED48F4
:100FE00004F096FBFFE7EB48EB4904F001FC08B97D
:100FF000FFE7F8E703A80178E64804F089FBFFE77C
:10100000E448E54904F0F4FB08B9FFE7F8E702A873
:101010000178E04804F07CFB01A900200880FFE78C
:1010200001A8008804A90988884215DAFFE7FFE7CC
:10103000D848D94904F0DCFB08B9FFE7F8E7059880
:1010400001A90988415CD34804F062FBFFE70198DD
:10105000401C01A90880E3E706B010BD0044004031
:101060000707000080B58AB008A90091088004F045
:10107000A3F900980088020AC3B22A4903A8019084
:1010800005F08CFF0199F84805F078FF00200290E8
:10109000FFE7029903A8405C98B1FFE7FFE7F34838
:1010A000F34904F0A5FB08B9FFE7F8E7029903A8A4
:1010B000415CEE4804F02CFBFFE70298401C0290D4
:1010C000E7E7FFE7E948EA4904F092FB08B9FFE7E0
:1010D000F8E7E6480D2104F01BFBFFE7E348E4498D
:1010E00004F086FB08B9FFE7F8E7E0480A2104F0BE
:1010F0000FFBFFF7D9FC48B1FFE708A801880D48AE
:1011000005F03CFF09A90120087006E0084805F039
:1011100035FF09A900200870FFE709A800780AB088
:1011200080BDC046268A0008004400400707000032
:10113000D08800082787000880B58AB008A90091E8
:10114000087004F039F9009802782A4903A8019040
:1011500005F024FF0199F94805F010FF00200290E6
:10116000FFE7029903A8405C98B1FFE7FFE7F44866
:10117000F44904F03DFB08B9FFE7F8E7029903A83A
:10118000415CEF4804F0C4FAFFE70298401C02906B
:10119000E7E7FFE7EA48EB4904F02AFB08B9FFE775
:1011A000F8E7E7480D2104F0B3FAFFE7E448E54922
:1011B00004F01EFB08B9FFE7F8E7E1480A2104F054
:1011C000A7FAFFF771FC48B1FFE708A801780D48BE
:1011D00005F0D4FE09A90120087006E0084805F0D2
:1011E000CDFE09A900200870FFE709A800780AB021
:1011F00080BDC046858A0008004400400707000003
:10120000F9880008F087000880B58AB008A9009125
:10121000087004F0D1F8009802782A4903A80190D8
:1012200005F0BCFE0199C54805F0A8FE002002901B
:10123000FFE7029903A8405C98B1FFE7FFE7F94890
:10124000F94904F0D5FA08B9FFE7F8E7029903A8CD
:10125000415CF44804F05CFAFFE70298401C0290FD
:10126000E7E7FFE7EF48F04904F0C2FA08B9FFE703
:10127000F8E7EC480D2104F04BFAFFE7E948EA49AA
:1012800004F0B6FA08B9FFE7F8E7E6480A2104F0E7
:101290003FFAFFF709FC48B1FFE708A801780B48BF
:1012A00005F06CFE09A90120087006E0064805F06B
:1012B00065FE09A900200870FFE709A800780AB0B8
:1012C00080BDC046488A0008658800086487000819
:1012D00080B58AB008A90091087004F06DF80098F4
:1012E00002782B4903A8019005F058FE0199CC48DB
:1012F00005F044FE00200290FFE7029903A8405C3D
:1013000098B1FFE7FFE7C748C74904F071FA08B989
:10131000FFE7F8E7029903A8415CC24804F0F8F936
:10132000FFE70298401C0290E7E7FFE7BD48BE498F
:1013300004F05EFA08B9FFE7F8E7BA480D2104F0B7
:10134000E7F9FFE7B748B84904F052FA08B9FFE7F0
:10135000F8E7B4480A2104F0DBF9FFF7A5FB60B118
:10136000FFE708A801780E4805F008FE08980D4927
:10137000087009A90120087006E0084805F0FEFD84
:1013800009A900200870FFE709A800780AB080BD0D
:10139000608A00080044004007070000A588000894
:1013A000AA8700080C00002080B58AB008A9009127
:1013B000087004F001F8009802782A4903A8019007
:1013C00005F0ECFD0199964805F0D8FD002002904B
:1013D000FFE7029903A8405C98B1FFE7FFE7914857
:1013E000914904F005FA08B9FFE7F8E7029903A864
:1013F000415C8C4804F08CF9FFE70298401C029095
:10140000E7E7FFE78748884904F0F2F908B9FFE702
:10141000F8E784480D2104F07BF9FFE78148824911
:1014200004F0E6F908B9FFE7F8E77E480A2104F07E
:101430006FF9FFF739FB48B1FFE708A801780E48BC
:1014400005F09CFD09A90120087006E0094805F097
:1014500095FD09A900200870FFE709A800780AB0E7
:1014600080BDC046798A00084889000800440040D1
:1014700007070000E4880008D987000880B58AB013
:1014800008A90091087003F097FF009802782A4994
:1014900003A8019005F082FD0199614805F06EFDF9
:1014A00000200290FFE7029903A8405C98B1FFE793
:1014B000FFE7F2485C4904F09BF908B9FFE7F8E759
:1014C000029903A8415CED4804F022F9FFE7029875
:1014D000401C0290E7E7FFE7E848534904F088F929
:1014E00008B9FFE7F8E7E5480D2104F011F9FFE737
:1014F000E2484D4904F07CF908B9FFE7F8E7DF4816
:101500000A2104F005F9FFF7CFFA48B1FFE708A870
:1015100001780E4805F032FD09A90120087006E0A7
:10152000094805F02BFD09A900200870FFE709A86C
:1015300000780AB080BDC046548A00084889000877
:1015400000440040070700007A8800087B870008F5
:1015500080B58CB00AAA0092107009A801900170A1
:1015600003F02AFF009901980A7803782B4904A810
:10157000029005F013FD0299294805F0FFFC0020B8
:101580000390FFE7039904A8405C98B1FFE7FFE7E9
:10159000BA48254904F02CF908B9FFE7F8E70399A0
:1015A00004A8415CB54804F0B3F8FFE70398401C79
:1015B0000390E7E7FFE7B1481B4904F019F908B9C0
:1015C000FFE7F8E7AD480D2104F0A2F8FFE7AB48CC
:1015D000154904F00DF908B9FFE7F8E7A7480A2113
:1015E00004F096F8FFF760FA60B1FFE709A8017808
:1015F0000F4805F0C3FC09980E4908700BA901209B
:10160000087006E0094805F0B9FC0BA90020087035
:10161000FFE70BA800780CB080BDC046388A0008F0
:101620004889000800440040070700008F88000830
:10163000928700080D00002080B582B00090FFE77F
:101640000098411E009178B1FFE7B44840F20021B4
:1016500000F09CFF20B1FFE701A90120087012E013
:10166000012000F0D7FBEBE7AC4840F2002100F08E
:101670008DFF0146481E8141054805F07FFC01A908
:1016800000200870FFE701A8007802B080BDC046C6
:101690008389000870470000EFF309800E4A116843
:1016A0002838086000227346FCC044464D46564622
:1016B0005F46F0C072B604F0D3FC62B6064A116809
:1016C00008681830F0C8A046A946B246BB4680F369
:1016D00009882838FCC81847000C002004207146EF
:1016E000084203D0EFF30980024A1047EFF3088065
:1016F000004A1047B15B000880B582B003F002FEDB
:10170000019005F0C9F828B1FFE70120000704495E
:10171000086000E0FFE7019804F06DF902B080BDB9
:1017200004ED00E080B582B01B4908680122104337
:101730000860FFE7184800688007002801D4FFE729
:10174000F8E716490868164A104008600868154A04
:101750001040086010490868134A10400860134997
:1017600008680F22904308601149086840F203128C
:1017700090430860086803229207904308600D496F
:1017800000200190086003F03DFD01990120C00692
:1017900001F0F0FC02B080BD0010024004100240D5
:1017A0000C00FF08FFFF007FFFFFF2FE2C1002403D
:1017B000301002400810024080B582B0114908681C
:1017C000401C086010482E4904F062F8B8B1FFE7E9
:1017D0000E480088FF280DDCFFE70B4803F090FF60
:1017E00001A908700198094B1A88511C19800849F1
:1017F0008854FFE70448224904F02AF8FFE702B0C2
:1018000080BDC046A040002000380140620000209A
:10181000A440002080B582B01848194904F038F877
:10182000D8B1FFE7154803F06BFF01A90870154810
:101830000088154988420FDCFFE7019813490B889F
:10184000134AD0540888401C0F4A104008800D49A4
:101850000888401C0880FFE7FFE708480D4903F0AF
:10186000C7FF28B1FFE705480A4903F0B2FFFFE7C9
:101870000248094903F0ECFF02B080BD004400407B
:101880000500050790100020FF03000094100020C1
:10189000900C0020030700000002020780B586B00C
:1018A0001D48009003F08CFA009803F089FA009824
:1018B00003F086FA194802900122059240F20013C3
:1018C0000193114600F077FE019B029800210391DD
:1018D000032200F0B7FE02980399059A40F2002314
:1018E000049300F068FE40F2006003F069FA059886
:1018F000092103F0B1FB039A0498114600F0F4FAB1
:10190000049800F05FFB049800F066FB05992B201B
:1019100001F01AFC06B080BD12050000000400486A
:1019200081B00146684601700021405600280DD460
:10193000FFE70021684641561F200A460240012069
:10194000904049098900024A8850FFE701B070477A
:1019500000E100E070B582B0024601A8027000917B
:1019600000214056002816D4FFE7002401A908579B
:101970000322D3431840174A805809578C07E50EB5
:10198000FF24AC40A043009CA401E4B2AC4020433F
:10199000194088501AE001A908780F24204008381F
:1019A0000322D34318400A4A8058002549578D071F
:1019B000EE0EFF25B540A843009DAD01EDB2B54048
:1019C00028432140083919408850FFE702B070BD14
:1019D0001CED00E000E400E085B0049003A8018065
:1019E00002A90020087001A90880FFE701A800886B
:1019F00003A9098888422FDAFFE7049801A909881A
:101A0000415C0298484002A90870694600200870AD
:101A1000FFE768460078072818DCFFE702A800788F
:101A20000006002807D5FFE702984000072148403C
:101A300002A9087004E00298400002A90870FFE7BC
:101A4000FFE70098401C69460870E2E7FFE701984D
:101A5000401C01A90880C9E702A8007805B07047BA
:101A600080B584B0019101460198039102A90880D4
:101A70000398098800F034F804B080BDB0B588B090
:101A80000B4604460D990C98069405AC23800492ED
:101A900003910290069838B1FFE7049820B1FFE760
:101AA00005A8008820B9FFE707A90020088013E0F7
:101AB0000399029800F098F90498069905AA0192F2
:101AC0001288FEF7A7FB019904980988FFF7C8FF61
:101AD000059807A90880FFE707A8008808B0B0BDEF
:101AE00080B584B0039002A80180039820B1FFE77D
:101AF00002A8008808B9FFE719E001A900200880C2
:101B0000FFE701A8008802A9098888420FDAFFE7E9
:101B100000F050F90346039901A80288885C5840F8
:101B20008854FFE70198401C01A90880E9E704B048
:101B300080BD10B586B0049003A801800292019385
:101B4000049860B1FFE7029848B1FFE703A8008856
:101B500028B1FFE703A80088DD2804DBFFE705A91B
:101B60000020088017E000F065F80A4601994A60F5
:101B7000086000F043F80298049903AA00921288C2
:101B8000FEF748FB009902980988FFF7A9FF039820
:101B900005A90880FFE705A8008806B010BD000071
:101BA00080B584B000200390FFE70398032807DC8A
:101BB000FFE700F08BF8FFE70398401C0390F4E781
:101BC000924800680290924800680190029901983A
:101BD00041406846017002990A0A0099514001701B
:101BE00001A94A8800995140017002A9CA78009958
:101BF00051400170007804B080BDC04680B582B00D
:101C000001A900200880FFE701A80088FF280CDC5C
:101C1000FFE7FFF7C5FF01A90A8872498854FFE76B
:101C20000198401C01A90880EEE76D49002008805A
:101C300002B080BD82B075480068019074480068A9
:101C400000900199009802B07047C04680B586B0F8
:101C5000059005A801900088FEF7F3FB8F21C905C8
:101C60000291FEF7A5FB3F2109060391FEF763FBF6
:101C70001449FEF707FB01460198644A1160408849
:101C8000FEF7DFFB0299FEF793FB0399FEF753FB88
:101C90000D49FEF7F7FA5E490860514900200880B7
:101CA0000490FFE70498C0087C2807D8FFE7FFF7F7
:101CB00077FFFFE70498401C0490F3E7FFF79EFFCF
:101CC00006B080BDCDCCCC3DCDCC4C3E80B592B0E5
:101CD00037490791086805904C480E90006889695B
:101CE000FEF7D0FA05F0FEFE0799049048680390CD
:101CF0008868019046480F900068C969FEF7C2FAEB
:101D000005F0ACFF079A01460198126A0292FEF7AD
:101D100012FB0299FEF7B6FA05F0A0FF0146039800
:101D2000FEF709FB0499024605980692FEF703FBAD
:101D30000699FEF7A7FA079902460F981192CA680A
:101D40000C920068496AFEF79DFA05F0CBFE0799F0
:101D500002460E980B920A690A924A690892006834
:101D6000896AFEF78FFA05F079FF079A014608980D
:101D7000D26A0992FEF7DFFA0999FEF783FA05F0B5
:101D80006DFF01460A98FEF7D6FA0B9902460C98A9
:101D90000D92FEF7D0FA0D99FEF774FA0E9A0F998C
:101DA0001090119810601098086012B080BDC04665
:101DB0001000002080B582B0094802880949895C7A
:101DC00001AA11700188491C01800088FF2803DDE9
:101DD000FFE7FFF713FFFFE701A8007802B080BD1F
:101DE000900900209209002080B584B003910290F0
:101DF00003980190029800900449019808600449F2
:101E000000980860FFF7FAFE04B080BD4000002093
:101E10004400002081B00090FFE70098411E00912F
:101E2000D8B1FFE70E48006840F2E831B0FBF1F0AE
:101E3000401E0C4908600C49002008600B49052031
:101E40000860FFE709480068C003002801D4FFE7E5
:101E5000F8E7064900200860DFE701B07047C04698
:101E60000800002014E000E018E000E010E000E0CE
:101E700082B001200190694608701648006820B1C0
:101E8000FFE76946002008701FE01348006820B192
:101E9000FFE769460020087016E01048006820B18E
:101EA000FFE76946002008700DE00D4800680D4905
:101EB0000968491E884204D1FFE76946022008707C
:101EC00000E0FFE7FFE7FFE7FFE76846007802B0C2
:101ED0007047C0462C430020804300202843002048
:101EE0004C430020A442002085B0049003A8017058
:101EF00002A90A70049B4C4A116899431160049B23
:101F00002D4A116899431160049B2C4A116899432A
:101F10001160049B2A4A116899431160007801906E
:101F200020B1FFE70198012806D00BE0049A3E4952
:101F300008681043086006E0049A1F4908681043C7
:101F4000086000E0FFE702A80078009003282FD87F
:101F500000998A0001A080188746C04600F006B8A4
:101F600000F00FB800F018B800F021B8049A134937
:101F7000086810430860049A114908689043086093
:101F800017E0049A0D49086890430860049A0C49C8
:101F90000868104308600CE0049A08490868104378
:101FA0000860049A064908681043086001E000E0F0
:101FB000FFE705B07047C046040401400804014033
:101FC0000C04014081B00090009A17490868104342
:101FD000086001B07047C04681B000900098114978
:101FE000086001B07047C04684B002900D48006898
:101FF0000299084001900C4800680299084000903E
:10200000019838B1FFE7009820B1FFE703A901204C
:10201000087003E003A900200870FFE703A8007818
:1020200004B07047140401400004014080B586B03C
:102030000590049105981149084003900598049A69
:1020400080180F4A80180840029000F0FFF80398AB
:102050000190FFE70198029988420AD2FFE70198B0
:1020600000F058F8FFE7019841F200014018019094
:10207000F0E700F049F806B080BDC04600F0FFFF71
:10208000FF0F000080B586B005900491039200F028
:10209000DDF800200290FFE70298001D03998842B6
:1020A00018D8FFE70499029A88188A5C41780902D7
:1020B000891882781204C0780006801840180190B0
:1020C000059802994018019900F0D4F80298001D73
:1020D0000290E1E702980399884211D2FFE70020BD
:1020E00000900498029A81180398821A6846FEF7B5
:1020F00091F8059802994018009900F0BBF8FFE7A5
:1021000000F002F806B080BD6E49086880221043D6
:102110000860704780B584B003900120000500F08E
:1021200027F8014602A801700078D0B9FFE7654999
:1021300001910868022200921043086003980B4A3C
:10214000106008684022104308600120000500F07C
:102150000FF8009A019902AB187008689043086064
:10216000FFE702A8007804B080BDC04614200240FA
:1021700080B584B0039002A901200870FFE700F049
:1021800025F802A908700398401E0390FFE702A8F3
:10219000017800200129019005D1FFE70398411E35
:1021A00088410190FFE70198C0070028E7D1FFE7C9
:1021B00002A80078012804D1FFE702A905200870D1
:1021C000FFE702A8007804B080BD000081B0694636
:1021D000002008701C480068C00720B1FFE769466E
:1021E000012008702BE018480068C006002804D5BC
:1021F000FFE769460420087020E0134800684007A4
:10220000002804D5FFE769460220087015E00E4853
:1022100000680007002804D5FFE76946032008701E
:102220000AE0094800680004002804D5FFE7694671
:1022300007200870FFE7FFE7FFE7FFE7FFE76846D3
:10224000007801B07047C0460C2002401D4800686D
:102250000006002806D5FFE7034904480860044843
:102260000860FFE77047C04604200240230167452D
:10227000AB89EFCD80B586B00590049101200005B3
:10228000FFF776FF014603A801700078A8B9FFE7C1
:102290000C4A0292116801200190014311600499D7
:1022A000059A11600005FFF763FF019A029903ABDD
:1022B0001870086890430860FFE703A8007806B02C
:1022C00080BDC0461020024080B582B001900091D0
:1022D00001A80178064803F01BFAFFE70448054906
:1022E00003F086FA08B9FFE7F8E7019802B080BD6D
:1022F00000380140070700008AB0099008A8018053
:102300000792002006900590FFE7059808A9098824
:10231000491E884269DAFFE709980599405CAA28B6
:102320005ED1FFE70999059840184078552857D1A4
:10233000FFE70598001D08A90988884201DDFFE72D
:1023400053E009990598411888780002C978401827
:1023500004A90880059809884018401D0390039837
:10236000801C08A90988884239DCFFE7099803998D
:10237000405C552833D1FFE709990398401840780D
:10238000AA282CD1FFE709980599401802900298D5
:10239000007A0799087002990191487A00068A7AB2
:1023A00012048018CA7A120280180A7B8218487BAD
:1023B00000068B7B1B04C018CB7B1B02C018097C5A
:1023C00040180799CA60886004980D3807990882F8
:1023D00002981130079948610120069005E0FFE757
:1023E000FFE70598401C05908FE7069830BBFFE794
:1023F00009990091087800064A78120480188A78B2
:1024000012028018CA788218087900064B791B04DA
:10241000C0188B791B02C018C97940180799CA6087
:1024200088600998007A0799087008980938079910
:1024300008820998093007994861FFE70AB0704798
:1024400080B586B0014605A8029001700078410071
:102450001348405A02F0B4FC0298007882001148F8
:1024600004908058104903918B5801210022019259
:1024700000F0A1F80199029B039A04981B789B0035
:10248000C058D358032200F0DDF8029A039804994B
:102490001278920080588958886206B080BDC04684
:1024A000007E0008187E0008087E000886B00590AF
:1024B000049103920598006A01900598406A009083
:1024C00002A900200880FFE702A8008807281DD87D
:1024D000FFE702A801880398C840C00780B1FFE762
:1024E00002A8018889000F228A4001999143019135
:1024F0000499008880008140019808430190FFE71B
:10250000FFE70298401C02A90880DDE702A9082025
:102510000880FFE702A800880F281FD8FFE702A85D
:1025200001880398C840C00790B1FFE702A801885E
:10253000890020390F228A40009991430091049923
:102540000088800020388140009808430090FFE711
:10255000FFE70298401C02A90880DBE70198059973
:10256000086200980599486206B0704782B00190F1
:10257000009100980199886202B0704782B0019082
:10258000009100980199886102B0704783B0019072
:102590000091019800690099084204D0FFE702A960
:1025A0000120087003E002A900200870FFE702A8DC
:1025B000007803B0704787B00690059104920393AA
:1025C0000698006801900698C068009002A9002053
:1025D0000880FFE702A800880F282BD8FFE702A891
:1025E00001880398C840C007F0B1FFE702A801883E
:1025F0004900032213468B40019999430191059BA1
:10260000018849008B4001991943019101884900D3
:102610008A400099914300910499008840008140CC
:10262000009808430090FFE7FFE70298401C02A9CA
:102630000880CFE701980699086000980699C8605D
:1026400007B0704710B586B0059004A801700392DA
:1026500002930078012806D1FFE7029A059948689D
:102660001043486005E0029A059948689043486025
:10267000FFE705988068009001A900200880FFE727
:1026800001A800880F281DD8FFE701A8018802983B
:10269000C840C00780B1FFE701A8018849000322B4
:1026A0008A4000999143009103990088400081403D
:1026B000009808430090FFE7FFE70198401C01A93C
:1026C0000880DDE700980599886006B010BD83B0EA
:1026D00080B583B0079306920591029005A80190FA
:1026E0000299019A002000F02FF803B080BC01BCD1
:1026F00003B08646704783B080B583B007930692D7
:102700000591029005A801900299019A032000F01A
:102710001BF803B080BC01BC03B08646704783B091
:1027200080B583B0079306920591029005A80190A9
:102730000299019A012000F007F803B080BC01BCA7
:1027400003B0864670470000B0B58CB003920246D5
:1027500003980B900AA80270099100782349097820
:10276000884201DAFFE73EE004F08CF80890089810
:1027700040F2E831B0FBF1F30A465A43801A079061
:102780000898B0FBF1F03C21B0FBF1F30A465A4344
:10279000801A06900898164AB0FBF2F0B0FBF1F2EE
:1027A0005143401A059008981249B0FBF1F01821E6
:1027B000B0FBF1F25143401A04900499059A069B2C
:1027C00007980AAC2478A5000B4C6459019400903A
:1027D0000A4804F0D3FB09980B9904F0F3FB08486E
:1027E00004F0CCFBFFE70CB0B0BDC046920A00205D
:1027F00060EA000080EE360048000020D87F000824
:10280000CF89000883B080B583B007930692059105
:10281000029005A801900299019A0220FFF794FF07
:1028200003B080BC01BC03B086467047B0B594B01D
:102830000C4601461898139112A90C8011AC05940E
:10284000227010AA13800FAA107000200D900C9017
:10285000139809881D4A04920CAB0393FFF769F99A
:10286000039B04990BAA1080DC7919480990047025
:102870009C7944705C7984700D9CC470DC78047120
:102880009C7844715B7883710C9BC371128808300B
:10289000FDF7C0FC059810990AAA089211800F99BB
:1028A00091700B99083106910078079003F0EAFFC8
:1028B0000699079A089B04460998019403240094FA
:1028C00089B202F02DFB14B0B0BDC046B4080020A0
:1028D000930A002080B582B000200190FFF7B0FD80
:1028E0000120FFF7ADFD02F011FD104804F046FB9A
:1028F0000F481049104AFFF712FFFEF795F90F48ED
:10290000FFF70DFF0E48FFF7A1F90E48FFF707FF8D
:1029100000F078F80C48FFF702FF02F077FC0B4854
:10292000FFF7FDFE03F028FBFFE7FEE75C7E0008F3
:102930009C7F0008507E0008477E0008A87E0008A3
:1029400078563412C07E00088B7E0008287E00086E
:1029500080B586B0034605A80370049103A90A80D8
:102960000078022805DCFFE703A80088292801DB9E
:10297000FFE728E005A8007802F060FB029003A8BA
:10298000018834204843019001981049884201D3BE
:10299000FFE718E0029845F20001FFF747FB0298B5
:1029A0000499019AFFF76EFB05A801784A013649A0
:1029B0008A1801219170017803A80288019B0448BC
:1029C000FFF7ADFEFFE706B080BDC0460150000036
:1029D000498200082D48704782B001466846017060
:1029E0000078032803DBFFE70020019006E068463B
:1029F00000784101244840180190FFE7019802B097
:102A00007047C04680B582B01F486021FDF71BFCAF
:102A10001E481F49FDF717FC1E490020086001A948
:102A20000870FFE701A80078022824DCFFE701AA6C
:102A3000107843011449C854107840010B18002045
:102A4000587013785B01CB18987013785B01CB1822
:102A5000D87013785B01CB18187113785B01CB1811
:102A60009860127852018918C860FFE70198401CED
:102A700001A90870D6E708480321054A074BFFF76C
:102A80004EFE02B080BDC046940B00207C000020AA
:102A900038080000F80B002014820008000003082A
:102AA00080B586B0059003F0EDFE04902148FFF755
:102AB00036FEFFE703F0E6FE039002A9002008704F
:102AC000FFE702A8007802282CDCFFE702A80078C4
:102AD000FFF782FF0190019808B9FFE71DE0039816
:102AE00001998968401A00900098134988420ED3D2
:102AF000FFE70198407850B1FFE701990020487046
:102B000002A80178009A0D48FFF77CFE05E00198C5
:102B1000407808B9FFE700E0FFE70298401C02A9EF
:102B20000870CEE7FFE704A840F2E83103F02CFE7E
:102B3000FFE7BFE723800008993A00000D800008F6
:102B400080B598B01790FFF745FF16908248FFF7C1
:102B5000E6FD824803F08EF9FFE703F093FE139041
:102B600014A900200790087003F08CFE0146079816
:102B7000129112A9CB7811AA137049885170129939
:102B8000090A91701299D17010A90870FFE710A876
:102B90000078022855DCFFE710A806900078FFF7C0
:102BA0001BFF014606980F910078142111AA0423F7
:102BB00002F04EF91698694903F0A2FA48B9FFE706
:102BC00010A801786A48FFF71DFEF84804F0D6F90E
:102BD00032E00F984079B0B1FFE7FFE7169801782F
:102BE0000120059031B9FFE71698407B411E8841CE
:102BF0000590FFE70598C00720B1FFE7052003F027
:102C000039F9EBE7FFE710A801780F98C278594827
:102C1000FFF785FD0F98407968B1FFE714A80078A9
:102C2000022808DCFFE7109814AB1A78511C1970C1
:102C300015A98854FFE7FFE71098401C10A90870F9
:102C4000A5E714A8007801285ADBFFE70EA90020A9
:102C50000870FFE70EA8007814A9097888424EDAB8
:102C6000FFE70EA8017815A8415C0DA80170007857
:102C7000FFF7B2FE0C900C9840B1FFE70C9840783B
:102C800020B1FFE70C98407908B9FFE732E00D98D2
:102C90000BAA10700DA800781521012302F0D8F8B6
:102CA0001698304903F02CFA30B9FFE70DA80178E7
:102CB0002D48FFF7A7FD1DE0FFE7169801780120DA
:102CC000049031B9FFE71698407B411E884104907B
:102CD000FFE70498C00720B1FFE7052003F0CAF81A
:102CE000EBE70C99002048710DA801781F48FFF709
:102CF00016FDFFE70E98401C0EA90870AAE7FFE733
:102D000003F0C0FD1399401A0A9014A801781348E3
:102D1000134A02920029039001DC02980390039861
:102D20000990099840F2E832009200230193194675
:102D3000FDF758FA009A019BFDF724FA08900A98CB
:102D40000899884206D2FFE708980A99401A03F0CA
:102D500091F8FFE701E7C046B8820008B80B000011
:102D60008813000070170000FF820008CA82000864
:102D7000EA8200089A82000810B5FFB08BB08990F3
:102D8000FFF728FE4F908748FFF7C9FCFFE7EB48A5
:102D900000680021CA4314A903F0BBFB012801D03D
:102DA000FFE7F4E7159914980843E0B1FFE714A88A
:102DB0004089012817DBFFE714A84089DC2812DCD2
:102DC000FFE714A908460C304989149A159B019312
:102DD000009252AA0792FEF751FE0146079850AAA8
:102DE0001180519006E014A8418950AA11800C303E
:102DF0005190FFE7159B149A14A8007A50A90988EE
:102E000001910090684804F0B9F813A900200880E7
:102E1000FFE713A8018850A802880020914206907D
:102E20000DDAFFE713A8018801200022049240294F
:102E3000059001DB0498059005980690FFE7069839
:102E4000C00768B1FFE7519813A90988415CBD48E4
:102E500004F094F8FFE71398401C13A90880D8E702
:102E6000B54804F08BF84F98007850B1FFE714A8EC
:102E7000007A042805D1FFE74F98407812A908701E
:102E800033E012A90020087014A8007A01280ED19E
:102E9000FFE750A80088142809D3FFE751990DA82F
:102EA0001422FDF7B7F90E9812A9087013E014A8C0
:102EB000007A07280ED1FFE750A80088142809D30C
:102EC000FFE7519908A81422FDF7A4F9099812A95F
:102ED0000870FFE7FFE712A80078032804DBFFE78C
:102EE00012A900200870FFE7FFE712A80078FFF79B
:102EF00073FD4E904E9808B9FFE748E74E990120C0
:102F0000487003F0BFFC4E99886014A8007A401EF8
:102F1000039006282BD803998A0001A080188746C1
:102F200000F00CB800F023B800F013B800F017B8A8
:102F300000F01DB800F01BB800F000B84F99002059
:102F40000870519850A909884F9A4E9B00F022F9B9
:102F50000EE050A801881648FFF7B9FB08E0519829
:102F600050A909884F9A4E9B00F094F900E0FFE7C2
:102F7000002001F05DFF4F98407B88B1FFE74F9A3A
:102F8000507811461031D288FFF7E2FC4F98417813
:102F9000C2880848FFF7C3FB4F9900204873FFE73A
:102FA000F5E6C046ED810008DC800008CF89000806
:102FB0002D8100084B81000810B5FFB08FB08D90B7
:102FC000FFF708FD4B905948FFF7A9FBFFE702F018
:102FD000FFF920B9FFE7052002F04CFFF7E702F008
:102FE000F7F94AA9088000204990FFE7499804288A
:102FF00019DCFFE7012002F03DFF02F0E9F901468C
:1030000048A8018000884AA90988884204D1FFE7BE
:103010004998401C499005E048984AA9088000203A
:103020004990FFE7E2E702F0D7F94DA840F200111E
:1030300002F070FA01464CA8018000880C281CDCC4
:10304000FFE747A900200880FFE747A800884CA9B0
:10305000098888420DDAFFE747A801884DA8415C3E
:10306000384803F08BFFFFE74798401C47A90880CA
:10307000EBE7314803F082FFA9E74DA846904C9852
:1030800045A90880469809883EAA0392FFF734F9BB
:103090000398007804280BD1FFE73EA8008A34216A
:1030A000B0FBF1F34B99224A885AC0188852FFE7C7
:1030B00040984199059104903E9804A902910872A4
:1030C00042984881059B049A087A498901910090A9
:1030D000184803F053FF184803F050FF0298408946
:1030E000DD2804DBFFE704A9DC204881FFE704A812
:1030F0004089012808DBFFE704AA10460C304399F9
:103100005289FDF787F8FFE70C48006804A90023FF
:103110001A4603F025F9012806D0FFE704A8017A32
:103120000748FFF76FFBFFE751E7C0460282000840
:103130003208000004810008CF890008F40B002049
:10314000718100086981000880B584B00A46014693
:1031500003A80190017002A90A7000220092805613
:103160000978FEF7F7FB009901984056FEF7D8FB67
:1031700004B080BD82B00190009101980099034A8B
:10318000114008430249086002B0704780FFFF1FEA
:1031900008ED00E010B590B00F900EA801800D92E0
:1031A0000C930088132801D8FFE76AE00F9907A85D
:1031B0001422FDF72FF8089906A80170007803285B
:1031C00001DBFFE75DE00D980121017006980D9A83
:1031D00050700D98817007A80590C2890D9B9A8048
:1031E0000D9B0022DA8082890D9B9A6042780D9BAC
:1031F0001A73C2890C9B1A820A9A0C9B5A820B9AE8
:103200000C9B5A61099A0C9B9A6142780C9BDA706C
:1032100082780C9B1A71C2780C9B5A7182780C9B35
:103220001A770D9A40F63003D154C1890D9A164B86
:10323000D152807888B1FFE70C99C868401CC860FB
:1032400006A80178099A07ACA3786078E48901940C
:1032500000900F48FFF763FA13E006A80078049087
:1032600007AC607803900B98FDF7F2F8039A0B46D1
:103270000499E4890294019300900448FFF727FA27
:10328000FFE710B010BDC04634080000C081000840
:1032900093810008F0B5B9B0389037A80180369214
:1032A00035933698007828B1FFE736988078012862
:1032B00001D0FFE7BDE137A800883421B0FBF1F170
:1032C00034A80180008808B9FFE7B2E13698C088C9
:1032D00034A909884018292807DBFFE73698C188F8
:1032E0002820401A34A90880FFE73698C388342282
:1032F0001146594340181030389934AB1B885A4353
:10330000FCF788FF3698C08800B180E13898339088
:10331000339811900021405EFDF788F8C649269148
:10332000FDF746F8FDF794F80246119812921391B2
:103330000221405EFDF77AF82699FDF739F8FDF78E
:1033400087F802461198179216910421405EFDF706
:103350006DF82699FDF72CF8FDF77AF804461198D8
:103360000D460621405EFDF761F82699FDF720F82D
:10337000FDF76EF8064611980F460821405EFDF7EE
:1033800055F82699FDF714F8FDF762F802461198F2
:10339000159214910A21405EFDF748F82699FDF731
:1033A00007F8FDF755F8129A139B099114990890A4
:1033B0001598079116990690179805970496039506
:1033C0000294019100909D4803F0D8FD3398189025
:1033D0000C21405EFDF72AF82699FCF7E9FFFDF77E
:1033E00037F80246189819921A910E21405EFDF79F
:1033F0001DF82699FCF7DCFFFDF72AF8024618981D
:10340000249223911021405EFDF710F82699FCF7D5
:10341000CFFFFDF71DF8044618980D461221405EB7
:10342000FDF704F82699FCF7C3FFFDF711F80646EF
:1034300018980F461421405EFCF7F8FF2699FCF718
:10344000B7FFFDF705F80246189822922191162140
:10345000405EFCF7EBFF2699FCF7AAFFFCF7F8FFAC
:103460000246189820921F911821405EFCF7DEFF5B
:103470002699FCF79DFFFCF7EBFF024618981E9279
:103480001D911A21405EFCF7D1FF2699FCF790FFB1
:10349000FCF7DEFF024618981C921B911C21405E2F
:1034A000FCF7C4FF2699FCF783FFFCF7D1FF199ABC
:1034B0001A9B0F911B990E901C980D911D990C90C1
:1034C0001E980B911F990A902098099121990890B4
:1034D00022980791239906902498059704960395BE
:1034E000029401910090564803F048FD33982590CE
:1034F0001E21405EFCF79AFF2699FCF759FFFCF766
:10350000A7FF02462598279228912021405EFCF7CC
:103510008DFF2699FCF74CFFFCF79AFF0246259891
:10352000329231912221405EFCF780FF2699FCF710
:103530003FFFFCF78DFF044625980D462421405E91
:10354000FCF774FF2699FCF733FFFCF781FF064672
:1035500025980F462621405EFCF768FF2699FCF768
:1035600027FFFCF775FF0246259830922F912821FE
:10357000405EFCF75BFF2699FCF71AFFFCF768FF3B
:10358000024625982E922D912A21405EFCF74EFF8F
:103590002699FCF70DFFFCF75BFF024625982C925D
:1035A0002B912C21405EFCF741FF2699FCF700FF90
:1035B000FCF74EFF024625982A9229912E21405E63
:1035C000FCF734FF2699FCF7F3FEFCF741FF279A3E
:1035D000289B0F9129990E902A980D912B990C9068
:1035E0002C980B912D990A902E9809912F9908905B
:1035F0003098079131990690329805970496039573
:103600000294019100900F4803F0B8FCFFE7349A50
:103610003699C8888018C8803699C88889888842B1
:1036200007DBFFE7369900200870369901204873C0
:10363000FFE739B0F0BDC04600401C46AD80000831
:10364000368000087280000880B588B00790069127
:103650002E48006804902E48006803902D480068AA
:10366000029071480068001D02F0A0F908B9FFE758
:1036700000E0FFE70798401CF8B9FFE70698E0B1C3
:10368000FFE7FFE7254948680190019A664803680B
:103690009A60019A92680368DA600268121D019BC1
:1036A0009B685A600268121D019B9A600068416124
:1036B0000868401C0860FFE726E004980799401856
:1036C000059005985849096848600598049988420A
:1036D00007D2FFE7029854490968091D02F0ABF9C7
:1036E00011E0039850490968091D02F0A4F90598F2
:1036F00009490968884204D2FFE70598064908602D
:1037000000E0FFE7FFE7FFE708B080BD744300205B
:10371000080C0020100C0020184300204C4300200F
:1037200010B582B0019002F0BBF96B490868401CEB
:1037300008603D48006868B9FFE701983A490860A9
:1037400065480068012803D1FFE700F04FFB00E067
:10375000FFE713E03548006870B9FFE732480068BA
:10376000C06A0199C96A884204D8FFE701982E49C6
:10377000086000E0FFE700E0FFE7FFE72C48016892
:10378000491C0160006801990864FFE7FFE70198A0
:10379000C06AF4490968884205D9FFE70198C06A00
:1037A000F0490860FFE7FFE7FFE70198C16A1422CC
:1037B00010464843ED490818406800900098019B66
:1037C000986000988068019BD8600198001D009B5C
:1037D0009B6858600198001D009B9860019BDC6A03
:1037E00010466043081858610198C06A42438858DF
:1037F000401C8850FFE7FFE702F05CF90B480068C7
:1038000078B1FFE7FFE7D8480068C06A0199C96A44
:10381000884203D2FFE702F0D1FA00E0FFE7FFE7BA
:1038200000E0FFE702B010BD000C00204043002084
:10383000B042002080B582B002F032F90F48006833
:10384000B0B9FFE70E48009002F0D8F80D4801909B
:1038500002F0D4F800990198D24A11600A49086030
:1038600005201021002202F0CDFC0449086000E090
:10387000FFE702F01FF902B080BDC0467843002088
:10388000B8420020CC420020140C002080B582B049
:10389000FFE70F480068C0B1FFE702F001F90D48EB
:1038A000C068C06801900198001D02F07FF80A49C5
:1038B0000868401E086006490868401E086002F05B
:1038C000F9F8019800F014F9E3E702B080BDC046B2
:1038D000A842002060430020A442002080B582B0AE
:1038E000019000910198006CB8B1FFE701990A6C52
:1038F000C8688018C8600199C8688968884204D37C
:10390000FFE701990868C86000E0FFE70098019AA6
:10391000D168126CFCF77EFCFFE702B080BD80B579
:1039200086B0059004910392002002900598806B68
:1039300001900598006C78B9FFE70598006848B9D0
:10394000FFE70598806803F0B9F802900599002018
:10395000886000E0FFE741E00398B8B9FFE7059A07
:1039600050680499126CFCF755FC05990A6C48687C
:1039700080184860059948688968884204D3FFE741
:1039800005990868486000E0FFE726E0059AD068DE
:103990000499126CFCF73EFC05990A6CC868801A01
:1039A000C8600599C8680968884206D2FFE705998A
:1039B00088680A6C801AC86000E0FFE70398022854
:1039C00009D1FFE7019820B1FFE70198401E01905F
:1039D00000E0FFE700E0FFE7FFE7FFE70198401C9A
:1039E00005998863029806B080BD000080B58AB052
:1039F00001200990002004900390FFE703980B2812
:103A000010DCFFE7039A1948815C05A881540399EB
:103A1000405C08B9FFE705E0FFE7FFE70398401CBB
:103A20000390EBE700200890FFE70898002819DCD6
:103A3000FFE70F480490049808998A000D498918F7
:103A400000230093019105A9802202F079FE0990DC
:103A5000099808B9FFE705E0FFE7FFE70898401C71
:103A60000890E2E709980AB080BDC04600800008CF
:103A7000393C00080C430020F0B58BB0119C109C21
:103A80000A900991089207930898800000F0E4FCDE
:103A900005900598A0B1FFE7582000F0DDFC0690E6
:103AA000069840B1FFE706985821FCF7CCFB059833
:103AB0000699086303E0059802F010F8FFE702E0BA
:103AC00000200690FFE7069878B1FFE70A98099969
:103AD000089A079B109C119D069E0027039702964B
:103AE0000195009400F002F9FFE706980BB0F0BDD5
:103AF00080B582B001900198006B01F0EFFF019852
:103B000001F0ECFF02B080BD82B0002000901548AB
:103B1000006818B1FFE701200090FFE71248006835
:103B2000C06A18B1FFE70020019018E0CD48006896
:103B3000022803D3FFE7002001900FE0009818B19E
:103B4000FFE70020019008E05548006801905548C3
:103B500001680198401A0190FFE7FFE7FFE701982D
:103B600002B07047B4420020000C0020180C002066
:103B700082B001900B4800680068414248410199B9
:103B800008600198006830B9FFE706480068C0681F
:103B90000068009002E000200090FFE7009802B06B
:103BA0007047C046040C002084B043F2000000902F
:103BB000ED48029002A80078400770B1FFE7029834
:103BC000C01D02900298072188430290029AE6499C
:103BD0000098891A40180090FFE70299E1480160B7
:103BE000002141600298009A8018019001980838DD
:103BF000019001980722D24310400190019ADC48BD
:103C00000260026851600268116002990391019993
:103C1000039A891A51600068039908600398406804
:103C200003490860039840680249086004B070477F
:103C3000144300200843002080B582B00190FFE7C4
:103C4000FFF724FE87480068022803D3FFE702F04D
:103C5000B5F800E0FFE7FFF757FF00900098022853
:103C60001BD3FFE702F0F6F90D4800680D4909681B
:103C7000884203D2FFE772B6FFE7FEE7FFF744FF93
:103C800000900098022804D3FFE7009801F0CEFFCF
:103C900000E0FFE703F050F800E0FFE7D0E7C046A0
:103CA000184300207443002010B584B0069C039094
:103CB0000291019268460370029818B9FFE70698CE
:103CC000006003E0019806990860FFE703980699F1
:103CD000C8630298069908640698012102F0D5FA93
:103CE000009806994C22885404B010BD10B586B0D7
:103CF0000B9C0A9C099C089C0590049103920293DA
:103D00000A98006B03998900A522FCF795FA0A9896
:103D1000016B039880004018001F01900198072153
:103D20008843019001A80078400718B1FFE772B6F8
:103D3000FFE7FEE70498F8B1FFE700200090FFE7F7
:103D400000980B2813D8FFE70498009A805C0A9922
:103D500089183422885404980099405C08B9FFE718
:103D600005E0FFE7FFE70098401C0090E8E70A99AC
:103D70003F220020885400E0FFE70898062803D37C
:103D8000FFE772B6FFE7FEE70898062803D3FFE7D0
:103D90000520089000E0FFE708980A99C862089893
:103DA0000A9988640A98001D01F03EFE0A981830AE
:103DB00001F03AFE0A98006108990620401A0A9913
:103DC00088610A98406201980A99096B059A029BDA
:103DD00000F07EFC0A990860099820B1FFE70A9874
:103DE0000999086000E0FFE706B010BD80B584B017
:103DF00000200390FFE7039805280CD8FFE70398FD
:103E0000142141431748401801F0F8FDFFE70398DB
:103E1000401C0390EFE70C48019001F0EFFD0B48C8
:103E2000029001F0EBFD0A4801F0E8FD094801F0BD
:103E3000E5FD094801F0E2FD01990298074A116089
:103E40000749086004B080BDE0420020F442002031
:103E50002C430020604300204C430020080C00202D
:103E6000100C0020180C002086B005903D480490EE
:103E7000FFE7049800680599884205D2FFE7FFE74D
:103E8000049800680490F4E70498364988421ED0EC
:103E9000FFE704990020344A914202900FD3FFE7D4
:103EA00004993148314A821801200023009391423D
:103EB000019001D90098019001980290FFE70298C3
:103EC000C00718B9FFE772B6FFE7FEE7FFE70498FF
:103ED000039003980499496840180599884209D1CC
:103EE000FFE705984268049948688018486004987C
:103EF000059000E0FFE7059803900398059949684D
:103F000040180499096888421AD1FFE704980068AC
:103F10001749096888420DD0FFE704980068426895
:103F200005994868801848600498006800680599F9
:103F3000086004E00E48006805990860FFE704E0A7
:103F40000498006805990860FFE70498059988427D
:103F500004D0FFE705980499086000E0FFE706B089
:103F60007047C0464443002096100020FF2F0000F9
:103F70000C0C002080B586B005900491039202934A
:103F80000020019004980599486005980061049804
:103F90000399884213D8FFE703980299401A0599BC
:103FA0008969884203D3FFE70120019006E0EB48CE
:103FB00000680599091D01F03EFDFFE714E0039834
:103FC0000299884208D2FFE704980299884203D3F5
:103FD000FFE70120019006E0DF4800680599091D10
:103FE00001F029FDFFE7FFE7019806B080BDC0465C
:103FF00080B582B0019001F053FD0198806B18B933
:10400000FFE70120009002E000200090FFE701F0B0
:1040100051FD009802B080BD80B582B0019001F0E2
:104020003FFD0198806B0199C96B884203D1FFE77E
:104030000120009002E000200090FFE701F03AFD2F
:10404000009802B080BD000080B584B0039002915A
:10405000C1480068C068C06801900198001D01F067
:10406000A5FC01982821405C4007002806D5FFE701
:1040700001980399029A00F003F906E001992822B9
:10408000885CFE2318408854FFE70198016A88473E
:1040900004B080BD80B58AB00020099008900790D8
:1040A0000690FFE77548006806A9002202F031FA81
:1040B00000B9A3E0069800280FD5FFE706A8001D69
:1040C0000290029818B9FFE772B6FFE7FEE702997F
:1040D0000A6848688968904700E0FFE7069800286A
:1040E00000D58AE0089805900598406928B1FFE757
:1040F0000598001D01F05AFC00E0FFE704A800F05D
:10410000EFF803900698401E0190082873D8019993
:104110008A0001A08018874600F010B800F00EB8A1
:1041200000F037B800F03CB800F052B800F006B824
:1041300000F004B800F02DB800F032B8059928223C
:10414000885C0123184388540598079B8169591896
:10415000039AFFF70FFFD0B1FFE705982821405CD5
:104160004007002808D5FFE7059807998269891854
:10417000039A00F085F806E005992822885CFE2362
:1041800018408854FFE70598016A884700E0FFE778
:1041900032E005992822885CFE23184088542BE0E1
:1041A00005992822885C01231843885407980599AB
:1041B00088610598806918B9FFE772B6FFE7FEE7E6
:1041C0000598039B816959181A46FFF7D3FE13E03F
:1041D00005982821405C8007002804D4FFE7059853
:1041E00001F07CFC06E005992822885CFE2318403B
:1041F0008854FFE700E0FFE7FFE753E70AB080BD20
:1042000080B584B00390029101F024FF684600F06D
:1042100067F80190009858BBFFE7029860B9FFE784
:1042200003980199884207D8FFE702F085FD0398BB
:104230000199FFF709FF1AE0029838B1FFE74748F4
:1042400000680068414248410290FFE70B4800685F
:104250000399019A891A029A01F0BCFD02F06CFDE3
:1042600018B9FFE701F0AAFD00E0FFE7FFE702E071
:1042700002F062FDFFE704B080BDC0467843002035
:1042800080B584B0039002910192FFE70398029BEE
:1042900081695918019AFFF76DFE48B1FFE703984D
:1042A00081690298401802900398016A8847EDE7F7
:1042B00004B080BD08480068006828B9FFE70749D6
:1042C0000020C043086006E003480068C06800683A
:1042D00002490860FFE77047080C002018430020DF
:1042E00080B582B0019002F0CDFA009000980A49A2
:1042F0000968884206D2FFE700F010F80199012012
:10430000086003E0019900200860FFE70098024977
:104310000860009802B080BDFC0B002080B582B020
:10432000FFE70D480068006858B1FFE70A480068D9
:10433000C0680068019001980021C943FFF784FE1E
:10434000EFE7054A1068009004490868106000987B
:10435000086002B080BDC046040C0020140C002090
:1043600081B00020009008480068401C18B1FFE7A9
:1043700072B6FFE7FEE772B6FFE7009808B9FFE7FD
:10438000FBE701B07047C0465800002080B584B0FC
:104390000390FFE701A8FFF7EBFB02900298019959
:1043A000FFF72EFFFFF776FEF4E780B584B00390A9
:1043B00001F076FB03984521405C02A90870FFE7F5
:1043C000002102A84056012815DBFFE70398406A48
:1043D00058B1FFE70398243002F0ECFB18B1FFE777
:1043E00001F07AFD00E0FFE700E004E00298401EE3
:1043F00002A90870E4E703994522FF20885401F0E0
:1044000059FB01F04DFB03984421405C01A9087061
:10441000FFE7002101A84056012815DBFFE70398BC
:10442000006978B1FFE70398103002F0C3FB18B1C0
:10443000FFE701F051FD00E0FFE70198401E01A9F0
:10444000087000E000E0E4E703994422FF2088546C
:1044500001F030FB04B080BD80B590B00F9000201B
:104460000B900F9848B3FFE70F980821C943884283
:104470001FD8FFE70F9808300F900FA8007840076B
:10448000A8B1FFE70F99072001400820401A0A90C1
:104490000F980A99C943884205D8FFE70A990F98EF
:1044A00040180F9002E000200F90FFE700E0FFE7C8
:1044B00002E000200F90FFE700E0FFE701F0CAFDF7
:1044C0007C48006818B9FFE7FFF76EFB00E0FFE7E4
:1044D0000FA8C0780006002800D5DCE00F9800B9CE
:1044E000D7E00F9874490968884200D9D1E0734831
:1044F0000D9000680E900E990020714A914209902B
:104500000FD3FFE70E996E486E4A821801200023F0
:1045100007939142089001D907980890089809904C
:10452000FFE70998C00718B9FFE772B6FFE7FEE793
:10453000FFE70E9841680F9A00209142069006D23C
:10454000FFE70E980068411E88410690FFE7069835
:10455000C00718B3FFE70E980D900E9800680E90F4
:104560000E990020564A914205900FD3FFE70E990D
:104570005348544A82180120002303939142049027
:1045800001D90398049004980590FFE70598C007A7
:1045900018B9FFE772B6FFE7FEE7CAE70E9845498C
:1045A0000968884273D0FFE70D98006808300B90C7
:1045B0000B990020424A914202900FD3FFE70B99DA
:1045C0003F48404A82180120002300939142019005
:1045D00001D90098019001980290FFE70298C00766
:1045E00018B9FFE772B6FFE7FEE70E9800680D996D
:1045F00008600E9840680F99884203D2FFE772B6B0
:10460000FFE7FEE70E9840680F99401A11281DD366
:10461000FFE70E980F9940180C900CA800784007FF
:1046200018B1FFE772B6FFE7FEE70E9840680F99F2
:10463000401A0C9948600F980E9948600D980068D0
:104640000C9908600C980D99086000E0FFE70E983F
:10465000426819480168891A016000681A490968A6
:10466000884205D2FFE7144800681749086000E057
:10467000FFE70E9948680122D207104348600E995F
:104680000020086011490868401C086000E0FFE74E
:1046900000E0FFE700E0FFE702F04EFB0BA8007828
:1046A000400718B1FFE772B6FFE7FEE70B9810B0BE
:1046B00080BDC0460C0C002008430020444300206D
:1046C00096100020FF2F00001443002020430020FC
:1046D00084B003900291019200930398001F03900D
:1046E00003990120000608600398001F03900198B9
:1046F000039908600398001F039003992F480860EE
:104700000398001F039003992D4808600398001F29
:10471000039003992B4808600398001F03900399A6
:10472000294808600398001F0390039927480860F0
:104730000398001F03900098039908600398001FD6
:1047400003900399224808600398001F039003997F
:10475000204808600398001F039003991E480860D2
:104760000398001F039003991C4808600398001FDA
:10477000039003991A4808600398001F0390039957
:10478000184808600398001F0390039916480860B2
:104790000398001F03900399144808600398001FB2
:1047A000039003994320C04308600398001F0390BF
:1047B000029803990860039804B0704761430008A9
:1047C0001212121203030303020202020101010189
:1047D0001111111110101010090909090808080811
:1047E0000707070706060606050505050404040471
:1047F000A0B01FA90870002002901E901D901C9070
:104800001B901A901990189017901690159014906C
:1048100013901290119010900F900E90F9490D91F5
:10482000F9490C910B900A90099108900791069014
:1048300005910490F54800680C21084080081E90FE
:104840001E98039040B1FFE70398012807D0FFE7C7
:104850000398022806D065E0ED481A9065E0ED481F
:104860001A9062E0E94801683F2292041140890CE5
:10487000139100680121C9060840C00E12901298D9
:10488000800113994018139013980E2804D3FFE762
:104890001398401C13900BE013980F2803D1FFE7E7
:1048A0001020139003E01398801C1390FFE7FFE79C
:1048B000D6480068032109040840000C11901198A3
:1048C00070B9FFE7D44800680F210840401C1090E1
:1048D0001099CF48B0FBF1F1139848431A9020E0AB
:1048E000119801280ED1FFE7CB4800680F2108403E
:1048F000401C10901099C748B0FBF1F11398484341
:104900001A900DE0C44800680F210840401C109028
:104910001099C248B0FBF1F1139848431A90FFE791
:10492000FFE702E0BA481A90FFE7B8480168C9B249
:1049300009090F910F9A0AA9895C0E911A990E9A8A
:10494000D1401991016840F200721140090A0F919B
:104950000F9A08A9895C0E9119990E9AD140189165
:10496000006843F600010840C00A0F900F9906A89E
:10497000405C0E9019980E99C84017901FA80078B7
:1049800001900B2800D90FE201998A0001A080183C
:104990008746C04600F016B800F017B800F018B807
:1049A00000F019B800F01AB800F0EBB800F0FCB94C
:1049B00000F0FAB900F0F8B900F06FB900F01CB9D6
:1049C00000F0AEB91A981B90EFE119981B90ECE13A
:1049D00018981B90E9E117981B90E6E1F7480068EA
:1049E00040F200110840884203D0FFE7F1481690DA
:1049F000C4E0EF48006880B2800B1D90EF4800686B
:104A0000800F1C901D980090032800D9B4E00099F5
:104A10008A0001A08018874600F006B800F02EB882
:104A200000F056B800F080B81C9820B9FFE717983E
:104A30004008169021E01C98012806D1FFE717983E
:104A40000A21B0FBF1F0169016E01C98022806D15E
:104A5000FFE719980321B0FBF1F016900BE01C98CA
:104A6000032806D1FFE719980B21B0FBF1F016904F
:104A700000E0FFE7FFE7FFE7FFE77EE01C9820B9D3
:104A8000FFE717988008169021E01C98012806D1AE
:104A9000FFE717980C21B0FBF1F0169016E01C9878
:104AA000022806D1FFE719980521B0FBF1F0169016
:104AB0000BE01C98032806D1FFE719980D21B0FBE5
:104AC000F1F0169000E0FFE7FFE7FFE7FFE754E0B3
:104AD0001C9830B9FFE717980621B0FBF1F016904B
:104AE00021E01C98012806D1FFE717980E21B0FBA2
:104AF000F1F0169016E01C98022806D1FFE71998ED
:104B00000721B0FBF1F016900BE01C98032806D1AA
:104B1000FFE719980F21B0FBF1F0169000E0FFE7D6
:104B2000FFE7FFE7FFE728E01C9820B9FFE71798A9
:104B3000C00816901FE01C98012804D1FFE71798C1
:104B40000009169016E01C98022806D1FFE7199874
:104B50000921B0FBF1F016900BE01C98032806D158
:104B6000FFE719981121B0FBF1F0169000E0FFE784
:104B7000FFE7FFE7FFE700E0FFE7FFE716981B907E
:104B800013E18E480068800718B9FFE71798159061
:104B90002FE08A48006803210840012803D1FFE77D
:104BA0001A98159024E085480068032108400228DF
:104BB00004D1FFE748F20000159018E07F48006834
:104BC00003210840032810D1FFE77C480068072133
:104BD00089040840800C0F900F9904A8405C0E9047
:104BE0000E997548C840159000E0FFE7FFE7FFE722
:104BF000FFE715981B90D8E0704800688003800F8D
:104C000088B90DE0060708090102030404100240F8
:104C10000024F40000127A002C100240006CDC0228
:104C20001898159036E0654800680321090408408B
:104C300001210904884203D1FFE71A98159028E062
:104C40005E480068032109040840012149048842A4
:104C500004D1FFE748F20000159019E057480068BA
:104C6000032109040840884210D1FFE75348006837
:104C7000072189040840800C0F900F9904A8405C1C
:104C80000E900E994C48C840159000E0FFE7FFE7F2
:104C9000FFE7FFE715981B9087E048480068C004CD
:104CA000800F18B9FFE71898159036E04348006860
:104CB00041F60001084040F60001884203D1FFE7B9
:104CC0001A98159028E03D48006841F60001084018
:104CD00041F20001884204D1FFE748F2000015903C
:104CE00019E03648006841F600010840884210D1BA
:104CF000FFE732480068072189040840800C0F90C4
:104D00000F9904A8405C0E900E992B48C84015904E
:104D100000E0FFE7FFE7FFE7FFE715981B9044E09F
:104D2000264800684005800F18B9FFE718981490CE
:104D300037E02248006840F20061084040F200215C
:104D4000884204D1FFE747F60050149028E01B4842
:104D5000006840F20061084040F20041884204D1FE
:104D6000FFE748F20000149019E01448006840F290
:104D700000610840884210D1FFE710480068072111
:104D800089040840800C0F900F9904A8405C0E9095
:104D90000E990948C840159000E0FFE7FFE7FFE7DC
:104DA000FFE714981B9000E0FFE71B9820B07047C6
:104DB00004100240006CDC020024F40030100240B9
:104DC00081B001466846018000881F2201461140DB
:104DD00001238B408109154A88581843885001B037
:104DE0007047C04681B001466846018000881F2296
:104DF0000146114001238B408109FC4A88589843A1
:104E0000885001B07047C04681B0014668460180B5
:104E100000881F220146114001238B408109F34A7B
:104E200088581843885001B07047C04600100240AF
:104E300080B582B0014601A801700178481E814109
:104E4000684601700121FCF7A7F8002002B080BD80
:104E500010B590B00FAC20700EA801700D920CA888
:104E60000370FDF7B7FD0390039940F63002002070
:104E700088540399264A88520E9804A908700D9800
:104E800090B1FFE70CA8007801280DDBFFE70CA824
:104E900000781E2808DCFFE704A8401C0D990CAA26
:104EA0001278FBF7B7F9FFE70C98401C02A90870CD
:104EB0000FA801780EA80278164802F05FF801A941
:104EC00000200870FFE701A8007802A9097888424D
:104ED0000DDAFFE701A8017804A8415C0F4802F051
:104EE0004DF8FFE70198401C01A90870EBE70A485C
:104EF00002F044F802A801780EA802780FA80378FF
:104F00000B331720009004A8FDF790FC10B010BDE3
:104F10003208000072820008CF8900086981000809
:104F200070B5FFB099B001920C46019902469D9868
:104F30009C98979296AA148095AC2170949393A90B
:104F400008700DA909910020029008700CA9088032
:104F50009DABDC780D88681C088052A804904455ED
:104F60005B880C88651C0D8003559D9B1B0A0C8873
:104F7000651C0D8003559D9B0C88651C0D80035599
:104F8000959B0C88651C0D800355098840189799DE
:104F90001288FBF73FF9049902980C9A969BD31854
:104FA0000BAA039213800AAB079318801D88681C14
:104FB00018800EA80890AA24069444551D886C1CDD
:104FC0001C8055240594445554781D886E1C1E8001
:104FD00044550B9C1D886E1C1E8044551B88C018B0
:104FE0001288FBF717F90399079B04980B9C0A9A00
:104FF00012191A800988FCF7EFFC059B069A07999D
:10500000044608980D886E1C0E8044550C88651C5B
:105010000D8003550B885C1C0C80C2540988949B3E
:105020001A889B78FBF7C8FF09990D98401C0870F7
:10503000642000F01FFF7FB019B070BD81B0014641
:1050400068460170017845F2000048430149401864
:1050500001B070470000030885B00A4604A9087033
:1050600003A8027002789207130F0F229A40D243CE
:105070000292097802789207120F9140019100780C
:1050800080080090032835D800998A0001A0801874
:105090008746C04600F006B800F00EB800F016B81B
:1050A00000F01EB8029A1849086810400860019A7A
:1050B0000868104308601EE0029A12490868104010
:1050C0000860019A08681043086014E0029A0C49CD
:1050D000086810400860019A0868104308600AE0F8
:1050E000029A0649086810400860019A086810434F
:1050F000086000E0FFE705B07047C04614000140BB
:10510000100001400C0001400800014010B584B0BF
:1051100000200390029035490868012212041043D0
:105120000860FFE70398401C0390304800680121A5
:10513000490408400290FFE702990020019039B924
:10514000FFE703982A49401A411E88410190FFE772
:105150000198C0070028E5D1FFE7244800688003D4
:10516000002802D4FFE7FFE7FEE722490868012292
:1051700010430623984308601F490091086808609F
:1051800008680860086840F20043184308601B4B39
:1051900018680F24A04318600868194B184008606D
:1051A000086819231B041843086010490868120690
:1051B00010430860FFE70D4800688001002801D413
:1051C000FFE7F8E70C490868032290430860086885
:1051D000022210430860FFE7074800680C210840DE
:1051E000082801D0FFE7F7E704B010BD0010024027
:1051F000FFFF000000200240041002402C1002407B
:10520000FFFF007F80B5FFF781FF80BD80B584B0D0
:105210001020E821002200F0F5FF01462B48016034
:10522000006820B9FFE73648FDF765FA4BE0002338
:105230000193052000902648264940F2001201F013
:105240007FFA03900398012804D0FFE72248FDF776
:1052500052FAFFE700230193042000901F482049E1
:1052600040F2002201F06CFA03900398012804D068
:10527000FFE71C48FDF73FFAFFE7002301930320F7
:1052800000901948194940F2001201F059FA0390B0
:105290000398012804D0FFE71548FDF72CFAFFE733
:1052A00000230193022000901248134940F200228B
:1052B00001F046FA03900398012804D0FFE70F4855
:1052C000FDF719FAFFE704B080BDC046F40B0020DB
:1052D000B92F0008A97F00086F7F0008792D00080A
:1052E000807E00084A7F0008A12A0008DD7E0008B1
:1052F000057F0008412B0008917F0008287F0008E7
:10530000E97E0008EFF3108072B6704780B586B072
:105310002748FFF755FD2748FFF752FD0920C00633
:1053200001900721009140F200220292FDF7BEF8A1
:105330000099019840F20042FDF7B8F80198022167
:10534000012240F20063FDF736F90198029B00212B
:10535000039103220492FDF775F9E748059000F0E8
:10536000E3F90598E121490200F05CF903990598F9
:1053700000F007FB0399059800F0DFFA0399059800
:1053800000F0B7FA0598042100F0C8FA0598082142
:1053900000F0E8FA059800F013FA04991B20FDF7D5
:1053A000D3FE0598052100F041FA06B080BDC04645
:1053B0000E06000011050000144800889549088079
:1053C0009549002008807047934800887047C04680
:1053D000914800887047C04681B08B480078411CD6
:1053E00007200140684601700078884909788842A2
:1053F0000AD0FFE70548008883490A785300844AA9
:10540000D05200980870FFE701B070479410002058
:1054100087B0019101460198069105A908807E4850
:1054200000880988884204DAFFE77B4800880090FA
:1054300003E005A800880090FFE7009804A9088011
:105440007448008803A9088002A900200880FFE7AB
:1054500002A8008804A90988884213DAFFE703A993
:105460000A886E48805C069A02AB1B88D054039869
:10547000401C6B4A10400880FFE70298401C02A9BC
:105480000880E5E7069A04A803880021D154008823
:1054900007B0704786B0019101460198059104A9B3
:1054A00008805D4800880988884204DAFFE75A4886
:1054B0000088009003E004A800880090FFE70098AF
:1054C00003A9088002A900200880FFE702A800883D
:1054D00003A90988884213DAFFE74E490A884F4832
:1054E000805C059A02AB1B88D0540888401C4C4A4B
:1054F00010400880FFE70298401C02A90880E5E7F9
:10550000039A45490888801A088003A8008806B0D5
:105510007047C04610B588B0069005A801803A488B
:1055200000783A490978884204D1FFE707A90020AA
:10553000088064E0354B187841003548415A04A88A
:10554000018034490A8803A90A801A78521C07246A
:1055500022401A7000880988884207DBFFE704A808
:10556000008803A90988401A009009E003A801886F
:1055700004A80088401A40F2004140180090FFE75C
:10558000009902A80180008820B9FFE707A9002040
:10559000088034E002A8008805A90988884204DD53
:1055A000FFE7059802A90880FFE701A9002008800D
:1055B000FFE701A8008802A90988884213DAFFE7FB
:1055C00003A90A881548805C069A01AB1B88D05451
:1055D0000398401C124A10400880FFE70198401CC5
:1055E00001A90880E5E704980A490880029A0A4957
:1055F0000888801A0880029807A90880FFE707A892
:10560000008808B010BDC046680000207A00002065
:105610006A0000209210002090100020900C0020C2
:10562000FF03000080B588B0079006910020059028
:10563000049003900290079801905949884214D031
:10564000FFE701985749884214D0FFE7019856496F
:10565000884214D0FFE701985449884214D1FFE7EB
:105660000520FFF7C5F805900FE00A20FFF7C0F806
:1056700005900AE00220FFF7BBF8059005E0022044
:10568000FFF7B6F8059000E0FFE707980068000410
:10569000002818D5FFE70598400006994A088018A9
:1056A000B0FBF1F00290029814490840049002986F
:1056B0000007400F039004A8008803A90988084345
:1056C0000799C86016E0059806994A088018B0FB4B
:1056D000F1F00290029809490840049002980F21C5
:1056E0000840039004A8008803A909880843079983
:1056F000C860FFE708B080BD00380140F0FF00003F
:1057000081B000900098406A0649084001B0704797
:1057100082B0019000910098024908400199886286
:1057200002B07047FF01000080B586B00590059873
:1057300004901B49884217D0FFE704981949884212
:105740001AD0FFE70498184988421DD0FFE7049853
:105750001649884220D1FFE718480390FFF754FB11
:105760000398FFF73FFB18E013480290FFF74CFB4C
:105770000298FFF737FB10E00E480190FFF744FB5B
:105780000198FFF72FFB08E009480090FFF73CFB6A
:105790000098FFF727FB00E0FFE706B080BDC0469A
:1057A00000440040004C00400050004000380140E0
:1057B0001404000013040000110400000E03000094
:1057C00081B000900099086801221043086001B080
:1057D000704782B001906846018000881F21084010
:1057E000012282400199086A1043086202B07047A2
:1057F00084B0009101460098029101A908800298A6
:105800000A889209805809881F221140C840C007A1
:1058100020B1FFE703A90120087003E003A90020DD
:105820000870FFE703A8007804B0704782B00190C9
:105830006846018000881F220146114001238B40E9
:105840000199820988581843885002B070470000B7
:1058500082B00190009100980C49884208D1FFE77E
:105860000199D022885848F20003984388500BE0F1
:1058700000981F2109040840000C01228240019970
:10588000086A10430862FFE702B0704709340F341A
:1058900010B585B00390029100200190009003980C
:1058A00002A9098889094058029C1F231C40012134
:1058B0000A46A240104001900398029A920D805827
:1058C000029A1B041A40120C914008400090009864
:1058D00038B1FFE7019820B1FFE704A90120087063
:1058E00003E004A900200870FFE704A8007805B0D1
:1058F00010BD82B001900091019908680122904387
:1059000008600199086840F2006290430860009ABC
:10591000019908681043086002B0704782B0019096
:10592000009101990868042290430860009A019947
:1059300008681043086002B0704782B0019000917F
:10594000019908680122904308600199486843F270
:10595000000290434860009A0199486810434860EB
:1059600002B0704782B00190009101990868082246
:1059700090430860009A019908681043086002B0DB
:10598000704782B00190009101990868012290430C
:1059900008600199086841F2000290430860009A8B
:1059A000019908681043086002B0704782B0019006
:1059B0000198006900900199886849688860019998
:1059C000486889684860009840680199884205D114
:1059D000FFE7019880680099486000E0FFE70199BF
:1059E0000020086100990868401E0860009800685F
:1059F00002B07047704780F31088704781B0009004
:105A00000099084608304860009A0020C143916020
:105A1000009A11460831D160009A1146083111618F
:105A20000099086001B0704781B000900099002093
:105A3000086101B0704784B0039002910298006839
:105A400000900098401C20B9FFE70398006901907E
:105A500010E0039808300190FFE701984068006863
:105A60000099884205D8FFE7FFE701984068019058
:105A7000F3E7FFE70198406802994860029841689F
:105A8000886001980299886002980199486003989B
:105A90000299086103990868401C086004B07047C7
:105AA00072B60D490868401C0860BFF34F8FBFF302
:105AB0006F8F70470848006818B9FFE772B6FFE7B4
:105AC000FEE705480168491E0160006810B9FFE75C
:105AD00062B6FFE77047C0465800002080B586B028
