:020000040800F2
:10000000C86B0020690100089D170008A50C0008B6
:1000100000000000000000000000000000000000E0
:10002000000000000000000000000000E9170008C8
:100030000000000000000000A117000809180008D7
:100040007B0100087B0100087B0100087B010008A0
:100050007B0100087B0100087B0100087B01000890
:100060007B0100087B0100087B0100087B01000880
:10007000390C00087B0100087B0100087B010008A7
:100080007B0100087B0100087B0100087B01000860
:100090007B0100087B0100087B0100087B01000850
:1000A0007B0100087B0100087B010008C9180008DB
:1000B000251900087B0100087B0100087B0100086E
:1000C0007B0100087B0100087B0100087B01000820
:1000D0007B0100087B010008000000007B01000894
:1000E0007B0100087B0100087B0100087D0C0008F3
:1000F0000000000000000000000000007B0100087C
:1001000000000000000000000000000000000000EF
:100110000000000000000000000000007B0100085B
:100120007B0100087B0100087B0100087B010008BF
:100130007B0100087B0100087B0100087B010008AF
:100140007B0100087B0100087B0100087B0100089F
:100150007B0100080348854600F032FC0048004758
:10016000B5420008C86B0020044880470448004797
:10017000FEE7FEE7FEE7FEE7FEE7FEE735180008CC
:100180005501000803460B439B0703D009E008C94B
:10019000121F08C0042AFAD203E00B780370401C37
:1001A000491C521EF9D27047D2B201E00270401CC5
:1001B000491EFBD270470022F6E710B513460A46E7
:1001C00004461946FFF7F0FF204610BD30B505463E
:1001D0002A460B4610781C78521C5B1C002801D064
:1001E000A042F7D0002C03D0002802D06D1CEFE70E
:1001F000284630BDF8B502464A40D40F42004B00B5
:1002000052085B089A4202D20246084611464A004A
:1002100023D0C30D4A00DDB2120EAD1A202D35DAFF
:1002200049020126490AF6058A19002C00D05242DB
:1002300020214F1B1146B9402A411018C20D9A4285
:1002400021D0002C17D0012D08DCDA05801AD20F3E
:100250008019D207DBB200F042F9F8BDDA05801A46
:10026000012340001B06C01880185A428018CA0F8C
:100270001043490007E04908C2071143DA05801A14
:1002800080194008801800F022F9F8BD61000122B1
:10029000511A001BF7E70122D2075140AAE70122B9
:1002A000D2075040A6E7024670B54A40D30FDB079D
:1002B00040002DD04A002AD0010E140E0002120276
:1002C0000919400A520A8418E50104465443000AF9
:1002D000120A2E045043A4194219200CC543AA182F
:1002E000120C0125AD03521C521912047F3924044B
:1002F00000D0521C104301D44000491EC2B20C066B
:10030000C0092018401C4008802A02D003E00020C9
:1003100070BD40084000002900DA0020184370BD7D
:1003200070B502464A40D50F40004A00ED0740082C
:100330005208002814D0002A12D0C40DD30D410257
:100340000120C0055202490A520AE41A091812187B
:100350007D34914201D3641C00E04900002C01DA95
:10036000002070BD0023914201D3891A0343400845
:1003700049000028F7D100290AD0914202D1012179
:10038000C90705E0914201D2012101E00121C943E1
:10039000E005C018401900F09AF870BD0122D2079C
:1003A000002800DB101A002900DB511A814201D815
:1003B00001207047002070470122D207002800DB8F
:1003C000101A002900DB511A814201D20120704726
:1003D000002070470122D207002800DB101A0029F4
:1003E00000DB511A814201D3012070470020704781
:1003F000C217C10F504010B54018CA0796230021FC
:1004000000F06DF810BD10B500229623114600F0E3
:1004100066F810BDC20F410040020123400ADB050F
:10042000D207090EC0187F2901DA002070479629EB
:1004300003DC9623591AC84001E096398840002A07
:10044000F4D040427047C20FD207400040080BD0A2
:10045000C10D0723DB01C91840020905400A1143F9
:10046000C208400711437047002001467047F0B5AD
:100470001FB40646002082B005464024019100903A
:100480001BE0019922460F46304600F0DAFA049A42
:10049000059B801A994110D310461946224600F058
:1004A000C0FA361A8F410197224601200021009F91
:1004B00000F0B7FA38184D4100902046641E00281D
:1004C000DFDC019B00982946324607B0F0BD0029C9
:1004D00004DA401C490001D140084000704770B464
:1004E0000024050C05D11024000402D1002921D0DC
:1004F0001124050E01D100020834050F01D10001BD
:10050000241D850F01D18000A41C002801DB4000C0
:10051000641C002908D020252E1B0D46F540A14063
:1005200000D001212943084301061B1B000ADB1DE3
:1005300002D5002070BC7047DB0518188018002910
:10054000F8DA401C4900F5D170BC40084000704703
:1005500070B5002801DC002070BD4100400201267A
:10056000400AF605090E8019CA0701D14000491E4C
:100570004D10002211463F353346CB409B18D4180E
:10058000844201D8001B1A464000491C1729F3DD9C
:100590005100814202D20021C94300E00021E80558
:1005A0008018FFF794FF70BD10B541000DD04100D9
:1005B000090E962909DC7E290ADC07DB410205D0F9
:1005C000C00F7F21C007C905401810BD002010BD15
:1005D0009622541A20210A1B01469140E040FFF761
:1005E00076FFA04010BDF8B54C00C20F4300250EA9
:1005F00040020124400AE40549020019490AD207D1
:100600000C1901261B0E6100F60717466D1E07E048
:10061000401A01D572404042A042F9D840005B1E0A
:10062000AB42F9DA002803D00021FFF758FFF8BDEC
:100630003846F8BDF0B507460846584087B0C00FA9
:10064000049048000E46590040084908BC1A8841E9
:1006500005D2384631461E4617460B46024658001C
:10066000400810434CD0300D039040055900400D18
:10067000490D0590401A0290402872DA18030121B2
:10068000000B09050843019004980092002805D04A
:100690000199524200208841009201900298402125
:1006A0000A1A0199009800F0BCF905460C466B4601
:1006B00007CB00F0D7F9C0197141039A0E0D002342
:1006C000D71756401A467A40164344D0049A002A57
:1006D0002DD0029A012A039A15DC1205C01A914105
:1006E00001263605001C7141D20F059ED2070093EA
:1006F000019202962A46234600F0E0F907B0F0BDC9
:1007000038463146FAE71605224A0F46B218C01A93
:10071000B74101210905001C4F4100187F411146D6
:1007200018187941E20F10436D19644113E0E20794
:100730006D0815436408C2071443039A0126120585
:10074000C01A91413605001C7141CE074008304364
:100750004908C01851412A46234600F0A2F9CDE7C6
:10076000FFE7049801224000C117121A00238B41B1
:1007700004983146C417381AA141EEE730B4012479
:10078000E407634030BC55E730B40124E40761401E
:1007900030BC4FE70000E0FFF0B51FB488B00B9904
:1007A0000998002448400999C00F49004908099157
:1007B000C0070B990090490049080B9109990898C6
:1007C000A64608431CD00B990A98084318D00998EC
:1007D00001244000420D4800410D09982405000302
:1007E000000B204309900B980003000B20430B9053
:1007F00050181C494018002201901446104605E08C
:10080000002001460DB0F0BD032801DA034600E0E8
:1008100003239C46C11A0AAE0AE05F0008ADED5BF7
:100820004F00F75B7D430027AA187C41491C5B1EE3
:100830006145F2DD410004AB5A522104120C0A4317
:10084000240C401C0828DFDB0198029000997046B8
:1008500001910090059B049A0799069800F02EF9E3
:10086000D0E700000DFCFFFFF0B50C465C4085B002
:10087000E40FE40703944C000026640859009446F2
:10088000490802460296224321D062460A431ED0FE
:100890006200570D4A000E032303550D0124024642
:1008A0002C492405781B1B0B360B40182343264389
:1008B000614600901C46501AB44103D30098401C76
:1008C000009002E0921800985B41002803DA0020B3
:1008D000014605B0F0BD0020012109050746864606
:1008E00011E064461D46141BB54106D36546521BF4
:1008F000B341744607430C43A646CD074008490858
:10090000284392185B4105460D43EAD1104618432F
:1009100013D06046194650407140084306D06046E7
:10092000101AB34106D20122002306E0002201235F
:10093000DB0702E00122D243531000987446010500
:10094000381C6141029C039D0019694100F0A9F81F
:10095000BFE70000FD0300004A0009030123090B63
:100960001B0519430A4B10B5520D9A4202DA0020BA
:10097000014610BD064B34339A4203DC9A1A00F04C
:1009800060F810BD034BD21800F04BF810BD00000A
:10099000FF030000CDFBFFFF10B5002904DB01249D
:1009A000E40740428C412146002B04DB1C46012316
:1009B000DB075242A341994200D1904210BD000092
:1009C000064C0125064E05E0E36807CC2B430C3CA2
:1009D00098471034B442F7D3FFF7C0FB94D3000814
:1009E000B4D3000870B50446002903D000202022AB
:1009F000012310E0002801D00020C043C046C046BB
:100A00000DE02546D5408D4205D30D469540641B2B
:100A10001D46954040191546521E002DF1DC214619
:100A200070BD10B5202A04DB0146203A9140002019
:100A300010BD914020239C1A0346E3401943904087
:100A400010BD10B5202A04DB0846203AD040002112
:100A500010BD0B46D340D0402024A21A9140084339
:100A6000194610BD10B5202A06DBCB170846203AE0
:100A70001041C1170B4306E00B461341D040202420
:100A8000A21A91400843194610BD420005D0420009
:100A9000120E52428A4201DB00207047C905081835
:100AA000704710B5002B08DA0024401C61419218F1
:100AB0005B411A4301D14008400010BDF0B51FB49E
:100AC00082B005460C0003D0084609F0BDF902E0EB
:100AD00009F0BAF920300246009021462846FFF777
:100AE000A0FF049B059A04460F4618431143084390
:100AF00014D0184610431BD0009840210A1A1846FB
:100B00000599FFF79EFF05460E46009A0599049841
:100B1000FFF787FF084305D0012004E0204639464F
:100B200007B0F0BD0020C11705430E432C433743E7
:100B300000990E986305401A7905E40A00220C43D7
:100B4000FD0A0A3002D500200146E9E70105101927
:100B500069410C9C0D9D00196941FFF7A2FFDFE779
:100B600080B5A8B040F2F4101690FFE71698411E29
:100B7000169168B3FFE706F0AFFA014615A80180A9
:100B80000088012820DBFFE717A801904021FFF72C
:100B900012FB01983F2106F0C3FA0246019814A9FE
:100BA0000A800A88002181542149FFF70FFB50B1C8
:100BB000FFE7204817A909F019F906F085FA27A9D7
:100BC000012008702BE0FFE7012001F0FBFDCDE7DD
:100BD00006F082FA014613A801800088012816DB7E
:100BE000FFE703A800904021FFF7E5FA00983F21B6
:100BF00006F096FA0099024602A8028002880020B8
:100C000088540A4809F0F2F806F05EFA03E0064854
:100C100009F0ECF8FFE727A900200870FFE727A8F4
:100C2000007828B080BDC04679CF00086AD200089D
:100C300015D3000877D3000880B582B001200421C5
:100C400002F096F940B1FFE70120042102F07EF99D
:100C5000002002F00DFAFFE70120022102F088F9DE
:100C600048B1FFE701200190022102F06FF90198DD
:100C700002F0FEF9FFE702B080BD000080B540F24F
:100C8000002002F081FB48B1FFE740F2002002F0B3
:100C900073FB03490868401C0860FFE780BDC0463D
:100CA00054000020FFE7FEE780B5FFE7174840F259
:100CB000001102F02FFFFFE7054809F097F840F216
:100CC000F41001F07FFD16490020087080BDC04679
:100CD00090CF000880B5FFE70C4840F2001102F009
:100CE00011FFFFE70A4809F081F80A4800F028FDE3
:100CF00020B9FFE7084809F079F803E0074809F050
:100D000075F8FFE706490120087080BD000400481F
:100D100042D000088813000082D00008B3CF00083A
:100D200050000020F0B5DFB05EA9159100201090B2
:100D30000870C44805F0B0FBC34805F0ADFB0920BE
:100D4000C0060F9007210E910422119202F07AFE44
:100D50000E990F980822129202F074FE0F98022149
:100D6000012213920C2302F010FF0F981099119B8F
:100D7000032202F051FFFA48149006F059FB149830
:100D8000E121490206F0D2FA1099149806F07DFC90
:100D90001099149806F055FC1099149806F02DFC43
:100DA0001199149806F03EFC1299149806F05EFC16
:100DB000149806F089FB13991C2003F0D6FE1498B2
:100DC000052106F0B7FB00F0EFFDFFF76DFF159969
:100DD00014200870FFE75EA80078002848D0FFE7DD
:100DE00006F072F95CA90020087198495C915B904B
:100DF000FFE75B98032813D8FFE7FFE7D848D949F6
:100E000006F07AFB08B9FFE7F8E75B995CA8415C5C
:100E1000D34806F001FBFFE75B98401C5B90E8E7D6
:100E200040F22C1001F0CEFC06F056F9014652A813
:100E300001800088012812DBFFE753A80D902021D4
:100E400006F06EF90D988349FFF7C0F930B1FFE75E
:100E500006F03AF9804808F0C9FF09E003E07C4851
:100E600008F0C4FFFFE75E98401E5EA90870B2E775
:100E70005EA8007860B9FFE7784808F0B7FFFFE7A1
:100E8000774808F0B3FF40F2E83001F09BFCF7E749
:100E9000744808F0ABFF4FA900200C90887272488C
:100EA00008817248509072484F9006F00DF90C98E6
:100EB0004E90FFE74E98092813D8FFE7FFE7DC487C
:100EC000DC4906F019FB08B9FFE7F8E74E994FA88F
:100ED000415CD74806F0A0FAFFE74E98401C4E90C0
:100EE000E8E740F2F41001F06DFC06F0F5F8014679
:100EF0004DA801800088012814DBFFE73DA80B9076
:100F00004021FFF758F90B983F2106F04BF90B9958
:100F100002463CA80280028800208854564808F007
:100F200065FF03E0534808F061FFFFE739A90A2095
:100F3000088152483A905248399006F0C5F800208E
:100F40003890FFE73898082813D8FFE7FFE7EC4808
:100F5000EC4906F0D1FA08B9FFE7F8E7389939A863
:100F6000415CE74806F058FAFFE73898401C389093
:100F7000E8E740F2F41001F025FC06F0ADF8014678
:100F800037A801800088012814DBFFE717A80A9022
:100F90008021FFF710F90A987F2106F003F90A99DA
:100FA000024616A80280028800208854364808F0BD
:100FB0001DFF03E0334808F019FFFFE7334808F04E
:100FC00015FF0B20069000F0D1F86420059001F089
:100FD000F9FB0020079000F09BF9059801F0F2FB67
:100FE0000320099000F0F8F9059801F0EBFB1720B9
:100FF00008900724214600F02FFB059801F0E2FB42
:101000000125284600F0BEFA059801F0DBFB042616
:10101000304600F04DFA059801F0D4FB204600F070
:101020000FF90699079A089B09980494039602956C
:1010300001940090164808F0D9FEFFF74BFE5FB010
:10104000F0BDC046110700001105000041540D0A13
:10105000D4CF000815D30008C3D0000845CF00083E
:1010600061CF0008F4CF00080D0A00004444523F4D
:1010700041542B41FCD20008B1D2000846473F0D35
:1010800041542B43E4D200089DD200081AD0000836
:1010900076D1000880B584B0019101460198039192
:1010A00002A90880039809880A22172300F002F891
:1010B00004B080BD10B586B0059004A8018003A8D7
:1010C000028002A80370FFE7F448F54906F014FA1D
:1010D00008B9FFE7F8E703A84178F04806F09CF963
:1010E000FFE7EE48EE4906F007FA08B9FFE7F8E730
:1010F00003A80178E94806F08FF9FFE7E748E849D7
:1011000006F0FAF908B9FFE7F8E702A80178E34822
:1011100006F082F901A900200880FFE701A80088F5
:1011200004A90988884215DAFFE7FFE7DB48DC49B4
:1011300006F0E2F908B9FFE7F8E7059801A9098880
:10114000415CD64806F068F9FFE70198401C01A908
:101150000880E3E7044808F049FE06B010BDC04629
:10116000004400400707000012D3000880B58AB091
:1011700008A90091088005F0A7FF00980088020ADE
:10118000C3B22A4903A8019008F040FE0199F8482B
:1011900008F02CFE00200290FFE7029903A8405CB3
:1011A00098B1FFE7FFE7F348F34906F0A5F908B95E
:1011B000FFE7F8E7029903A8415CEE4806F02CF936
:1011C000FFE70298401C0290E7E7FFE7E948EA4999
:1011D00006F092F908B9FFE7F8E7E6480D2106F0B6
:1011E0001BF9FFE7E348E44906F086F908B9FFE791
:1011F000F8E7E0480A2106F00FF9FFF7B1FC48B123
:10120000FFE708A801880D4808F0F0FD09A90120B2
:10121000087006E0084808F0E9FD09A900200870F8
:10122000FFE709A800780AB080BDC04618D30008BF
:1012300000440040070700002ED20008D0D000086C
:1012400080B58AB008A90091087005F03DFF0098AC
:1012500002782A4903A8019008F0D8FD0199F948BD
:1012600008F0C4FD00200290FFE7029903A8405C4B
:1012700098B1FFE7FFE7F448F44906F03DF908B9F3
:10128000FFE7F8E7029903A8415CEF4806F0C4F8CD
:10129000FFE70298401C0290E7E7FFE7EA48EB49C6
:1012A00006F02AF908B9FFE7F8E7E7480D2106F04C
:1012B000B3F8FFE7E448E54906F01EF908B9FFE78F
:1012C000F8E7E1480A2106F0A7F8FFF749FC48B122
:1012D000FFE708A801780D4808F088FD09A901205A
:1012E000087006E0084808F081FD09A90020087090
:1012F000FFE709A800780AB080BDC0466DD300089A
:10130000004400400707000057D2000861D10008E0
:1013100080B58AB008A90091087005F0D5FE009844
:1013200002782A4903A8019008F070FD0199C54888
:1013300008F05CFD00200290FFE7029903A8405CE2
:1013400098B1FFE7FFE7F948F94906F0D5F808B981
:10135000FFE7F8E7029903A8415CF44806F05CF85F
:10136000FFE70298401C0290E7E7FFE7EF48F049EB
:1013700006F0C2F808B9FFE7F8E7EC480D2106F0DF
:101380004BF8FFE7E948EA4906F0B6F808B9FFE785
:10139000F8E7E6480A2106F03FF8FFF7E1FB48B11D
:1013A000FFE708A801780B4808F020FD09A90120F3
:1013B000087006E0064808F019FD09A90020087029
:1013C000FFE709A800780AB080BDC0463AD30008FC
:1013D000D6D10008EAD0000880B58AB008A90091EB
:1013E000087005F071FE009802782B4903A801905F
:1013F00008F00CFD0199CC4808F0F8FC00200290A0
:10140000FFE7029903A8405C98B1FFE7FFE7C748F0
:10141000C74906F071F808B9FFE7F8E7029903A891
:10142000415CC24805F0F8FFFFE70298401C0290BB
:10143000E7E7FFE7BD48BE4906F05EF808B9FFE7F9
:10144000F8E7BA480D2105F0E7FFFFE7B748B849CC
:1014500006F052F808B9FFE7F8E7B4480A2105F0AA
:10146000DBFFFFF77DFB60B1FFE708A801780E48BE
:1014700008F0BCFC08980D49087009A90120087003
:1014800006E0084808F0B2FC09A900200870FFE750
:1014900009A800780AB080BD52D30008004400407B
:1014A0000707000016D2000830D100080C00002009
:1014B00080B58AB008A90091087005F005FE009873
:1014C00002782A4903A8019008F0A0FC01999648E7
:1014D00008F08CFC00200290FFE7029903A8405C12
:1014E00098B1FFE7FFE79148914906F005F808B980
:1014F000FFE7F8E7029903A8415C8C4805F08CFFF0
:10150000FFE70298401C0290E7E7FFE78748884919
:1015100005F0F2FF08B9FFE7F8E784480D2105F070
:101520007BFFFFE78148824905F0E6FF08B9FFE746
:10153000F8E77E480A2105F06FFFFFF711FB48B17D
:10154000FFE708A801780E4808F050FC09A901201F
:10155000087006E0094808F049FC09A90020087055
:10156000FFE709A800780AB080BDC04661D3000833
:101570008BD20008004400400707000042D2000858
:101580004AD1000880B58AB008A90091087005F01A
:101590009BFD009802782A4903A8019008F036FCC8
:1015A0000199614808F022FC00200290FFE70299AF
:1015B00003A8405C98B1FFE7FFE7F4485C4905F0F9
:1015C0009BFF08B9FFE7F8E7029903A8415CEF48E1
:1015D00005F022FFFFE70298401C0290E7E7FFE7D3
:1015E000EA48534905F088FF08B9FFE7F8E7E748FC
:1015F0000D2105F011FFFFE7E4484D4905F07CFFA0
:1016000008B9FFE7F8E7E1480A2105F005FFFFF711
:10161000A7FA48B1FFE708A801780E4808F0E6FBF2
:1016200009A90120087006E0094808F0DFFB09A9B4
:1016300000200870FFE709A800780AB080BDC04606
:1016400046D300088BD20008004400400707000082
:10165000EBD1000801D1000880B58CB00AAA009235
:10166000107009A80190017005F02EFD00990198F5
:101670000A7803782B4904A8029008F0C7FB029966
:10168000294808F0B3FB00200390FFE7039904A862
:10169000405C98B1FFE7FFE7BC48254905F02CFF07
:1016A00008B9FFE7F8E7039904A8415CB74805F0DB
:1016B000B3FEFFE70398401C0390E7E7FFE7B3485A
:1016C0001B4905F019FF08B9FFE7F8E7AF480D21FE
:1016D00005F0A2FEFFE7AD48154905F00DFF08B97A
:1016E000FFE7F8E7A9480A2105F096FEFFF738FA68
:1016F00060B1FFE709A801780F4808F077FB099867
:101700000E4908700BA90120087006E0094808F08E
:101710006DFB0BA900200870FFE70BA800780CB048
:1017200080BDC0462AD300088BD200080044004088
:101730000707000000D2000818D100080D000020A3
:1017400080B582B00090FFE70098411E009178B10B
:10175000FFE7B54840F2002102F002FA20B1FFE7AE
:1017600001A90120087012E0012001F02BF8EBE73D
:10177000AD4840F2002102F0F3F90146481E8141D4
:10178000054808F033FB01A900200870FFE701A815
:10179000007802B080BDC046C6D200087047000085
:1017A000EFF309800E4A116828380860002273465A
:1017B000FCC044464D4656465F46F0C072B606F041
:1017C00071FC62B6074A116808681830F0C8A04674
:1017D000A946B246BB4680F309882838FCC818479A
:1017E0005C1900205C19002004207146084203D0D7
:1017F000EFF30980024A1047EFF30880014A1047CF
:10180000F5780008F578000880B582B005F05AFB3D
:10181000019007F0E7FE28B1FFE701200007044927
:10182000086000E0FFE7019805F087FF02B080BD87
:1018300004ED00E080B582B01B4908680122104326
:101840000860FFE7184800688007002801D4FFE718
:10185000F8E716490868164A104008600868154AF3
:101860001040086010490868134A10400860134986
:1018700008680F22904308601149086840F203127B
:1018800090430860086803229207904308600D495E
:1018900000200190086005F027F901990120C00699
:1018A00003F078F902B080BD00100240041002403D
:1018B0000C00FF08FFFF007FFFFFF2FE2C1002402C
:1018C000301002400810024080B582B0114908680B
:1018D000401C086010482E4905F05EFEB8B1FFE7D5
:1018E0000E480088FF280DDCFFE70B4805F08CFD53
:1018F00001A908700198094B1A88511C19800849E0
:101900008854FFE70448224905F026FEFFE702B0AD
:1019100080BDC046746300200038014052000020A2
:101920007863002080B582B01848194905F034FE6C
:10193000D0B1FFE7154805F067FD01A9087015480B
:1019400000887F280FDCFFE7019813490B88134AB2
:10195000D0540888401C7F22104008800D49088818
:10196000401C0880FFE7FFE708480D4905F0C4FD6B
:1019700028B1FFE705480A4905F0AFFDFFE7034836
:10198000084905F0E9FD02B080BDC04600440040B2
:1019900005000507941A0020981A0020141A002048
:1019A000030700000002020780B586B01D480090C2
:1019B00004F072FD009804F06FFD009804F06CFDD7
:1019C000194802900122059240F20013019311463A
:1019D00002F0DBF8019B029800210391032202F040
:1019E0001BF902980399059A40F20023049302F030
:1019F000CCF840F2006004F04FFD0598092104F096
:101A00009DFF039A0498114601F03EFC049801F0F2
:101A1000A9FC049801F0B0FC05992B2003F0A5F86F
:101A200006B080BD120500000004004881B00146E8
:101A300068460170007840B2002811D4FFE768467C
:101A4000007841B21F200A46024001209040490917
:101A50008900044A8850BFF34F8FBFF36F8FFFE7B1
:101A600001B0704780E100E081B001466846017036
:101A7000007840B200280DD4FFE76846007841B2F4
:101A80001F200A4602400120904049098900024A6D
:101A90008850FFE701B0704700E100E070B582B008
:101AA000024601A802700091007840B2002817D4C5
:101AB000FFE701A9087840B20322D3431840184A2F
:101AC0008058097849B28C07E50EFF24AC40A0434A
:101AD000009CA401E4B2AC402043194088501AE0B5
:101AE00001A908780F24204008380322D343184066
:101AF0000A4A8058097849B28D07EE0EFF25B54095
:101B0000A843009DAD01EDB2B540284321400839FE
:101B100019408850FFE702B070BDC0461CED00E0E0
:101B200000E400E0C1490868082210430860FFE7AC
:101B3000BE4800680007002801D5FFE7F8E7BB4969
:101B40000868042210430860FFE7B84800684007AF
:101B5000002801D5FFE7F8E77047C04683B002468A
:101B600002A80270019100780090012804D0FFE7DC
:101B70000098022817D02DE0019898B1FFE701984E
:101B800010280FD8FFE7F8490A680F2000058243A4
:101B90000A60019A1205124BD218024008681043DD
:101BA0000860FFE717E0019898B1FFE70198042863
:101BB0000FD8FFE709490A680320000582430A603D
:101BC000019A1205064BD2180240086810430860BB
:101BD000FFE700E0FFE703B07047C046382401404C
:101BE0000000F0FF81B000900098034908400349CD
:101BF000086001B07047C046FF0F0000C0240140DC
:101C000081B00090009838B1FFE7EB49086840F6D2
:101C100000021043086006E0E749086840F6000249
:101C200090430860FFE701B07047C04680B582B0BE
:101C30000448019004F054FC019804F03FFC02B009
:101C400080BDC04609030000DB49086801229043BB
:101C50000860704780B58CB02E4804F01DFC082049
:101C600004F0FAF8FFF7E2FF00200090FFF7C8FF4A
:101C7000012103910846FFF771FF0099039A084676
:101C800000F0D6F80399084600F06AF8039803219B
:101C9000490400F0A3F803990220029000F08EF9A5
:101CA00000F044F800F04AF8FFF73CFF04A8019068
:101CB00001F0C0F91848049040F20010059001F0BE
:101CC0006FFA009A019903460398069340F2004385
:101CD00007938023089343F2000309930A7648761A
:101CE0008A7605220B9201F07FF8039801F06EF8D6
:101CF0000398042101F01AF90299039801F016F9EA
:101D000003990C2002F031FF039801F051F80CB058
:101D100080BDC046090600004C240140D349086834
:101D200040F20012904308607047C046CF490868EF
:101D300040F20012104308607047C04680B540F280
:101D40004010FFF74FFFC9480068C00730B9FFE7F0
:101D5000C6490868012210430860FFE780BDC046FD
:101D600082B001AA1070684601700078D0B1FFE718
:101D700001A80078C00738B1FFE7BC490868012214
:101D8000120510430860FFE701A8007880070028CB
:101D900007D5FFE7B549086848F20002104308601C
:101DA000FFE719E001A80078C00738B1FFE7AF49A5
:101DB00008680122120590430860FFE701A8007837
:101DC0008007002807D5FFE7A849086848F2000205
:101DD00090430860FFE7FFE702B0704783B0024618
:101DE00002A80270019100780090012804D0FFE75A
:101DF000009802280BD015E09C490868072252047D
:101E000090430860019A0868104308600BE0974906
:101E1000086847F2000290430860019A086810437E
:101E2000086000E0FFE703B07047C04608240140A7
:101E300010B585B0034604A8037003AB1970029275
:101E40000078052818DCFFE749490868019004ABD1
:101E50001C780520024662431F249440019AA24345
:101E6000019203AA12781B785843824001981043CC
:101E700001900198086039E004A800780B281ADC6A
:101E8000FFE73A490868019004AB1C780520024638
:101E900062431E3A1F249440019AA243019203AA6E
:101EA00012781B7858431E388240019810430190E5
:101EB0000198086019E02C490868019004AB1C786F
:101EC0000520024662433C3A1F249440019AA243F3
:101ED000019203AA12781B7858433C38824001983B
:101EE0001043019001980860FFE7FFE703A800781E
:101EF000092817DCFFE720490868009003AB1C782D
:101F000003200246624307249440009AA2430092B1
:101F1000029A1B7858438240009810430090009822
:101F200008601FE003A80078132819DCFFE71149B7
:101F30000868009003AB1C780320024662431E3AF7
:101F400007249440009AA2430092029A1B785843B7
:101F50001E3882400098104300900098086000E00E
:101F6000FFE7FFE705B010BD2C24014030240140FD
:101F7000342401400C2401401024014081B001466A
:101F8000684601700078C00738B1FFE73749086834
:101F90000122920510430860FFE768460078800739
:101FA000002807D5FFE73149086801225205104390
:101FB0000860FFE701B070470824014082B001903B
:101FC00068460170007830B3FFE701A84078C00789
:101FD00038B1FFE72449086840F200121043086056
:101FE000FFE701A840784007002807D5FFE71E4912
:101FF000086840F2004210430860FFE701A800783B
:102000008007002806D5FFE7184908680222104318
:102010000860FFE725E001A84078C00738B1FFE776
:102020001149086840F2001290430860FFE701A8D8
:1020300040784007002807D5FFE70B49086840F2C1
:10204000004290430860FFE701A80078800700285D
:1020500006D5FFE705490868022290430860FFE7BC
:10206000FFE702B07047C046042401400824014045
:1020700080B58EB00DA90091088040F2007004F088
:102080000BFA0099194800680988B0FBF1F0401E6E
:102090000C9008A8019004F0D1FE01990020029054
:1020A0000880488088800C9A0A92888101200590D7
:1020B0008007049004F068FE06A8039004F049FE2F
:1020C000029B039A049805990691938004F010FDF1
:1020D00004980599702204F0B3FD049805990C9AB0
:1020E000520804F00DFE0EB080BDC046080000206E
:1020F00080B584B0029002980121C90788430190FD
:1021000001980C49FEF758F918B9FFE70020039031
:102110000CE001980849FEF703F97F21C905FEF795
:1021200069F87249FEF7BFF80390FFE7039804B01F
:1021300080BDC04600409C4500409CC585B00490D1
:1021400003A8018002A90020087001A90880FFE708
:1021500001A8008803A9098888422FDAFFE70498BC
:1021600001A90988415C0298484002A908706946A3
:1021700000200870FFE768460078072818DCFFE7B2
:1021800002A800780006002807D5FFE70298400063
:102190000721484002A9087004E00298400002A903
:1021A0000870FFE7FFE70098401C69460870E2E707
:1021B000FFE70198401C01A90880C9E702A8007840
:1021C00005B0704780B586B005900020049019498D
:1021D00003910599888602A901200880FFE702A8DB
:1021E0000088092820DCFFE7059802A909888A00F1
:1021F00081188058091F0968FEF74DF80121C907A9
:102200008843019001980499FEF7C8F830B9FFE7B8
:1022100001980490029805998886FFE7FFE70298E5
:10222000401C02A90880DAE704980399FEF778F8C1
:1022300006B080BD6E12833A80B586B004900391DB
:1022400003981449FEF72FF8029004980299009120
:10225000FEF721F800990122D2079043FEF760F8BB
:10226000019001981F49FEF7A7F818B9FFE7002071
:1022700005900CE001981C49FEF752F87F21C90532
:10228000FDF7B8FF1949FEF70EF80590FFE705982E
:1022900006B080BDF4FD344080B584B00290029851
:1022A0000F49FDF7A7FF0121C90788430190019855
:1022B0000C49FEF781F818B9FFE7002003900CE005
:1022C00001980949FEF72CF87F21C905FDF792FF17
:1022D0000649FDF7E8FF0390FFE7039804B080BDCF
:1022E000000080BF0000A0400000A0C00000C84265
:1022F00080B582B0019001980349FDF77BFF00F0A3
:10230000C3F902B080BDC046DB0FC93F80B584B0C1
:10231000019101460198039102A908800398098858
:1023200000F034F804B080BDB0B588B00B46044668
:102330000D990C98069405AC2380049203910290A9
:10234000069838B1FFE7049820B1FFE705A8008898
:1023500020B9FFE707A90020088013E0039902983D
:1023600000F0F2F90498069905AA01921288FDF787
:1023700009FF019904980988FFF7C8FF059807A984
:102380000880FFE707A8008808B0B0BD80B584B01A
:10239000039002A80180039820B1FFE702A80088FB
:1023A00008B9FFE719E001A900200880FFE701A8AC
:1023B000008802A9098888420FDAFFE700F04AF98D
:1023C0000346039901A80288885C58408854FFE7B7
:1023D0000198401C01A90880E9E704B080BD10B550
:1023E00086B0049003A8018002920193049860B122
:1023F000FFE7029848B1FFE703A8008828B1FFE78C
:1024000003A80088DD2804DBFFE705A90020088079
:1024100017E000F065F80A4601994A60086000F08C
:1024200043F80298049903AA00921288FDF7AAFEC5
:10243000009902980988FFF7A9FF039805A9088069
:10244000FFE705A8008806B010BD000080B584B085
:1024500000200390FFE70398032807DCFFE700F064
:102460008BF8FFE70398401C0390F4E7BF4800682F
:102470000290BF4800680190029901984140684667
:10248000017002990A0A00995140017001A94A8815
:1024900000995140017002A9CA7800995140017019
:1024A000007804B080BDC04680B582B001A900208C
:1024B0000880FFE701A80088FF280CDCFFE7FFF792
:1024C000C5FF01A90A886F498854FFE70198401C9D
:1024D00001A90880EEE76A490020088002B080BDAB
:1024E00082B0A24800680190A1480068009001995C
:1024F000009802B07047C04680B586B0059005A828
:1025000001900088FDF77FFF8F21C9050291FDF73B
:1025100007FF3F2109060391FDF7C5FE1449FDF7AA
:1025200069FE01460198914A11604088FDF76BFFF2
:102530000299FDF7F5FE0399FDF7B5FE0D49FDF78C
:1025400059FE8B4908604E49002008800490FFE73F
:102550000498C0087C2807D8FFE7FFF777FFFFE75C
:102560000498401C0490F3E7FFF79EFF06B080BD7F
:10257000CDCCCC3DCDCC4C3E80B58EB0344907910E
:102580000868019079480A9000688969FDF732FE71
:10259000FFF7AEFE01460198FDF785FE079904900E
:1025A000486803908868029071480B900068C96978
:1025B000FDF720FE00F068F801460298FDF773FE73
:1025C0000799096AFDF716FE00F05EF801460398C8
:1025D000FDF769FE01460498FDF70CFE07990246D7
:1025E0000B980D92CA6805920068496AFDF702FED1
:1025F000FFF77EFE01460598FDF755FE0799024656
:102600000A9809920A6908924A6906920068896ADA
:10261000FDF7F0FD00F038F801460698FDF743FE9F
:102620000799C96AFDF7E6FD00F02EF80146089803
:10263000FDF739FE01460998FDF7DCFD0A9A0B9972
:102640000C900D9810600C9808600EB080BDC046CC
:102650001000002080B582B0094802880949895CD1
:1026600001AA11700188491C01800088FF2803DD40
:10267000FFE7FFF719FFFFE701A8007802B080BD70
:10268000FC050020FE05002080B588B00790079863
:10269000264908F05EF9079007982549FDF77EFE68
:1026A00030B9FFE707982349FDF7A4FD0790FFE73E
:1026B00007982149FDF78EFE30B9FFE707981B49BF
:1026C000FDF798FD0790FFE707990846FDF7EBFD3A
:1026D000069007980699FDF7E6FD0590059806997E
:1026E000FDF7E1FD049004980699FDF7DCFD0390E9
:1026F0000798009005981149FDF712FE01460098D1
:10270000FDF778FD019004980D49FDF709FE01469B
:102710000198FDF76FFD029003980A49FDF700FE4E
:1027200001460298FDF766FD08B080BDDB0FC94089
:10273000DB0F4940DB0FC9C0DB0F49C00000C0C040
:102740000000F04200809DC580B584B003910290E6
:102750000398019002980090044901980860044988
:1027600000980860FFF7A0FE04B080BD4400002080
:102770004800002080B584B002AA1070019101F0D9
:10278000F9FA009000980D49FDF724FE20B9FFE703
:1027900003A9022008700DE000980949FDF71AFE10
:1027A00020B9FFE703A90120087003E003A9012075
:1027B0000870FFE703A8007804B080BD00007042F5
:1027C0000000A04281B00090FFE70098411E0091F8
:1027D000D8B1FFE75E48006840F2E831B0FBF1F0A5
:1027E000401E0B4908600B49002008600A4905207B
:1027F0000860FFE708480068C003002801D4FFE72D
:10280000F8E7054900200860DFE701B07047C046DF
:1028100014E000E018E000E010E000E080B582B0D5
:102820000448019003F05CFE019803F047FE02B0FB
:1028300080BDC0461D04000058490868012290432D
:10284000086070475549086841F2000290430860EB
:102850007047C0465149086841F2000210430860C1
:102860007047C04680B58CB040F2005003F014FEB3
:102870001C4803F011FEFFF7D1FF082000F072F8AA
:1028800000F06AF800F03AF80020019000F078F8C3
:1028900000F02EF804A8029000F0CCFB01980299F9
:1028A000114A049240F200120592104B069340F236
:1028B00000430793089242F2000209920876012031
:1028C0004876887606200B900220039000F08CFA60
:1028D000039800F07BFAFFF7BDFF039800F068FA59
:1028E0000CB080BD1D070000087400406E00002081
:1028F0002A49086801221043086070472749086880
:10290000022210430860704780B586B00F4803F07C
:10291000C3FD02A8009004F091FA009900200880FD
:10292000488088800A4A12684CF60003B2FBF3F232
:10293000521E049288810748019004F025FA0198FC
:10294000202104F067FA06B080BDC04601070000F0
:1029500008000020000400401049086804221043C9
:102960000860704781B000900C4908683822904395
:102970000860009A08681043086001B07047C046BC
:1029800081B0009005490868C02290430860009A11
:1029900008681043086001B07047C04600740040EA
:1029A00080B58AB009904548007830B9FFE702F059
:1029B00001F9424901200870FFE7414801F008FA97
:1029C000FFE7404800680023D9430091022101221B
:1029D00006F0DBF8089008A80078800700286CD57E
:1029E000FFE7394801F0E0F906F0F2FD0790FFE754
:1029F00001F006F8022850D1FFE706F0E9FD069045
:102A00000120039000F0E4FF6420029005F0D4F868
:102A1000039800F0CFFF029805F0CEF8039A2948FA
:102A2000006800230093082106F0AFF8089008A87A
:102A300000780007002804D5FFE7284801F0C8F90E
:102A40002BE001F097F9059005982049FDF7B4FCBB
:102A500080B9FFE706980799401A049004981D4929
:102A6000884206D3FFE703F019FF1B4801F0B0F9D5
:102A7000FFE70EE01648007850B9FFE705981349C4
:102A8000FDF7A8FC18B9FFE703F0CAFEFFE7FFE770
:102A9000FFE7322005F090F8AAE70D48007818B15A
:102AA000FFE703F031FDFFE7012000F083FF03F0B3
:102AB000F5FE0B4801F08CF9FFE782E75800002093
:102AC0008ACC00084C0300205BCC00080000B44214
:102AD000F017002011270000BACC00089ECC000897
:102AE00072CC000880B5A2B0219006F071FD07906D
:102AF00001200690FFE700F07DFF05A908702F492F
:102B00000868401C3C22B0FBF2F35A43801A08606C
:102B10002B4800682B49884213D3FFE728480068F8
:102B2000294988420DD8FFE72548006847F230510F
:102B3000401A0390039860214143274840180490AD
:102B400021E01F4800682149884213D3FFE71C4851
:102B500000681F4988420DD8FFE7194800684CF209
:102B60005031401A02900298602141431A4840189F
:102B7000049007E01148006860214143154840185F
:102B80000490FFE7FFE7049908A801906022FDF791
:102B9000F9FA06F01DFD019920901D4800680023F8
:102BA000DA4306F0A7F906490868401C0860FFE709
:102BB000069907A806F08EFCFFE79CE7400000207E
:102BC000F4170020307500004375000050C300006A
:102BD00063C300002CB30008ACAB000880B59AB00A
:102BE00019900A4801F0F4F8FFE70948006800214D
:102BF000CA43694606F057FA012805D1FFE718993C
:102C0000684601F059FCFFE7EFE7C0460DCD00082C
:102C1000F817002080B582B00E480F490191FDF7EA
:102C2000CAFA0E484021FDF7C6FA0D490020087087
:102C30000C49088000F064FC05F0D4FC019B2820BE
:102C40000090094840F2E831042201F0C1F802B0D6
:102C500080BDC04658070020441000001007002027
:102C6000500700202019002088CA000880B588B0CD
:102C7000069000200590404904914049039102A923
:102C80000880FFE702A80088092827DCFFE70698EC
:102C900002A9098889004058019001990846FDF76A
:102CA00002FB01460598FDF7A5FA059001980499E5
:102CB000FDF774FB18B9FFE701980490FFE701984E
:102CC0000399FDF787FB18B9FFE701980390FFE729
:102CD000FFE70298401C02A90880D3E7059828491D
:102CE000FDF71EFB07F028FF0699C86204980399B8
:102CF000FDF7D1FA069988630698FFF763FA0699FB
:102D000008630698826B016BC06A00F0D9FF0698D1
:102D1000C06A1C49FDF742FB20B9FFE707A9042060
:102D2000087024E00698C06A1749FDF737FB20B900
:102D3000FFE707A90120087019E00698C06A134947
:102D4000FDF748FB20B9FFE707A9032008700EE054
:102D50000698C06A0E49FDF73DFB20B9FFE707A9B9
:102D60000220087003E007A900200870FFE707A809
:102D7000007808B080BDC046286B6ECE286B6E4EC2
:102D800000002041CDCC8C3F6666863F6666663F7C
:102D90003333733F81B001466846017000781421D7
:102DA0004143A34A885801239843885001B0704793
:102DB00081B00146684601700078142141439C4A65
:102DC000885801231843885001B0704781B00146EC
:102DD00068460170007814214143954A88582023A1
:102DE0001843885001B07047B0B584B003AA107082
:102DF0000291029810B9FFE7FFE7FEE703A80090F1
:102E00000078FFF7C7FF009B029800681C78142128
:102E10000A466243414C1051029880681C780A4669
:102E200062433F4C10510298008A1C780A46624364
:102E30003C4C10511A78084650437D4A8058019006
:102E4000019843F60074A043019002984468C56855
:102E50002C434069044301982043019001981B785A
:102E6000594388500298007E01280AD1FFE703A841
:102E70000078142141436E4A8858402318438850F3
:102E800009E003A8007814214143694A8858402387
:102E900098438850FFE70298407E01280AD1FFE757
:102EA00003A8007814214143614A885880231843BD
:102EB000885009E003A80078142141435C4A8858EF
:102EC000802398438850FFE70298807E50B9FFE73F
:102ED00003A8007814214143554A88581023984389
:102EE000885009E003A8007814214143504A8858CB
:102EF000102318438850FFE703A801788B000A4A83
:102F000099583F24A14399500299CB6900788100D8
:102F100088581843885004B0B0BDC0461000024025
:102F2000140002400C0002400008024082B0024639
:102F300001A802700091009B0078142141433C4A93
:102F400088581843885002B07047C04682B0024685
:102F500001A802700091009A007880008240034925
:102F600008681043086002B07047C0460400024081
:102F700086B004AA1070039100200290019003987B
:102F80000090022808D0FFE70098042816D0FFE739
:102F90000098082824D035E024480168039A04A842
:102FA00003789B009A401140019101781420484316
:102FB0001F49405802210840029024E01B48016844
:102FC000039A04A803789B009A401140019101786C
:102FD000142048431649405804210840029012E04A
:102FE00012480168039A04A803789B009A40114094
:102FF00001910178142048430D49405808210840A8
:10300000029000E0FFE7019838B1FFE7029820B195
:10301000FFE705A90120087003E005A9002008705A
:10302000FFE705A8007806B07047C04600000240E0
:103030000800024081B00090009810B9FFE7FFE758
:10304000FEE7009900200860009948600099087622
:10305000009988600099C8600099487600990861D5
:1030600000998876009948610099C86101B070475D
:1030700080B58EB00DA908705E4840F21C11405C0E
:1030800008B9FFE780E080200C905A49019140F296
:103090000010009008580DAA1278D20189180CAAC5
:1030A000128805F02DFA009A01990C9B8858C018D7
:1030B000885040F208100A5840320A50085840F22E
:1030C0000C12895888425FD3FFE74A4940F21C122C
:1030D0000020885400F092F82C48007890B9FFE75F
:1030E0002B48007804280DDCFFE7424A40F2141018
:1030F000105840F21D11515C40F21813D25805F0DF
:10310000FFFBFFE73B4840F208114158214800F01F
:103110005FFE1E48007870B3FFE70BA9002008701F
:103120000AA90870FFE70AA80078194909788842B7
:1031300020DAFFE70AA80078182141431648401812
:10314000807D88B1FFE70AA8007818214143124822
:103150004018C07D11490978884205D1FFE70B98D6
:10316000401C0BA90870FFE7FFE70A98401C0AA95A
:103170000870D8E7FFE71F4840F20411405802A941
:10318000102205F081F9FFE70EB080BDCC030020CE
:1031900050030020F3CB0008540300206C000020F3
:1031A0001448704780B584B003A901910880114884
:1031B000029040F21C1201218154039940F21E1228
:1031C000815240F208120021815040F20C11405807
:1031D000400005F021F90198008805F0B1F8019947
:1031E0000298098840F200128258034800F0F0FD6E
:1031F00004B080BD0018002072CB000880B505F037
:10320000C7F8024800F0E4FD80BDC046E5CB0008E9
:1032100082B001200190694608701648006820B10C
:10322000FFE76946002008701FE01348006820B1DE
:10323000FFE769460020087016E01048006820B1DA
:10324000FFE76946002008700DE00D4800680D4951
:103250000968491E884204D1FFE7694602200870C8
:1032600000E0FFE7FFE7FFE7FFE76846007802B00E
:103270007047C0466C670020C06700206867002068
:103280008C6700207864002085B0049003A801704A
:1032900002A90A70049B4C4A116899431160049B6F
:1032A0002D4A116899431160049B2C4A1168994377
:1032B0001160049B2A4A11689943116000780190BB
:1032C00020B1FFE70198012806D00BE0049A3E499F
:1032D00008681043086006E0049A1F490868104314
:1032E000086000E0FFE702A80078009003282FD8CC
:1032F00000998A0001A080188746C04600F006B8F1
:1033000000F00FB800F018B800F021B8049A134983
:10331000086810430860049A1149086890430860DF
:1033200017E0049A0D49086890430860049A0C4914
:103330000868104308600CE0049A084908681043C4
:103340000860049A064908681043086001E000E03C
:10335000FFE705B07047C04604040140080401407F
:103360000C04014081B00090009A1749086810438E
:10337000086001B07047C04681B0009000981149C4
:10338000086001B07047C04684B002900D480068E4
:103390000299084001900C4800680299084000908A
:1033A000019838B1FFE7009820B1FFE703A9012099
:1033B000087003E003A900200870FFE703A8007865
:1033C00004B07047140401400004014080B584B08B
:1033D00003AB187002A801700192554800780528C7
:1033E00001DBFFE722E089480068434940181049A3
:1033F00088420BD3FFE700F0B1F94B4800F012F917
:1034000000F00AF9814900200860FFE70398394974
:1034100008700298364908700198344908607A4962
:1034200000200880774901200870FFE704B080BDC4
:1034300001A00000F0B58BB07248007808B9FFE732
:1034400051E07049002008706F48008808B9FFE714
:1034500049E02648069000680890254804900078C6
:1034600008A90291087123480390007848716648C2
:10347000059002888A714078C871002008724872ED
:103480008872C872614D28680C2200F0E1FF039930
:10349000049A059B0698264E34782701234CE4199C
:1034A00007940468079F3C602C68079F7C60147831
:1034B000079FBC720C78079FFC721C88079F3C8199
:1034C000079F01243C733478641C34702C680A4EC6
:1034D000A4192C60097812781B88006800900748AE
:1034E00000F076FCFFE70BB0F0BDC046D40300202F
:1034F000CD030020D80300203C0C000026CB0008A0
:1035000080B500F02BF9084800F08CF800F084F842
:1035100006485021FCF74FFE0549002008703B4942
:1035200008600449086080BD00000308A01700205F
:103530009C17002000070020B0B586B005A90880C0
:103540003048007808B9FFE759E004A90A2008804C
:103550002D480088098840183D2807DBFFE72A48E6
:1035600001883C20401A04A90880FFE703A9002035
:103570000880FFE703A8008804A90988884220DAA8
:10358000FFE703A803883422114659432048401816
:1035900005A90988C9185023B1FBF3F46343C91A7C
:1035A0004A431C4989181CC91CC01CC91CC01CC921
:1035B0001CC03CC93CC0FFE70398401C03A908801D
:1035C000D8E712480068104901910B8834210A4657
:1035D0005A4380180C3002900298049A51438AB2E0
:1035E0000B4900F035FF0198049A01888918018081
:1035F00000883C2803DBFFE7FFF71CFFFFE706B06E
:10360000B0BDC046CE030020E4050020D00300205A
:10361000DC030020580700206E4908688022104310
:103620000860704780B584B003900120000500F069
:1036300027F8014602A801700078D0B9FFE7654974
:1036400001910868022200921043086003980B4A17
:10365000106008684022104308600120000500F057
:103660000FF8009A019902AB18700868904308603F
:10367000FFE702A8007804B080BDC04614200240D5
:1036800080B584B0039002A901200870FFE700F024
:1036900025F802A908700398401E0390FFE702A8CE
:1036A000017800200129019005D1FFE70398411E10
:1036B00088410190FFE70198C0070028E7D1FFE7A4
:1036C00002A80078012804D1FFE702A905200870AC
:1036D000FFE702A8007804B080BD000081B0694611
:1036E000002008701C480068C00720B1FFE7694649
:1036F000012008702BE018480068C006002804D597
:10370000FFE769460420087020E01348006840077E
:10371000002804D5FFE769460220087015E00E482E
:1037200000680007002804D5FFE7694603200870F9
:103730000AE0094800680004002804D5FFE769464C
:1037400007200870FFE7FFE7FFE7FFE7FFE76846AE
:10375000007801B07047C0460C2002401D48006848
:103760000006002806D5FFE703490448086004481E
:103770000860FFE77047C046042002402301674508
:10378000AB89EFCD80B586B005900491012000058E
:10379000FFF776FF014603A801700078A8B9FFE79C
:1037A0000C4A0292116801200190014311600499B2
:1037B000059A11600005FFF763FF019A029903ABB8
:1037C0001870086890430860FFE703A8007806B007
:1037D00080BDC0461020024080B582B001900091AB
:1037E00001A80178064803F017FEFFE704480549E1
:1037F00003F082FE08B9FFE7F8E7019802B080BD48
:1038000000380140070700008AB0099008A801802D
:103810000792002006900590FFE7059808A90988FF
:10382000491E884269DAFFE709980599405CAA2891
:103830005ED1FFE70999059840184078552857D17F
:10384000FFE70598001D08A90988884201DDFFE708
:1038500053E009990598411888780002C978401802
:1038600004A90880059809884018401D0390039812
:10387000801C08A90988884239DCFFE70998039968
:10388000405C552833D1FFE70999039840184078E8
:10389000AA282CD1FFE709980599401802900298B0
:1038A000007A0799087002990191487A00068A7A8D
:1038B00012048018CA7A120280180A7B8218487B88
:1038C00000068B7B1B04C018CB7B1B02C018097C35
:1038D00040180799CA60886004980D3807990882D3
:1038E00002981130079948610120069005E0FFE732
:1038F000FFE70598401C05908FE7069830BBFFE76F
:1039000009990091087800064A78120480188A788C
:1039100012028018CA788218087900064B791B04B5
:10392000C0188B791B02C018C97940180799CA6062
:1039300088600998007A07990870089809380799EB
:1039400008820998093007994861FFE70AB0704773
:1039500080B586B0014605A802900170007841004C
:103960001348405A02F098FD0298007882002048DF
:10397000049080581D4903918B5801210022019227
:1039800000F003F90199029B039A04981B789B00AD
:10399000C058D358032200F03FF9029A03980499C3
:1039A0001278920080588958886206B080BDC0465F
:1039B00084AB000881B0014668460170007882003F
:1039C0000A4880580A498958886201B07047C04641
:1039D00081B0014668460170007882000348805833
:1039E00003498958886101B07047C0468CAB000814
:1039F0009CAB0008014800787047C0466B0000206F
:103A000080B582B001A8002101700C480068C9434C
:103A100005F00BFC01280CD1FFE70948007801A94B
:103A2000087006480068002319461A4605F062FA35
:103A3000FFE701A8007802B080BDC046540700200F
:103A4000FC17002086B00590049103920598006A47
:103A500001900598406A009002A900200880FFE7C5
:103A600002A8008807281DD8FFE702A8018803984C
:103A7000C840C00780B1FFE702A8018889000F2273
:103A80008A40019991430191049900888000814006
:103A9000019808430190FFE7FFE70298401C02A944
:103AA0000880DDE702A908200880FFE702A8008857
:103AB0000F281FD8FFE702A801880398C840C00755
:103AC00090B1FFE702A80188890020390F228A40BF
:103AD000009991430091049900888000203881402A
:103AE000009808430090FFE7FFE70298401C02A9F6
:103AF0000880DBE7019805990862009805994862FB
:103B000006B0704782B001900091009801998862D8
:103B100002B0704782B001900091009801998861CD
:103B200002B0704780B584B00C48009002F0B4FC3D
:103B3000009802F0B1FC0920C00601900321029117
:103B400000220392102300F020F801980299039AB2
:103B5000012300F01AF804B080BDC0461105000032
:103B600083B001900091019800690099084204D047
:103B7000FFE702A90120087003E002A900200870F5
:103B8000FFE702A8007803B0704787B00690059160
:103B9000049203930698006801900698C06800900C
:103BA00002A900200880FFE702A800880F282BD870
:103BB000FFE702A801880398C840C007F0B1FFE7FB
:103BC00002A801884900032213468B4001999943BA
:103BD0000191059B018849008B400199194301918E
:103BE000018849008A400099914300910499008816
:103BF00040008140009808430090FFE7FFE70298EB
:103C0000401C02A90880CFE7019806990860009837
:103C10000699C86007B0704710B586B0059004A833
:103C20000170039202930078012806D1FFE7029AFF
:103C3000059948681043486005E0029A059948686C
:103C400090434860FFE705988068009001A9002034
:103C50000880FFE701A800880F281DD8FFE701A80A
:103C600001880298C840C00780B1FFE701A8018819
:103C7000490003228A4000999143009103990088EA
:103C800040008140009808430090FFE7FFE701985B
:103C9000401C01A90880DDE700980599886006B0FE
:103CA00010BD0000354900200861C8608860486088
:103CB0000860024ACA6008747047C0460000C842E3
:103CC00080B588B00790069105920798FEF7E4FA50
:103CD0002A49049108600698FEF70AFA0499486098
:103CE00007990598FEF7A8FA0146049881600068D4
:103CF0001C490191FCF7D7FA0199024604980292F7
:103D00004068FCF7D0FA01460298FCF773FA0146C6
:103D10000498039180681449FCF7C5FA014603989A
:103D2000FCF768FA01460498C160C0680F49FCF7C7
:103D300051FB20B9FFE71149022008740FE00F483A
:103D4000C0680B49FCF746FB20B9FFE70B4901208F
:103D5000087403E0094900200874FFE7FFE708B092
:103D600080BDC046CDCCCC3ECDCC4C3E0000704298
:103D70000000A0420148C0687047C046E805002026
:103D800083B080B583B0079306920591029005A891
:103D900001900299019A002000F036F803B080BC2F
:103DA00001BC03B08646704783B080B583B00793EB
:103DB00006920591029005A801900299019A0320AC
:103DC00000F022F803B080BC01BC03B08646704707
:103DD00083B080B583B0079306920591029005A841
:103DE00001900299019A012000F00EF803B080BC06
:103DF00001BC03B08646704781B0694608700098E0
:103E00000E49087001B0704780B584B00092024638
:103E10000098039002A80270019100780749097880
:103E2000884201DAFFE707E00198039906F002F8FB
:103E3000A74805F0DBFFFFE704B080BD04070020C2
:103E400083B080B583B0079306920591029005A8D0
:103E500001900299019A0220FFF7D6FF03B080BCBF
:103E600001BC03B08646704710B5FFB08BB0899097
:103E70009548FFF7ADFFFFE703F032F920B9FFE700
:103E80000A2003F099FEF7E703F02AF927A9088032
:103E900000202690FFE72698132819DCFFE7012071
:103EA00003F08AFE03F01CF9014625A80180008872
:103EB00027A90988884204D1FFE72698401C26904C
:103EC00005E0259827A9088000202690FFE7E2E773
:103ED00003F00AF949A840F2001103F0A3F90146E2
:103EE00028A801800088132801DCFFE7C4E749A85F
:103EF0002490289823A908802498098816AAFFF7F7
:103F000083FC169822A9087018981999219120907D
:103F10001A981FA908801B981E9021992098084381
:103F2000D8B1FFE71FA80088012816DBFFE71FA80C
:103F30000088802811DCFFE71E981FA90988209AB5
:103F4000219B0193009229AA0B92FEF7EDF90146FD
:103F50000B981CAA11801D9005E01F981CA90880D1
:103F60001E981D90FFE722A801781CA802885748D8
:103F700005F03CFF15A900200880FFE715A801887F
:103F80001CA80288002091420A900DDAFFE715A8CC
:103F900001880120002208924029099001DB08983D
:103FA000099009980A90FFE70A98C00768B1FFE7EF
:103FB0001D9815A90988415CBD4805F017FFFFE76A
:103FC0001598401C15A90880D8E7414805F00EFF58
:103FD00010A800210174139112911191109122994E
:103FE0000170401C06901D9807901CA8008811289D
:103FF00003DBFFE71020059003E01CA80088059074
:10400000FFE707990698059AFCF7BCF810A8007816
:1040100010380490052855D804998A0001A080180A
:104020008746C04600F00AB800F04CB800F034B83B
:1040300000F048B800F020B800F034B810A98A7831
:104040000FA80270CA780EA90A700078097804F0E7
:10405000EBFA40B1FFE70FA801780EA802782048DC
:10406000FFF7B6FE07E00FA801780EA802781B48FC
:10407000FFF7E6FEFFE726E010A988780006CA7879
:10408000120480180A7912028018497940180D909C
:104090000D9800F0F9FB16E004F09AF90E48FFF7CE
:1040A00097FE10E010A881780CA8039001700078AA
:1040B00002F02AFB02F00AFF039801780548FFF797
:1040C00087FE00E0FFE7D7E66CCD000820CD0008B2
:1040D00012D3000843CD00085ECD000883CD000850
:1040E0009CCD000810B5FFB08FB08D906748FFF7EA
:1040F0006FFEFFE7B94800680021CA434EA904F0EB
:10410000D2FF012800D0BFE04EA8407801286CDB28
:10411000FFE74EA84078DC2867DCFFE74EA801786F
:1041200042785B48FFF754FE0DA900200880FFE7A6
:104130000DA801884EA84278002091420C900DDA1B
:10414000FFE70DA80188012000220A9240290B9068
:1041500001DB0A980B900B980C90FFE70C98C007B6
:1041600070B1FFE70DA801884EA84018817850482B
:1041700005F03CFEFFE70D98401C0DA90880D7E72D
:10418000444805F033FE4EA9881C4978424A0792FC
:1041900048AB0693FEF723F9069B07994BAA0992B1
:1041A0001080DC790EA8089004709C7944705C79CA
:1041B0008470499CC470DC7804719C7844715B788D
:1041C0008371489BC37108301288FBF7DBFF0899A5
:1041D00009984C914B9908310180499B489A008875
:1041E00000902E48FFF7CCFD1AE00EA804900021A5
:1041F0000391017041708170C170017141718171D1
:10420000C17108304EAA0592911C5278FBF7BAFF93
:10421000049905984C91407808304BA90880FFE735
:104220004C984BA909884EAB1A78F2338C9C0194B8
:104230000324009402F076F94DA800780290032838
:1042400021D802998A0001A08018874600F006B89C
:1042500000F00DB800F00FB800F011B81348FFF7E8
:104260008FFD64480068042104F00FFC0BE00E4849
:10427000FFF7E6FD07E00B48FFF7E2FD03E0084823
:10428000FFF792FDFFE7FFE734E7C04605CE0008E1
:10429000C2CD000813D300086E020020E3CD000851
:1042A0001CCE0008B0CD000840CE00082DCE00087E
:1042B0003BCD000880B58AB0002007900990FFF739
:1042C00047FB01200390FFF743FB02F0A7FE07988E
:1042D000FFF792FD3E4805F089FDFCF723FD3D48C0
:1042E000FFF776FD0798FFF773FB0398FFF770FB66
:1042F000079A1420642104F04FFD079A364908609C
:104300000A20FC2104F048FD079A34490860032084
:104310008C2104F041FD32490860FEF77BFC3148F6
:10432000FFF756FDFFF7BEFC2F48FFF751FD2F4862
:10433000FEF7E2F82E48FFF74BFD04F091FB014633
:1043400003982C4A116004F015FD079B2A49086068
:104350000193072000902948294940F20012049255
:1043600005F094F8049A079B0193052000902548D6
:10437000254905F08BF8079B019306200090234800
:10438000234940F20022059205F080F8059A079B28
:104390000193042000901F481F4905F077F8079B00
:1043A00001930220089000901C481D49802206922B
:1043B00005F06CF8069A079B08980193009019483D
:1043C000194905F063F803F0F7FDFFE7FEE7C04683
:1043D000ACC90008CFC90008F81700200C0700205E
:1043E0000807002003CA00081CCA000878563412C7
:1043F000E6C900084C03002054070020E52A000805
:1044000071CA0008DD2B000844CA0008E540000816
:104410003ACA0008693E00087ECA00089D8100086B
:104420004FCA0008A129000857CA000880B584B007
:104430000092024600980392029101AA108002980D
:1044400003991C4BC9181288FBF79CFE04B080BD71
:1044500080B588B00790069105A802800799154A93
:1044600089180491069903910088C01C800802A94C
:104470000880FFF773F901A900200880FFE701A871
:10448000008802A9098888420FDAFFE7049801A989
:1044900009888A00801803998958FFF773F9FFE7A4
:1044A0000198401C01A90880E9E7FFF7B5F808B0BA
:1044B00080BDC0460000030810B592B01190109165
:1044C000E848079041F240010691425A3421514395
:1044D00040180F9011980068E3490591FBF7E3FE3F
:1044E000FBF798FF05990F9A108011984068FBF729
:1044F000DAFEFBF78FFF05990F9A508011988068BC
:10450000FBF7D1FEFBF786FF05990F9A9080119873
:10451000C068FBF7C8FEFBF77DFF05990F9AD080B6
:1045200011980069FBF7BFFEFBF774FF05990F9A1E
:10453000108111984069FBF7B6FEFBF76BFF0599F8
:104540000F9A508111988069FBF7ADFEFBF762FF6F
:1045500005990F9A90811198C069FBF7A4FEFBF7AB
:1045600059FF05990F9AD0811198006AFBF79BFEBD
:10457000FBF750FF05990F9A10821198406AFBF7DC
:1045800092FEFBF747FF05990F9A50821198806AB7
:10459000FBF789FEFBF73EFF05990F9A9082119871
:1045A000C06AFBF780FEFBF735FF05990F9AD082B2
:1045B0001198006BFBF777FEFBF72CFF05990F9A1C
:1045C00010831198406BFBF76EFEFBF723FF0599F4
:1045D0000F9A50831198806BFBF765FEFBF71AFF6B
:1045E00005990F9A90831198C06BFBF75CFEFBF75F
:1045F00011FF05990F9AD0831198006CFBF753FEB9
:10460000FBF708FF05990F9A10841198406CFBF78F
:104610004AFEFBF7FFFE05990F9A50841198806CB3
:10462000FBF741FEFBF7F6FE05990F9A908411986F
:10463000C06CFBF738FEFBF7EDFE05990F9AD084AE
:104640001198006DFBF72FFEFBF7E4FE05990F9A1A
:1046500010851198406DFBF726FEFBF7DBFE0599F0
:104660000F9A50851198806DFBF71DFEFBF7D2FE67
:1046700005990F9A90851198C06DFBF714FEFBF712
:10468000C9FE069A014607980F9BD98510990F9B82
:104690001963815A491C5023B1FBF3F46343C91ACF
:1046A00081527249425A521C4252405A132801DC2C
:1046B000FFE7D4E06E480178491C017000780A28B1
:1046C00000DACCE06A4900200870664841F24001F7
:1046D000405A68490988401A5030502190FBF1F245
:1046E0005143411A0EA80180008809280DDCFFE71C
:1046F0005C4841F24001405A46305021B0FBF1F293
:104700005143401A5B490880FFE70DA9002008804B
:10471000FFE70DA80088092820DCFFE7554800883E
:104720000DA90988049140185021B0FBF1F25143C2
:10473000401A342141434B4840180C21405EFBF79E
:1047400057FE4949FBF7ECFD04998A004A49885015
:10475000FFE70D98401C0DA90880DAE74549088855
:104760000A305022B0FBF2F35A43801A08804248C4
:10477000FEF77CFA01460CA80170007800285ED094
:10478000FFE70CA800783C49C96AFDF7F3FF014632
:104790000BA801700078002850D0FFE73548029040
:1047A00000883549898E4018463050210391B0FB6E
:1047B000F1F25143411A0AA8018000883421414393
:1047C00028484018006B0990099804F033F90298C2
:1047D000039900884630B0FBF1F25143401A08A912
:1047E0000880FFF70DF9F0B9FFE70BA801900178F9
:1047F0002348FFF7EDFA09992248FFF7E9FA0199F2
:104800000CA8009000780978099AFEF7DFFD08A847
:104810000088FEF791FE0098019900780978099ABE
:1048200002F01EFB09E01548007828B1FFE708A850
:104830000088FEF781FEFFE7FFE7FFE70EE0FFF7E6
:10484000DFF850B1FFE70D48007818B1FFE7FEF739
:10485000F1FDFFE702F022F8FFE7FFE7FFE712B004
:1048600010BDC0465807002000401C464210000002
:10487000500700202019002010070020CE03002040
:10488000B7CA0008D2CA000880B592B01190A949F1
:104890000A7814200290504310AA10800878401C17
:1048A000032210400870002004900F900E900D908D
:1048B0000C900B900BA90391012005900870FFF755
:1048C0009FF8039A049903460598537091709A498A
:1048D00009780029069001DC04980690039906984F
:1048E000C87096480078087140F2E8308881FFF778
:1048F00041FA0399029A034605980F93CA8101F081
:104900009DFE04980AA90880FFE70AA800881328DA
:1049100000DD09E110980A99411809A80180008872
:104920003B2808DCFFE709A800886021414386484E
:10493000401808900AE009A801886020484381498E
:10494000401841F28061401A0890FFE77F480190CB
:104950000790089800687E490091FBF7A4FCFBF7DC
:1049600059FD0099079A108008984068FBF79BFC56
:10497000FBF750FD0099079A508008988068FBF774
:1049800092FCFBF747FD0099079A90800898C06851
:10499000FBF789FCFBF73EFD0099079AD080089849
:1049A0000069FBF780FCFBF735FD0099079A108141
:1049B00008984069FBF777FCFBF72CFD0099079AF4
:1049C000508108988069FBF76EFCFBF723FD009986
:1049D000079A90810898C069FBF765FCFBF71AFD00
:1049E0000099079AD0810898006AFBF75CFCFBF7F6
:1049F00011FD0099079A10820898406AFBF753FC52
:104A0000FBF708FD0099079A50820898806AFBF727
:104A10004AFCFBF7FFFC0099079A90820898C06A4D
:104A2000FBF741FCFBF7F6FC0099079AD082089847
:104A3000006BFBF738FCFBF7EDFC0099079A10833D
:104A40000898406BFBF72FFCFBF7E4FC0099079AF2
:104A500050830898806BFBF726FCFBF7DBFC009982
:104A6000079A90830898C06BFBF71DFCFBF7D2FCFC
:104A70000099079AD0830898006CFBF714FCFBF7A9
:104A8000C9FC0099079A10840898406CFBF70BFC4E
:104A9000FBF7C0FC0099079A50840898806CFBF7DC
:104AA00002FCFBF7B7FC0099079A90840898C06C49
:104AB000FBF7F9FBFBF7AEFC0099079AD084089846
:104AC000006DFBF7F0FBFBF7A5FC0099079A10853A
:104AD0000898406DFBF7E7FBFBF79CFC0099079AF1
:104AE00050850898806DFBF7DEFBFBF793FC00997F
:104AF000079A90850898C06DFBF7D5FBFBF78AFCF9
:104B000001460198079AD18509A90988079A116376
:104B10003421042201F0C4FD0A98401C0AA908802F
:104B2000C82003F049F8F0E611980549086012B072
:104B300080BDC046221900209C1700206B00002079
:104B400000070020ACAB00082CB30008241900209B
:104B500000401C4680B582B0014601A80170007873
:104B600040B2FCF763FF02B080BD80B584B00A4656
:104B7000014603A80190017002A90A70007840B2B2
:104B80000978FCF78BFF0198007840B2FCF76CFFC6
:104B900004B080BD82B00190009101980099034A51
:104BA000114008430249086002B0704780FFFF1FB0
:104BB00008ED00E080B584B00B4801F06DFC0B48B7
:104BC000029000220192012303931946FEF7DDFFB4
:104BD00001990298039B0322FFF71EF8029803999C
:104BE000FEF790FF04B080BD1305000000080048E8
:104BF00080B588B0079006912E48006804902E4832
:104C0000006803902D480068029071480068001DFC
:104C100002F050FD08B9FFE700E0FFE70798401CED
:104C2000F8B9FFE70698E0B1FFE7FFE725494868D4
:104C30000190019A664803689A60019A9268036835
:104C4000DA600268121D019B9B685A600268121D9F
:104C5000019B9A60006841610868401C0860FFE79A
:104C600026E0049807994018059005985849096866
:104C7000486005980499884207D2FFE70298544992
:104C80000968091D02F079FD11E00398504909688F
:104C9000091D02F072FD059809490968884204D28D
:104CA000FFE705980649086000E0FFE7FFE7FFE738
:104CB00008B080BDB4670020641900206C19002082
:104CC000586700208C67002010B582B0019002F078
:104CD00089FD6C490868401C08603D48006868B957
:104CE000FFE701983A49086066480068012803D147
:104CF000FFE700F07BFB00E0FFE713E035480068CA
:104D000070B9FFE732480068C06A0199C96A8842F1
:104D100004D8FFE701982E49086000E0FFE700E0B3
:104D2000FFE7FFE72C480168491C01600068019912
:104D30000864FFE7FFE70198C06A284909688842CC
:104D400005D9FFE70198C06AFB490860FFE7FFE764
:104D5000FFE70198C16A142210464843F849081831
:104D6000406800900098019B986000988068019BC3
:104D7000D8600198001D009B9B6858600198001D39
:104D8000009B9860019BDC6A1046604308185861DC
:104D90000198C06A42438858401C8850FFE7FFE7EB
:104DA00002F02AFD0B48006878B1FFE7FFE7E3480F
:104DB0000068C06A0199C96A884203D2FFE702F01D
:104DC0009FFE00E0FFE7FFE700E0FFE702B010BD55
:104DD0005C19002080670020846400208864002023
:104DE00080B582B002F0FEFC0F480068B0B9FFE762
:104DF0000E48009002F0A4FC0D48019002F0A0FCC7
:104E000000990198DC4A11600A49086005201021C8
:104E1000002203F0C1FF0449086000E0FFE702F050
:104E2000EBFC02B080BDC046B8670020F8660020E9
:104E30000C6700207019002080B582B0FFE70F4892
:104E40000068C0B1FFE702F0CDFC0D48C068C06843
:104E500001900198001D02F02DFC0A490868401ECF
:104E6000086006490868401E086002F0C5FC019809
:104E700000F014F9E3E702B080BDC0467C64002076
:104E8000A06700207864002080B582B00190009176
:104E90000198006CB8B1FFE701990A6CC8688018E6
:104EA000C8600199C8688968884204D3FFE70199FE
:104EB0000868C86000E0FFE70098019AD168126CAA
:104EC000FBF760F9FFE702B080BD80B586B00590C2
:104ED00004910392002002900598806B0190059840
:104EE000006C78B9FFE70598006848B9FFE70598B6
:104EF000806804F08BFC029005990020886000E037
:104F0000FFE741E00398B8B9FFE7059A50680499B4
:104F1000126CFBF737F905990A6C486880184860ED
:104F2000059948688968884204D3FFE705990868AD
:104F3000486000E0FFE726E0059AD0680499126C0B
:104F4000FBF720F905990A6CC868801AC8600599B2
:104F5000C8680968884206D2FFE7059988680A6C24
:104F6000801AC86000E0FFE70398022809D1FFE734
:104F7000019820B1FFE70198401E019000E0FFE793
:104F800000E0FFE7FFE7FFE70198401C0599886311
:104F9000029806B080BD000080B58AB0012009905B
:104FA000002004900390FFE703980B2810DCFFE734
:104FB000039A1948815C05A881540399405C08B99B
:104FC000FFE705E0FFE7FFE70398401C0390EBE7EE
:104FD00000200890FFE70898002819DCFFE70F4839
:104FE0000490049808998A000D49891800230093B9
:104FF000019105A9802204F049FA0990099808B99D
:10500000FFE705E0FFE7FFE70898401C0890E2E7AC
:1050100009980AB080BDC0464ECC00080D52000869
:105020004C670020F0B58BB0119C109C0A90099140
:10503000089207930898800000F030FD05900598CD
:10504000A0B1FFE7582000F029FD0690069840B176
:10505000FFE706985821FBF7AEF805980699086314
:1050600003E0059802F0DCFBFFE702E00020069079
:10507000FFE7069878B1FFE70A980999089A079B15
:10508000109C119D069E002703970296019500949F
:1050900000F02CF9FFE706980BB0F0BD80B582B0A8
:1050A00001900198006B02F0BBFB019802F0B8FB85
:1050B00002B080BD82B001900198406A38B1FFE72C
:1050C0000198006B01680820401A009002E000205F
:1050D0000090FFE7009802B07047000082B0002007
:1050E00000901548006818B1FFE701200090FFE725
:1050F00012480068C06A18B1FFE70020019018E06C
:10510000D8480068022803D3FFE7002001900FE091
:10511000009818B1FFE70020019008E055480068AA
:105120000190554801680198401A0190FFE7FFE798
:10513000FFE7019802B07047886400205C190020E6
:105140007419002082B001900B4800680068414249
:105150004841019908600198006830B9FFE70648A6
:105160000068C0680068009002E000200090FFE73F
:10517000009802B07047C0466019002084B044F621
:1051800000000090F848029002A80078400770B133
:10519000FFE70298C01D0290029807218843029001
:1051A000029AF1490098891A40180090FFE7029985
:1051B000EC480160002141600298009A801801903B
:1051C00001980838019001980722D24310400190BD
:1051D000019AE74802600268516002681160029912
:1051E00003910199039A891A516000680399086034
:1051F00003984068034908600398406802490860C2
:1052000004B07047546700204867002080B582B022
:105210000190FFE7FFF710FE92480068022803D3D1
:10522000FFE702F06DFC00E0FFE7FFF757FF00909B
:10523000009802281BD3FFE702F02CFF0D480068FE
:105240000D490968884203D2FFE772B6FFE7FEE71F
:10525000FFF744FF00900098022804D3FFE700986E
:1052600002F086FB00E0FFE704F09EFC00E0FFE7B1
:10527000D0E7C04658670020B467002080B582B0F0
:105280000190019868B1FFE70198002383600198BD
:1052900003600198C360019819461A4603F02AFE7C
:1052A00000E0FFE702B080BD10B584B0069C03901B
:1052B0000291019268460370029818B9FFE70698B8
:1052C000006003E0019806990860FFE703980699DB
:1052D000C8630298069908640698012103F09FFDAF
:1052E000009806994C22885404B010BD10B586B0C1
:1052F0000B9C0A9C099C089C0590049103920293C4
:105300000A98006B03998900A522FAF74DFF0A98C5
:10531000016B039880004018001F0190019807213D
:105320008843019001A80078400718B1FFE772B6E2
:10533000FFE7FEE70498F8B1FFE700200090FFE7E1
:1053400000980B2813D8FFE70498009A805C0A990C
:1053500089183422885404980099405C08B9FFE702
:1053600005E0FFE7FFE70098401C0090E8E70A9996
:105370003F220020885400E0FFE70898082803D364
:10538000FFE772B6FFE7FEE70898082803D3FFE7B8
:105390000720089000E0FFE708980A99C86208987B
:1053A0000A9988640A98001D02F0E0F90A981830FA
:1053B00002F0DCF90A98006108990820401A0A995D
:1053C00088610A98406201980A99096B059A029BC4
:1053D00000F0B2FC0A990860099820B1FFE70A982A
:1053E0000999086000E0FFE706B010BD80B584B001
:1053F00000200390FFE7039807280CD8FFE70398E5
:10540000142141431748401802F09AF9FFE7039826
:10541000401C0390EFE70C48019002F091F90B4813
:10542000029002F08DF90A4802F08AF9094802F068
:1054300087F9094802F084F901990298074A116036
:105440000749086004B080BD206700203467002051
:105450006C670020A06700208C6700206419002082
:105460006C1900207419002086B005903D48049006
:10547000FFE7049800680599884205D2FFE7FFE737
:10548000049800680490F4E70498364988421ED0D6
:10549000FFE704990020344A914202900FD3FFE7BE
:1054A00004993148314A8218012000230093914227
:1054B000019001D90098019001980290FFE70298AD
:1054C000C00718B9FFE772B6FFE7FEE7FFE70498E9
:1054D000039003980499496840180599884209D1B6
:1054E000FFE7059842680499486880184860049866
:1054F000059000E0FFE70598039003980599496837
:1055000040180499096888421AD1FFE70498006896
:105510001749096888420DD0FFE70498006842687F
:1055200005994868801848600498006800680599E3
:10553000086004E00E48006805990860FFE704E091
:105540000498006805990860FFE704980599884267
:1055500004D0FFE705980499086000E0FFE706B073
:105560007047C046846700209A1A0020FF47000059
:105570006819002080B586B00590049103920293CB
:1055800000200190049805994860059800610498EE
:105590000399884213D8FFE703980299401A0599A6
:1055A0008969884203D3FFE70120019006E0EB48B8
:1055B00000680599091D02F0E0F8FFE714E0039880
:1055C0000299884208D2FFE704980299884203D3DF
:1055D000FFE70120019006E0DF4800680599091DFA
:1055E00002F0CBF8FFE7FFE7019806B080BDC046A8
:1055F00080B582B0019002F0F5F80198806B18B97F
:10560000FFE70120009002E000200090FFE702F099
:10561000F3F8009802B080BD80B582B0019002F02E
:10562000E1F80198806B0199C96B884203D1FFE7CB
:105630000120009002E000200090FFE702F0DCF87B
:10564000009802B080BD000080B584B00390029144
:10565000C1480068C068C06801900198001D02F050
:1056600029F801982821405C4007002806D5FFE76B
:1056700001980399029A00F003F906E001992822A3
:10568000885CFE2318408854FFE70198016A884728
:1056900004B080BD80B58AB00020099008900790C2
:1056A0000690FFE77548006806A9002203F0FBFC9E
:1056B00000B9A3E0069800280FD5FFE706A8001D53
:1056C0000290029818B9FFE772B6FFE7FEE7029969
:1056D0000A6848688968904700E0FFE70698002854
:1056E00000D58AE0089805900598406928B1FFE741
:1056F0000598001D01F0DEFF00E0FFE704A800F0C0
:10570000EFF803900698401E0190082873D801997D
:105710008A0001A08018874600F010B800F00EB88B
:1057200000F037B800F03CB800F052B800F006B80E
:1057300000F004B800F02DB800F032B80599282226
:10574000885C0123184388540598079B8169591880
:10575000039AFFF70FFFD0B1FFE705982821405CBF
:105760004007002808D5FFE705980799826989183E
:10577000039A00F085F806E005992822885CFE234C
:1057800018408854FFE70598016A884700E0FFE762
:1057900032E005992822885CFE23184088542BE0CB
:1057A00005992822885C0123184388540798059995
:1057B00088610598806918B9FFE772B6FFE7FEE7D0
:1057C0000598039B816959181A46FFF7D3FE13E029
:1057D00005982821405C8007002804D4FFE705983D
:1057E00002F01EF806E005992822885CFE23184086
:1057F0008854FFE700E0FFE7FFE753E70AB080BD0A
:1058000080B584B00390029102F044FC684600F039
:1058100067F80190009858BBFFE7029860B9FFE76E
:1058200003980199884207D8FFE704F0BDF903986F
:105830000199FFF709FF1AE0029838B1FFE74748DE
:1058400000680068414248410290FFE70B48006849
:105850000399019A891A029A02F05EF904F0A4F9F8
:1058600018B9FFE702F04CF900E0FFE7FFE702E0BC
:1058700004F09AF9FFE704B080BDC046B867002085
:1058800080B584B0039002910192FFE70398029BD8
:1058900081695918019AFFF76DFE48B1FFE7039837
:1058A00081690298401802900398016A8847EDE7E1
:1058B00004B080BD08480068006828B9FFE70749C0
:1058C0000020C043086006E003480068C068006824
:1058D00002490860FFE770476419002058670020FC
:1058E00080B582B0019003F073FE009000980A49E1
:1058F0000968884206D2FFE700F010F801990120FC
:10590000086003E0019900200860FFE70098024961
:105910000860009802B080BD5819002080B582B0A0
:10592000FFE70D480068006858B1FFE70A480068C3
:10593000C0680068019001980021C943FFF784FE08
:10594000EFE7054A10680090044908681060009865
:10595000086002B080BDC0466019002070190020A8
:1059600081B00020009008480068401C18B1FFE793
:1059700072B6FFE7FEE772B6FFE7009808B9FFE7E7
:10598000FBE701B07047C0464C00002084B0039094
:105990000291019200200090019850B9FFE703980E
:1059A0000299084203D0FFE70120009000E0FFE7E2
:1059B0000AE0039802990840884203D1FFE70120DA
:1059C000009000E0FFE7FFE7009804B0704780B563
:1059D00084B00390FFE701A8FFF7B4FB02900298A0
:1059E0000199FFF70DFFFFF755FEF4E780B584B08E
:1059F000039001F0F7FE03984521405C02A908706E
:105A0000FFE702A8007840B2012815DBFFE7039802
:105A1000406A58B1FFE70398243004F005F818B144
:105A2000FFE702F0FDF800E0FFE700E004E0029885
:105A3000401E02A90870E4E703994522FF2088541C
:105A400001F0DAFE01F0CEFE03984421405C01A98A
:105A50000870FFE701A8007840B2012815DBFFE7D6
:105A60000398006978B1FFE70398103003F0DCFF7A
:105A700018B1FFE702F0D4F800E0FFE70198401EFC
:105A800001A9087000E000E0E4E703994422FF2048
:105A9000885401F0B1FE04B080BD000080B590B024
:105AA0000F9000200B900F9848B3FFE70F98082144
:105AB000C94388421FD8FFE70F9808300F900FA8FE
:105AC00000784007A8B1FFE70F99072001400820A0
:105AD000401A0A900F980A99C943884205D8FFE7EF
